:100000000C9402010C9423010C9423010C94230101
:100010000C9423010C9423010C9423010C942301D0
:100020000C9423010C9423010C9423010C942301C0
:100030000C9423010C9423010C9423010C942301B0
:100040000C9423010C9423010C9423010C942301A0
:100050000C9423010C9423010C9423010C94230190
:100060000C9423010C9423010C9423010C94230180
:100070000C9423010C9423010C9423010C94230170
:100080000C9423010C9423010C9423010C94230160
:100090000C9423010C9423010C9423010C94230150
:1000A0000C9423010C9423010C9423010C94230140
:1000B0000C9423010C9423010C9423010C94230130
:1000C0000C9423010C9423010C9423010C94230120
:1000D0000C9423010C9423010C9423010C94230110
:1000E0000C9423010C9423010C9423010C94230100
:1000F0000C9423010C9423010C9423010C942301F0
:100100000C9423010C9423010C9423010C942301DF
:100110000C9423010C9423010C9423010C942301CF
:100120000C9423010C9423010C9423010C942301BF
:100130000C9423010C9423010C9423010C942301AF
:100140000C9423010C9423010C9423010C9423019F
:100150000C9423010C9423010C9423010C9423018F
:100160000C9423010C9423010C9423010C9423017F
:100170000C9423010C9423010C9423010C9423016F
:100180000C9423010C9423010C9423010C9423015F
:100190000C9423010C9423010C9423010C9423014F
:1001A0000C94B3010C9423010C9423010C942301AF
:1001B0000C9423010C9423010C9423010C9423012F
:1001C0000C9423010C9423010C9423010C9423011F
:1001D0000C9423010C9423010C9423010C943E06EF
:1001E0000C9466060C9423010C9423010C942301B7
:1001F0000C9423010C9423010C9423010C94D3053B
:100200000C942F0611241FBECFEFCDBFDFE5DEBF5C
:1002100000E00CBF10E2A0E0B0E2EEE6FDE000E09E
:100220000BBF02C007900D92A832B107D9F722E2A6
:10023000A8E2B0E201C01D92A232B207E1F70E942B
:100240004D010C94B5060C9400008BEC8093520089
:10025000809150008860809350008091510083FF0E
:10026000FCCF82EC80935500809150008061809398
:1002700050008091510084FFFCCF88ED84BF84E062
:1002800080934000809150008E7F80935000809139
:1002900050008D7F809350000895CF93DF93CDB7AA
:1002A000DEB7C054D109CDBFDEBF82E08093A10686
:1002B0000E94250160E078E488EE91E00E94F30559
:1002C0000E9468028091A20081608093A2007894CD
:1002D00080E27E0121E2E20EF11CF701282F11924B
:1002E0002A95E9F7FE0131966F0111928A95E9F797
:1002F0000E9411068823A1F00E943306182F8D302A
:1003000031F48DE00E94F1058AE00E94F105812F11
:100310000E94F105198341E0B60181E00E941102BB
:10032000C7010E945502882319F31DA11D3031F425
:100330008DE00E94F1058AE00E94F105812F0E9464
:10034000F105D6CFFC0191818081E82FF0E0E75DD7
:10035000FF4D2081921729F0813019F0908381E0C0
:10036000089580E008951F920F920FB60F92112406
:100370000BB60F921F932F933F934F935F936F93FF
:100380007F938F939F93AF93BF93EF93FF93CF93FD
:10039000DF9300D0CDB7DEB7AE014F5F5F4FBE0138
:1003A0006E5F7F4FCE0103960E943B0389818823B5
:1003B000F9F00E948B05182F682F8AE291E20E94C3
:1003C000A1048AE291E20E94A201882389F082E0DE
:1003D0008093A70681E0809329210E942205F8944A
:1003E000612F8AE291E20E94510578940E94EE0406
:1003F0002396CDBFDEBFDF91CF91FF91EF91BF91EB
:10040000AF919F918F917F916F915F914F913F91AC
:100410002F911F910F900BBE0F900FBE0F901F904A
:100420001895EF92FF921F93CF93DF93CDB7DEB76E
:10043000A097CDBFDEBF4D3158F5FE0135969CE14A
:10044000DF011D929A95E9F791E099839091282018
:100450009A838B834C83DB019E012F5F3F4F790191
:10046000F901642F70E09F012E193F092617370705
:10047000C4F0142F9F5F909328200E942205F894C7
:1004800064E0610FC7010E94510578940E94EE0458
:10049000A096CDBFDEBFDF91CF911F91FF90EF906F
:1004A00008958D9184833196DECF209129212223D6
:1004B00069F0AAE2B1E2FC0180962D912193E81740
:1004C000F907D9F71092292181E0089580E0089575
:1004D0000E94A2020E94C60468E080E30E94F50325
:1004E00084E00E94C60380E20E94D3038CE00E9455
:1004F000E80388E10E94B90380E00E94BF030E94E4
:1005000068050E94F9030E94A8040E94B704E0EA6B
:10051000F6E082858064828782E0868B81852185F2
:1005200090E08C7F8160822B818780E090E20E9446
:10053000590360E070E280E00E9473030E94EE04C1
:100540000C943303E0E4F6E088E0818384E0828366
:1005500082E08183E0EAF6E080E2818380E48283C6
:1005600080E88183E0EAF8E088E1848380EC858399
:10057000178281E0868308958093A0088091A10866
:1005800086FFFCCF8091A10880648093A1088091B0
:10059000A00808951F93CF93DF93C0EAD6E010E23E
:1005A0001E838F710E94BC028FEF0E94BC021D83CC
:1005B000DF91CF911F91089584E00E94CA02282FF5
:1005C00022952F7030E02F5F3F4F9AEF929FA0014E
:1005D000939F500D11248F7090E001969C01429FD3
:1005E000C001439F900D529F900D11240895EF92EA
:1005F000FF920F931F93CF93DF937B01142F90E211
:100600009093A6068F7180620E94BC02082FE701BA
:10061000115058F480E28093A506802FDF91CF918E
:100620001F910F91FF90EF90089589910E94BC0255
:10063000EFCFFF920F931F93CF93DF93F62EC0EA75
:10064000D6E010E21E838F7180620E94BC02082FE8
:100650008F2D0E94BC021D83802FDF91CF911F91AF
:100660000F91FF90089580E00E94CA02682F626097
:1006700080E00C941903EF92FF920F931F93CF9396
:10068000DF937C018B01EA0160E787E00E94190398
:10069000982F9072F7019083982F9071F8019083B2
:1006A00080748883DF91CF911F910F91FF90EF901D
:1006B0000895CF93DF93EC0140910520BC018AE0BF
:1006C0000E94F70240910520BE0180E10E94F702DE
:1006D00060910620603228F481E1DF91CF910C9483
:1006E000190360E2F9CF0F931F93CF93DF93C82FC5
:1006F0008B01811110C04091052050E08AE491E205
:100700000E94AC06EC2FF0E0EE5DFF4D409105201D
:10071000B80180810AC0873038F5E82FF0E0EE5D3F
:10072000FF4D808141E0C13069F30E94F702D0E0C3
:10073000FE01E45EFF4D6091062080810E94190356
:1007400082E00E94CA02CA5EDF4D988161E070E0DB
:1007500001C0660F9A95EAF7682B82E0DF91CF918E
:100760001F910F910C941903DF91CF911F910F915D
:100770000895682F87FD6FE785E00C9419036FE3F8
:10078000811101C060E081E00C941903CF93C82F60
:1007900086E00E94CA02897F6C2F6670682B86E013
:1007A000CF910C941903CF93C82F86E00E94CA0200
:1007B000877D6C2F6872682B86E00E94190386E0A3
:1007C0000E94CA0291E08C1390E0892FCF91089586
:1007D000CF93C82F80E00E94CA02837F6C2F6C7079
:1007E000682B80E0CF910C941903682B84E00C9463
:1007F000190360E787E00C941903DF92EF92FF92F0
:100800000F931F93CF93DF93D82EE92E842FC0919F
:100810000620DC2F6C1708F4D62F90914F21CD1BAA
:100820009111C0E090E29093A6060E94BC02F82EBF
:100830000D2D1E2DD15070F4C15090F480E28093A4
:10084000A5068F2DDF91CF911F910F91FF90EF9013
:10085000DF900895F80181918F010E94BC02EACFD8
:1008600080E00E94BC02E8CF0F931F93CF93DF93E9
:10087000EC01162F042F80E00E94CA02682F6E7FC1
:1008800081FD23C0626080E00E9419038FE79EE330
:100890000197F1F700C000008FE094E00197F1F7B5
:1008A00000C00000402F612FCE010E94FD0380E8B0
:1008B0008093A5069AE69A95F1F700C08093A60664
:1008C000DF91CF911F910F91089580E00E9419034D
:1008D000E3CFDF92EF92FF920F931F93CF93DF93BB
:1008E000D82EE92EC0910620DC2F6C1708F4D62FE5
:1008F00080914F21CD1B8111C0E080E28093A6063C
:1009000081E60E94BC02F82E0D2D1E2DD15070F4F0
:10091000C15098F480E28093A5068F2DDF91CF918E
:100920001F910F91FF90EF90DF9008958FEF0E943D
:10093000BC02F80181938F01E9CF8FEF0E94BC02C6
:10094000E7CF0E94690487E10E94CA02817008957E
:100950001F93CF93DF93C0EAD6E010E21E8382EEAE
:100960000E94BC021D83DF91CF911F9108951F93B8
:10097000CF93DF93C0EAD6E010E21E8381EE0E949F
:10098000BC021D83DF91CF911F9108958FE39CE9F5
:100990000197F1F700C000006FE584E00E941903A1
:1009A00086E00E94C60380E20E94D303882319F0E8
:1009B00081E08093072080E00E94D3038CE00E94B6
:1009C000E80360E08CE10E9419038CE40E94B90303
:1009D0000E94F9030E94A8040C94B70480E00E94CE
:1009E000CA02682F81FD29C0636080E00E9419035C
:1009F0008FE79EE30197F1F700C000008FE094E0DD
:100A00000197F1F700C0000060E787E00E9419033A
:100A1000409105206AE471E28AE00E94F7020E9498
:100A2000A8040E94B70480E88093A5068FE094E0B4
:100A30000197F1F700C000000895616080E00E9416
:100A40001903DCCF80E88093A6060E94A8040C94CA
:100A5000B704CF93DF930E94DC0264E670E00E944B
:100A60009806EB01209761F087E00E94CA02219767
:100A7000EFE1F3E03197F1F700C00000807391F3EC
:100A800087E00E94CA02C82F0E94A8040E94B704EF
:100A900060E787E00E9419038C2F8072DF91CF916D
:100AA000089540EA0E9434040C9429051F93CF93C3
:100AB000DF93C0EAD6E010E21E8380E50E94BC020C
:100AC00083E70E94BC021D83DF91CF911F9108959F
:100AD0008DE10E94CA02682F64608DE10E941903B3
:100AE0008DE10E94CA0281110AC00E9456058DE163
:100AF0000E94CA02682F64608DE10E9419038CE194
:100B00000E94CA02682F6F638CE10E94190381E082
:100B100080934F2108951F93CF93DF93C0EAD6E0CF
:100B200010E21E8380E60E94BC028FEF0E94BC028E
:100B30001D83DF91CF911F91089520911B2291E099
:100B4000920F80911A22943610F09DE9920F891726
:100B500010F0891B08958C59FCCFCF93DF93C82FD9
:100B6000D1E20E949D058823D9F080911B22E82FB5
:100B7000F0E0EA54FE4DC0838F5F843608F080E0D9
:100B80009091A200292F2E7F2093A20080931B22F8
:100B900081E28093A30B9093A200DF91CF910895FF
:100BA000D093A30BDECFCF93DF93D82FCFEF0E944C
:100BB0009D05882379F0CC2389F0DA3019F48DE093
:100BC0000E94AD058D2F0E94AD0590E080E0DF9181
:100BD000CF910895CC2311F0C150E9CF81E090E08E
:100BE000F6CF0C94AD05E0EAF6E098E1928B88E050
:100BF0008583818324E02283E0EAFBE086831782F9
:100C0000948380E28383E0EAF0E0828183608283E0
:100C1000ECE1F2E288E090E2808391838283938327
:100C200008958091B5219091B421891710F0891B06
:100C300008958C59FCCFCF93C091B4210E94110626
:100C40008823E1F3EC2FF0E0E05BFE4D8081CF5F85
:100C5000C43608F0C0E0C093B421CF9108950E943B
:100C60001B0690E008950E941106882321F00E943F
:100C70001B0690E0089580E091E008951F920F9286
:100C80000FB60F9211240BB60F928F939F93EF9391
:100C9000FF938091B521E82FF0E09091A00BE05BED
:100CA000FE4D90838F5F843608F080E09091B421F0
:100CB00098138093B521FF91EF919F918F910F90A1
:100CC0000BBE0F900FBE0F901F9018951F920F92A2
:100CD0000FB60F9211240BB60F922F938F939F9301
:100CE000EF93FF9380911A2290911B22891312C0D7
:100CF00080E28093A30B892F80931A22FF91EF91BA
:100D00009F918F912F910F900BBE0F900FBE0F9060
:100D10001F901895E82FF0E0EA54FE4D20812093B3
:100D2000A00B8F5F843608F080E08913E5CFE0CF19
:100D3000AA1BBB1B51E107C0AA1FBB1FA617B70701
:100D400010F0A61BB70B881F991F5A95A9F780951D
:100D50009095BC01CD010895FB01DC0102C001901A
:0E0D60000D9241505040D8F70895F894FFCFFF
:100D6E0030477270450520010000000300000000AE
:100D7E00D3052F06000000010203040511121314FF
:080D8E0015160A0B0C0D0E0FE7
:00000001FF
