:100000000C9404010C9425010C9425010C942501F9
:100010000C9425010C9425010C9425010C942501C8
:100020000C9425010C9425010C9425010C942501B8
:100030000C9425010C9425010C941E080C942501A8
:100040000C9425010C9425010C9425010C94250198
:100050000C9425010C9425010C9425010C94250188
:100060000C9425010C9425010C9425010C94250178
:100070000C9425010C9425010C9425010C94250168
:100080000C9425010C9425010C9425010C94250158
:100090000C9425010C9425010C9425010C94250148
:1000A0000C9425010C9425010C9425010C94250138
:1000B0000C9425010C9425010C9425010C94250128
:1000C0000C9425010C9425010C9425010C94250118
:1000D0000C9425010C9425010C9425010C94250108
:1000E0000C9425010C9425010C9425010C942501F8
:1000F0000C9425010C9425010C9425010C942501E8
:100100000C9425010C9425010C9425010C942501D7
:100110000C9425010C9425010C9425010C942501C7
:100120000C9425010C9425010C9425010C942501B7
:100130000C9425010C9425010C9425010C942501A7
:100140000C9425010C9425010C9425010C94250197
:100150000C9425010C9425010C9425010C94250187
:100160000C9425010C9425010C9425010C94250177
:100170000C9425010C9425010C9425010C94250167
:100180000C9425010C9425010C9425010C94250157
:100190000C9425010C9425010C9425010C94250147
:1001A0000C947A060C9425010C9425010C942501DD
:1001B0000C9425010C9425010C9425010C94250127
:1001C0000C9425010C9425010C9425010C94250117
:1001D0000C9425010C9425010C9425010C941D030D
:1001E0000C9445030C9425010C9425010C942501D5
:1001F0000C9425010C9425010C9425010C94D31129
:100200000C9419030C94BF0211241FBECFEFCDBF75
:10021000DFE5DEBF00E00CBF10E2A0E0B0E2E6E503
:10022000F2E300E00BBF02C007900D92A43CB107BF
:10023000D9F72BE2A4ECB0E201C01D92A134B207C1
:10024000E1F70E94EE010C9429190C9400008BEC4C
:10025000809352008091500088608093500080917C
:10026000510083FFFCCF82EC8093550080915000B9
:100270008061809350008091510084FFFCCF88ED15
:1002800084BF84E080934000809150008E7F8093F3
:100290005000809150008D7F809350000895CF933F
:1002A000DF9300D01F92CDB7DEB769837A838B834B
:1002B0009C83FA0160838A8181838B8182838C8114
:1002C00083832496CDBFDEBFDF91CF910895CF9376
:1002D000DF93CDB7DEB76C97CDBFDEBFCE01019601
:1002E0002CE1FC0111922A95E9F70E9490048823E1
:1002F00041F08981803429F48A81813011F410928F
:10030000062080910620893160F491E090934706A1
:100310008F5F809306206C96CDBFDEBFDF91CF91BB
:10032000089581E080934606F6CFFF920F931F93C6
:10033000CF93DF93CDB7DEB7A097CDBFDEBFF82E4A
:1003400087E790E00E9484100E94B60B8E01035E46
:100350001F4FA8010E944F018D8D9E8DAF8DB8A1BA
:100360008B839C83AD83BE83F98282E08A8321E004
:1003700046E0BE016F5F7F4F80E40E941E0484E070
:10038000F80111928A95E9F7FFEF23EC89E0F1502B
:1003900020408040E1F700C000000E94C90BA80186
:1003A0000E944F018D8D9E8DAF8DB8A18B839C8354
:1003B000AD83BE83F98283E08A8321E046E0BE01FB
:1003C0006F5F7F4F80E40E941E04A096CDBFDEBF0A
:1003D000DF91CF911F910F91FF900895CF93DF93FD
:1003E000CDB7DEB7A097CDBFDEBF0E94270160E08A
:1003F00078E488EE91E00E94DD0288ED97E208B68D
:1004000018BE84BF909380008091820081FDFCCF54
:1004100008BE0E947703182F0E9486031F921F9325
:100420008DE190E29F938F930E94491681E0809323
:1004300041068091A20081608093A20078942FEB06
:10044000210F2D8F0F900F900F900F902F3090F560
:1004500060E078E488EE91E00E947A0B8CE0809373
:10046000810684E08093860688E08093850600E01C
:1004700080EB810F8E8F90EA910F9F8F20E9210FE3
:1004800028A386E0F82E0E9467018D8D8F3010F52D
:10049000812F0E9495018DE590E20E945D16A8953E
:1004A0009FEF23EC89E0915020408040E1F700C0AD
:1004B0000000E9CF80EB810F803128F482E390E2E5
:1004C0000E945D16D4CF80EA810F803180F684E4EB
:1004D00090E2F6CF9E8D903118F48EE690E2DDCF5B
:1004E0002F8D80E890E22031C0F288A18031B8F6EB
:1004F0001983FA820B8320E043E0BE016F5F7F4FD8
:1005000080E40E941E0489E990E20E945D160F5F5C
:10051000C6CF20918F2191E0920F80918E21943649
:1005200010F09DE9920F891710F0891B08958C59DE
:10053000FCCFCF93DF93C82FD1E20E94890288239A
:10054000D9F080918F21E82FF0E0E65DFE4DC08369
:100550008F5F843608F080E09091A200292F2E7FD3
:100560002093A20080938F2181E28093A30B90932C
:10057000A200DF91CF910895D093A30BDECFCF934C
:10058000DF93D82FCFEF0E948902882379F0CC2304
:1005900089F0DA3019F48DE00E9499028D2F0E94C3
:1005A000990290E080E0DF91CF910895CC2311F083
:1005B000C150E9CF81E090E0F6CFE0EAF6E098E1C3
:1005C000928B88E08583818324E02283E0EAFBE04C
:1005D00086831782948380E28383E0EAF0E082815D
:1005E00083608283EBE3FBE287E090E28083918388
:1005F00082839383089580912921909128218917DE
:1006000010F0891B08958C59FCCFCF93C0912821FD
:100610000E94FB028823E1F3EC2FF0E0EC53FF4D46
:100620008081CF5FC43608F0C0E0C0932821CF910D
:1006300008950E94050390E008951F920F920FB64F
:100640000F9211240BB60F928F939F93EF93FF930A
:1006500080912921E82FF0E09091A00BEC53FF4D01
:1006600090838F5F843608F080E090912821981362
:1006700080932921FF91EF919F918F910F900BBE55
:100680000F900FBE0F901F9018951F920F920FB6EC
:100690000F9211240BB60F922F938F939F93EF938A
:1006A000FF9380918E2190918F21891312C080E257
:1006B0008093A30B892F80938E21FF91EF919F91BF
:1006C0008F912F910F900BBE0F900FBE0F901F9028
:1006D0001895E82FF0E0E65DFE4D20812093A00BF9
:1006E0008F5F843608F080E08913E5CFE0CFE0E249
:1006F000F6E0108288E1808B818B828B838B848BE8
:10070000858B868B878B808580950895CF93C82FA6
:100710001092010886E08093000881E0809306082B
:1007200084ED90E380932608909327080E947F0829
:100730000E94A30A68E080E30E94D20980E00E9440
:10074000A30980E20E94B0098CE00E94C50985E4FB
:100750000E94960980E00E949C090E94450B0E941D
:10076000D6090E94850A0E94940A8091AA06806494
:100770008093AA0682E08093B6068091A906209114
:10078000A90690E08C7F8160822B8093A90685E189
:1007900090E20E94360965E170E280E00E94500913
:1007A0000E94CB0A0E941009C093F222EBE2F3E20E
:1007B0001382379684E2E938F807D1F7CF9108958C
:1007C0008091F1229091F022891710F0891B0895F1
:1007D0008853FCCF0F931F93CF93DF93CDB7DEB732
:1007E0002797CDBFDEBF362F27E0EAEAF0E2DE0131
:1007F000119601900D922A95E1F7FC0120E047E067
:10080000231308C02796CDBFDEBFDF91CF911F9184
:100810000F91089551918F0101501109822F642F7A
:100820000E941811A1E0B0E0AC0FBD1FA90FB11DCF
:100830008C918527D8018C932F5FE2CFEF92FF92A6
:100840000F931F93CF93DF93CDB7DEB7A097CDBFA4
:10085000DEBF4D3108F04DC0FE0133969EE1DF0151
:100860001D929A95E9F79091F222998393E09A83E9
:100870008C83ABE2B3E2F0E0E0E013969C91139737
:10088000992309F442C09C9198133FC097E09E9F22
:10089000D0019F9FB00D1124A55DBC4D15969C9174
:1008A000911131C08B838B81882319F1142F072F6D
:1008B000F62E222329F0642F8F2D972F0E94EA0312
:1008C000AF2DB02FCE0101967C01FC01212F30E02D
:1008D000CF018E199F0982179307F4F00E94FF0A37
:1008E000F89464E0610FC7010E942E0B78940E9477
:1008F000CB0AA096CDBFDEBFDF91CF911F910F91A4
:10090000FF90EF9008959B83CECF31961796E233F8
:10091000F10509F0B2CFC7CF8D9184833196D8CF3E
:10092000EF92FF920F931F93CF93DF937C018C0183
:10093000D0E0C091F0220E94E003882399F0EC2FD0
:10094000F0E0E85DFD4D9081CF5FC83C08F0C0E06D
:10095000C093F0229D3031F0F80191938F01DF5F59
:10096000DC3139F76D2FC7010E94EA038D2FDF912B
:10097000CF911F910F91FF90EF900895ABE2B3E2FA
:10098000FD0130E020E093819923D9F09081981304
:1009900018C087E0829FF001839FF00D1124E55D70
:1009A000FC4D818192810A9681839283158221E098
:1009B00026838734910554F186E490E08183928305
:1009C00008952F5F3F4F379622333105E1F630E02F
:1009D00020E013969C911397911112C097E0929F7B
:1009E000F001939FF00D1124E55DFC4D80838AE0BA
:1009F00090E08183928381E08383158286830895CA
:100A00002F5F3F4F17962233310519F70895EBE218
:100A1000F3E230E020E0908198130AC087E0829FE3
:100A2000F001839FF00D1124E55DFC4D8481089554
:100A30002F5F3F4F37962233310569F780E00895E5
:100A4000CF93DF93FC0150E040E070E08DE064174D
:100A500075071CF4DF91CF9108959091F122292F11
:100A600030E06417750781F4285D3D4DD9018C9302
:100A70009F5F983C08F090E02091F022291390931A
:100A8000F1224F5F5F4FE3CFDF01A40FB51FAC91A1
:100A9000285D3D4DE901A883EBCFE9E8F4E230E0C1
:100AA00020E091919923B9F0D901A750BD4D9C91B7
:100AB000981311C0F90185E0EE0FFF1F8A95E1F749
:100AC000E554FB4D10821182168E178E27573B4D31
:100AD000F901108208952F5F3F4F2233310509F746
:100AE0000895CF93DF93EC01EBE2F3E28381882357
:100AF00021F08581841301C01382379684E2E9389E
:100B0000F807A1F7FE01CF018C1B9D0B86179707F5
:100B1000B8F550815523A1F18091F222851709F48F
:100B200054C091819F3008F050C0ABE2B3E230E096
:100B300020E013968C911397882329F18C918513CB
:100B400022C087E0829FF001839FF00D1124E55DB4
:100B5000FC4D8681692F70E06F5F7F4F8617170607
:100B600009F01CF4848181110BC087E0829FF001A1
:100B7000839FF00D1124E55DFC4D45839F5F9683B7
:100B8000DF91CF9108952F5F3F4F179622333105A4
:100B900081F6ABE2B3E230E020E013968C9113973C
:100BA00081110DC087E0829FF001839FF00D112419
:100BB000E55DFC4D508381E083838483DECF2F5F2E
:100BC0003F4F17962233310541F732969CCFCF9293
:100BD000DF92EF92FF920F931F93CF93DF93E9E899
:100BE000EE2EE4E2FE2EE701F0E0E0E09991992399
:100BF00039F08F0107501D4DD8019C91981721F1B4
:100C00003196E233F10591F7F0E0E0E0D7019D91F4
:100C10007D01911150C0DF01A750BD4D8C9391E033
:100C2000DF01A757BB4D9C93DF0155E0AA0FBB1F07
:100C30005A95E1F7A554BB4D1C9211961C92119741
:100C40005E961D921C925F97922F92959F702F70C7
:100C50006F0135E0CC0CDD1C3A95E1F7D601A554C7
:100C6000BB4D3C91311103C09C9311962C93E6012E
:100C7000C554DB4D3881391323C09981921320C0AC
:100C8000262FDB018E01025E1F4FF801608171810A
:100C90009A2F921B9417E8F06C31710588F0482F59
:100CA000C60183549B4D0E94710518821982D80198
:100CB0001D921C9205C03196E233F10509F0A6CFD2
:100CC000DF91CF911F910F91FF90EF90DF90CF9028
:100CD00008956C31710560F47B01EFEFEE1AFE0AA6
:100CE000F801E082F1829C916C0F7D1FFB019283E1
:100CF0001196CBCF1F920F920FB60F9211240BB605
:100D00000F92EF92FF920F931F932F933F934F9366
:100D10005F936F937F938F939F93AF93BF93EF9363
:100D2000FF93CF93DF93CDB7DEB7A397CDBFDEBFE1
:100D3000CE0101967C0180E2F70111928A95E9F7D4
:100D4000AE014F5D5F4FBE016E5D7F4FCE0183965A
:100D50000E94180989A18823C9F00E94680B182FE6
:100D6000682FC7010E947E0AF89489810E94BE0400
:100D70000981802F0E940705882341F08A818130F4
:100D800020F08330F8F0833039F17894A396CDBF0A
:100D9000DEBFDF91CF91FF91EF91BF91AF919F9116
:100DA0008F917F916F915F914F913F912F911F9103
:100DB0000F91FF90EF900F900BBE0F900FBE0F9012
:100DC0001F9018954EEF410F2B81BE016C5F7F4F36
:100DD000802F0E94E705D9CF8091F2229B81981342
:100DE000D4CF8C819091F2224CEF410F891739F0CA
:100DF00020E0BE016B5F7F4F0E941E04C6CF642FB0
:100E0000CE0105960E942005C0CF6F927F928F92EF
:100E10009F92AF92BF92CF92DF92EF92FF921F9379
:100E2000CF93DF93CDB7DEB76C97CDBFDEBF109207
:100E30002622109227227C014C0182EA881A8EEF2A
:100E4000980A10E0D70113968C9113978823D1F15B
:100E500014968C918823B1F121E0210FA1E0B0E03C
:100E6000AC0FBD1FA10FB11DF70180818C931E5FD8
:100E7000E1E0F0E0EC0FFD1FE20FF11DD701169647
:100E80008C9180831C31F0F0612E712CD090262241
:100E9000AD2CB12CC3010E941B15F501EE0FFF1FF5
:100EA000E057FE4D80839183A301BE016F5F7F4FAA
:100EB0000E944016F501EC50FE4D1083D394D09261
:100EC000262210E0B7E0EB0EF11C8E149F0409F00F
:100ED000B9CF1123E9F0A12EB12CF0902622CF2C0E
:100EE000D12CC5010E941B15F601EE0FFF1FE05724
:100EF000FE4D80839183A501BE016F5F7F4F0E94ED
:100F00004016F601EC50FE4D1083F394F092262229
:100F10006C96CDBFDEBFDF91CF911F91FF90EF9018
:100F2000DF90CF90BF90AF909F908F907F906F9009
:100F30000895FF920F931F93CF93DF93CDB7DEB742
:100F4000A097CDBFDEBF90912722809126229817CF
:100F500020F08BE293E20E94050730912622DE0109
:100F600013968E010F5F1F4F332309F450C08091F9
:100F7000272290E0FC01EE0FFF1FE057FE4D50814D
:100F80004181FC01EC50FE4DF080BC01E4E0660FB5
:100F9000771FEA95E1F7232F2F70262B019638173C
:100FA000190679F181E09EE1FD0111929A95E9F728
:100FB0009091F22299838A832B83A52FB42FF80175
:100FC0002F2D30E0CF01801B910B82179307DCF0AF
:100FD0000E94FF0AF89464E06F0DC8010E942E0B76
:100FE00078940E94CB0A809127228F5F80932722DA
:100FF000A096CDBFDEBFDF91CF911F910F91FF90E3
:10100000089582E0D0CF8D9183833196DBCF8EE13E
:10101000FD0111928A95E9F78091F222898382E09D
:101020008A8381E08B830E94FF0AF89464E0C80100
:101030000E942E0B78940E94CB0ADACF1F920F9257
:101040000FB60F9211240BB60F921F932F933F935D
:101050004F935F936F937F938F939F93AF93BF93C0
:10106000CF93DF93EF93FF93CBE2D3E211E089813B
:101070009A81181619061CF4019789839A838B812B
:10108000882359F08D81811108C089819A81009748
:1010900009F51B8288810E944D05279684E2C93894
:1010A000D80729F70E949907FF91EF91DF91CF911F
:1010B000BF91AF919F918F917F916F915F914F9170
:1010C0003F912F911F910F900BBE0F900FBE0F906D
:1010D0001F9018954F9714F01C83DFCF1C82EBE212
:1010E000F3E28381882329F095818881981301C0D8
:1010F0001382379684E2E938F80799F7CECFE0E417
:10110000F6E088E0818384E0828382E08183E0EA04
:10111000F6E080E2818380E4828380E88183E0EAF4
:10112000F8E088E1848380EC8583178281E0868300
:1011300008958093A0088091A10886FFFCCF80913C
:10114000A10880648093A1088091A00808951F934E
:10115000CF93DF93C0EAD6E010E21E838F710E9426
:1011600099088FEF0E9499081D83DF91CF911F91FD
:10117000089584E00E94A708282F22952F7030E060
:101180002F5F3F4F9AEF929FA001939F500D112424
:101190008F7090E001969C01429FC001439F900D8B
:1011A000529F900D11240895EF92FF920F931F9379
:1011B000CF93DF937B01142F90E29093A6068F715B
:1011C00080620E949908082FE701115058F480E2CC
:1011D0008093A506802FDF91CF911F910F91FF90F3
:1011E000EF90089589910E949908EFCFFF920F9395
:1011F0001F93CF93DF93F62EC0EAD6E010E21E8352
:101200008F7180620E949908082F8F2D0E94990883
:101210001D83802FDF91CF911F910F91FF90089533
:1012200080E00E94A708682F626080E00C94F608B6
:10123000EF92FF920F931F93CF93DF937C018B016B
:10124000EA0160E787E00E94F608982F9072F701A4
:101250009083982F9071F801908380748883DF9138
:10126000CF911F910F91FF90EF900895CF93DF934F
:10127000EC0140911A20BC018AE00E94D408409100
:101280001A20BE0180E10E94D40860911B206032C8
:1012900028F481E1DF91CF910C94F60860E2F9CF58
:1012A0000F931F93CF93DF93C82F8B01811110C031
:1012B00040911A2050E083EF92E20E944016EC2FFA
:1012C000F0E0E354FF4D40911A20B80180810AC03C
:1012D000873038F5E82FF0E0E354FF4D808141E09E
:1012E000C13069F30E94D408D0E0FE01E954FF4DFB
:1012F00060911B2080810E94F60882E00E94A7086E
:10130000CF54DF4D988161E070E001C0660F9A957F
:10131000EAF7682B82E0DF91CF911F910F910C9437
:10132000F608DF91CF911F910F910895682F87FDE7
:101330006FE785E00C94F6086FE3811101C060E06F
:1013400081E00C94F608CF93C82F86E00E94A7088E
:10135000897F6C2F6670682B86E0CF910C94F6081D
:10136000CF93C82F86E00E94A708877D6C2F6872F4
:10137000682B86E00E94F60886E00E94A70891E0AC
:101380008C1390E0892FCF910895CF93C82F80E0E0
:101390000E94A708837F6C2F6C70682B80E0CF9130
:1013A0000C94F608682B84E00C94F60860E787E05C
:1013B0000C94F608DF92EF92FF920F931F93CF9356
:1013C000DF93D82EE92E842FC0911B20DC2F6C17C1
:1013D00008F4D62F9091F822CD1B9111C0E090E235
:1013E0009093A6060E949908F82E0D2D1E2DD1501F
:1013F00070F4C15090F480E28093A5068F2DDF91A8
:10140000CF911F910F91FF90EF90DF900895F80119
:1014100081918F010E949908EACF80E00E9499088B
:10142000E8CF0F931F93CF93DF93EC01162F042F78
:1014300080E00E94A708682F6E7F81FD23C0626054
:1014400080E00E94F6088FE79EE30197F1F700C065
:1014500000008FE094E00197F1F700C00000402FFA
:10146000612FCE010E94DA0980E88093A5069AE6F2
:101470009A95F1F700C08093A606DF91CF911F9156
:101480000F91089580E00E94F608E3CFDF92EF927B
:10149000FF920F931F93CF93DF93D82EE92EC09125
:1014A0001B20DC2F6C1708F4D62F8091F822CD1B5F
:1014B0008111C0E080E28093A60681E60E9499082F
:1014C000F82E0D2D1E2DD15070F4C15098F480E2ED
:1014D0008093A5068F2DDF91CF911F910F91FF90E3
:1014E000EF90DF9008958FEF0E949908F8018193A3
:1014F0008F01E9CF8FEF0E949908E7CF0E94460A3B
:1015000087E10E94A708817008951F93CF93DF930E
:10151000C0EAD6E010E21E8382EE0E9499081D8385
:10152000DF91CF911F9108951F93CF93DF93C0EA6E
:10153000D6E010E21E8381EE0E9499081D83DF91A0
:10154000CF911F9108958FE39CE90197F1F700C0B7
:1015500000006FE584E00E94F60886E00E94A3097F
:1015600080E20E94B009882319F081E080931C205A
:1015700080E00E94B0098CE00E94C50960E08CE127
:101580000E94F6088CE40E9496090E94D6090E94E7
:10159000850A0C94940A80E00E94A708682F81FDB8
:1015A00029C0636080E00E94F6088FE79EE3019700
:1015B000F1F700C000008FE094E00197F1F700C060
:1015C000000060E787E00E94F60840911A2063EF70
:1015D00072E28AE00E94D4080E94850A0E94940A5E
:1015E00080E88093A5068FE094E00197F1F700C0B2
:1015F00000000895616080E00E94F608DCCF80E87A
:101600008093A6060E94850A0C94940ACF93DF93D8
:101610000E94B90864E670E00E942411EB01209753
:1016200061F087E00E94A7082197EFE1F3E031978E
:10163000F1F700C00000807391F387E00E94A708D3
:10164000C82F0E94850A0E94940A60E787E00E94E2
:10165000F6088C2F8072DF91CF91089540EA0E94A6
:10166000110A0C94060B1F93CF93DF93C0EAD6E0C8
:1016700010E21E8380E50E94990883E70E94990882
:101680001D83DF91CF911F9108958DE10E94A708DE
:10169000682F64608DE10E94F6088DE10E94A70822
:1016A00081110AC00E94330B8DE10E94A708682FA8
:1016B00064608DE10E94F6088CE10E94A708682F03
:1016C0006F638CE10E94F60881E08093F822089510
:1016D0001F93CF93DF93C0EAD6E010E21E8380E62B
:1016E0000E9499088FEF0E9499081D83DF91CF9186
:1016F0001F91089520EA34E02093352B3093362B48
:1017000027E72093202B1092292B10922A2B10923E
:101710002B2B10922C2B10921C2B10921D2B109205
:101720001E2B10921F2B1092252B1092262B1092FD
:10173000272B1092282B1092212B1092222B1092E3
:10174000232B1092242BE0E8F6E023E0218328E30A
:10175000208B218B20E035E34CE050E00E943811D3
:101760006BEF620F80EA94E00C9496102091292B85
:1017700030912A2B40912B2B50912C2B60911C2BBC
:1017800070911D2B80911E2B90911F2B0E94EE12A9
:1017900008956091252B7091262B8091272B909195
:1017A000282B0895CF93DF93D82FC62F40E0609168
:1017B000202B8091352B9091362B0E94AA106D2FF3
:1017C0008091352B9091362B0E94EA106C2F8091DE
:1017D000352B9091362B0E94EA108091352B9091F9
:1017E000362BDF91CF910C94E410CF93C82F40E0BB
:1017F0006091202B8091352B9091362B0E94AA105E
:101800006C2F8091352B9091362B0E94EA1041E08D
:101810006091202B8091352B9091362B0E94CA101D
:1018200061E08091352B9091362B0E94F810C82FE3
:101830008091352B9091362B0E94E4108C2FCF9104
:101840000895CF93DF93C82F40E06091202B8091C3
:10185000352B9091362B0E94AA106C2F8091352B3E
:101860009091362B0E94EA1041E06091202B8091EC
:10187000352B9091362B0E94CA1060E08091352B59
:101880009091362B0E94F810D82F61E08091352B73
:101890009091362B0E94F810C82F8091352B909193
:1018A000362B0E94E410CE01DF91CF9108954F9224
:1018B0005F926F927F928F929F92AF92BF92CF92E0
:1018C000DF92EF92FF928DEF0E94210C8090312BDE
:1018D0009090322BA090332BB090342B2CE2921AA4
:1018E00021E0A20AB108B0E0A0E06C017D013EE079
:1018F000CC0CDD1CEE1CFF1C3A95D1F78091172B08
:101900009091182B092E000CAA0BBB0B44E1880FF9
:10191000991FAA1FBB1F4A95D1F7C81AD90AEA0A0C
:10192000FB0AA091192BB0911A2BA50194010E94DA
:101930006511C61AD70AE80AF90A80E4D80EE11C34
:10194000F11C6FE0F594E794D794C7946A95D1F7AA
:10195000A091162BB0E00E945A112B013C017BE0B4
:1019600075946794579447947A95D1F720E8520E6E
:10197000611C711CA0911B2B0A2E000CBB0B940147
:101980000E946511EAE09595879577956795EA95A8
:10199000D1F7A30192010E9408119B01AC01FAE06A
:1019A0005595479537952795FA95D1F7405E5F4F46
:1019B000A091142BB091152B0E946511705E8F4F72
:1019C0009F4FAEE09595879577956795AA95D1F746
:1019D000A70196010E9408116B017C01BFE095955B
:1019E000879577956795BA95D1F79B01AC010E94D1
:1019F00008119B01AC0187E05595479537952795D0
:101A00008A95D1F7A091132BB0E00E945A1124E0DF
:101A100095958795779567952A95D1F7C61AD70A30
:101A2000E80AF90AF7FE03C0C12CD12C7601C701E0
:101A3000B60161307105810529E1920724F060E06B
:101A400070E080E099E12CE0959587957795679512
:101A50002A95D1F70E94D41320E030E040E85AE301
:101A60000E94AE146093252B7093262B8093272B16
:101A70009093282BFF90EF90DF90CF90BF90AF9086
:101A80009F908F907F906F905F904F9008950E94ED
:101A9000210C98278927982708951F93CF93DF93C8
:101AA00088E80E94470DCBEFDAE2888399838AE8C1
:101AB0000E94470D8A839B838CE80E94470D8C838C
:101AC0009D838EE80E94470D8E839F8380E90E944C
:101AD000470D8887998782E90E94470D8A879B87EF
:101AE00084E90E94470D8C879D8786E90E94470DF7
:101AF0008E879F8788E90E94470D888B998B8AE99A
:101B00000E94470D8A8B9B8B8CE90E94470D8C8B22
:101B10009D8B8EE90E94470D8E8B9F8B81EA0E94E0
:101B2000F50B888F81EE0E94470D898F9A8F83EE87
:101B30000E94F50B8B8F84EE0E94F50B182F85EE1B
:101B40000E94F50B90E1199F900111248F70282BB2
:101B50002C8F3D8F86EE0E94F50B182F85EE0E948C
:101B6000F50B90E1199F9001112482958F70282B1D
:101B70002E8F3F8F87EE0E94F50B88A3DF91CF91C8
:101B80001F910895CF92DF92EF92FF92F82E40E0DE
:101B90006091202B8091352B9091362B0E94AA10BA
:101BA0006F2D8091352B9091362B0E94EA1041E0E9
:101BB0006091202B8091352B9091362B0E94CA107A
:101BC00060E08091352B9091362B0E94F81090E0C8
:101BD000B0E0A0E0CC24D82EE92EFA2E60E080916F
:101BE000352B9091362B0E94F810C82AFE2CED2C34
:101BF000DC2CCC2461E08091352B9091362B0E9417
:101C0000F810C82A8091352B9091362B0E94E41051
:101C1000C701B601FF90EF90DF90CF9008958F92AB
:101C20009F92AF92BF92CF92DF92EF92FF920F936B
:101C30001F938AEF0E94C20DEBEFFAE2008111813F
:101C400030E020E0C72ED82EE92EFF24E7FCFA94DE
:101C5000C01AD10AE20AF30A57E09595879577955D
:101C600067955A95D1F7000F111F221F331F4B01A3
:101C70005C01801A910AA20AB30AA5019401A2810B
:101C8000B3810E9465114B015C01BBE0B594A79440
:101C900097948794BA95D1F7A7019601C701B60129
:101CA0000E9408119B01AC011CE0559547953795A2
:101CB00027951A95D1F7A481B5810E9465119B01E2
:101CC000AC010EE055954795379527950A95D1F7C4
:101CD000280D391D4A1D5B1D2093312B3093322B6B
:101CE0004093332B5093342BA5E0B0E00E945A115F
:101CF00060587F4F8F4F9F4F672F782F892F9927DD
:101D000087FD9A950E94D41320E030E048EC52E41D
:101D10000E945A1360931C2B70931D2B80931E2BD3
:101D200090931F2B1F910F91FF90EF90DF90CF901A
:101D3000BF90AF909F908F9008952F923F924F92B7
:101D40005F926F927F928F929F92AF92BF92CF924B
:101D5000DF92EF92FF920F931F93CF93DF93CDB754
:101D6000DEB76497CDBFDEBF87EF0E94C20D698BDF
:101D70007A8B8B8B9C8B8091312B9091322BA09105
:101D8000332BB091342B6C017D01FF0CCC08DC2C83
:101D900076019C01AD016C2D7C2D8C2D9C2D345F2A
:101DA00041405109610971098109910929013A01EB
:101DB0004B011C0159016A017B018C010E946D11CC
:101DC00029833A834B835C836D837E838F839887DB
:101DD00030910C2B20910B2B932F990F990BA980ED
:101DE000BA806A017B01082F1885492F592F692F66
:101DF000792F892F0E946D1129873A874B875C873D
:101E00006D877E878F87988B30910A2B2091092BC5
:101E1000932F990F990B5201630174018101492F8E
:101E2000592F692F792F892F0E946D1101E10E948E
:101E30009612A984BA84CB84DC84ED84FE840F8559
:101E400018890E94CC1229873A874B875C876D8757
:101E50007E878F87988B3091042B2091032B932FB3
:101E6000990F990B5201630174018101492F592F78
:101E7000692F792F892F0E946D110CE00E94961214
:101E800029013A014B011C013091062B2091052BB1
:101E9000932F990F990BA980BA80CB80DC80ED80BD
:101EA000FE800F811885492F592F692F792F892F8F
:101EB0000E946D1108E00E94AF125201630174018B
:101EC00081010E94CC1270588F4F9F4F2090012BA0
:101ED0003090022B5101C12CD12CE12CF12C00E0CF
:101EE00010E00E946D1139014A0169837A838B8366
:101EF0009C8349895A896B897C8934E075956795FB
:101F0000579547953A95D1F780E090E0A0E1B0E091
:101F1000841B950BA60BB70B6C017D01FF0CCC0845
:101F2000DC2C76019C01AD016C2D7C2D8C2D9C2D23
:101F30000FE10E94961219012A01B62FA72FF82F40
:101F4000E92F3091082B2091072B932F990F990B94
:101F5000492F592F692F792F892F03E20E9496125A
:101F6000A984BA84CB84DC84ED84FE840F8518892F
:101F70000E94CC1259016A017B018C019101A201DE
:101F80006B2F7A2F8F2F9E2F0E94D512E5E3AE2E56
:101F9000FCE0BF2EC12CD12CE12CF12C00E010E094
:101FA0000E946D1119012A01B62FA72FF82FE92FD2
:101FB0009301A40169817A818B819C8101E20E9455
:101FC000AF1259016A017B018C019101A2016B2FB3
:101FD0007A2F8F2F9E2F0E94C71129833A834B831C
:101FE0005C836D837E838F8398870DE00E94AF12A0
:101FF000922E832E742E652E562E472E382E292E85
:102000003091122B2091112B932F990F990BA92C02
:10201000B82CC72CD62CE52CF42C032D122D492FCF
:10202000592F692F792F892F0E946D110E946D11F0
:1020300009E10E94AF12A980BA80CB80DC80ED80DC
:10204000FE800F8118850E94CC1219012A013B01E4
:102050004C013091102B20910F2B932F990F990B3E
:10206000492F592F692F792F892F0E946D1103E174
:102070000E94AF1259016A017B018C019101A201FA
:10208000B301C4010E94CC1208E00E94AF125901B2
:102090006A017B01E82F192F30910E2B20910D2B17
:1020A000932F990F990B492F592F692F792F892F2A
:1020B00004E00E9496120E2F0E94CC120E94CC13B4
:1020C00020E030E040E85BE30E94AE146093212BF7
:1020D0007093222B8093232B9093242B6496CDBF57
:1020E000DEBFDF91CF911F910F91FF90EF90DF90B6
:1020F000CF90BF90AF909F908F907F906F905F90A8
:102100004F903F902F9008958093202B0E944D0D6B
:1021100061E082EF0E94D20B6FE384EF0E94D20B4A
:102120000E940F0E0E94570C0C949D0EFC01A0E81B
:10213000B6E083E011968C93119788E350968C93C8
:10214000509751968C936583138288E0818381E058
:1021500084830895FC01848183708130B9F4660F13
:10216000642B668320E430E002C0220F331F4A95BF
:10217000E2F7848190E082239323892BD1F3848139
:1021800084FF06C083E0838382E0089581E00895A0
:1021900080E00895FC01660F642B668380E490E084
:1021A00002C0880F991F4A95E2F7248130E0282366
:1021B0003923232BD1F3848184FF04C083E08383FC
:1021C00082E0089580E0089523E0FC01238321E06C
:1021D00024830895FC016783848186FFFDCF848179
:1021E00084FF04C083E0838382E0089580E0089543
:1021F000FC01848187FFFDCF878197E0611101C0D9
:1022000092E09383613019F4948190FFFDCF08959B
:10221000DB018F939F930E945A11BF91AF91A29FB0
:10222000800D911DA39F900DB29F900D11240895D4
:10223000991B79E004C0991F961708F0961B881F18
:102240007A95C9F780950895AA1BBB1B51E107C079
:10225000AA1FBB1FA617B70710F0A61BB70B881F36
:10226000991F5A95A9F780959095BC01CD010895C5
:10227000A1E21A2EAA1BBB1BFD010DC0AA1FBB1F8A
:10228000EE1FFF1FA217B307E407F50720F0A21BFC
:10229000B30BE40BF50B661F771F881F991F1A9469
:1022A00069F760957095809590959B01AC01BD0193
:1022B000CF0108950E94DE12A59F900DB49F900D4E
:1022C000A49F800D911D11240895B7FF0C945A11FD
:1022D0000E945A11821B930B0895DF93CF931F9393
:1022E0000F939A9DF02D219FF00D8B9DF00D8A9DEF
:1022F000E02DF10D039FF00D029FE00DF11D4E9DAD
:10230000E00DF11D5E9DF00D4F9DF00D7F936F93DD
:10231000BF92AF925F934F93D5010E94DE128B0163
:10232000AC01D7010E94DE12EB01E80FF91FD601C4
:102330000E94BC112F913F91D6010E94DE12C60F60
:10234000D71FE81FF91FAF91BF910E94BC112F91B9
:102350003F910E94DE12C60FD71FE81FF91FD6015A
:102360000E94DE12E60FF71F9801BE01CF010F9108
:102370001F91CF91DF9108950E94DE12460F571FE3
:10238000C81FD91F08F431960895689401C0E894D5
:10239000F92FF12B12F00C94F911A0E0B0E0E3ED6D
:1023A000F1E10C946B12092E059422F40E9455124F
:1023B000112392F4F0E80F26FFEFE094F0940095DB
:1023C0001095B094C094D094A194BF0ACF0ADF0AAC
:1023D000EF0AFF0A0F0B1F0B0E94041207FC0E945A
:1023E0005512CDB7DEB7ECE00C948412689401C0AE
:1023F000E8948F929F92CF93DF930E940412DF9113
:10240000CF919F908F90089588249924F401E4013E
:10241000B0E49F93AA279A158B049C04ED05FE0552
:10242000CF05D007A10798F4AD2FDC2FCF2FFE2FBB
:10243000E92D982C892E982F872F762F652F542FD2
:10244000432F322F2227B85031F7BF9127C01B2EC0
:10245000BF91BB27220F331F441F551F661F771FD5
:10246000881F991F881C991CEE1FFF1FCC1FDD1FA2
:10247000AA1FBB1F8A149B04EC05FD05CE05DF05D2
:10248000A007B10748F08A189B08EC09FD09CE099E
:10249000DF09A00BB10B21601A94E1F62EF4940130
:1024A000AF01BE01CD01000C089560957095809537
:1024B000909530954095509521953F4F4F4F5F4FE8
:1024C0006F4F7F4F8F4F9F4F08952F923F924F92A4
:1024D0005F926F927F928F929F92AF92BF92CF92B4
:1024E000DF92EF92FF920F931F93CF93DF93CDB7BD
:1024F000DEB7CA1BDB0BCDBFDEBF19942A88398833
:1025000048885F846E847D848C849B84AA84B9848B
:10251000C884DF80EE80FD800C811B81AA81B98197
:10252000CE0FD11DCDBFDEBFED010895002E0830C6
:1025300090F0982F872F762F652F542F432F322F0F
:1025400022270850F4CF220F331F441F551F661F48
:10255000771F881F991F0A95B2F7002D089597FDE0
:102560001094002E083098F00850232F342F452F58
:10257000562F672F782F892F912DF4CF159497958B
:1025800087957795679557954795379527950A9538
:10259000AAF71124002D08952A0D3B1D4C1D5D1D29
:1025A0006E1D7F1D801F911F08952A193B094C093C
:1025B0005D096E097F09800B910B0895A29FB00100
:1025C000B39FC001A39F700D811D1124911DB29F67
:1025D000700D811D1124911D08955058BB27AA2705
:1025E0000E9405130C9474140E94661438F00E9423
:1025F0006D1420F039F49F3F19F426F40C94531411
:102600000EF4E095E7FB0C944D14E92F0E9485141D
:1026100058F3BA17620773078407950720F079F417
:10262000A6F50C94A7140EF4E0950B2EBA2FA02D4E
:102630000B01B90190010C01CA01A0011124FF276F
:10264000591B99F0593F50F4503E68F11A16F0406A
:10265000A22F232F342F4427585FF3CF4695379569
:102660002795A795F0405395C9F77EF41F16BA0B2E
:10267000620B730B840BBAF09150A1F0FF0FBB1FDC
:10268000661F771F881FC2F70EC0BA0F621F731F25
:10269000841F48F4879577956795B795F7959E3F82
:1026A00008F0B0CF9395880F08F09927EE0F979513
:1026B000879508950E946E130C9474140E946D14F3
:1026C00058F00E94661440F029F45F3F29F00C9402
:1026D0004D1451110C94A8140C9453140E94851499
:1026E00068F39923B1F3552391F3951B550BBB2741
:1026F000AA2762177307840738F09F5F5F4F220F86
:10270000331F441FAA1FA9F335D00E2E3AF0E0E87C
:1027100032D091505040E695001CCAF72BD0FE2FC6
:1027200029D0660F771F881FBB1F2617370748075A
:10273000AB07B0E809F0BB0B802DBF01FF27935812
:102740005F4F3AF09E3F510578F00C944D140C9475
:10275000A8145F3FE4F3983ED4F386957795679588
:10276000B795F7959F5FC9F7880F911D9695879547
:1027700097F90895E1E0660F771F881FBB1F621766
:1027800073078407BA0720F0621B730B840BBA0B24
:10279000EE1F88F7E095089597FB16F40E945614F3
:1027A0000C941014E89409C097FB3EF49095809522
:1027B000709561957F4F8F4F9F4F9923A9F0F92F07
:1027C00096E9BB279395F695879577956795B79585
:1027D000F111F8CFFAF4BB0F11F460FF1BC06F5F6B
:1027E0007F4F8F4F9F4F16C0882311F096E911C07D
:1027F000772321F09EE8872F762F05C0662371F09E
:1028000096E8862F70E060E02AF09A95660F771FB1
:10281000881FDAF7880F9695879597F90895E894B9
:10282000F92F96EBFF2381F0121613061406440BC2
:102830009395F69587957795679557954040FF2333
:10284000B9F71BC099270895882351F49850D2F7FF
:10285000872B762F652F542F432F322F20E0B1F393
:10286000121613061406440B88233AF09A95440F67
:10287000551F661F771F881FCAF755234AF4440F58
:10288000551F11F460FF04C06F5F7F4F8F4F9F4F44
:10289000880F9695879597F9089597F99F6780E82F
:1028A00070E060E008959FEF80EC0895909580952A
:1028B0007095609550954095309521953F4F4F4FBD
:1028C0005F4F6F4F7F4F8F4F9F4F089500240A94A3
:1028D0001616170618060906089500240A941216FB
:1028E0001306140605060895092E0394000C11F42E
:1028F000882352F0BB0F40F4BF2B11F460FF04C0DB
:102900006F5F7F4F8F4F9F4F089557FD9058440F33
:10291000551F59F05F3F71F04795880F97FB991F3E
:1029200061F09F3F79F087950895121613061406FB
:10293000551FF2CF4695F1DF08C016161706180688
:10294000991FF1CF86957105610508940895E89463
:10295000BB2766277727CB0197F908950E94C114FA
:102960000C9474140E94661438F00E946D1420F0C8
:10297000952311F00C944D140C94531411240C94C1
:10298000A8140E94851470F3959FC1F3950F50E031
:10299000551F629FF001729FBB27F00DB11D639F11
:1029A000AA27F00DB11DAA1F649F6627B00DA11DB7
:1029B000661F829F2227B00DA11D621F739FB00D5D
:1029C000A11D621F839FA00D611D221F749F3327CD
:1029D000A00D611D231F849F600D211D822F762F66
:1029E0006A2F11249F5750409AF0F1F088234AF043
:1029F000EE0FFF1FBB1F661F771F881F91505040AF
:102A0000A9F79E3F510580F00C944D140C94A81426
:102A10005F3FE4F3983ED4F3869577956795B79535
:102A2000F795E7959F5FC1F7FE2B880F911D96954F
:102A3000879597F908950F931F93CF93DF93823073
:102A4000910510F482E090E0E091392BF0913A2B5F
:102A500030E020E0B0E0A0E0309799F42115310596
:102A600009F44AC0281B390B24303105D8F58A8176
:102A70009B816115710589F1FB0182839383FE01BE
:102A800011C0408151810281138148175907E0F03C
:102A90004817590799F4109761F012960C93129702
:102AA00013961C933296CF01DF91CF911F910F9116
:102AB00008950093392B10933A2BF4CF211531054B
:102AC00051F04217530738F0A901DB019A01BD010B
:102AD000DF01F801C1CFEF01F9CF8093392B90933B
:102AE0003A2BCDCFFE01E20FF31F81939193225039
:102AF000310928833983D7CF2091372B3091382B58
:102B0000232B41F420910220309103202093372B76
:102B10003093382B20910020309101202115310570
:102B200041F42DB73EB74091042050910520241B5D
:102B3000350BE091372BF091382BE217F307A0F417
:102B40002E1B3F0B2817390778F0AC014E5F5F4F03
:102B50002417350748F04E0F5F1F4093372B5093D3
:102B6000382B819391939FCFF0E0E0E09CCFCF93FF
:102B7000DF930097E9F0FC01329712821382A09153
:102B8000392BB0913A2BED0130E020E01097A1F401
:102B900020813181820F931F2091372B3091382B68
:102BA0002817390709F061C0E093372BF093382BD1
:102BB000DF91CF910895EA01CE17DF07E8F54A814A
:102BC0005B819E0141155105B1F7E901EA83FB8361
:102BD00049915991C40FD51FEC17FD0761F480810D
:102BE00091810296840F951FE901888399838281E0
:102BF00093818A839B83F0E0E0E012968D919C9113
:102C000013970097B9F52D913C911197CD0102963C
:102C1000820F931F2091372B3091382B28173907BB
:102C200039F6309751F51092392B10923A2BA09328
:102C3000372BB093382BBCCFC283D38340815181D3
:102C4000840F951FC817D90761F44E5F5F4F8881C5
:102C50009981480F591F408351838A819B818283C8
:102C600093832115310509F0B0CFE093392BF09310
:102C70003A2B9ECFFD01DC01C0CF12821382D7CF49
:102C8000FB01DC0102C001900D9241505040D8F789
:102C90000895CF93DF93CDB7DEB7AE014A5F5F4FA4
:102CA000FA0161917191AF0180913D2B90913E2B82
:102CB0000E948816DF91CF9108950F931F93CF93B1
:102CC000DF93E0913D2BF0913E2B2381EC0110E04E
:102CD00000E021FD08C00FEF1FEF14C01995892BEC
:102CE00011F00FEF1FEF899160913D2B70913E2BFA
:102CF000DB011896ED91FC918111F0CF8AE01995D6
:102D0000892B49F7C801DF91CF911F910F91089549
:102D10002F923F924F925F926F927F928F929F92EB
:102D2000AF92BF92CF92DF92EF92FF920F931F93D9
:102D3000CF93DF93CDB7DEB72B97CDBFDEBF7C013E
:102D40003B018A01FC0116821782838181FFDAC16F
:102D5000CE0101965C01F7019381F30193FD85910A
:102D600093FF81913F01882309F453C1853239F4DF
:102D700093FD859193FF81913F01853229F4B7013D
:102D800090E00E949B18E7CF912C212C312CFFE181
:102D9000F31538F08B3211F190F4803209F183325F
:102DA00029F137FC3CC020ED280F2A3050F536FEC3
:102DB00020C08AE0989E200D1124922E06C08D32EC
:102DC00091F0803371F7689430F8F30193FD8591A9
:102DD00093FF81913F018111DACF21C0689431F8CE
:102DE000689432F8F2CF689433F8EFCF689434F8EF
:102DF000ECCFEAE02E9E200D1124222E689435F8A7
:102E0000E4CF8E3229F436FC04C1689436F8DDCF65
:102E10008C3619F4689437F8D8CF8836B1F2982FE9
:102E20009F7D95549330E0F08336A1F18337C1F153
:102E3000833509F063C02801F2E04F0E511CF80100
:102E4000C080D180692D70E036FC02C06FEF7FEF4B
:102E5000C6010E9485184C01689437F882010AC0A7
:102E60000C5F1F4FFFE3F98388248394912C650145
:102E7000E89437F833FE2DC0522C8114910471F57B
:102E8000552009F468CFB70180E290E00E949B18BA
:102E90005A94F6CFF801808189830E5F1F4FE4CFEB
:102EA0002801F2E04F0E511CF801C080D180692D3D
:102EB00070E036FC02C06FEF7FEFC6010E949018F1
:102EC0004C018201D5CFB70180E290E00E949B18AF
:102ED0002A942814190409F0B0F7CECFF60137FC74
:102EE000859137FE81916F01B70190E00E949B1898
:102EF00051105A94F1E08F1A9108BFCF843619F01F
:102F0000893609F077C0F80137FE6BC060817181A6
:102F1000828193810C5F1F4FF32DFF763F2E97FF29
:102F200009C090958095709561957F4F8F4F9F4F09
:102F3000689437F82AE030E0A5010E94CB18C82E2B
:102F4000CA188C2C432C36FE0CC0E89440F8C914E7
:102F500040F434FE05C032FC03C0F32DFE7E4F2E3C
:102F6000892C44FEA7C0FE01EC0DF11D8081803349
:102F700009F099C0242D297E422E842D8870582E68
:102F800043FCA7C040FEA1C09C2C821418F42C0C5A
:102F9000922C981844FEA3C0B70180E390E00E94F1
:102FA0009B1842FE09C088E790E041FE02C088E518
:102FB00090E0B7010E949B18C91408F49CC0CA9401
:102FC000D12C9FEFC91AD90ACA0CDB1CF6018291D9
:102FD0006F01B70190E00E949B18AC14BD04B1F7DB
:102FE0004FCF60817181072E000C880B990B0E5F0B
:102FF0001F4F92CFD32CE894D4F82AE030E08537E5
:10300000C9F1232D297FD22E8F3691F1D8F488353E
:1030100039F1F701868197812B96CDBFDEBFDF9115
:10302000CF911F910F91FF90EF90DF90CF90BF90C5
:10303000AF909F908F907F906F905F904F903F9058
:103040002F900895803749F0883719F7D4FE02C0D1
:103050006894D2F820E130E00DC06894D4F8F6CF3F
:1030600034FE03C0822F8660D82E20E132E002C0F9
:1030700028E030E0F801D7FE0FC0608171818281C5
:1030800093810C5F1F4FA5010E94CB18C82ECA1850
:103090003D2CE89437F855CF6081718190E080E055
:1030A0000E5F1F4FF0CF42FC02C0839466CF839423
:1030B000839463CF842D867809F45FCFF6CFB70170
:1030C00080E290E00E949B1883948214C0F3512CFC
:1030D00061CF522C5818821408F45CCFF8CF842D9D
:1030E000867809F469CF8BE241FE80E247FC8DE2ED
:1030F000B70190E05FCFB70180E390E00E949B189A
:103100009A945ACF8FEF9FEF87CFFC0105906150C3
:1031100070400110D8F7809590958E0F9F1F0895ED
:10312000FC016150704001900110D8F78095909596
:103130008E0F9F1F08950F931F93CF93DF93182F28
:10314000092FEB018B8181FD09C01FEF0FEF812F4C
:10315000902FDF91CF911F910F91089582FF14C09E
:103160002E813F818C819D81281739073CF4E881AD
:10317000F981CF0101968883998310838E819F8185
:1031800001968E839F83E3CFE885F985812F19957A
:10319000892BA1F3DACFFA01AA27283051F1203187
:1031A00081F1E8946F936E7F6E5F7F4F8F4F9F4FDB
:1031B000AF4FB1E03ED0B4E03CD0670F781F891F1D
:1031C0009A1FA11D680F791F8A1F911DA11D6A0FEB
:1031D000711D811D911DA11D20D009F468943F919E
:1031E0002AE0269F11243019305D3193DEF6CF019D
:1031F0000895462F4770405D4193B3E00FD0C9F763
:10320000F6CF462F4F70405D4A3318F0495D31FDCF
:103210004052419302D0A9F7EACFB4E0A695979522
:10322000879577956795BA95C9F7009761057105F8
:1032300008959B01AC010A2E069457954795379542
:103240002795BA95C9F7620F731F841F951FA01D9C
:063250000895F894FFCF81
:103256000000412B2000FE0000000300000000BF1C
:1032660002190300003047727045052001666F752C
:103276006E6420616464726573733A202530387514
:103286000A00696E6974206C6967687420746869DD
:103296006E677300696E69742067726F756E64205D
:1032A6007761746572207468696E67730073656E02
:1032B600642074656D70207468696E677300736549
:1032C6006E64206C69676874207468696E67730041
:1032D60073656E642067726F756E642077617465BE
:1032E60072207468696E67730073656E6420746516
:1032F6007374207468696E6773004A544C6A746C00
:10330600000001020304051112131415160A0B0C12
:043316000D0E0F0089
:00000001FF
