:100000000C9483010C94A4010C94A4010C94A401FD
:100010000C94A4010C94A4010C94A4010C94A401CC
:100020000C94A4010C94A4010C94A4010C94A401BC
:100030000C94A4010C94A4010C94F3080C94A40156
:100040000C94A4010C94A4010C94A4010C94A4019C
:100050000C94A4010C94A4010C94A4010C94A4018C
:100060000C94A4010C94A4010C94A4010C94A4017C
:100070000C94A4010C94A4010C94A4010C94A4016C
:100080000C94A4010C94A4010C94A4010C94A4015C
:100090000C94A4010C94A4010C94A4010C94A4014C
:1000A0000C94A4010C94A4010C94A4010C94A4013C
:1000B0000C94A4010C94A4010C94A4010C94A4012C
:1000C0000C94A4010C94A4010C94A4010C94A4011C
:1000D0000C94A4010C94A4010C94A4010C94A4010C
:1000E0000C94A4010C94A4010C94A4010C94A401FC
:1000F0000C94A4010C94A4010C94A4010C94A401EC
:100100000C94A4010C94A4010C94A4010C94A401DB
:100110000C94A4010C94A4010C94A4010C94A401CB
:100120000C94A4010C94A4010C94A4010C94A401BB
:100130000C94A4010C94A4010C94A4010C94A401AB
:100140000C94A4010C94A4010C94A4010C94A4019B
:100150000C94A4010C94A4010C94A4010C94A4018B
:100160000C94A4010C94A4010C94A4010C94A4017B
:100170000C94A4010C94A4010C94A4010C94A4016B
:100180000C94A4010C94A4010C94A4010C94A4015B
:100190000C94A4010C94A4010C94A4010C94A4014B
:1001A0000C9457070C94A4010C94A4010C94A40182
:1001B0000C94A4010C94A4010C94A4010C94A4012B
:1001C0000C94A4010C94A4010C94A4010C94A4011B
:1001D0000C94A4010C94A4010C94A4010C94FD0CA7
:1001E0000C94200D0C94A4010C94A4010C94A40173
:1001F0000C94A4010C94A4010C94A4010C94F90C8B
:100200000C949E0C6E616E00696E660000407A1060
:10021000F35A00A0724E18090010A5D4E80000E8B7
:100220007648170000E40B54020000CA9A3B000015
:1002300000E1F505000080969800000040420F00A4
:100240000000A08601000000102700000000E80365
:10025000000000006400000000000A000000000030
:100260000100000000002C76D888DC674F0823DFEF
:10027000C1DFAE59E1B1B796E5E3E453C63AE651C2
:10028000997696E8E6C28426EB898C9B62ED407CE9
:100290006FFCEFBC9C9F40F2BAA56FA5F490055A85
:1002A0002AF75C936B6CF9676DC11BFCE0E40D47AA
:1002B000FEF520E6B500D0ED902E030094357705CD
:1002C0000080841E080000204E0A000000C80C3385
:1002D0003333330F986E12831141EF8D2114893B14
:1002E000E65516CFFEE6DB18D1844B381BF77C1D94
:1002F000901DA4BBE424203284725E228100C9F1E7
:1003000024ECA1E53D2711241FBECFEFCDBFDFE5D3
:10031000DEBF00E00CBF10E2A0E0B0E2EEE4F0E2ED
:1003200000E00BBF02C007900D92A436B107D9F7C9
:100330002AE2A4E6B0E201C01D92AF30B207E1F7B5
:100340000E943E050C9425100C9400002F923F92C1
:100350004F925F926F927F928F929F92AF92BF92D5
:10036000CF92DF92EF92FF920F931F93CF93DF9381
:10037000CDB7DEB72F97CDBFDEBF6C011B014A01A1
:10038000FC011682178283819E012F5F3F4F390146
:1003900081FDCFC08FEF9FEFDDC2F12C512C00E02B
:1003A000003238F48B3209F190F48032F9F0833264
:1003B00009F107FD34C020ED280F2A3020F506FF93
:1003C0001BC0FAE0FF9E200D1124F22E05C08D32D5
:1003D00079F0803371F70160F10193FD859193FF0E
:1003E00081911F018111DCCF1AC002600460F4CF3B
:1003F0000860F2CF0061F0CF3AE0539E200D112447
:10040000522E0062E9CF8E3221F406FDA0C20064B4
:10041000E3CF8C3611F40068DFCF8836E9F29BEB2E
:10042000980F933008F05CC00061805E06FD02C04A
:1004300046E0F42E102F1F73853609F058C0106463
:1004400017FF5EC08F2D9BE39F1508F48BE34424B8
:100450004394480E27E0F40161917191819191914B
:100460005F01042DA3010E948C0E4C01F981FC87D1
:10047000F0FF03C00DE2F3FF07C00BE211FD04C063
:10048000012F047012FD00E22C852C70E22E09F47D
:100490006BC00111C4C2F3E0E12CF515A0F483E0B8
:1004A000E52CE81A13FD08C0B60180E290E00E9436
:1004B000830FEA94E110F8CF002329F0B601802FD2
:1004C00090E00E94830F3C8524E0822E22E0922E51
:1004D00033FD04C098E0892E92E0992E107122C05D
:1004E0009BE9980F933008F048C10F7E9FCF863666
:1004F00011F41068A5CFFF2009F4A2CFFA94A0CF81
:10050000E7E02F2DEF1518F427E037E0F32E412C0C
:10051000A2CF11118052B60190E00E94830F8FEF9D
:10052000881A980AF40184918111F3CFE11070C206
:100530004501F6019381F10193FD859193FF81912E
:100540001F01882309F403C2853241F493FD85918C
:1005500093FF81911F01853209F01FCFB60190E012
:100560000E94830F5401E4CF17FF70C0480CFC8534
:10057000F4FF04C08A81813309F44A9414140CF006
:1005800087C028E0241510F488E0482E85E090E02C
:1005900017FF06C0C40197FE02C090E080E00196FC
:1005A00001110196FF2031F02F2D30E02F5F3F4FDA
:1005B000820F931F5816190619F014F0E52CE81A4B
:1005C000812F897011F4E11068C0002329F0B60171
:1005D000802F90E00E94830F13FD02C0E11064C0E1
:1005E00017FF7DC0840197FE02C010E000E0C40147
:1005F000841991092C016F2D70E0EE27FF27E61B6F
:10060000F70BEE87FF87801691060CF454C0401656
:1006100051060CF050C0F401E01BF10BE60DF71D84
:100620008181015011092E853F85021713070CF4B3
:1006300044C0B60190E00E94830F0F3F100719F7E6
:10064000B6018EE290E00E94830FDDCF16FD9ECFB3
:10065000EF2DF0E0E815F90534F03CEF83163FEF9D
:1006600093060CF010683296E60DF71D01C0FA945F
:10067000FF2019F082918033D1F317FF87CF4424F4
:1006800043944F0CF814190431F02CF0F8187ECF75
:10069000442443947BCFF12C79CFB60180E290E0E3
:1006A0000E94830FEA948FCFB60180E390E00E940E
:1006B000830FEA9493CF80E3B4CF8016910641F480
:1006C0009A81963350F4953319F49C8594FF05C0B4
:1006D000B60190E00E94830F29CF81E3F9CF8A8190
:1006E000813319F0EC85EF7EEC87B60190E00E9433
:1006F000830FFF20A9F0B6018EE290E00E94830FE5
:10070000F394F394E2E001E00E0FE60DF72DF11DF6
:100710008081B60190E00E94830FE02F0F11F3CF8C
:1007200085E690E014FF02C085E490E0B6010E94E7
:10073000830F97FC06C081149104C1F4FC85F4FF7B
:1007400015C09194819491088DE2B60190E00E94C9
:10075000830F80E33AE08316910454F4B60190E0ED
:100760000E94830FB601C401C096B4CF8BE2EDCFD7
:100770008F5F2AE0821A9108EDCF8336B1F083377C
:1007800059F1833509F055C0F401819091905F01D2
:100790006F2D70E006FD02C06FEF7FEFC4010E9475
:1007A000640F8C879D8700680DC0540182E0A80EFD
:1007B000B11CF4018081898321E030E02C873D87E2
:1007C00043010F7703FD06C02C853D8552161306A5
:1007D00009F090F4E52C28C0F401819091905F011C
:1007E0006F2D70E006FD02C06FEF7FEFC4010E9425
:1007F000780F8C879D87E5CFB60180E290E00E945C
:10080000830F5A94E1CFF40107FD859107FF819191
:100810004F01B60190E00E94830FE110EA948C85AD
:100820009D8501978C879D87EC85FD85EF2B59F77A
:100830007DCE843619F0893609F06EC0F40107FFC9
:1008400063C061917191819191915F01102F1F7629
:1008500097FF08C090958095709561957F4F8F4F59
:100860009F4F10682AE030E0A3010E94C70F882E36
:100870008618982C012F16FF0AC00E7F8F1438F4AB
:1008800014FF04C012FD02C0012F0E7E9F2C04FF36
:1008900097C0FE01E80DF11D8081803309F089C009
:1008A000097EF02FF870EF2E03FD99C000FF93C072
:1008B000F82C951410F4F50CF91804FF96C0B60145
:1008C00080E390E00E94830F02FF09C088E790E078
:1008D00001FF02C088E590E0B6010E94830F8F14EB
:1008E00008F48FC08A94082D10E00F5F1F4F060D8B
:1008F000171DF80182918F01B60190E00E94830FCD
:1009000006151705B1F712CE619171915F01072E9F
:10091000000C880B990B9ACF102F853791F41F7E0E
:100920002AE030E0F40117FF3EC06191719181919E
:1009300091915F01A3010E94C70F882E86181F772F
:1009400098CF197F8F3661F1D8F4883521F1F601FF
:10095000868197812F96CDBFDEBFDF91CF911F910A
:100960000F91FF90EF90DF90CF90BF90AF909F904E
:100970008F907F906F905F904F903F902F90089551
:10098000803739F0883719F714FD146020E130E022
:10099000C9CF1061F9CF04FD166020E132E0C2CF6B
:1009A00028E030E0BFCF619171915F0190E080E07D
:1009B000C1CF02FD02C0939474CF9394939471CFEE
:1009C000802F867809F46DCFF6CFB60180E290E0F3
:1009D0000E94830F93949514C0F3E12C6ECFE52C05
:1009E000E918951408F469CFF8CF802F867809F4B8
:1009F00076CF8BE201FF80E207FD8DE2B60190E049
:100A00006CCFB60180E390E00E94830FFA9467CF29
:100A1000B60180E290E00E94830FEA9487CD24E043
:100A2000E12C251508F04ACD84E03ACD8BEC80937B
:100A30005200809150008860809350008091510056
:100A400083FFFCCF82EC8093550080915000806141
:100A5000809350008091510084FFFCCF88ED84BFCB
:100A600084E080934000809150008E7F80935000FE
:100A7000809150008D7F8093500008950E9416054C
:100A800060E078E488EE91E00E94BC0C83E00E9474
:100A90005E0581E0809341068091A2008160809391
:100AA000A20078940E94B8052FEF83ED90E32150C7
:100AB00080409040E1F700C00000F4CFCF93C82FF2
:100AC0001092010886E08093000881E08093060878
:100AD00084ED90E380932608909327080E945409A0
:100AE0000E948F0B68E080E30E94B60A80E00E94BB
:100AF000870A80E20E94940A8CE00E94A90A88E199
:100B00000E94780A80E00E94800A0E94320C0E94B3
:100B1000BA0A0E94710B0E94800B8091AA06806421
:100B20008093AA0682E08093B6062091A906809160
:100B3000A90630E02C7F2160822B8093A90686E0F5
:100B400090E20E940F0A66E070E280E00E942C0AA8
:100B50000E94B70B0E94E909C093D427E5EDF7E2A4
:100B60001382379689E2E333F807D1F7CF910895DE
:100B70000F931F93CF93DF93C5EDD7E20CE110E203
:100B80008B818115C9F08D811F928F938C811F926B
:100B90008F938A818F9389818F938E811F928F93F8
:100BA00088811F928F931F930F930E94B30F8DB76D
:100BB0009EB70C968DBF9EBF279699E2C333D90787
:100BC000F9F6DF91CF911F910F910895A5EDB7E24E
:100BD000FD0120E030E093819115D9F090819813C8
:100BE00018C087E0829FF001839FF00D1124EB5223
:100BF000F84D818192810A9681839283158221E04A
:100C000026838536910554F184E690E081839283B2
:100C100008952F5F3F4F379622333105E1F620E0EC
:100C200030E013969C911397911112C097E0929F18
:100C3000F001939FF00D1124EB52F84D80838AE070
:100C400090E08183928381E0838315828683089577
:100C50002F5F3F4F17962233310519F70895E5EDC1
:100C6000F7E220E030E0908198130AC087E0829F8D
:100C7000F001839FF00D1124EB52F84D848108950B
:100C80002F5F3F4F37962233310569F780E0089593
:100C9000E2E6F1E220E030E091919115B9F0D9015E
:100CA000A05DBE4D9C91981311C0F90185E0EE0F37
:100CB000FF1F8A95E1F7EC56FE4D10821182168EC9
:100CC000178E2E593E4DF901108208952F5F3F4F28
:100CD0002233310509F70895CF93DF93DB01E5ED6A
:100CE000F7E22381211521F02581241301C013820D
:100CF000379629E2E333F207A1F7EC0160E070E0F8
:100D00006A177B0700F5988189819115E1F02091A0
:100D1000D4272917C1F0E5EDF7E220E030E0538158
:100D20005115A1F05081591311C097E0929FF00125
:100D3000939FF00D1124EB52F84D9681891718F40A
:100D400045838F5F8683DF91CF9108952F5F3F4F5B
:100D500037962233310519F7E5EDF7E220E030E070
:100D6000538151110DC057E0529FF001539FF00D78
:100D70001124EB52F84D908391E093839483E0CF5C
:100D80002F5F3F4F37962233310551F76E5F7F4F0C
:100D90002296B6CFEF92FF920F931F93CF93DF93DC
:100DA000382F562F02E611E2E801E0E0F0E08991E9
:100DB000811539F0CF01805D9E4DDC018C91831748
:100DC00021F13196E233F10591F7E0E0F0E0D8014E
:100DD0008D918D01811148C0DF01A05DBE4D3C9316
:100DE00081E0DF01AE59BE4D8C93DF01C5E0AA0F53
:100DF000BB1FCA95E1F7AC56BE4D1C9211961C92D2
:100E000011975E961D921C925F97622F62956F708C
:100E10002F70CF01E5E0880F991FEA95E1F7FC01FB
:100E2000EC56FE4DA081A1112BC060832183E52FDC
:100E3000F72FEC01CC56DE4D7E01BEE1EB0EF11C2E
:100E4000D7016D917C912E2F251B2417F8F06C3162
:100E5000710578F0432F8A569E4D0E946C061882C9
:100E600019821E8E1F8E05C03196E233F10509F0FE
:100E7000AECFDF91CF911F910F91FF90EF9008952A
:100E8000A613F7CF61816213F4CFD1CF6C31710516
:100E900060F48B010F5F1F4FD7010D931C932081CE
:100EA0006C0F7D1FDB0112962C933196C9CF1F92D8
:100EB0000F920FB60F9211240BB60F92EF92FF9282
:100EC0000F931F932F933F934F935F936F937F9352
:100ED0008F939F93AF93BF93EF93FF93CF93DF9342
:100EE000CDB7DEB7A397CDBFDEBFCE0101967C01A3
:100EF00080E2F70111928A95E9F7AE014F5D5F4FED
:100F0000BE016E5D7F4FCE0183960E94F10989A1DB
:100F1000811501F10E94550C182F682FC7010E94FE
:100F20006A0BF89489810E94E6050981802F0E944E
:100F30002F06811579F08A818150990B029748F428
:100F40004EEF410F2B81BE016C5F7F4F802F0E94BF
:100F5000CA067894A396CDBFDEBFDF91CF91FF91F3
:100F6000EF91BF91AF919F918F917F916F915F9121
:100F70004F913F912F911F910F91FF90EF900F9004
:100F80000BBE0F900FBE0F901F901895AF92BF929F
:100F9000CF92DF92EF92FF920F931F93CF93DF9345
:100FA000CDB7DEB76C97CDBFDEBF10922C2110926B
:100FB0002D2110922E2110922F217C01825A9E4FBA
:100FC0005C0100E010E0D70113968C911397811516
:100FD00009F43FC014968C918115D9F198012F5FC7
:100FE0003F4FDE011196A00FB11FF70180818C9356
:100FF0000E5F1F4FFE013196E20FF31FD7011696C9
:101000008C9180830C31110520F1C0902C21D0905F
:101010002D21C8010E94610DF601EE0FFF1FEC5952
:10102000FF4D80839183A801BE016F5F7F4F0E94B7
:101030006F0FF601EE0FFF1FE853FF4D0083118382
:10104000BFEFCB1ADB0AC0922C21D0922D2100E0F9
:1010500010E0E7E0EE0EF11CEA14FB0409F0B3CF58
:101060000115110511F1E0902C21F0902D21C801FE
:101070000E94610DF701EE0FFF1FEC59FF4D8083B9
:101080009183A801BE016F5F7F4F0E946F0FF70130
:10109000EE0FFF1FE853FF4D00831183FFEFEF1AA0
:1010A000FF0AE0922C21F0922D216C96CDBFDEBF7D
:1010B000DF91CF911F910F91FF90EF90DF90CF9034
:1010C000BF90AF900895EF92FF920F931F93CF932D
:1010D000DF93CDB7DEB7A097CDBFDEBF20912E2125
:1010E00030912F2180912C2190912D2128173907A3
:1010F00020F085ED97E20E94C60740912C21509187
:101100002D218E010F5F1F4F4115510509F454C069
:1011100080912E2190912F21FC01EE0FFF1FEC59A1
:10112000FF4D60813181FC01EE0FFF1FE853FF4D41
:10113000E080F180282F2295207F742F7F70272B4D
:1011400001964817590799F582E090E2F80111924B
:101150009A95E9F79091D42799838A832B83E62F78
:10116000F32FDE011496CF018E0D9F1DE817F907AE
:1011700001F50E94EB0BF89464E06E0DC8010E942B
:101180001B0C78940E94B70B80912E2190912F21F7
:10119000019680932E2190932F21A096CDBFDEBF84
:1011A000DF91CF911F910F91FF90EF90089581E013
:1011B000CCCF21912D93DACF80E2F80111928A955C
:1011C000E9F78091D427898382E08A8381E08B8349
:1011D0000E94EB0BF89464E0C8010E941B0C789409
:1011E0000E94B70BDACF1F920F920FB60F92112405
:1011F0000BB60F921F932F933F934F935F936F9371
:101200007F938F939F93AF93BF93CF93DF93EF938E
:10121000FF93C5EDD7E211E08B81811589F08D81B7
:1012200081110EC089819A811816190654F501970B
:1012300089839A83009709F51B8288810E9448065A
:10124000279689E2C333D80739F70E946308FF91D4
:10125000EF91DF91CF91BF91AF919F918F917F914E
:101260006F915F914F913F912F911F910F900BBE06
:101270000F900FBE0F901F9018954F9724F01C836E
:10128000DFCF892BC9F21C82E5EDF7E2838181155E
:1012900029F095818881981301C01382379689E2DD
:1012A000E333F80799F7CCCFE0E4F6E088E08183F8
:1012B00084E0828382E08183E0EAF6E080E2818359
:1012C00080E4828380E88183E0EAF8E088E1848337
:1012D00080EC8583178281E0868308958093A0083F
:1012E0008091A10886FFFCCF8091A1088064809343
:1012F000A1088091A00808951F93CF93DF93C0EABF
:10130000D6E010E21E838F710E946E098FEF0E945B
:101310006E091D83DF91CF911F91089584E00E9493
:101320007C09982F92959F709F5F8F708F5F989F19
:10133000C00111242AEFAC01249FC001259F900D0C
:1013400011240895EF92FF920F931F93CF93DF9391
:101350007B01C42F90E29093A6068F7180620E9459
:101360006E09D82F9E2D8F2DCE0DC9130BC080E294
:101370008093A5068D2FDF91CF911F910F91FF9044
:10138000EF900895092F182FF80181918F010E9485
:101390006E09902F812FE9CFFF920F931F93CF9368
:1013A000DF93D62F00EA16E090E2F92EF801F682DC
:1013B0008F7180620E946E09C82F8D2F0E946E0966
:1013C000F801F5828C2FDF91CF911F910F91FF9043
:1013D000089580E00E947C09682F626080E00C9490
:1013E000CC09EF92FF920F931F93CF93DF937C0171
:1013F0008B01EA0160E787E00E94CC09982F907288
:10140000F7019083982F9071F801908380748883FE
:10141000DF91CF911F910F91FF90EF900895CF939F
:10142000DF93D82FC92F40910B20682F792F8AE0A6
:101430000E94A20940910B206D2F7C2F80E10E9419
:10144000A20960910C20603228F481E1DF91CF91F4
:101450000C94CC0960E2F9CFFF920F931F93CF93C6
:10146000DF93182FF62E072F811112C040910B2009
:1014700050E083E399E20E946F0FC12FD0E0FE019C
:10148000E25AFF4D40910B206F2D702F80810BC0D1
:10149000873040F5C82FD0E0FE01E25AFF4D808131
:1014A00041E0113051F30E94A209FE01E85AFF4DBC
:1014B00060910C2080810E94CC0982E00E947C090E
:1014C000CE5ADF4D988161E070E001C0660F9A95B9
:1014D000EAF7682B82E0DF91CF911F910F91FF9087
:1014E0000C94CC09DF91CF911F910F91FF9008953B
:1014F000682F87FD03C085E00C94CC096FE7FBCF14
:101500006FE3811101C060E081E00C94CC09CF93BE
:10151000C82F86E00E947C09682F697FC6706C2BFB
:1015200086E0CF910C94CC09CF93C82F86E00E941F
:101530007C096C2F6872877D682B86E00E94CC093D
:1015400086E00E947C09982F81E09C1380E0CF9177
:101550000895CF93C82F80E00E947C09682F637F95
:10156000CC706C2B80E0CF910C94CC09682B84E07C
:101570000C94CC0960E787E00C94CC09DF92EF92E1
:10158000FF920F931F93CF93DF93D82EE92E842FD2
:10159000C0910C20DC2F6C1708F4D62F90913829BD
:1015A000CD1B9111C0E090E29093A6060E946E09B7
:1015B000F82E2D2D3E2DDD0DD2130EC0C11113C0FE
:1015C00080E28093A5068F2DDF91CF911F910F911F
:1015D000FF90EF90DF900895F90181918F010E94B3
:1015E0006E099801E9CF80E00E946E09C150E6CFF4
:1015F0000F931F93CF93DF93D82FC92F162F042F4C
:1016000080E00E947C09682F6E7F81FD24C06260AB
:1016100080E00E94CC098FE79EE30197F1F700C0BC
:1016200000008FE094E00197F1F700C00000402F28
:10163000612F8D2F9C2F0E94BE0A80E88093A50603
:101640009AE69A95F1F700C08093A606DF91CF91B4
:101650001F910F91089580E00E94CC09E2CFDF92A4
:10166000EF92FF920F931F93CF93DF93D82EE92E23
:10167000C0910C20DC2F6C1708F4D62F80913829EC
:10168000CD1B8111C0E080E28093A60681E60E9416
:101690006E09F82E2D2D3E2DDD0DD2130EC0C11179
:1016A00014C080E28093A5068F2DDF91CF911F910A
:1016B0000F91FF90EF90DF90089589018FEF0E94C6
:1016C0006E09F80181939F01E8CF8FEF0E946E09A8
:1016D000C150E5CF0E942F0B87E10E947C098170E9
:1016E00008951F93CF93DF93C0EAD6E010E21E83E4
:1016F00082EE0E946E091D83DF91CF911F910895A4
:101700001F93CF93DF93C0EAD6E010E21E8381EEF1
:101710000E946E091D83DF91CF911F9108958FE381
:101720009CE90197F1F700C000006FE584E00E949A
:10173000CC0986E00E94870A80E20E94940A811503
:1017400019F081E080930D2080E00E94940A8CE0E3
:101750000E94A90A60E08CE10E94CC098CE40E94FE
:10176000780A0E94BA0A0E94710B0C94800B80E0E8
:101770000E947C09682F81FD29C0636080E00E947F
:10178000CC098FE79EE30197F1F700C000008FE0DE
:1017900094E00197F1F700C0000060E787E00E9445
:1017A000CC0940910B2063E379E28AE00E94A20910
:1017B0000E94710B0E94800B80E88093A5068FE049
:1017C00094E00197F1F700C000000895616080E0A7
:1017D0000E94CC09DCCF80E88093A6060E94710BA2
:1017E0000C94800BCF93DF930E948E0964E670E027
:1017F0000E944D0DEB0187E00E947C092197EFE1EB
:10180000F3E03197F1F700C000008073811102C04E
:10181000209789F787E00E947C09C82F0E94710BEE
:101820000E94800B60E787E00E94CC098C2F8072B9
:10183000DF91CF91089540EA0E94F80A0C94F20BD0
:101840001F93CF93DF93C0EAD6E010E21E8380E5BA
:101850000E946E0983E70E946E091D83DF91CF917C
:101860001F9108958DE10E947C09682F64608DE1CD
:101870000E94CC098DE10E947C0981110AC00E945E
:10188000200C8DE10E947C09682F64608DE10E942C
:10189000CC098CE10E947C09682F6F638CE10E9467
:1018A000CC0981E08093382908951F93CF93DF936B
:1018B000C0EAD6E010E21E8380E60E946E098FEF38
:1018C0000E946E091D83DF91CF911F910895209191
:1018D000042A81E0820F9091032A843610F08DE96A
:1018E000820F981718F0981B892F08959C59FBCFE9
:1018F000CF93DF93C82FD1E20E94670C8115D9F0F6
:101900008091042AE82FF0E0E156F64DC0838F5F06
:10191000843608F080E09091A200292F2E7F20933A
:10192000A2008093042A81E28093A30B9093A200EB
:10193000DF91CF910895D093A30BDECFCF93DF93A8
:10194000C82FDFEF0E94670C811579F0D11589F05F
:10195000CA3019F48DE00E94780C8C2F0E94780C0C
:1019600080E090E0DF91CF910895D11511F0D15032
:10197000E9CF81E090E0F6CFE0EAF6E098E1928BE3
:1019800088E08583818324E02283E0EAFBE086838C
:101990001782948380E28383E0EAF0E082818360AF
:1019A0008283E9E0FAE28EE090E280839183828391
:1019B0009383089590919E2980919D29981718F0FE
:1019C000981B892F08959C59FBCFCF93C0919D29D7
:1019D0000E94DA0C8115E1F3EC2FF0E0E75CF64DA4
:1019E0008081CF5FC43608F0C0E0C0939D29CF91BD
:1019F00008950E94E50C90E008958F938FB78F9320
:101A00008BB78F939F93EF93FF9380919E29E82F3D
:101A1000F0E09091A00BE75CF64D90838F5F8436E9
:101A200008F080E090919D29981380939E29FF9162
:101A3000EF919F918F918BBF8F918FBF8F91189551
:101A40002F932FB72F932BB72F938F939F93EF93B2
:101A5000FF938091032A9091042A891310C080E299
:101A60008093A30B892F8093032AFF91EF919F917D
:101A70008F912F912BBF2F912FBF2F911895E82F6A
:101A8000F0E0E156F64D20812093A00B8F5F843665
:101A900008F080E08913E7CFE2CFAA1BBB1B51E11E
:101AA00007C0AA1FBB1FA617B70710F0A61BB70BCE
:101AB000881F991F5A95A9F780959095BC01CD0173
:101AC00008950F931F93CF93DF938230910510F405
:101AD00082E090E0E091072AF091082A30E020E0CF
:101AE000B0E0A0E0309799F42115310509F447C022
:101AF000281B390B24303105C0F58A819B81611583
:101B0000710571F1FB0182839383FE0111C0408155
:101B100051810281138148175907F8F04817590776
:101B200099F4109761F012960C93129713961C93E8
:101B30003296CF01DF91CF911F910F9108950093BD
:101B4000072A1093082AF4CF2115310519F04217FE
:101B5000530718F49A01BD01EF01DF01F801C2CF6C
:101B60008093072A9093082AD0CFFE01E20FF31F3B
:101B7000819391932250310928833983DACF2091C0
:101B8000052A3091062A232B41F42091022030911E
:101B900003202093052A3093062A209100203091BB
:101BA00001202115310541F42DB73EB740910420A5
:101BB00050910520241B350B4091052A5091062A8F
:101BC0004217530708F0B5CF241B350B28173907E8
:101BD00008F4AFCFBC016E5F7F4F2617370708F4BC
:101BE000A8CF640F751F6093052A7093062AFA0127
:101BF000819391939ECFCF93DF930097E9F0FC01FF
:101C0000329712821382C091072AD091082ADE01EE
:101C100030E020E02097A1F420813181820F931FD2
:101C20002091052A3091062A2817390709F067C044
:101C3000E093052AF093062ADF91CF910895DA0107
:101C4000AE17BF0708F040C012964D915C911397F4
:101C50009D014115510599F7D9011296ED93FC9319
:101C600013974D915D91A40FB51FEA17FB0779F407
:101C7000808191810296840F951FD9018D939C9349
:101C800011978281938112968D939C931397B0E064
:101C9000A0E08A819B810097B9F5FE018191919125
:101CA000E80FF91F8091052A9091062A8E179F0749
:101CB00019F6109761F51092072A1092082AC0931E
:101CC000052AD093062AB8CFA283B38340815181DD
:101CD000840F951FA817B90771F44E5F5F4F8D9160
:101CE0009C911197480F591F4083518312968D91F3
:101CF0009C91828393832115310509F0ADCFE09348
:101D0000072AF093082A98CFDE01EC01C2CF129681
:101D10001D921C921397D3CF283008F027E0332769
:101D2000DA01990F311D87FD9160009661057105FB
:101D300039F432602E5F3D9330E32A95E1F7089540
:101D40009F3F30F080387105610509F03C5F3C5FD2
:101D50003D93913008F08068911DDF93CF931F93DE
:101D60000F93FF92EF92192F987F9695E92F9695F2
:101D70009695E90FFF27EA59FD4F99273327EE245F
:101D8000FF24A701E70105900894079428F4360F73
:101D9000E71EF81E491F511D660F771F881F991FE8
:101DA0000694A1F70590079428F4E70EF81E491F42
:101DB000561FC11D770F881F991F661F0694A1F734
:101DC0000590079428F4F80E491F561FC71FD11D10
:101DD000880F991F661F771F0694A1F70590079437
:101DE00020F4490F561FC71FD81F990F661F771F72
:101DF000881F0694A9F784911095177041F0D69525
:101E0000C79557954795F794E7941A95C1F7ECE075
:101E1000F2E0689415901591359165919591059032
:101E20007FE27395E118F10A430B560BC90BD009F9
:101E3000C0F7E10CF11E431F561FC91FD01D7EF4D1
:101E4000703311F48A95E6CFE894015030F0080F12
:101E50000AF40027021708F4202F2395022F7A3363
:101E600028F079E37D932A95E9F710C07D932A95B0
:101E700089F6069497956795379517951794E11805
:101E8000F10A430B560BC90BD00998F023957E91AC
:101E900073957A3308F070E37C932013B8F77E9142
:101EA00070617D9330F0839571E37D9370E32A95A3
:101EB000E1F71124EF90FF900F911F91CF91DF91E7
:101EC000992787FD90950895FC0105906150704019
:101ED0000110D8F7809590958E0F9F1F0895FB01F4
:101EE000DC0102C001900D9241505040D8F7089596
:101EF000FC016150704001900110D8F780959095D9
:101F00008E0F9F1F08950F931F93CF93DF93182F6A
:101F1000092FEB018B8181FD09C01FEF0FEF812F8E
:101F2000902FDF91CF911F910F91089582FF14C0E0
:101F30002E813F818C819D81281739073CF4E881EF
:101F4000F981CF0101968883998310838E819F81C7
:101F500001968E839F83E3CFE885F985812F1995BC
:101F6000892BA1F3DACFCF93DF93CDB7DEB7AE01E4
:101F70004A5F5F4FFA0161917191AF0180910B2A25
:101F800090910C2A0E94A601DF91CF910895FA0149
:101F9000AA27283051F1203181F1E8946F936E7FA8
:101FA0006E5F7F4F8F4F9F4FAF4FB1E03ED0B4E099
:101FB0003CD0670F781F891F9A1FA11D680F791FDA
:101FC0008A1F911DA11D6A0F711D811D911DA11DEB
:101FD00020D009F468943F912AE0269F11243019FB
:101FE000305D3193DEF6CF010895462F4770405D96
:101FF0004193B3E00FD0C9F7F6CF462F4F70405D45
:102000004A3318F0495D31FD4052419302D0A9F79F
:10201000EACFB4E0A6959795879577956795BA9599
:10202000C9F700976105710508959B01AC010A2E5F
:1020300006945795479537952795BA95C9F7620F36
:0E204000731F841F951FA01D0895F894FFCFF5
:10204E0000000F2A20003047727044052001000066
:10205E000003000000009E0CF90C000049443A20D9
:10206E0025642C20686F70733A2025642C205765E8
:10207E00696768743A2025642C20547275737465F0
:10208E00643A2025642C204F776E65723A202564C1
:10209E000A000001020304051112131415160A0B8F
:0420AE000C0D0E0FF8
:00000001FF
