:100000000C9402010C9423010C9423010C94230101
:100010000C9423010C9423010C9423010C942301D0
:100020000C9423010C9423010C9423010C942301C0
:100030000C9423010C9423010C942E060C942301A0
:100040000C9423010C9423010C9423010C942301A0
:100050000C9423010C9423010C9423010C94230190
:100060000C9423010C9423010C9423010C94230180
:100070000C9423010C9423010C9423010C94230170
:100080000C9423010C9423010C9423010C94230160
:100090000C9423010C9423010C9423010C94230150
:1000A0000C9423010C9423010C9423010C94230140
:1000B0000C9423010C9423010C9423010C94230130
:1000C0000C9423010C9423010C9423010C94230120
:1000D0000C9423010C9423010C9423010C94230110
:1000E0000C9423010C9423010C9423010C94230100
:1000F0000C9423010C9423010C9423010C942301F0
:100100000C9423010C9423010C9423010C942301DF
:100110000C9423010C9423010C9423010C942301CF
:100120000C9423010C9423010C9423010C942301BF
:100130000C9423010C9423010C9423010C942301AF
:100140000C9423010C9423010C9423010C9423019F
:100150000C9423010C9423010C9423010C9423018F
:100160000C9423010C9423010C9423010C9423017F
:100170000C9423010C9423010C9423010C9423016F
:100180000C9423010C9423010C9423010C9423015F
:100190000C9423010C9423010C9423010C9423014F
:1001A0000C9475040C9423010C9423010C942301EA
:1001B0000C9423010C9423010C9423010C9423012F
:1001C0000C9423010C9423010C9423010C9423011F
:1001D0000C9423010C9423010C9423010C942B0AFE
:1001E0000C94530A0C9423010C9423010C942301C6
:1001F0000C9423010C9423010C9423010C94C0094A
:100200000C941C0A11241FBECFEFCDBFDFE5DEBF6B
:1002100000E00CBF10E2A0E0B0E2ECEAFDE100E09B
:100220000BBF02C007900D92A635B107D9F72AE29D
:10023000A6E5B0E201C01D92AF3CB207E1F70E9413
:100240004D010C94D40E0C9400008BEC8093520062
:10025000809150008860809350008091510083FF0E
:10026000FCCF82EC80935500809150008061809398
:1002700050008091510084FFFCCF88ED84BF84E062
:1002800080934000809150008E7F80935000809139
:1002900050008D7F809350000895CF93DF93CDB7AA
:1002A000DEB7C457D109CDBFDEBF0E94250160E093
:1002B00078E488EE91E00E94E00982E40E94FB016C
:1002C00081E0809341068091A20081608093A2002A
:1002D00078947E0189E5E80EF11C8CE1282E270137
:1002E0009FEF491A590A9CE1692E90E2792EFE018E
:1002F00031964F01CE01CD966C01B0965F0122E49C
:10030000322EF701822D11928A95E9F7C7010E94DA
:10031000AD02882391F0F701E80FF11D10821F92C2
:100320008F935F924F92F70180811F928F937F92FC
:100330006F920E941F0CCDBFDEBF0E94FE09882372
:1003400001F30E94200A182F8D3009F046C08DE07D
:100350000E94DE098AE00E94DE09E0915820F091B7
:100360005920CF01019680935820909359201082F4
:1003700070E060E0C4010E94E90B62E470E2C40135
:100380000E94DC0B8C010097A1F0BC01C6010E9409
:10039000E90BF60101900020E9F73197BF016C19D4
:1003A0007D0908191909600F711FC5010E94E90B29
:1003B00039A2F50101900020E9F731978F010A1960
:1003C0001B09C6010E94BE0B402FB5010E945502B9
:1003D000109258201092592094CF0E94DE09E0918B
:1003E0005820F0915920CF01019680935820909386
:1003F0005920108386CFCF93C82F1092010886E032
:100400008093000881E08093060884ED90E3809358
:100410002608909327080E948F060E94B30868E080
:1004200080E30E94E20780E00E94B30780E20E941E
:10043000C0078CE00E94D50786E30E94A60780E0F3
:100440000E94AC070E9455090E94E6070E94950889
:100450000E94A4088091AA0680648093AA0682E084
:100460008093B6068091A9062091A90690E08C7F22
:100470008160822B8093A90686E090E20E94460765
:1004800066E070E280E00E9460070E94DB080E9444
:100490002007C093F021E5EFF2E21382379684E261
:1004A000E335F807D1F7CF910895EF92FF921F93AC
:1004B000CF93DF93CDB7DEB7A097CDBFDEBF4D3171
:1004C00098F5FE0133969EE1DF011D929A95E9F7BA
:1004D0009091F021998393E09A838C839091F822F4
:1004E000992311F19091F52298131EC08091FA2260
:1004F000811123C09B83DB01CE0101967C01FC01AD
:10050000242F30E0CF018E199F0982179307BCF08A
:10051000142F0E940F09F89464E0610FC7010E9434
:100520003E0978940E94DB08A096CDBFDEBFDF9124
:10053000CF911F91FF90EF9008958B83DCCF8D9129
:1005400084833196DFCF8091EF219091EE2189173E
:1005500010F0891B08958853FCCF0F931F93CF93FE
:10056000DF938C01D0E0C091EE210E94A30288238A
:1005700099F0EC2FF0E0EA5DFE4D9081CF5FC83C32
:1005800008F0C0E0C093EE219D3031F0F801919366
:100590008F01DF5FDC3139F78D2FDF91CF911F9114
:1005A0000F910895A5EFB2E2FD0130E020E09381C4
:1005B0009923D9F09081981318C087E0829FF001A9
:1005C000839FF00D1124EB50FD4D818192810A969D
:1005D00081839283158221E026838734910554F12B
:1005E00086E490E08183928308952F5F3F4F379692
:1005F00022333105E1F630E020E013969C91139709
:10060000911112C097E0929FF001939FF00D112479
:10061000EB50FD4D80838AE090E08183928381E0FE
:1006200083831582868308952F5F3F4F1796223369
:10063000310519F70895E5EFF2E230E020E090810E
:1006400098130AC087E0829FF001839FF00D112468
:10065000EB50FD4D848108952F5F3F4F3796223335
:10066000310569F780E00895CF93DF93FC0150E0F6
:1006700040E070E08DE0641775071CF4DF91CF91C6
:1006800008959091EF21292F30E06417750781F4C8
:100690002A5D3E4DD9018C939F5F983C08F090E015
:1006A0002091EE2129139093EF214F5F5F4FE3CF0D
:1006B000DF01A40FB51FAC912A5D3E4DE901A8836F
:1006C000EBCFE3E5F4E230E020E091919923B9F03B
:1006D000D901AD53BD4D9C91981311C0F90185E02E
:1006E000EE0FFF1F8A95E1F7EB57FB4D1082118249
:1006F000168E178E2D5A3B4DF901108208952F5FEB
:100700003F4F2233310509F70895CF93DF93DC0182
:10071000E5EFF2E28381882321F08581841301C013
:100720001382379684E2E335F807A1F7ED019E01C5
:100730002A1B3B0B2617370700F558819981552353
:10074000E1F08091F0218517C1F0E5EFF2E230E0B1
:1007500020E083818823A1F08081851311C087E088
:10076000829FF001839FF00D1124EB50FD4D868197
:10077000981718F445839F5F9683DF91CF91089572
:100780002F5F3F4F37962233310519F7E5EFF2E23D
:1007900030E020E0838181110DC087E0829FF0016D
:1007A000839FF00D1124EB50FD4D508381E0838336
:1007B0008483E0CF2F5F3F4F37962233310551F7C7
:1007C0002296B5CFCF92DF92EF92FF920F931F93B5
:1007D000CF93DF93E3E5EE2EE4E2FE2EE701F0E0B7
:1007E000E0E09991992339F08F010D531D4DD80107
:1007F0009C91981721F13196E233F10591F7F0E0E1
:10080000E0E0D7019D917D01911150C0DF01AD5312
:10081000BD4D8C9391E0DF01AD5ABB4D9C93DF0140
:1008200055E0AA0FBB1F5A95E1F7AB57BB4D1C9281
:1008300011961C9211975E961D921C925F97922FB3
:1008400092959F702F706F0135E0CC0CDD1C3A95AE
:10085000E1F7D601AB57BB4D3C91311103C09C93DE
:1008600011962C93E601CB57DB4D3881391323C009
:100870009981921320C0262FDB018E01025E1F4F4B
:10088000F801608171819A2F921B9417E8F06C3106
:10089000710588F0482FC60189579B4D0E9485033A
:1008A00018821982D8011D921C9205C03196E2333C
:1008B000F10509F0A6CFDF91CF911F910F91FF9025
:1008C000EF90DF90CF9008956C31710560F47B015B
:1008D000EFEFEE1AFE0AF801E082F1829C916C0FB4
:1008E0007D1FFB0192831196CBCF1F920F920FB603
:1008F0000F9211240BB60F92EF92FF920F931F935A
:100900002F933F934F935F936F937F938F939F9317
:10091000AF93BF93EF93FF93CF93DF93CDB7DEB742
:10092000A397CDBFDEBFCE0101967C0180E2F70127
:1009300011928A95E9F7AE014F5D5F4FBE016E5D82
:100940007F4FCE0183960E94280789A18823B9F0A2
:100950000E947809182F682FC7010E948E0889818C
:100960000E94D2020981802F0E941B03882339F044
:100970008A81813020F08330F0F0833031F1A3960A
:10098000CDBFDEBFDF91CF91FF91EF91BF91AF91CE
:100990009F918F917F916F915F914F913F912F9197
:1009A0001F910F91FF90EF900F900BBE0F900FBE15
:1009B0000F901F9018954EEF410F2B81BE016C5F79
:1009C0007F4F802F0E94E203DACF8091F0219B813C
:1009D0009813D5CF8C819091F0214CEF410F89175E
:1009E00031F0BE016B5F7F4F0E945502C8CF642F6C
:1009F000CE0105960E943403C2CFAF92BF92CF9230
:100A0000DF92EF92FF920F931F93CF93DF93CDB7B7
:100A1000DEB76C97CDBFDEBF10922221109223214A
:100A200010922421109225217C015C0182EAA81AEF
:100A30008EEFB80A10E000E0D70113968C9113975F
:100A4000882309F444C014968C91882309F43FC08C
:100A500098012F5F3F4FA1E0B0E0AC0FBD1FA00F8A
:100A6000B11FF70180818C930E5F1F4FE1E0F0E032
:100A7000EC0FFD1FE20FF31FD70116968C918083B8
:100A80000C31110520F1C0902221D0902321C80102
:100A90000E94990AF601EE0FFF1FE65AFF4D808370
:100AA0009183A801BE016F5F7F4F0E94E00BF601AA
:100AB000EE0FFF1FE254FF4D00831183BFEFCB1AEF
:100AC000DB0AC0922221D092232110E000E0E7E06F
:100AD000EE0EF11CAE14BF0409F0AECF01151105E6
:100AE00011F1E0902221F0902321C8010E94990A7F
:100AF000F701EE0FFF1FE65AFF4D80839183A80197
:100B0000BE016F5F7F4F0E94E00BF701EE0FFF1FEA
:100B1000E254FF4D00831183FFEFEF1AFF0AE092CA
:100B20002221F09223216C96CDBFDEBFDF91CF91C1
:100B30001F910F91FF90EF90DF90CF90BF90AF90FB
:100B400008950F931F93CF93DF93CDB7DEB7A09790
:100B5000CDBFDEBF2091242130912521809122211B
:100B6000909123212817390720F085EF92E20E9407
:100B7000FD044091222150912321DE01139641155D
:100B8000510509F453C08091242190912521FC0145
:100B9000EE0FFF1FE65AFF4D60813181FC01EE0F21
:100BA000FF1FE254FF4D00811181282F2295207FE5
:100BB000742F7F70272B01964817590791F181E018
:100BC0009EE1FD0111929A95E9F79091F0219983A8
:100BD0008A832B83E62FF32FDE011496CF01800F3B
:100BE000911FE817F907F9F40E940F09F89464E0DF
:100BF000600FCE0101960E943E0978940E94DB08A6
:100C00008091242190912521019680932421909315
:100C10002521A096CDBFDEBFDF91CF911F910F910F
:100C2000089582E0CDCF21912D93DBCF8EE1FD01A0
:100C300011928A95E9F78091F021898382E08A8375
:100C400081E08B830E940F09F89464E0CE01019645
:100C50000E943E0978940E94DB08DBCF1F920F921E
:100C60000FB60F9211240BB60F921F932F933F9341
:100C70004F935F936F937F938F939F93AF93BF93A4
:100C8000CF93DF93EF93FF93C5EFD2E211E08B8117
:100C9000882399F08D81811110C089819A8118165D
:100CA00019061CF4019789839A8389819A81009798
:100CB00009F51B8288810E946103279684E2C3356F
:100CC000D80729F70E94A105FF91EF91DF91CF91FD
:100CD000BF91AF919F918F917F916F915F914F9154
:100CE0003F912F911F910F900BBE0F900FBE0F9051
:100CF0001F9018954F9714F01C83DFCF1C82E5EFEF
:100D0000F2E28381882329F095818881981301C0BC
:100D10001382379684E2E335F80799F7CECFE0E403
:100D2000F6E088E0818384E0828382E08183E0EAE8
:100D3000F6E080E2818380E4828380E88183E0EAD8
:100D4000F8E088E1848380EC8583178281E08683E4
:100D500008958093A0088091A10886FFFCCF809120
:100D6000A10880648093A1088091A00808951F9332
:100D7000CF93DF93C0EAD6E010E21E838F710E940A
:100D8000A9068FEF0E94A9061D83DF91CF911F91C5
:100D9000089584E00E94B706282F22952F7030E036
:100DA0002F5F3F4F9AEF929FA001939F500D112408
:100DB0008F7090E001969C01429FC001439F900D6F
:100DC000529F900D11240895EF92FF920F931F935D
:100DD000CF93DF937B01142F90E29093A6068F713F
:100DE00080620E94A906082FE701115058F480E2A2
:100DF0008093A506802FDF91CF911F910F91FF90D7
:100E0000EF90089589910E94A906EFCFFF920F936A
:100E10001F93CF93DF93F62EC0EAD6E010E21E8335
:100E20008F7180620E94A906082F8F2D0E94A9064B
:100E30001D83802FDF91CF911F910F91FF90089517
:100E400080E00E94B706682F626080E00C9406077D
:100E5000EF92FF920F931F93CF93DF937C018B014F
:100E6000EA0160E787E00E940607982F9072F70179
:100E70009083982F9071F801908380748883DF911C
:100E8000CF911F910F91FF90EF900895CF93DF9333
:100E9000EC0140910B20BC018AE00E94E4064091E5
:100EA0000B20BE0180E10E94E40660910C206032BC
:100EB00028F481E1DF91CF910C94060760E2F9CF2D
:100EC0000F931F93CF93DF93C82F8B01811110C015
:100ED00040910B2050E081EF91E20E94E00BEC2F5B
:100EE000F0E0E05BFF4D40910B20B80180810AC02B
:100EF000873038F5E82FF0E0E05BFF4D808141E07E
:100F0000C13069F30E94E406D0E0FE01E65BFF4DCC
:100F100060910C2080810E94060782E00E94B70643
:100F2000CC5BDF4D988161E070E001C0660F9A955F
:100F3000EAF7682B82E0DF91CF911F910F910C941B
:100F40000607DF91CF911F910F910895682F87FDBC
:100F50006FE785E00C9406076FE3811101C060E044
:100F600081E00C940607CF93C82F86E00E94B70655
:100F7000897F6C2F6670682B86E0CF910C940607F2
:100F8000CF93C82F86E00E94B706877D6C2F6872CA
:100F9000682B86E00E94060786E00E94B70691E073
:100FA0008C1390E0892FCF910895CF93C82F80E0C4
:100FB0000E94B706837F6C2F6C70682B80E0CF9106
:100FC0000C940607682B84E00C94060760E787E022
:100FD0000C940607DF92EF92FF920F931F93CF932B
:100FE000DF93D82EE92E842FC0910C20DC2F6C17B4
:100FF00008F4D62F9091F621CD1B9111C0E090E21C
:101000009093A6060E94A906F82E0D2D1E2DD150F4
:1010100070F4C15090F480E28093A5068F2DDF918B
:10102000CF911F910F91FF90EF90DF900895F801FD
:1010300081918F010E94A906EACF80E00E94A90653
:10104000E8CF0F931F93CF93DF93EC01162F042F5C
:1010500080E00E94B706682F6E7F81FD23C062602A
:1010600080E00E9406078FE79EE30197F1F700C03A
:1010700000008FE094E00197F1F700C00000402FDE
:10108000612FCE010E94EA0780E88093A5069AE6C8
:101090009A95F1F700C08093A606DF91CF911F913A
:1010A0000F91089580E00E940607E3CFDF92EF9250
:1010B000FF920F931F93CF93DF93D82EE92EC09109
:1010C0000C20DC2F6C1708F4D62F8091F621CD1B55
:1010D0008111C0E080E28093A60681E60E94A90605
:1010E000F82E0D2D1E2DD15070F4C15098F480E2D1
:1010F0008093A5068F2DDF91CF911F910F91FF90C7
:10110000EF90DF9008958FEF0E94A906F801819378
:101110008F01E9CF8FEF0E94A906E7CF0E94560802
:1011200087E10E94B706817008951F93CF93DF93E4
:10113000C0EAD6E010E21E8382EE0E94A9061D835B
:10114000DF91CF911F9108951F93CF93DF93C0EA52
:10115000D6E010E21E8381EE0E94A9061D83DF9176
:10116000CF911F9108958FE39CE90197F1F700C09B
:1011700000006FE584E00E94060786E00E94B30746
:1011800080E20E94C007882319F081E080930D203F
:1011900080E00E94C0078CE00E94D50760E08CE1EF
:1011A0000E9406078CE40E94A6070E94E6070E94A0
:1011B00095080C94A40880E00E94B706682F81FD72
:1011C00029C0636080E00E9406078FE79EE30197D5
:1011D000F1F700C000008FE094E00197F1F700C044
:1011E000000060E787E00E94060740910B2061EF56
:1011F00071E28AE00E94E4060E9495080E94A40819
:1012000080E88093A5068FE094E00197F1F700C095
:1012100000000895616080E00E940607DCCF80E84E
:101220008093A6060E9495080C94A408CF93DF93A0
:101230000E94C90664E670E00E94850AEB012097CF
:1012400061F087E00E94B7062197EFE1F3E0319764
:10125000F1F700C00000807391F387E00E94B706A9
:10126000C82F0E9495080E94A40860E787E00E94AA
:1012700006078C2F8072DF91CF91089540EA0E947B
:1012800021080C9416091F93CF93DF93C0EAD6E090
:1012900010E21E8380E50E94A90683E70E94A9064A
:1012A0001D83DF91CF911F9108958DE10E94B706B4
:1012B000682F64608DE10E9406078DE10E94B706E9
:1012C00081110AC00E9443098DE10E94B706682F70
:1012D00064608DE10E9406078CE10E94B706682FCA
:1012E0006F638CE10E94060781E08093F6210895E8
:1012F0001F93CF93DF93C0EAD6E010E21E8380E60F
:101300000E94A9068FEF0E94A9061D83DF91CF914D
:101310001F9108952091C22291E0920F8091C122E5
:10132000943610F09DE9920F891710F0891B0895EB
:101330008C59FCCFCF93DF93C82FD1E20E948A094A
:101340008823D9F08091C222E82FF0E0E35AFD4DC6
:10135000C0838F5F843608F080E09091A200292F2F
:101360002E7F2093A2008093C22281E28093A30B60
:101370009093A200DF91CF910895D093A30BDECF7D
:10138000CF93DF93D82FCFEF0E948A09882379F07B
:10139000CC2389F0DA3019F48DE00E949A098D2F60
:1013A0000E949A0990E080E0DF91CF910895CC23CC
:1013B00011F0C150E9CF81E090E0F6CF0C949A098A
:1013C000E0EAF6E098E1928B88E08583818324E06F
:1013D0002283E0EAFBE086831782948380E28383A2
:1013E000E0EAF0E0828183608283E9ECFAE28EE059
:1013F00090E28083918382839383089580915C221D
:1014000090915B22891710F0891B08958C59FCCFAD
:10141000CF93C0915B220E94FE098823E1F3EC2F59
:10142000F0E0E950FE4D8081CF5FC43608F0C0E0A7
:10143000C0935B22CF9108950E94080A90E008951E
:101440000E94FE09882321F00E94080A90E0089576
:1014500080E091E008951F920F920FB60F92112431
:101460000BB60F928F939F93EF93FF9380915C2223
:10147000E82FF0E09091A00BE950FE4D90838F5F34
:10148000843608F080E090915B22981380935C2270
:10149000FF91EF919F918F910F900BBE0F900FBE18
:1014A0000F901F9018951F920F920FB60F92112454
:1014B0000BB60F922F938F939F93EF93FF9380918F
:1014C000C1229091C222891312C080E28093A30BA3
:1014D000892F8093C122FF91EF919F918F912F913E
:1014E0000F900BBE0F900FBE0F901F901895E82F16
:1014F000F0E0E35AFD4D20812093A00B8F5F8436EE
:1015000008F080E08913E5CFE0CFAA1BBB1B51E1B7
:1015100007C0AA1FBB1FA617B70710F0A61BB70B63
:10152000881F991F5A95A9F780959095BC01CD0108
:1015300008950F931F93CF93DF938230910510F49A
:1015400082E090E0E091C72AF091C82A30E020E0E4
:10155000B0E0A0E0309799F42115310509F44AC0B4
:10156000281B390B24303105D8F58A819B81611500
:10157000710589F1FB0182839383FE0111C04081D3
:1015800051810281138148175907E0F04817590724
:1015900099F4109761F012960C93129713961C937E
:1015A0003296CF01DF91CF911F910F910895009353
:1015B000C72A1093C82AF4CF2115310551F04217DC
:1015C000530738F0A901DB019A01BD01DF01F801E1
:1015D000C1CFEF01F9CF8093C72A9093C82ACDCF0E
:1015E000FE01E20FF31F819391932250310928836A
:1015F0003983D7CF2091C52A3091C62A232B41F4B5
:1016000020910220309103202093C52A3093C62ACE
:1016100020910020309101202115310541F42DB792
:101620003EB74091042050910520241B350BE091DA
:10163000C52AF091C62AE217F307A0F42E1B3F0B30
:101640002817390778F0AC014E5F5F4F2417350734
:1016500048F04E0F5F1F4093C52A5093C62A8193CE
:1016600091939FCFF0E0E0E09CCFCF93DF93009782
:10167000E9F0FC01329712821382A091C72AB0913F
:10168000C82AED0130E020E01097A1F420813181DB
:10169000820F931F2091C52A3091C62A2817390737
:1016A00009F061C0E093C52AF093C62ADF91CF917B
:1016B0000895EA01CE17DF07E8F54A815B819E01B4
:1016C00041155105B1F7E901EA83FB83499159912D
:1016D000C40FD51FEC17FD0761F48081918102963C
:1016E000840F951FE90188839983828193818A837E
:1016F0009B83F0E0E0E012968D919C911397009708
:10170000B9F52D913C911197CD010296820F931F4F
:101710002091C52A3091C62A2817390739F6309703
:1017200051F51092C72A1092C82AA093C52AB093E7
:10173000C62ABCCFC283D38340815181840F951FB9
:10174000C817D90761F44E5F5F4F88819981480FB0
:10175000591F408351838A819B8182839383211502
:10176000310509F0B0CFE093C72AF093C82A9ECF85
:10177000FD01DC01C0CF12821382D7CFFC01882784
:101780009927E89421912032E9F3293010F02E3086
:10179000C8F32B3241F02D3239F4689404C00E9412
:1017A000170C820F911D219120532A30C0F31EF493
:1017B000909581959F4F089546E550E20C94F00B6B
:1017C000FB01DC0102C001900D9241505040D8F75E
:1017D0000895FB01DC0101900D920020E1F70895CE
:1017E000FA01A191B081009719F41097E1F0CD01B1
:1017F000DC01CD010D90002011F4C00113C0FB01EC
:101800002191222319F02015D9F7F3CFFB01219163
:10181000201519F41E92119606C02223C1F70D90CF
:101820000020A1F7D001FA01A193B08308957AE0D6
:10183000979F902D879F802D910D11240895CF9310
:10184000DF93CDB7DEB7AE014A5F5F4FFA0161911A
:101850007191AF018091CB2A9091CC2A0E94330CD8
:10186000DF91CF9108952F923F924F925F926F92A6
:101870007F928F929F92AF92BF92CF92DF92EF9220
:10188000FF920F931F93CF93DF93CDB7DEB72B97C4
:10189000CDBFDEBF7C013B018A01FC0116821782AD
:1018A000838181FFDAC1CE0101965C01F70193814A
:1018B000F30193FD859193FF81913F01882309F402
:1018C00053C1853239F493FD859193FF81913F0196
:1018D000853229F4B70190E00E94460EE7CF912CA3
:1018E000212C312CFFE1F31538F08B3211F190F4FB
:1018F000803209F1833229F137FC3CC020ED280FFA
:101900002A3050F536FE20C08AE0989E200D112422
:10191000922E06C08D3291F0803371F7689430F8C2
:10192000F30193FD859193FF81913F018111DACFFE
:1019300021C0689431F8689432F8F2CF689433F893
:10194000EFCF689434F8ECCFEAE02E9E200D1124FE
:10195000222E689435F8E4CF8E3229F436FC04C187
:10196000689436F8DDCF8C3619F4689437F8D8CF00
:101970008836B1F2982F9F7D95549330E0F08336EE
:10198000A1F18337C1F1833509F063C02801F2E08A
:101990004F0E511CF801C080D180692D70E036FCDB
:1019A00002C06FEF7FEFC6010E94300E4C016894B9
:1019B00037F882010AC00C5F1F4FFFE3F9838824C8
:1019C0008394912C6501E89437F833FE2DC0522C96
:1019D0008114910471F5552009F468CFB70180E2B4
:1019E00090E00E94460E5A94F6CFF80180818983D8
:1019F0000E5F1F4FE4CF2801F2E04F0E511CF8019B
:101A0000C080D180692D70E036FC02C06FEF7FEF9F
:101A1000C6010E943B0E4C018201D5CFB70180E286
:101A200090E00E94460E2A942814190409F0B0F799
:101A3000CECFF60137FC859137FE81916F01B7015A
:101A400090E00E94460E51105A94F1E08F1A9108CE
:101A5000BFCF843619F0893609F077C0F80137FE18
:101A60006BC060817181828193810C5F1F4FF32D68
:101A7000FF763F2E97FF09C09095809570956195F0
:101A80007F4F8F4F9F4F689437F82AE030E0A501D1
:101A90000E94760EC82ECA188C2C432C36FE0CC021
:101AA000E89440F8C91440F434FE05C032FC03C089
:101AB000F32DFE7E4F2E892C44FEA7C0FE01EC0DB7
:101AC000F11D8081803309F099C0242D297E422E9A
:101AD000842D8870582E43FCA7C040FEA1C09C2CCA
:101AE000821418F42C0C922C981844FEA3C0B70151
:101AF00080E390E00E94460E42FE09C088E790E035
:101B000041FE02C088E590E0B7010E94460EC9146C
:101B100008F49CC0CA94D12C9FEFC91AD90ACA0CE8
:101B2000DB1CF60182916F01B70190E00E94460E26
:101B3000AC14BD04B1F74FCF60817181072E000C4A
:101B4000880B990B0E5F1F4F92CFD32CE894D4F8DB
:101B50002AE030E08537C9F1232D297FD22E8F3638
:101B600091F1D8F4883539F1F701868197812B9668
:101B7000CDBFDEBFDF91CF911F910F91FF90EF900E
:101B8000DF90CF90BF90AF909F908F907F906F909D
:101B90005F904F903F902F900895803749F088379D
:101BA00019F7D4FE02C06894D2F820E130E00DC0ED
:101BB0006894D4F8F6CF34FE03C0822F8660D82E06
:101BC00020E132E002C028E030E0F801D7FE0FC08B
:101BD00060817181828193810C5F1F4FA5010E94FA
:101BE000760EC82ECA183D2CE89437F855CF608180
:101BF000718190E080E00E5F1F4FF0CF42FC02C089
:101C0000839466CF8394839463CF842D867809F47C
:101C10005FCFF6CFB70180E290E00E94460E83943A
:101C20008214C0F3512C61CF522C5818821408F43E
:101C30005CCFF8CF842D867809F469CF8BE241FE22
:101C400080E247FC8DE2B70190E05FCFB70180E30F
:101C500090E00E94460E9A945ACF8FEF9FEF87CF65
:101C6000FC010590615070400110D8F78095909567
:101C70008E0F9F1F0895FC0161507040019001106C
:101C8000D8F7809590958E0F9F1F08950F931F93FF
:101C9000CF93DF93182F092FEB018B8181FD09C0B2
:101CA0001FEF0FEF812F902FDF91CF911F910F9199
:101CB000089582FF14C02E813F818C819D81281759
:101CC00039073CF4E881F981CF0101968883998333
:101CD00010838E819F8101968E839F83E3CFE88559
:101CE000F985812F1995892BA1F3DACFFA01AA275B
:101CF000283051F1203181F1E8946F936E7F6E5F4F
:101D00007F4F8F4F9F4FAF4FB1E03ED0B4E03CD0FC
:101D1000670F781F891F9A1FA11D680F791F8A1FDF
:101D2000911DA11D6A0F711D811D911DA11D20D046
:101D300009F468943F912AE0269F11243019305D00
:101D40003193DEF6CF010895462F4770405D4193F1
:101D5000B3E00FD0C9F7F6CF462F4F70405D4A333E
:101D600018F0495D31FD4052419302D0A9F7EACF06
:101D7000B4E0A6959795879577956795BA95C9F735
:101D800000976105710508959B01AC010A2E069428
:101D90005795479537952795BA95C9F7620F731FE1
:0C1DA000841F951FA01D0895F894FFCF2C
:101DAC000000CF2A2000304772704505200100004A
:101DBC00000300000000C0091C0A000046726F6D91
:101DCC003A20253032582C205061796C6F61643A7E
:101DDC002025732C206E756D427974653A2025642C
:101DEC000A00200000010203040511121314151639
:061DFC000A0B0C0D0E0F96
:00000001FF
