:100000000C9483010C94A4010C94A4010C94A401FD
:100010000C94A4010C94A4010C94A4010C94A401CC
:100020000C94A4010C94A4010C94A4010C94A401BC
:100030000C94A4010C94A4010C946C0A0C94A401DB
:100040000C94A4010C94A4010C94A4010C94A4019C
:100050000C94A4010C94A4010C94A4010C94A4018C
:100060000C94A4010C94A4010C94A4010C94A4017C
:100070000C94A4010C94A4010C94A4010C94A4016C
:100080000C94A4010C94A4010C94A4010C94A4015C
:100090000C94A4010C94A4010C94A4010C94A4014C
:1000A0000C94A4010C94A4010C94A4010C94A4013C
:1000B0000C94A4010C94A4010C94A4010C94A4012C
:1000C0000C94A4010C94A4010C94A4010C94A4011C
:1000D0000C94A4010C94A4010C94A4010C94A4010C
:1000E0000C94A4010C94A4010C94A4010C94A401FC
:1000F0000C94A4010C94A4010C94A4010C94A401EC
:100100000C94A4010C94A4010C94A4010C94A401DB
:100110000C94A4010C94A4010C94A4010C94A401CB
:100120000C94A4010C94A4010C94A4010C94A401BB
:100130000C94A4010C94A4010C94A4010C94A401AB
:100140000C94A4010C94A4010C94A4010C94A4019B
:100150000C94A4010C94A4010C94A4010C94A4018B
:100160000C94A4010C94A4010C94A4010C94A4017B
:100170000C94A4010C94A4010C94A4010C94A4016B
:100180000C94A4010C94A4010C94A4010C94A4015B
:100190000C94A4010C94A4010C94A4010C94A4014B
:1001A0000C94B5080C94A4010C94A4010C94A40123
:1001B0000C94A4010C94A4010C94A4010C94A4012B
:1001C0000C94A4010C94A4010C94A4010C94A4011B
:1001D0000C94A4010C94A4010C94A4010C94830E1F
:1001E0000C94A60E0C94A4010C94A4010C94A401EC
:1001F0000C94A4010C94A4010C94A4010C94170E6B
:100200000C94740E6E616E00696E660000407A1088
:10021000F35A00A0724E18090010A5D4E80000E8B7
:100220007648170000E40B54020000CA9A3B000015
:1002300000E1F505000080969800000040420F00A4
:100240000000A08601000000102700000000E80365
:10025000000000006400000000000A000000000030
:100260000100000000002C76D888DC674F0823DFEF
:10027000C1DFAE59E1B1B796E5E3E453C63AE651C2
:10028000997696E8E6C28426EB898C9B62ED407CE9
:100290006FFCEFBC9C9F40F2BAA56FA5F490055A85
:1002A0002AF75C936B6CF9676DC11BFCE0E40D47AA
:1002B000FEF520E6B500D0ED902E030094357705CD
:1002C0000080841E080000204E0A000000C80C3385
:1002D0003333330F986E12831141EF8D2114893B14
:1002E000E65516CFFEE6DB18D1844B381BF77C1D94
:1002F000901DA4BBE424203284725E228100C9F1E7
:1003000024ECA1E53D2711241FBECFEFCDBFDFE5D3
:10031000DEBF00E00CBF10E2A0E0B0E2EAE0F4E2F1
:1003200000E00BBF02C007900D92AC38B107D9F7BF
:100330002BE2ACE8B0E201C01D92A530B207E1F7B4
:100340000E943E050C9403120C9400002F923F92E1
:100350004F925F926F927F928F929F92AF92BF92D5
:10036000CF92DF92EF92FF920F931F93CF93DF9381
:10037000CDB7DEB72F97CDBFDEBF6C011B014A01A1
:10038000FC011682178283819E012F5F3F4F390146
:1003900081FDCFC08FEF9FEFDDC2F12C512C00E02B
:1003A000003238F48B3209F190F48032F9F0833264
:1003B00009F107FD34C020ED280F2A3020F506FF93
:1003C0001BC0FAE0FF9E200D1124F22E05C08D32D5
:1003D00079F0803371F70160F10193FD859193FF0E
:1003E00081911F018111DCCF1AC002600460F4CF3B
:1003F0000860F2CF0061F0CF3AE0539E200D112447
:10040000522E0062E9CF8E3221F406FDA0C20064B4
:10041000E3CF8C3611F40068DFCF8836E9F29BEB2E
:10042000980F933008F05CC00061805E06FD02C04A
:1004300046E0F42E102F1F73853609F058C0106463
:1004400017FF5EC08F2D9BE39F1508F48BE34424B8
:100450004394480E27E0F40161917191819191914B
:100460005F01042DA3010E9430104C01F981FC872B
:10047000F0FF03C00DE2F3FF07C00BE211FD04C063
:10048000012F047012FD00E22C852C70E22E09F47D
:100490006BC00111C4C2F3E0E12CF515A0F483E0B8
:1004A000E52CE81A13FD08C0B60180E290E00E9436
:1004B0006111EA94E110F8CF002329F0B601802FF2
:1004C00090E00E9461113C8524E0822E22E0922E71
:1004D00033FD04C098E0892E92E0992E107122C05D
:1004E0009BE9980F933008F048C10F7E9FCF863666
:1004F00011F41068A5CFFF2009F4A2CFFA94A0CF81
:10050000E7E02F2DEF1518F427E037E0F32E412C0C
:10051000A2CF11118052B60190E00E9461118FEFBD
:10052000881A980AF40184918111F3CFE11070C206
:100530004501F6019381F10193FD859193FF81912E
:100540001F01882309F403C2853241F493FD85918C
:1005500093FF81911F01853209F01FCFB60190E012
:100560000E9461115401E4CF17FF70C0480CFC8554
:10057000F4FF04C08A81813309F44A9414140CF006
:1005800087C028E0241510F488E0482E85E090E02C
:1005900017FF06C0C40197FE02C090E080E00196FC
:1005A00001110196FF2031F02F2D30E02F5F3F4FDA
:1005B000820F931F5816190619F014F0E52CE81A4B
:1005C000812F897011F4E11068C0002329F0B60171
:1005D000802F90E00E94611113FD02C0E11064C001
:1005E00017FF7DC0840197FE02C010E000E0C40147
:1005F000841991092C016F2D70E0EE27FF27E61B6F
:10060000F70BEE87FF87801691060CF454C0401656
:1006100051060CF050C0F401E01BF10BE60DF71D84
:100620008181015011092E853F85021713070CF4B3
:1006300044C0B60190E00E9461110F3F100719F706
:10064000B6018EE290E00E946111DDCF16FD9ECFD3
:10065000EF2DF0E0E815F90534F03CEF83163FEF9D
:1006600093060CF010683296E60DF71D01C0FA945F
:10067000FF2019F082918033D1F317FF87CF4424F4
:1006800043944F0CF814190431F02CF0F8187ECF75
:10069000442443947BCFF12C79CFB60180E290E0E3
:1006A0000E946111EA948FCFB60180E390E00E942E
:1006B0006111EA9493CF80E3B4CF8016910641F4A0
:1006C0009A81963350F4953319F49C8594FF05C0B4
:1006D000B60190E00E94611129CF81E3F9CF8A81B0
:1006E000813319F0EC85EF7EEC87B60190E00E9433
:1006F0006111FF20A9F0B6018EE290E00E94611125
:10070000F394F394E2E001E00E0FE60DF72DF11DF6
:100710008081B60190E00E946111E02F0F11F3CFAC
:1007200085E690E014FF02C085E490E0B6010E94E7
:10073000611197FC06C081149104C1F4FC85F4FF9B
:1007400015C09194819491088DE2B60190E00E94C9
:10075000611180E33AE08316910454F4B60190E00D
:100760000E946111B601C401C096B4CF8BE2EDCFF7
:100770008F5F2AE0821A9108EDCF8336B1F083377C
:1007800059F1833509F055C0F401819091905F01D2
:100790006F2D70E006FD02C06FEF7FEFC4010E9475
:1007A00008118C879D8700680DC0540182E0A80E57
:1007B000B11CF4018081898321E030E02C873D87E2
:1007C00043010F7703FD06C02C853D8552161306A5
:1007D00009F090F4E52C28C0F401819091905F011C
:1007E0006F2D70E006FD02C06FEF7FEFC4010E9425
:1007F00027118C879D87E5CFB60180E290E00E94AB
:1008000061115A94E1CFF40107FD859107FF8191B1
:100810004F01B60190E00E946111E110EA948C85CD
:100820009D8501978C879D87EC85FD85EF2B59F77A
:100830007DCE843619F0893609F06EC0F40107FFC9
:1008400063C061917191819191915F01102F1F7629
:1008500097FF08C090958095709561957F4F8F4F59
:100860009F4F10682AE030E0A3010E94A511882E56
:100870008618982C012F16FF0AC00E7F8F1438F4AB
:1008800014FF04C012FD02C0012F0E7E9F2C04FF36
:1008900097C0FE01E80DF11D8081803309F089C009
:1008A000097EF02FF870EF2E03FD99C000FF93C072
:1008B000F82C951410F4F50CF91804FF96C0B60145
:1008C00080E390E00E94611102FF09C088E790E098
:1008D00001FF02C088E590E0B6010E9461118F140B
:1008E00008F48FC08A94082D10E00F5F1F4F060D8B
:1008F000171DF80182918F01B60190E00E946111ED
:1009000006151705B1F712CE619171915F01072E9F
:10091000000C880B990B9ACF102F853791F41F7E0E
:100920002AE030E0F40117FF3EC06191719181919E
:1009300091915F01A3010E94A511882E86181F774F
:1009400098CF197F8F3661F1D8F4883521F1F601FF
:10095000868197812F96CDBFDEBFDF91CF911F910A
:100960000F91FF90EF90DF90CF90BF90AF909F904E
:100970008F907F906F905F904F903F902F90089551
:10098000803739F0883719F714FD146020E130E022
:10099000C9CF1061F9CF04FD166020E132E0C2CF6B
:1009A00028E030E0BFCF619171915F0190E080E07D
:1009B000C1CF02FD02C0939474CF9394939471CFEE
:1009C000802F867809F46DCFF6CFB60180E290E0F3
:1009D0000E94611193949514C0F3E12C6ECFE52C25
:1009E000E918951408F469CFF8CF802F867809F4B8
:1009F00076CF8BE201FF80E207FD8DE2B60190E049
:100A00006CCFB60180E390E00E946111FA9467CF49
:100A1000B60180E290E00E946111EA9487CD24E063
:100A2000E12C251508F04ACD84E03ACD8BEC80937B
:100A30005200809150008860809350008091510056
:100A400083FFFCCF82EC8093550080915000806141
:100A5000809350008091510084FFFCCF88ED84BFCB
:100A600084E080934000809150008E7F80935000FE
:100A7000809150008D7F809350000895CDB7DEB7F0
:100A8000C457D109CDBFDEBF0E94160560E078E4EF
:100A900088EE91E00E94370E82E40E94F30581E027
:100AA000809341068091A20081608093A200789497
:100AB0008E01075A1F4F28018FEF481A580A8CE100
:100AC000682E80E2782EFE0131964F01CE01CD9640
:100AD0006C01B0965F01F8018CE111928A95E9F7FB
:100AE000C8010E94B806811591F0F801E80FF11DC8
:100AF00010821F928F935F924F92F80180811F9214
:100B00008F937F926F920E949111CDBFDEBF0E94A2
:100B1000550E811501F30E94780E382E9DE0391292
:100B20004DC080918E2090918F20892BA1F28DE075
:100B30000E94350E8AE00E94350EE0918E20F091E1
:100B40008F20CF01019680938E2090938F2010826A
:100B500060E070E0C4010E94201162E470E2C40110
:100B60000E9413117C010097A9F0BC01C6010E94EC
:100B70002011F60101900020E9F73197EC19FD09E9
:100B8000B701681979096E0F7F1FC5010E942011F6
:100B9000E2E4E9A3F50101900020E9F731971F0194
:100BA0002A183B08C6010E941210422DB5010E946E
:100BB0004D0610928E2010928F208DCFFEE43F12B2
:100BC00003C00E94DD0687CF832D0E94350EE09181
:100BD0008E20F0918F20CF01019680938E209093EC
:100BE0008F20308278CFCF93C82F1092010886E0F3
:100BF0008093000881E08093060884ED90E3809361
:100C00002608909327080E94CD0A0E94080D68E0EC
:100C100080E30E942F0C80E00E94000C80E20E9482
:100C20000D0C8CE00E94220C86E30E94F10B80E008
:100C30000E94F90B0E94AB0D0E94330C0E94EA0C3B
:100C40000E94F90C8091AA0680648093AA0682E033
:100C50008093B6062091A9068091A90630E02C7FEA
:100C60002160822B8093A90686E090E20E94880B87
:100C700066E070E280E00E94A50B0E94300D0E94A9
:100C8000620BC093CA28EBECF8E2138237968AE233
:100C9000E932F807D1F7CF910895FF920F931F9390
:100CA000CF93DF93CDB7DEB7A097CDBFDEBF962F32
:100CB000142F4D3138F5DE01119620E2FD0111921D
:100CC0002A95E9F72091CA28298323E02A838C8377
:100CD000EBECF8E220E030E0FA2E0B2F43814115D7
:100CE00091F1408148132FC047E0429FF001439F9C
:100CF000F00D1124E553F74D258121110CC08B8394
:100D000081110AC0A096CDBFDEBFDF91CF911F91A8
:100D10000F91FF9008952B83E92FF72FDE01159691
:100D2000CF01810F911DE817F907A1F40E94640D0E
:100D3000F89464E0610F8F2D902F0E94940D7894A9
:100D40000E94300DDFCF2F5F3F4F379622333105A2
:100D500029F6D8CF21912D93E6CF9091C928809183
:100D6000C828981718F0981B892F08959853FBCF1F
:100D70000F931F93CF93DF938C01D0E0C091C828CD
:100D80000E94AD06811599F0EC2FF0E0E050F84D8F
:100D90009081CF5FC83C08F0C0E0C093C8289D3068
:100DA00031F0F80191938F01DF5FDC3139F78D2F3E
:100DB000DF91CF911F910F9108950F931F93CF93C0
:100DC000DF93CBECD8E204E410E28B818115C9F00B
:100DD0008D811F928F938C811F928F938A818F9325
:100DE00089818F938E811F928F9388811F928F9319
:100DF0001F930F930E9491118DB79EB70C968DBFD4
:100E00009EBF27969AE2C932D907F9F6DF91CF91B2
:100E10001F910F910895ABECB8E2FD0120E030E0A6
:100E200093819115D9F09081981318C087E0829F23
:100E3000F001839FF00D1124E553F74D81819281DC
:100E40000A9681839283158221E026838734910557
:100E500054F186E490E08183928308952F5F3F4FA1
:100E6000379622333105E1F620E030E013969C916D
:100E70001397911112C097E0929FF001939FF00D8C
:100E80001124E553F74D80838AE090E081839283BB
:100E900081E083831582868308952F5F3F4F1796E5
:100EA0002233310519F70895EBECF8E220E030E049
:100EB000908198130AC087E0829FF001839FF00D14
:100EC0001124E553F74D848108952F5F3F4F3796E6
:100ED0002233310569F780E00895AC0170E020E02D
:100EE00030E09DE08091C928E82FF0E0E050F84D17
:100EF0006217730781F490838F5F883C08F080E06D
:100F0000E091C828E8138093C9282F5F3F4F6217EC
:100F1000730744F70895DA01A20FB31FAC91A083C1
:100F2000EBCFEEE8F1E220E030E091919115B9F0DD
:100F3000D901A45ABE4D9C91981311C0F90185E0C6
:100F4000EE0FFF1F8A95E1F7E054FE4D10821182EB
:100F5000168E178E22573E4DF901108208952F5F8D
:100F60003F4F2233310509F70895CF93DF93EB010B
:100F7000EBECF8E22381211521F02581241301C037
:100F8000138237962AE2E932F207A1F7FC0160E00A
:100F900070E06C177D0798F59081911581F1809133
:100FA000CA28891709F450C08181ABECB8E220E06F
:100FB00030E013965C911397511521F15C91591310
:100FC00021C097E0929FF001939FF00D1124E5530B
:100FD000F74D9681682F70E06F5F7F4F691771053D
:100FE0001CF0948191110BC097E0929FF001939FA8
:100FF000F00D1124E553F74D45838F5F8683DF9114
:10100000CF9108952F5F3F4F17962233310589F610
:10101000ABECB8E220E030E013965C9113975111ED
:101020000DC057E0529FF001539FF00D1124E5537E
:10103000F74D908391E093839483DECF2F5F3F4FF2
:1010400017962233310541F76E5F7F4F3296A1CF5D
:10105000EF92FF920F931F93CF93DF93382F562F6A
:101060000EE811E2E801E0E0F0E08991811539F045
:10107000CF01845A9E4DDC018C91831721F131966A
:10108000E233F10591F7E0E0F0E0D8018D918D01B8
:10109000811148C0DF01A45ABE4D3C9381E0DF01BD
:1010A000A257BE4D8C93DF01C5E0AA0FBB1FCA95A6
:1010B000E1F7A054BE4D1C9211961C9211975E96BA
:1010C0001D921C925F97622F62956F702F70CF01F7
:1010D000E5E0880F991FEA95E1F7FC01E054FE4D29
:1010E000A081A1112BC060832183E52FF72FEC0194
:1010F000C054DE4D7E01BEE1EB0EF11CD7016D91B7
:101100007C912E2F251B2417F8F06C31710578F097
:10111000432F8E539E4D0E94B507188219821E8E52
:101120001F8E05C03196E233F10509F0AECFDF9195
:10113000CF911F910F91FF90EF900895A613F7CFD5
:1011400061816213F4CFD1CF6C31710560F48B01F2
:101150000F5F1F4FD7010D931C9320816C0F7D1FD4
:10116000DB0112962C933196C9CF1F920F920FB6C6
:101170000F9211240BB60F92EF92FF920F931F93D1
:101180002F933F934F935F936F937F938F939F938F
:10119000AF93BF93EF93FF93CF93DF93CDB7DEB7BA
:1011A000A397CDBFDEBFCE0101967C0180E2F7019F
:1011B00011928A95E9F7AE014F5D5F4FBE016E5DFA
:1011C0007F4FCE0183960E946A0B89A18115B9F0E9
:1011D0000E94CE0D182F682FC7010E94E30CF894CF
:1011E00089810E940B070981802F0E945407811575
:1011F00031F08A818330F8F4811131C07894A3965C
:10120000CDBFDEBFDF91CF91FF91EF91BF91AF9145
:101210009F918F917F916F915F914F913F912F910E
:101220001F910F91FF90EF900F900BBE0F900FBE8C
:101230000F901F901895833009F78091CA289B81E1
:101240009813DCCF8C819091CA284CEF410F8917FD
:1012500081F0BE016B5F7F4F0E944D06CFCF4EEFF6
:10126000410F2B81BE016C5F7F4F802F0E942808A9
:10127000C5CF642FCE0105960E946D07BFCFAF92F8
:10128000BF92CF92DF92EF92FF920F931F93CF9373
:10129000DF93CDB7DEB76C97CDBFDEBF109258217C
:1012A0001092592110925A2110925B217C01825A8E
:1012B0009E4F5C0100E010E0D70113968C911397CC
:1012C000811509F43FC014968C918115D9F19801CC
:1012D0002F5F3F4FDE011196A00FB11FF7018081F4
:1012E0008C930E5F1F4FFE013196E20FF31FD70163
:1012F00016968C9180830C31110520F1C0905821F5
:10130000D0905921C8010E94E70EF601EE0FFF1F91
:10131000E057FF4D80839183A801BE016F5F7F4F2F
:101320000E941711F601EE0FFF1FEC50FF4D0083D6
:101330001183BFEFCB1ADB0AC0925821D0925921FA
:1013400000E010E0E7E0EE0EF11CEA14FB0409F007
:10135000B3CF0115110511F1E0905821F0905921FA
:10136000C8010E94E70EF701EE0FFF1FE057FF4D87
:1013700080839183A801BE016F5F7F4F0E94171188
:10138000F701EE0FFF1FEC50FF4D00831183FFEFBD
:10139000EF1AFF0AE0925821F09259216C96CDBFC6
:1013A000DEBFDF91CF911F910F91FF90EF90DF9003
:1013B000CF90BF90AF900895EF92FF920F931F933D
:1013C000CF93DF93CDB7DEB7A097CDBFDEBF20911F
:1013D0005A2130915B2180915821909159212817F1
:1013E000390720F08BEC98E20E943F094091582188
:1013F000509159218E010F5F1F4F4115510509F47E
:1014000054C080915A2190915B21FC01EE0FFF1F87
:10141000E057FF4D60813181FC01EE0FFF1FEC5062
:10142000FF4DE080F180282F2295207F742F7F7060
:10143000272B01964817590799F582E090E2F801A9
:1014400011929A95E9F79091CA2899838A832B8300
:10145000E62FF32FDE011496CF018E0D9F1DE817A6
:10146000F90701F50E94640DF89464E06E0DC8015F
:101470000E94940D78940E94300D80915A21909191
:101480005B21019680935A2190935B21A096CDBF5A
:10149000DEBFDF91CF911F910F91FF90EF900895E4
:1014A00081E0CCCF21912D93DACF80E2F801119227
:1014B0008A95E9F78091CA28898382E08A8381E04E
:1014C0008B830E94640DF89464E0C8010E94940D1F
:1014D00078940E94300DDACF1F920F920FB60F92C0
:1014E00011240BB60F921F932F933F934F935F934B
:1014F0006F937F938F939F93AF93BF93CF93DF931C
:10150000EF93FF93CBECD8E211E089819A81181612
:1015100019061CF4019789839A838B81811559F0F0
:101520008D81811108C089819A81009709F51B82FC
:1015300088810E94910727968AE2C932D80729F745
:101540000E94DC09FF91EF91DF91CF91BF91AF91A4
:101550009F918F917F916F915F914F913F912F91CB
:101560001F910F900BBE0F900FBE0F901F901895FC
:101570004F9714F01C83DFCF1C82EBECF8E28381E1
:10158000811529F095818881981301C013823796BF
:101590008AE2E932F80799F7CECFE0E4F6E088E096
:1015A000818384E0828382E08183E0EAF6E080E266
:1015B000818380E4828380E88183E0EAF8E088E147
:1015C000848380EC8583178281E0868308958093ED
:1015D000A0088091A10886FFFCCF8091A1088064BB
:1015E0008093A1088091A00808951F93CF93DF9363
:1015F000C0EAD6E010E21E838F710E94E70A8FEFE7
:101600000E94E70A1D83DF91CF911F91089584E026
:101610000E94F50A982F92959F709F5F8F708F5F41
:10162000989FC00111242AEFAC01249FC001259F7F
:10163000900D11240895EF92FF920F931F93CF9373
:10164000DF937B01C42F90E29093A6068F71806296
:101650000E94E70AD82F9E2D8F2DCE0DC9130BC0E7
:1016600080E28093A5068D2FDF91CF911F910F917E
:10167000FF90EF900895092F182FF80181918F01A5
:101680000E94E70A902F812FE9CFFF920F931F93BB
:10169000CF93DF93D62F00EA16E090E2F92EF801FF
:1016A000F6828F7180620E94E70AC82F8D2F0E94F8
:1016B000E70AF801F5828C2FDF91CF911F910F91EE
:1016C000FF90089580E00E94F50A682F626080E034
:1016D0000C94450BEF92FF920F931F93CF93DF93E0
:1016E0007C018B01EA0160E787E00E94450B982F9F
:1016F0009072F7019083982F9071F8019083807415
:101700008883DF91CF911F910F91FF90EF90089503
:10171000CF93DF93D82FC92F40910B20682F792FBB
:101720008AE00E941B0B40910B206D2F7C2F80E1E3
:101730000E941B0B60910C20603228F481E1DF9144
:10174000CF910C94450B60E2F9CFFF920F931F935A
:10175000CF93DF93182FF62E072F811112C04091DF
:101760000B2050E089E29AE20E941711C12FD0E0CD
:10177000FE01EA57FF4D40910B206F2D702F8081A5
:101780000BC0873040F5C82FD0E0FE01EA57FF4D6F
:10179000808141E0113051F30E941B0BFE01E058A3
:1017A000FF4D60910C2080810E94450B82E00E94D9
:1017B000F50AC658DF4D988161E070E001C0660F00
:1017C0009A95EAF7682B82E0DF91CF911F910F91F4
:1017D000FF900C94450BDF91CF911F910F91FF90DB
:1017E0000895682F87FD03C085E00C94450B6FE7D3
:1017F000FBCF6FE3811101C060E081E00C94450BE9
:10180000CF93C82F86E00E94F50A682F697FC670C3
:101810006C2B86E0CF910C94450BCF93C82F86E0BC
:101820000E94F50A6C2F6872877D682B86E00E9403
:10183000450B86E00E94F50A982F81E09C1380E01A
:10184000CF910895CF93C82F80E00E94F50A682FAA
:10185000637FCC706C2B80E0CF910C94450B682B90
:1018600084E00C94450B60E787E00C94450BDF9215
:10187000EF92FF920F931F93CF93DF93D82EE92E11
:10188000842FC0910C20DC2F6C1708F4D62F909178
:101890002E2ACD1B9111C0E090E29093A6060E94E3
:1018A000E70AF82E2D2D3E2DDD0DD2130EC0C111ED
:1018B00013C080E28093A5068F2DDF91CF911F91F9
:1018C0000F91FF90EF90DF900895F90181918F01C2
:1018D0000E94E70A9801E9CF80E00E94E70AC15020
:1018E000E6CF0F931F93CF93DF93D82FC92F162FD7
:1018F000042F80E00E94F50A682F6E7F81FD24C0CE
:10190000626080E00E94450B8FE79EE30197F1F74C
:1019100000C000008FE094E00197F1F700C00000E4
:10192000402F612F8D2F9C2F0E94370C80E88093D1
:10193000A5069AE69A95F1F700C08093A606DF9176
:10194000CF911F910F91089580E00E94450BE2CF47
:10195000DF92EF92FF920F931F93CF93DF93D82ED6
:10196000E92EC0910C20DC2F6C1708F4D62F809143
:101970002E2ACD1B8111C0E080E28093A60681E66D
:101980000E94E70AF82E2D2D3E2DDD0DD2130EC03C
:10199000C11114C080E28093A5068F2DDF91CF91F5
:1019A0001F910F91FF90EF90DF90089589018FEFC5
:1019B0000E94E70AF80181939F01E8CF8FEF0E9410
:1019C000E70AC150E5CF0E94A80C87E10E94F50A02
:1019D000817008951F93CF93DF93C0EAD6E010E2A1
:1019E0001E8382EE0E94E70A1D83DF91CF911F9133
:1019F00008951F93CF93DF93C0EAD6E010E21E83D1
:101A000081EE0E94E70A1D83DF91CF911F91089517
:101A10008FE39CE90197F1F700C000006FE584E0D7
:101A20000E94450B86E00E94000C80E20E940D0C93
:101A3000811519F081E080930D2080E00E940D0C4B
:101A40008CE00E94220C60E08CE10E94450B8CE44B
:101A50000E94F10B0E94330C0E94EA0C0C94F90CCA
:101A600080E00E94F50A682F81FD29C0636080E054
:101A70000E94450B8FE79EE30197F1F700C000003D
:101A80008FE094E00197F1F700C0000060E787E085
:101A90000E94450B40910B2069E27AE28AE00E94A5
:101AA0001B0B0E94EA0C0E94F90C80E88093A506AB
:101AB0008FE094E00197F1F700C0000008956160A5
:101AC00080E00E94450BDCCF80E88093A6060E9450
:101AD000EA0C0C94F90CCF93DF930E94070B64E699
:101AE00070E00E94D30EEB0187E00E94F50A219777
:101AF000EFE1F3E03197F1F700C00000807381114E
:101B000002C0209789F787E00E94F50AC82F0E943B
:101B1000EA0C0E94F90C60E787E00E94450B8C2FCD
:101B20008072DF91CF91089540EA0E94710C0C946D
:101B30006B0D1F93CF93DF93C0EAD6E010E21E83B4
:101B400080E50E94E70A83E70E94E70A1D83DF9190
:101B5000CF911F9108958DE10E94F50A682F64606E
:101B60008DE10E94450B8DE10E94F50A81110AC0AA
:101B70000E94990D8DE10E94F50A682F64608DE145
:101B80000E94450B8CE10E94F50A682F6F638CE17F
:101B90000E94450B81E080932E2A08951F93CF93D6
:101BA000DF93C0EAD6E010E21E8380E60E94E70AD7
:101BB0008FEF0E94E70A1D83DF91CF911F91089557
:101BC0002091FA2A81E0820F9091F92A843610F050
:101BD0008DE9820F981718F0981B892F08959C594A
:101BE000FBCFCF93DF93C82FD1E20E94E00D811588
:101BF000D9F08091FA2AE82FF0E0EB56F54DC0833A
:101C00008F5F843608F080E09091A200292F2E7F0C
:101C10002093A2008093FA2A81E28093A30B9093F1
:101C2000A200DF91CF910895D093A30BDECFCF9385
:101C3000DF93C82FDFEF0E94E00D811579F0D115F9
:101C400089F0CA3019F48DE00E94F10D8C2F0E94AA
:101C5000F10D80E090E0DF91CF910895D11511F062
:101C6000D150E9CF81E090E0F6CF0C94F10DE0EA9D
:101C7000F6E098E1928B88E08583818324E02283DB
:101C8000E0EAFBE086831782948380E28383E0EAC4
:101C9000F0E0828183608283EFEFFAE28EE090E2EF
:101CA000808391838283938308959091942A809175
:101CB000932A981718F0981B892F08959C59FBCFE9
:101CC000CF93C091932A0E94550E8115E1F3EC2F1A
:101CD000F0E0E15DF54D8081CF5FC43608F0C0E0F3
:101CE000C093932ACF9108950E94600E90E00895CA
:101CF0000E94550E811521F00E94600E90E008951B
:101D000080E091E008958F938FB78F938BB78F9377
:101D10009F93EF93FF938091942AE82FF0E09091A6
:101D2000A00BE15DF54D90838F5F843608F080E075
:101D30009091932A98138093942AFF91EF919F9109
:101D40008F918BBF8F918FBF8F9118952F932FB746
:101D50002F932BB72F938F939F93EF93FF938091A4
:101D6000F92A9091FA2A891310C080E28093A30B7C
:101D7000892F8093F92AFF91EF919F918F912F9155
:101D80002BBF2F912FBF2F911895E82FF0E0EB5626
:101D9000F54D20812093A00B8F5F843608F080E002
:101DA0008913E7CFE2CFAA1BBB1B51E107C0AA1FD3
:101DB000BB1FA617B70710F0A61BB70B881F991FEC
:101DC0005A95A9F780959095BC01CD0108950F9380
:101DD0001F93CF93DF938230910510F482E090E05F
:101DE000E091FD2AF091FE2A30E020E0B0E0A0E092
:101DF000309799F42115310509F447C0281B390B98
:101E000024303105C0F58A819B816115710571F11E
:101E1000FB0182839383FE0111C0408151810281C5
:101E2000138148175907F8F04817590799F4109784
:101E300061F012960C93129713961C933296CF0171
:101E4000DF91CF911F910F9108950093FD2A109378
:101E5000FE2AF4CF2115310519F04217530718F463
:101E60009A01BD01EF01DF01F801C2CF8093FD2A85
:101E70009093FE2AD0CFFE01E20FF31F819391933E
:101E80002250310928833983DACF2091FB2A3091FF
:101E9000FC2A232B41F4209102203091032020932F
:101EA000FB2A3093FC2A209100203091012021153B
:101EB000310541F42DB73EB74091042050910520E3
:101EC000241B350B4091FB2A5091FC2A42175307E3
:101ED00008F0B5CF241B350B2817390708F4AFCF0E
:101EE000BC016E5F7F4F2617370708F4A8CF640F39
:101EF000751F6093FB2A7093FC2AFA0181939193DA
:101F00009ECFCF93DF930097E9F0FC0132971282C6
:101F10001382C091FD2AD091FE2ADE0130E020E03C
:101F20002097A1F420813181820F931F2091FB2AF9
:101F30003091FC2A2817390709F067C0E093FB2A83
:101F4000F093FC2ADF91CF910895DA01AE17BF0715
:101F500008F040C012964D915C9113979D01411578
:101F6000510599F7D9011296ED93FC9313974D9172
:101F70005D91A40FB51FEA17FB0779F48081918169
:101F80000296840F951FD9018D939C93119782819E
:101F9000938112968D939C931397B0E0A0E08A8171
:101FA0009B810097B9F5FE0181919191E80FF91F8E
:101FB0008091FB2A9091FC2A8E179F0719F61097A3
:101FC00061F51092FD2A1092FE2AC093FB2AD0934D
:101FD000FC2AB8CFA283B38340815181840F951F1F
:101FE000A817B90771F44E5F5F4F8D919C911197BF
:101FF000480F591F4083518312968D919C91828383
:1020000093832115310509F0ADCFE093FD2AF093BC
:10201000FE2A98CFDE01EC01C2CF12961D921C92CF
:102020001397D3CFFC0188279927E8942191203278
:10203000E9F3293010F02E30C8F32B3241F02D3265
:1020400039F4689404C00E945911820F911D2191A6
:1020500020532A30C0F31EF4909581959F4F089528
:10206000283008F027E03327DA01990F311D87FD6A
:10207000916000966105710539F432602E5F3D93E1
:1020800030E32A95E1F708959F3F30F080387105DD
:10209000610509F03C5F3C5F3D93913008F080683A
:1020A000911DDF93CF931F930F93FF92EF92192F00
:1020B000987F9695E92F96959695E90FFF27EA590F
:1020C000FD4F99273327EE24FF24A701E701059050
:1020D0000894079428F4360FE71EF81E491F511D77
:1020E000660F771F881F991F0694A1F70590079424
:1020F00028F4E70EF81E491F561FC11D770F881FD1
:10210000991F661F0694A1F70590079428F4F80E0E
:10211000491F561FC71FD11D880F991F661F771FA4
:102120000694A1F70590079420F4490F561FC71F86
:10213000D81F990F661F771F881F0694A9F78491EF
:102140001095177041F0D695C79557954795F79418
:10215000E7941A95C1F7ECE0F2E0689415901591B8
:1021600035916591959105907FE27395E118F10A9B
:10217000430B560BC90BD009C0F7E10CF11E431FEE
:10218000561FC91FD01D7EF4703311F48A95E6CF17
:10219000E894015030F0080F0AF40027021708F401
:1021A000202F2395022F7A3328F079E37D932A9507
:1021B000E9F710C07D932A9589F60694979567955F
:1021C000379517951794E118F10A430B560BC90B75
:1021D000D00998F023957E9173957A3308F070E3D7
:1021E0007C932013B8F77E9170617D9330F08395D6
:1021F00071E37D9370E32A95E1F71124EF90FF904E
:102200000F911F91CF91DF91992787FD90950895A8
:10221000FC010590615070400110D8F780959095B1
:102220008E0F9F1F08954CE850E20C943211FB0171
:10223000DC0102C001900D9241505040D8F7089542
:10224000FB01DC0101900D920020E1F70895FC01F3
:102250006150704001900110D8F7809590958E0FD5
:102260009F1F0895FA01A191B081009719F410976A
:10227000E1F0CD01DC01CD010D90002011F4C00191
:1022800013C0FB012191222319F02015D9F7F3CFB8
:10229000FB012191201519F41E92119606C02223EC
:1022A000C1F70D900020A1F7D001FA01A193B083EE
:1022B00008957AE0979F902D879F802D910D11248E
:1022C00008950F931F93CF93DF93182F092FEB01DE
:1022D0008B8181FD09C01FEF0FEF812F902FDF91C0
:1022E000CF911F910F91089582FF14C02E813F81DD
:1022F0008C819D81281739073CF4E881F981CF0151
:1023000001968883998310838E819F8101968E83A5
:102310009F83E3CFE885F985812F1995892BA1F358
:10232000DACFCF93DF93CDB7DEB7AE014A5F5F4F11
:10233000FA0161917191AF018091012B9091022B73
:102340000E94A601DF91CF910895FA01AA272830B3
:1023500051F1203181F1E8946F936E7F6E5F7F4F72
:102360008F4F9F4FAF4FB1E03ED0B4E03CD0670FEE
:10237000781F891F9A1FA11D680F791F8A1F911D41
:10238000A11D6A0F711D811D911DA11D20D009F491
:1023900068943F912AE0269F11243019305D3193D3
:1023A000DEF6CF010895462F4770405D4193B3E0BC
:1023B0000FD0C9F7F6CF462F4F70405D4A3318F063
:1023C000495D31FD4052419302D0A9F7EACFB4E014
:1023D000A6959795879577956795BA95C9F70097CC
:1023E0006105710508959B01AC010A2E069457956D
:1023F000479537952795BA95C9F7620F731F841FC4
:0A240000951FA01D0895F894FFCF6A
:10240A000000052B200030477270450520010000AE
:10241A00000300000000170E740E000046726F6D74
:10242A003A20253032642C205061796C6F61643A0D
:10243A002025732C206E756D427974653A202564C7
:10244A000A00200049443A2025642C20686F7073E2
:10245A003A2025642C205765696768743A202564F8
:10246A002C20547275737465643A2025642C204FAD
:10247A00776E65723A2025640A000001020304059A
:0C248A001112131415160A0B0C0D0E0F86
:00000001FF
