:100000000C9402010C9423010C9423010C94230101
:100010000C9423010C9423010C9423010C942301D0
:100020000C9423010C9423010C9423010C942301C0
:100030000C9423010C9423010C94CA020C94230108
:100040000C9423010C9423010C9423010C942301A0
:100050000C9423010C9423010C9423010C94230190
:100060000C9423010C9423010C9423010C94230180
:100070000C9423010C9423010C9423010C94230170
:100080000C9423010C9423010C9423010C94230160
:100090000C9423010C9423010C9423010C94230150
:1000A0000C9423010C9423010C9423010C94230140
:1000B0000C9423010C9423010C9423010C94230130
:1000C0000C9423010C9423010C9423010C94230120
:1000D0000C9423010C9423010C9423010C94230110
:1000E0000C9423010C9423010C9423010C94230100
:1000F0000C9423010C9423010C9423010C942301F0
:100100000C9423010C9423010C9423010C942301DF
:100110000C9423010C9423010C9423010C942301CF
:100120000C9423010C9423010C9423010C942301BF
:100130000C9423010C9423010C9423010C942301AF
:100140000C9423010C9423010C9423010C9423019F
:100150000C9423010C9423010C9423010C9423018F
:100160000C9423010C9423010C9423010C9423017F
:100170000C9423010C9423010C9423010C9423016F
:100180000C9423010C9423010C9423010C9423015F
:100190000C9423010C9423010C9423010C9423014F
:1001A0000C9423020C9423010C9423010C9423013E
:1001B0000C9423010C9423010C9423010C9423012F
:1001C0000C9423010C9423010C9423010C9423011F
:1001D0000C9423010C9423010C9423010C943307F9
:1001E0000C945B070C9423010C9423010C942301C1
:1001F0000C9423010C9423010C9423010C94C80645
:100200000C94240711241FBECFEFCDBFDFE5DEBF66
:1002100000E00CBF10E2A0E0B0E2E2E7F5E100E0B0
:100220000BBF02C007900D92A434B107D9F728E2A2
:10023000A4E4B0E201C01D92AC35B207E1F70E9420
:100240004D010C94B70A0C9400008BEC8093520083
:10025000809150008860809350008091510083FF0E
:10026000FCCF82EC80935500809150008061809398
:1002700050008091510084FFFCCF88ED84BF84E062
:1002800080934000809150008E7F80935000809139
:1002900050008D7F809350000895CF93DF93CDB7AA
:1002A000DEB7CC55D109CDBFDEBF0E94250160E08D
:1002B00078E488EE91E00E94E80681E00E94140351
:1002C00081E0809341068091A20081608093A2002A
:1002D000789486E1A82E80E2B82ECE0101966C01BA
:1002E000FE01FF967F0181E00E947303009799F061
:1002F0009C012E5F3F4F3F932F93FC0180811F9203
:100300008F93BF92AF920E9402080F900F900F90B0
:100310000F900F900F900E940607882321F30E94F0
:100320002807182F8D3009F040C08DE00E94E606A6
:100330008AE00E94E606E0914620F0914720CF0136
:1003400001968093462090934720108270E060E0F1
:10035000C6010E94CC076FE270E2C6010E94BF078F
:100360008C010097A1F0BC01C7010E94CC07F701E6
:1003700001900020E9F73197BF016E197F090C1930
:100380001D09600F711FCE0181960E94CC07C70125
:100390000E94A1074EE1BE016F5D7F4F0E946E0378
:1003A00010924620109247209ECF0E94E606E091D0
:1003B0004620F0914720CF010196809346209093EC
:1003C0004720108390CFEF92FF921F93CF93DF933C
:1003D000CDB7DEB7A097CDBFDEBF142FFE01339699
:1003E0009EE1DF011D929A95E9F79091492099834A
:1003F0008A83DB01CE0101967C01FC01242F30E0D1
:10040000CF018E199F0982179307CCF08091482065
:100410008F5F809348200E941706F89461E0610F77
:10042000C7010E94460678940E94E305A096CDBFBE
:10043000DEBFDF91CF911F91FF90EF9008958D91D6
:1004400082833196DDCF1F920F920FB60F92112447
:100450000BB60F920F931F932F933F934F935F937E
:100460006F937F938F939F93AF93BF93EF93FF937C
:10047000CF93DF93CDB7DEB7A397CDBFDEBF8E019D
:100480000F5F1F4F80E2F80111928A95E9F7AE01E4
:100490004F5D5F4FBE016E5D7F4FCE0183960E9420
:1004A000300489A1882399F10E948006682FC80131
:1004B0000E9496052981ECE1F1E290E080E033A111
:1004C000332309F441C0308132135DC025E2289FF7
:1004D000D001299FB00D1124CD01845E9E4D2A814B
:1004E000FC012183A25EBE4D2EE1FE0133960190F8
:1004F0000D922A95E1F721E0FC0122A320A131A170
:10050000265F3F4F25363105E4F420A331A3A3969F
:10051000CDBFDEBFDF91CF91FF91EF91BF91AF9142
:100520009F918F917F916F915F914F913F912F910B
:100530001F910F910F900BBE0F900FBE0F901F9049
:10054000189524E630E0E1CF35E2389FD001399F9D
:10055000B00D1124CD01845E9E4DFC0120832A81C3
:100560002183A25EBE4D2EE1FE01339601900D92D5
:100570002A95E1F721E0FC0122A34AE050E040A3E4
:1005800051A323A3C4CF0196B5968233910509F0F8
:1005900096CFBDCF1F920F920FB60F9211240BB6BC
:1005A0000F922F933F934F935F936F937F938F930C
:1005B0009F93AF93BF93EF93FF93ECE1F1E221E0C0
:1005C00083A1882369F080A191A1181619061CF453
:1005D000019780A391A380A191A10097F9F413A2A0
:1005E000B59688E2E635F80759F741E070E060E03B
:1005F00080E00E94E301FF91EF91BF91AF919F9145
:100600008F917F916F915F914F913F912F910F90BB
:100610000BBE0F900FBE0F901F9018954F9714F0C0
:1006200024A3DECF14A2DCCFCF93C82F10920108F1
:1006300086E08093000881E08093060884ED90E3D3
:1006400080932608909327080E9497030E94BB0579
:1006500068E080E30E94EA0480E00E94BB0480E23C
:100660000E94C8048CE00E94DD0488E10E94AE0470
:1006700080E00E94B4040E945D060E94EE040E9485
:100680009D050E94AC058091AA0680648093AA060D
:1006900082E08093B6068091A9062091A90690E099
:1006A0008C7F8160822B8093A90680E090E20E947B
:1006B0004E0460E070E280E00E9468040E94E3055E
:1006C0000E942804C0934920ECE1F1E213A2B59600
:1006D00088E2E635F807D1F7CF9108954F3110F44D
:1006E0000C94E3010895ECE1F1E230E020E093A105
:1006F0009923A1F09181981311C085E2829FF001A6
:10070000839FF00D1124E45EFE4D84A1882361F0E7
:1007100082A1882349F012A2CF0108952F5F3F4F95
:10072000B5962233310519F780E090E00895E0E4B2
:10073000F6E088E0818384E0828382E08183E0EADE
:10074000F6E080E2818380E4828380E88183E0EACE
:10075000F8E088E1848380EC8583178281E08683DA
:1007600008958093A0088091A10886FFFCCF809116
:10077000A10880648093A1088091A00808951F9328
:10078000CF93DF93C0EAD6E010E21E838F710E9400
:10079000B1038FEF0E94B1031D83DF91CF911F91B1
:1007A000089584E00E94BF03282F22952F7030E027
:1007B0002F5F3F4F9AEF929FA001939F500D1124FE
:1007C0008F7090E001969C01429FC001439F900D65
:1007D000529F900D11240895EF92FF920F931F9353
:1007E000CF93DF937B01142F90E29093A6068F7135
:1007F00080620E94B103082FE701115058F480E293
:100800008093A506802FDF91CF911F910F91FF90CC
:10081000EF90089589910E94B103EFCFFF920F935B
:100820001F93CF93DF93F62EC0EAD6E010E21E832B
:100830008F7180620E94B103082F8F2D0E94B10337
:100840001D83802FDF91CF911F910F91FF9008950D
:1008500080E00E94BF03682F626080E00C940E0469
:10086000EF92FF920F931F93CF93DF937C018B0145
:10087000EA0160E787E00E940E04982F9072F7016A
:100880009083982F9071F801908380748883DF9112
:10089000CF911F910F91FF90EF900895CF93DF9329
:1008A000EC0140910520BC018AE00E94EC034091DC
:1008B0000520BE0180E10E94EC03609106206032B9
:1008C00028F481E1DF91CF910C940E0460E2F9CF1E
:1008D0000F931F93CF93DF93C82F8B01811110C00B
:1008E0004091052050E08AE490E20E94C307EC2F7B
:1008F000F0E0E35CFF4D40910520B80180810AC023
:10090000873038F5E82FF0E0E35CFF4D808141E06F
:10091000C13069F30E94EC03D0E0FE01E95CFF4DB9
:100920006091062080810E940E0482E00E94BF0335
:10093000CF5CDF4D988161E070E001C0660F9A9551
:10094000EAF7682B82E0DF91CF911F910F910C9411
:100950000E04DF91CF911F910F910895682F87FDAD
:100960006FE785E00C940E046FE3811101C060E035
:1009700081E00C940E04CF93C82F86E00E94BF0341
:10098000897F6C2F6670682B86E0CF910C940E04E3
:10099000CF93C82F86E00E94BF03877D6C2F6872BB
:1009A000682B86E00E940E0486E00E94BF0391E05F
:1009B0008C1390E0892FCF910895CF93C82F80E0BA
:1009C0000E94BF03837F6C2F6C70682B80E0CF91F7
:1009D0000C940E04682B84E00C940E0460E787E00E
:1009E0000C940E04DF92EF92FF920F931F93CF931C
:1009F000DF93D82EE92E842FC0910620DC2F6C17B0
:100A000008F4D62F90914F20CD1B9111C0E090E2B9
:100A10009093A6060E94B103F82E0D2D1E2DD150E5
:100A200070F4C15090F480E28093A5068F2DDF9181
:100A3000CF911F910F91FF90EF90DF900895F801F3
:100A400081918F010E94B103EACF80E00E94B1033F
:100A5000E8CF0F931F93CF93DF93EC01162F042F52
:100A600080E00E94BF03682F6E7F81FD23C062601B
:100A700080E00E940E048FE79EE30197F1F700C02B
:100A800000008FE094E00197F1F700C00000402FD4
:100A9000612FCE010E94F20480E88093A5069AE6B9
:100AA0009A95F1F700C08093A606DF91CF911F9130
:100AB0000F91089580E00E940E04E3CFDF92EF9241
:100AC000FF920F931F93CF93DF93D82EE92EC091FF
:100AD0000620DC2F6C1708F4D62F80914F20CD1BF9
:100AE0008111C0E080E28093A60681E60E94B103F6
:100AF000F82E0D2D1E2DD15070F4C15098F480E2C7
:100B00008093A5068F2DDF91CF911F910F91FF90BC
:100B1000EF90DF9008958FEF0E94B103F801819369
:100B20008F01E9CF8FEF0E94B103E7CF0E945E05EE
:100B300087E10E94BF03817008951F93CF93DF93D5
:100B4000C0EAD6E010E21E8382EE0E94B1031D834C
:100B5000DF91CF911F9108951F93CF93DF93C0EA48
:100B6000D6E010E21E8381EE0E94B1031D83DF9167
:100B7000CF911F9108958FE39CE90197F1F700C091
:100B800000006FE584E00E940E0486E00E94BB0432
:100B900080E20E94C804882319F081E08093072036
:100BA00080E00E94C8048CE00E94DD0460E08CE1DB
:100BB0000E940E048CE40E94AE040E94EE040E9487
:100BC0009D050C94AC0580E00E94BF03682F81FD59
:100BD00029C0636080E00E940E048FE79EE30197C6
:100BE000F1F700C000008FE094E00197F1F700C03A
:100BF000000060E787E00E940E04409105206AE44F
:100C000070E28AE00E94EC030E949D050E94AC0500
:100C100080E88093A5068FE094E00197F1F700C08B
:100C200000000895616080E00E940E04DCCF80E83F
:100C30008093A6060E949D050C94AC05CF93DF938C
:100C40000E94D10364E670E00E948D07EB012097BB
:100C500061F087E00E94BF032197EFE1F3E0319755
:100C6000F1F700C00000807391F387E00E94BF039A
:100C7000C82F0E949D050E94AC0560E787E00E9496
:100C80000E048C2F8072DF91CF91089540EA0E946C
:100C900029050C941E061F93CF93DF93C0EAD6E07C
:100CA00010E21E8380E50E94B10383E70E94B10336
:100CB0001D83DF91CF911F9108958DE10E94BF03A5
:100CC000682F64608DE10E940E048DE10E94BF03D5
:100CD00081110AC00E944B068DE10E94BF03682F5C
:100CE00064608DE10E940E048CE10E94BF03682FB6
:100CF0006F638CE10E940E0481E080934F20089581
:100D00001F93CF93DF93C0EAD6E010E21E8380E604
:100D10000E94B1038FEF0E94B1031D83DF91CF9139
:100D20001F91089520911B2191E0920F80911A212B
:100D3000943610F09DE9920F891710F0891B0895E1
:100D40008C59FCCFCF93DF93C82FD1E20E9492063B
:100D50008823D9F080911B21E82FF0E0EA54FF4D61
:100D6000C0838F5F843608F080E09091A200292F25
:100D70002E7F2093A20080931B2181E28093A30BFE
:100D80009093A200DF91CF910895D093A30BDECF73
:100D9000CF93DF93D82FCFEF0E949206882379F06C
:100DA000CC2389F0DA3019F48DE00E94A2068D2F51
:100DB0000E94A20690E080E0DF91CF910895CC23BD
:100DC00011F0C150E9CF81E090E0F6CF0C94A2067B
:100DD000E0EAF6E098E1928B88E08583818324E065
:100DE0002283E0EAFBE086831782948380E2838398
:100DF000E0EAF0E0828183608283E6E5F8E288E061
:100E000090E2808391838283938308958091B520BB
:100E10009091B420891710F0891B08958C59FCCF4C
:100E2000CF93C091B4200E9406078823E1F3EC2FF2
:100E3000F0E0E05BFF4D8081CF5FC43608F0C0E09A
:100E4000C093B420CF9108950E94100790E00895B8
:100E50000E940607882321F00E94100790E0089561
:100E600080E091E008951F920F920FB60F92112427
:100E70000BB60F928F939F93EF93FF938091B520C2
:100E8000E82FF0E09091A00BE05BFF4D90838F5F27
:100E9000843608F080E09091B42098138093B520B8
:100EA000FF91EF919F918F910F900BBE0F900FBE0E
:100EB0000F901F9018951F920F920FB60F9211244A
:100EC0000BB60F922F938F939F93EF93FF93809185
:100ED0001A2190911B21891312C080E28093A30BE9
:100EE000892F80931A21FF91EF919F918F912F91DC
:100EF0000F900BBE0F900FBE0F901F901895E82F0C
:100F0000F0E0EA54FF4D20812093A00B8F5F8436E0
:100F100008F080E08913E5CFE0CFAA1BBB1B51E1AD
:100F200007C0AA1FBB1FA617B70710F0A61BB70B59
:100F3000881F991F5A95A9F780959095BC01CD01FE
:100F40000895FC0188279927E89421912032E9F33C
:100F5000293010F02E30C8F32B3241F02D3239F405
:100F6000689404C00E94FA07820F911D21912053BA
:100F70002A30C0F31EF4909581959F4F089544E464
:100F800050E20C94D307FB01DC0102C001900D92EA
:100F900041505040D8F70895FB01DC0101900D92BB
:100FA0000020E1F70895FA01A191B081009719F4AA
:100FB0001097E1F0CD01DC01CD010D90002011F47E
:100FC000C00113C0FB012191222319F02015D9F78C
:100FD000F3CFFB012191201519F41E92119606C042
:100FE0002223C1F70D900020A1F7D001FA01A193AF
:100FF000B08308957AE0979F902D879F802D910D63
:1010000011240895CF93DF93CDB7DEB7AE014A5FC9
:101010005F4FFA0161917191AF01809158289091D1
:1010200059280E941608DF91CF9108952F923F9280
:101030004F925F926F927F928F929F92AF92BF92E8
:10104000CF92DF92EF92FF920F931F93CF93DF9394
:10105000CDB7DEB72B97CDBFDEBF7C013B018A0148
:10106000FC0116821782838181FFDAC1CE010196CD
:101070005C01F7019381F30193FD859193FF8191C9
:101080003F01882309F453C1853239F493FD8591DA
:1010900093FF81913F01853229F4B70190E00E94CE
:1010A000290AE7CF912C212C312CFFE1F31538F0E0
:1010B0008B3211F190F4803209F1833229F137FC3F
:1010C0003CC020ED280F2A3050F536FE20C08AE0C3
:1010D000989E200D1124922E06C08D3291F08033FF
:1010E00071F7689430F8F30193FD859193FF819136
:1010F0003F018111DACF21C0689431F8689432F849
:10110000F2CF689433F8EFCF689434F8ECCFEAE08C
:101110002E9E200D1124222E689435F8E4CF8E32B5
:1011200029F436FC04C1689436F8DDCF8C3619F406
:10113000689437F8D8CF8836B1F2982F9F7D9554B0
:101140009330E0F08336A1F18337C1F1833509F0A4
:1011500063C02801F2E04F0E511CF801C080D1801D
:10116000692D70E036FC02C06FEF7FEFC6010E9470
:10117000130A4C01689437F882010AC00C5F1F4FB4
:10118000FFE3F98388248394912C6501E89437F870
:1011900033FE2DC0522C8114910471F5552009F4B1
:1011A00068CFB70180E290E00E94290A5A94F6CFF6
:1011B000F801808189830E5F1F4FE4CF2801F2E0A0
:1011C0004F0E511CF801C080D180692D70E036FCB3
:1011D00002C06FEF7FEFC6010E941E0A4C01820120
:1011E000D5CFB70180E290E00E94290A2A94281402
:1011F000190409F0B0F7CECFF60137FC859137FE20
:1012000081916F01B70190E00E94290A51105A9410
:10121000F1E08F1A9108BFCF843619F0893609F0B2
:1012200077C0F80137FE6BC0608171818281938144
:101230000C5F1F4FF32DFF763F2E97FF09C090954F
:101240008095709561957F4F8F4F9F4F689437F8C9
:101250002AE030E0A5010E94590AC82ECA188C2C39
:10126000432C36FE0CC0E89440F8C91440F434FE18
:1012700005C032FC03C0F32DFE7E4F2E892C44FEA8
:10128000A7C0FE01EC0DF11D8081803309F099C0EB
:10129000242D297E422E842D8870582E43FCA7C011
:1012A00040FEA1C09C2C821418F42C0C922C98188F
:1012B00044FEA3C0B70180E390E00E94290A42FEE9
:1012C00009C088E790E041FE02C088E590E0B701E0
:1012D0000E94290AC91408F49CC0CA94D12C9FEF1B
:1012E000C91AD90ACA0CDB1CF60182916F01B70139
:1012F00090E00E94290AAC14BD04B1F74FCF608181
:101300007181072E000C880B990B0E5F1F4F92CF37
:10131000D32CE894D4F82AE030E08537C9F1232DA6
:10132000297FD22E8F3691F1D8F4883539F1F70123
:10133000868197812B96CDBFDEBFDF91CF911F9124
:101340000F91FF90EF90DF90CF90BF90AF909F9064
:101350008F907F906F905F904F903F902F90089567
:10136000803749F0883719F7D4FE02C06894D2F864
:1013700020E130E00DC06894D4F8F6CF34FE03C00D
:10138000822F8660D82E20E132E002C028E030E0D3
:10139000F801D7FE0FC060817181828193810C5F5B
:1013A0001F4FA5010E94590AC82ECA183D2CE89467
:1013B00037F855CF6081718190E080E00E5F1F4F5C
:1013C000F0CF42FC02C0839466CF8394839463CFB2
:1013D000842D867809F45FCFF6CFB70180E290E0E4
:1013E0000E94290A83948214C0F3512C61CF522C9D
:1013F0005818821408F45CCFF8CF842D867809F44D
:1014000069CF8BE241FE80E247FC8DE2B70190E0BC
:101410005FCFB70180E390E00E94290A9A945ACFE7
:101420008FEF9FEF87CFFC01059061507040011056
:10143000D8F7809590958E0F9F1F0895FC016150FD
:10144000704001900110D8F7809590958E0F9F1FE6
:1014500008950F931F93CF93DF93182F092FEB015C
:101460008B8181FD09C01FEF0FEF812F902FDF913E
:10147000CF911F910F91089582FF14C02E813F815B
:101480008C819D81281739073CF4E881F981CF01CF
:1014900001968883998310838E819F8101968E8324
:1014A0009F83E3CFE885F985812F1995892BA1F3D7
:1014B000DACFFA01AA27283051F1203181F1E894DE
:1014C0006F936E7F6E5F7F4F8F4F9F4FAF4FB1E037
:1014D0003ED0B4E03CD0670F781F891F9A1FA11D32
:1014E000680F791F8A1F911DA11D6A0F711D811D33
:1014F000911DA11D20D009F468943F912AE0269FF8
:1015000011243019305D3193DEF6CF010895462F56
:101510004770405D4193B3E00FD0C9F7F6CF462F37
:101520004F70405D4A3318F0495D31FD40524193A0
:1015300002D0A9F7EACFB4E0A6959795879577955D
:101540006795BA95C9F700976105710508959B01E4
:10155000AC010A2E06945795479537952795BA956D
:10156000C9F7620F731F841F951FA01D0895F8947B
:02157000FFCFAB
:1015720030477270440520010000000300000000A3
:10158200C8062407000046726F6D3A202530325893
:101592002C205061796C6F61643A2025730A002017
:1015A200000001020304051112131415160A0B0C94
:0415B2000D0E0F000B
:00000001FF
