:100000000C9485010C94A6010C94A6010C94A601F5
:100010000C94A6010C94A6010C94A6010C94A601C4
:100020000C94A6010C94A6010C94A6010C94A601B4
:100030000C94A6010C94A6010C94780B0C94A601C8
:100040000C94A6010C94A6010C94A6010C94A60194
:100050000C94A6010C94A6010C94A6010C94A60184
:100060000C94A6010C94A6010C94A6010C94A60174
:100070000C94A6010C94A6010C94A6010C94A60164
:100080000C94A6010C94A6010C94A6010C94A60154
:100090000C94A6010C94A6010C94A6010C94A60144
:1000A0000C94A6010C94A6010C94A6010C94A60134
:1000B0000C94A6010C94A6010C94A6010C94A60124
:1000C0000C94A6010C94A6010C94A6010C94A60114
:1000D0000C94A6010C94A6010C94A6010C94A60104
:1000E0000C94A6010C94A6010C94A6010C94A601F4
:1000F0000C94A6010C94A6010C94A6010C94A601E4
:100100000C94A6010C94A6010C94A6010C94A601D3
:100110000C94A6010C94A6010C94A6010C94A601C3
:100120000C94A6010C94A6010C94A6010C94A601B3
:100130000C94A6010C94A6010C94A6010C94A601A3
:100140000C94A6010C94A6010C94A6010C94A60193
:100150000C94A6010C94A6010C94A6010C94A60183
:100160000C94A6010C94A6010C94A6010C94A60173
:100170000C94A6010C94A6010C94A6010C94A60163
:100180000C94A6010C94A6010C94A6010C94A60153
:100190000C94A6010C94A6010C94A6010C94A60143
:1001A0000C94E1090C94A6010C94A6010C94A601F0
:1001B0000C94A6010C94A6010C94A6010C94A60123
:1001C0000C94A6010C94A6010C94A6010C94A60113
:1001D0000C94A6010C94A6010C94A6010C94A606FE
:1001E0000C94C9060C94A6010C94A6010C94A601CB
:1001F0000C94A6010C94A6010C94A6010C94A206E2
:100200000C9467160C9447066E616E00696E66006A
:1002100000407A10F35A00A0724E18090010A5D4BD
:10022000E80000E87648170000E40B54020000CA1A
:100230009A3B000000E1F505000080969800000060
:1002400040420F000000A0860100000010270000BF
:100250000000E803000000006400000000000A0045
:10026000000000000100000000002C76D888DC6748
:100270004F0823DFC1DFAE59E1B1B796E5E3E453A0
:10028000C63AE651997696E8E6C28426EB898C9BBD
:1002900062ED407C6FFCEFBC9C9F40F2BAA56FA55D
:1002A000F490055A2AF75C936B6CF9676DC11BFCDF
:1002B000E0E40D47FEF520E6B500D0ED902E0300FA
:1002C000943577050080841E080000204E0A000047
:1002D00000C80C333333330F986E12831141EF8D06
:1002E0002114893BE65516CFFEE6DB18D1844B3846
:1002F0001BF77C1D901DA4BBE424203284725E2277
:100300008100C9F124ECA1E53D2711241FBECFEFE8
:10031000CDBFDFE5DEBF00E00CBF10E2A0E0B0E241
:10032000E2E3F9E300E00BBF02C007900D92AC38A6
:10033000B107D9F72BE2ACE8B0E201C01D92AD30B5
:10034000B207E1F70E9446050C94971C0C9400003C
:100350002F923F924F925F926F927F928F929F92D5
:10036000AF92BF92CF92DF92EF92FF920F931F93C3
:10037000CF93DF93CDB7DEB72F97CDBFDEBF6C0134
:100380001B014A01FC011682178283819E012F5FA7
:100390003F4F390181FDCFC08FEF9FEFDDC2F12CC0
:1003A000512C00E0003238F48B3209F190F48032A5
:1003B000F9F0833209F107FD34C020ED280F2A300F
:1003C00020F506FF1BC0FAE0FF9E200D1124F22E3F
:1003D00005C08D3279F0803371F70160F10193FD32
:1003E000859193FF81911F018111DCCF1AC00260BA
:1003F0000460F4CF0860F2CF0061F0CF3AE0539E82
:10040000200D1124522E0062E9CF8E3221F406FD18
:10041000A0C20064E3CF8C3611F40068DFCF8836C9
:10042000E9F29BEB980F933008F05CC00061805EAE
:1004300006FD02C046E0F42E102F1F73853609F02A
:1004400058C0106417FF5EC08F2D9BE39F1508F402
:100450008BE344244394480E27E0F40161917191A9
:10046000819191915F01042DA3010E94E61A4C0134
:10047000F981FC87F0FF03C00DE2F3FF07C00BE238
:1004800011FD04C0012F047012FD00E22C852C70B8
:10049000E22E09F46BC00111C4C2F3E0E12CF515A2
:1004A000A0F483E0E52CE81A13FD08C0B60180E251
:1004B00090E00E94DD1BEA94E110F8CF002329F0C0
:1004C000B601802F90E00E94DD1B3C8528E0822E43
:1004D00022E0922E33FD04C09CE0892E92E0992EFA
:1004E000107122C09BE9980F933008F048C10F7E2D
:1004F0009FCF863611F41068A5CFFF2009F4A2CF54
:10050000FA94A0CFE7E02F2DEF1518F427E037E09D
:10051000F32E412CA2CF11118052B60190E00E941F
:10052000DD1B8FEF881A980AF40184918111F3CFB3
:10053000E11070C24501F6019381F10193FD8591AF
:1005400093FF81911F01882309F403C2853241F48E
:1005500093FD859193FF81911F01853209F01FCF93
:10056000B60190E00E94DD1B5401E4CF17FF70C07C
:10057000480CFC85F4FF04C08A81813309F44A9455
:1005800014140CF087C028E0241510F488E0482EDD
:1005900085E090E017FF06C0C40197FE02C090E01E
:1005A00080E0019601110196FF2031F02F2D30E0FF
:1005B0002F5F3F4F820F931F5816190619F014F042
:1005C000E52CE81A812F897011F4E11068C000232E
:1005D00029F0B601802F90E00E94DD1B13FD02C0C0
:1005E000E11064C017FF7DC0840197FE02C010E0D7
:1005F00000E0C401841991092C016F2D70E0EE27F1
:10060000FF27E61BF70BEE87FF87801691060CF499
:1006100054C0401651060CF050C0F401E01BF10B21
:10062000E60DF71D8181015011092E853F850217C6
:1006300013070CF444C0B60190E00E94DD1B0F3F8D
:10064000100719F7B6018EE290E00E94DD1BDDCFA6
:1006500016FD9ECFEF2DF0E0E815F90534F03CEFE4
:1006600083163FEF93060CF010683296E60DF71DE7
:1006700001C0FA94FF2019F082918033D1F317FF63
:1006800087CF442443944F0CF814190431F02CF014
:10069000F8187ECF442443947BCFF12C79CFB60158
:1006A00080E290E00E94DD1BEA948FCFB60180E3E8
:1006B00090E00E94DD1BEA9493CF80E3B4CF8016D4
:1006C000910641F49A81963350F4953319F49C8540
:1006D00094FF05C0B60190E00E94DD1B29CF81E3A5
:1006E000F9CF8A81813319F0EC85EF7EEC87B60172
:1006F00090E00E94DD1BFF20A9F0B6018EE290E0A1
:100700000E94DD1BF394F394E2E001E00E0FE60D8E
:10071000F72DF11D8081B60190E00E94DD1BE02FD6
:100720000F11F3CF85E690E014FF02C085E490E05E
:10073000B6010E94DD1B97FC06C081149104C1F430
:10074000FC85F4FF15C09194819491088DE2B60167
:1007500090E00E94DD1B80E33AE08316910454F49C
:10076000B60190E00E94DD1BB601C401C096B4CF73
:100770008BE2EDCF8F5F2AE0821A9108EDCF8336AE
:10078000B1F0833759F1833509F055C0F4018190F8
:1007900091905F016F2D70E006FD02C06FEF7FEF5B
:1007A000C4010E94BE1B8C879D8700680DC0540148
:1007B00082E0A80EB11CF4018081898321E030E041
:1007C0002C873D8743010F7703FD06C02C853D85AF
:1007D0005216130609F090F4E52C28C0F40181901C
:1007E00091905F016F2D70E006FD02C06FEF7FEF0B
:1007F000C4010E94D21B8C879D87E5CFB60180E2A1
:1008000090E00E94DD1B5A94E1CFF40107FD859131
:1008100007FF81914F01B60190E00E94DD1BE110BE
:10082000EA948C859D8501978C879D87EC85FD8555
:10083000EF2B59F77DCE843619F0893609F06EC05A
:10084000F40107FF63C061917191819191915F0102
:10085000102F1F7697FF08C0909580957095619531
:100860007F4F8F4F9F4F10682AE030E0A3010E9416
:10087000391C882E8618982C012F16FF0AC00E7F6F
:100880008F1438F414FF04C012FD02C0012F0E7E35
:100890009F2C04FF97C0FE01E80DF11D808180337D
:1008A00009F089C0097EF02FF870EF2E03FD99C082
:1008B00000FF93C0F82C951410F4F50CF91804FF00
:1008C00096C0B60180E390E00E94DD1B02FF09C0E4
:1008D00088E790E001FF02C088E590E0B6010E9441
:1008E000DD1B8F1408F48FC08A94082D10E00F5F71
:1008F0001F4F060D171DF80182918F01B60190E080
:100900000E94DD1B06151705B1F712CE619171919A
:100910005F01072E000C880B990B9ACF102F85379B
:1009200091F41F7E2AE030E0F40117FF3EC0619190
:100930007191819191915F01A3010E94391C882ED0
:1009400086181F7798CF197F8F3661F1D8F48835D4
:1009500021F1F601868197812F96CDBFDEBFDF9111
:10096000CF911F910F91FF90EF90DF90CF90BF90AC
:10097000AF909F908F907F906F905F904F903F903F
:100980002F900895803739F0883719F714FD1460D7
:1009900020E130E0C9CF1061F9CF04FD166020E1FD
:1009A00032E0C2CF28E030E0BFCF619171915F01AA
:1009B00090E080E0C1CF02FD02C0939474CF939485
:1009C000939471CF802F867809F46DCFF6CFB6015E
:1009D00080E290E00E94DD1B93949514C0F3E12C1B
:1009E0006ECFE52CE918951408F469CFF8CF802F65
:1009F000867809F476CF8BE201FF80E207FD8DE275
:100A0000B60190E06CCFB60180E390E00E94DD1B60
:100A1000FA9467CFB60180E290E00E94DD1BEA9471
:100A200087CD24E0E12C251508F04ACD84E03ACDAD
:100A30008BEC80935200809150008860809350002E
:100A40008091510083FFFCCF82EC80935500809110
:100A500050008061809350008091510084FFFCCF52
:100A600088ED84BF84E080934000809150008E7FA9
:100A700080935000809150008D7F809350000895A6
:100A8000FA0160837183828393830895CDB7DEB7C3
:100A9000EF97CDBFDEBF0E94180560E078E488EED6
:100AA00091E00E9465060E94F606182F0E94040736
:100AB00081E0809341068091A20081608093A20032
:100AC00078942FEB210F2DAF2F3008F086C060E017
:100AD00078E488EE91E00E94EC0E0EEF6E018DE15D
:100AE000C80ED11C3324339490EB910F9EAFE0EAF3
:100AF000E10FEFAF7E01F9E3EF0EF11C83E0282E4A
:100B0000F6012CE111922A95E9F7C6010E94090825
:100B1000811539F08D8D803421F48E8D813009F46A
:100B20006DC0093108F06CC0309247060F5F198321
:100B30008DAD8F3008F067C087E790E00E943D14CC
:100B40000E94280FA7014B015C01C501B4010E945E
:100B5000400589AD9AADABADBCAD8B839C83AD83B5
:100B6000BE8392E09A8321E046E0BE016F5F7F4F33
:100B700080E40E949C07F70124E011922A95E9F78E
:100B80008FEF93ECE9E081509040E040E1F700C046
:100B900000000E94470FA7012B013C01C301B201D5
:100BA0000E94400589AD9AADABADBCAD8B839C83F3
:100BB000AD83BE832A8221E046E0BE016F5F7F4F96
:100BC00080E40E949C078FEF93ECE9E08150904015
:100BD000E040E1F700C0000093CF80EB810F80314F
:100BE00028F48CE190E20E940D1C77CF80EA810FFF
:100BF000803108F072CF8EE290E2F5CF00E094CF22
:100C00003092460694CFFEAD87E490E2F03128F0B2
:100C10002FAD2031C0F689E590E20E940D1CD3CFA4
:100C20002091572181E0820F90915621843610F057
:100C30008DE9820F981718F0981B892F08959C59F9
:100C4000FBCFCF93DF93C82FD1E20E94100681150E
:100C5000D9F080915721E82FF0E0EE50FF4DC0838E
:100C60008F5F843608F080E09091A200292F2E7FBC
:100C70002093A2008093572181E28093A30B90934D
:100C8000A200DF91CF910895D093A30BDECFCF9335
:100C9000DF93C82FDFEF0E941006811579F0D11580
:100CA00089F0CA3019F48DE00E9421068C2F0E9431
:100CB000210680E090E0DF91CF910895D11511F0E9
:100CC000D150E9CF81E090E0F6CFE0EAF6E098E19C
:100CD000928B88E08583818324E02283E0EAFBE035
:100CE00086831782948380E28383E0EAF0E0828146
:100CF00083608283E7E0FBE286E090E28083918379
:100D00008283938308959091F1208091F020981729
:100D100018F0981B892F08959C59FBCFCF93C09151
:100D2000F0200E9483068115E1F3EC2FF0E0E457F8
:100D3000FF4D8081CF5FC43608F0C0E0C093F02043
:100D4000CF9108950E948E0690E008958F938FB7FB
:100D50008F938BB78F939F93EF93FF938091F120A5
:100D6000E82FF0E09091A00BE457FF4D90838F5F48
:100D7000843608F080E09091F02098138093F12061
:100D8000FF91EF919F918F918BBF8F918FBF8F912B
:100D900018952F932FB72F932BB72F938F939F9344
:100DA000EF93FF938091562190915721891310C0A2
:100DB00080E28093A30B892F80935621FF91EF91BE
:100DC0009F918F912F912BBF2F912FBF2F9118950E
:100DD000E82FF0E0EE50FF4D20812093A00B8F5FB5
:100DE000843608F080E08913E7CFE2CFE0E2F6E056
:100DF000108288E1808B818B828B838B848B858BA7
:100E0000868B878B80850895CF93C82F1092010819
:100E100086E08093000881E08093060884ED90E3EB
:100E200080932608909327080E94D90B0E94140EE5
:100E300068E080E30E943B0D80E00E940C0D80E2A0
:100E40000E94190D8CE00E942E0D86E30E94FD0C7D
:100E500080E00E94050D0E94B70E0E943F0D0E9487
:100E6000F60D0E94050E8091AA0680648093AA0662
:100E700082E08093B6062091A9068091A90630E011
:100E80002C7F2160822B8093A90684E190E20E944E
:100E9000940C64E170E280E00E94B10C0E943C0E70
:100EA0000E946E0CC0935E29EFE5F9E2138237963B
:100EB0008AE2ED3BF807D1F7CF91089590915D2933
:100EC00080915C29981718F0981B892F08959853E2
:100ED000FBCF0F931F93CF93DF9300D000D0CDB7FC
:100EE000DEB7362F26E0E2E7F0E2DE011196019050
:100EF0000D922A95E1F7FC0120E046E0231308C09B
:100F00002696CDBFDEBFDF91CF911F910F9108953F
:100F100051918F0101501109822F642F0E94AC154D
:100F2000BE016F5F7F4F690F711DDB018C918527BB
:100F3000D8018C932F5FE2CFDF92EF92FF920F9355
:100F40001F93CF93DF93CDB7DEB7A097CDBFDEBFA2
:100F5000F62E072F142F4D3138F5DE01119690E251
:100F6000FD0111929A95E9F790915E29998393E09A
:100F70009A838C83EFE5F9E240E050E0DA2EEB2E25
:100F800093819115D9F19081981338C097E0949F7F
:100F9000F001959FF00D1124E15AF64D95819111C4
:100FA0000EC08B8381110CC0A096CDBFDEBFDF9138
:100FB000CF911F910F91FF90EF90DF9008959B8349
:100FC000211529F0612F8F2D902F0E946907EF2D99
:100FD000F02FDE011596CF01810F911DE817F9075B
:100FE000A9F40E94700EF89464E0610F8D2D9E2D7F
:100FF0000E94A00E78940E943C0ED6CF4F5F5F4FA8
:1010000037964233510509F0BBCFCECF21912D93B6
:10101000E5CFEF92FF920F931F93CF93DF938C0155
:101020007C01D0E0C0915C290E945E07811599F097
:10103000EC2FF0E0EC56F74D8081CF5FC83C08F014
:10104000C0E0C0935C298D3031F0F70181937F01BE
:10105000DF5FDC3139F76D2FC8010E9469078D2FE2
:10106000DF91CF911F910F91FF90EF900895AFE521
:10107000B9E2FD0120E030E093819115D9F0908133
:10108000981318C087E0829FF001839FF00D112410
:10109000E15AF64D818192810A968183928315826D
:1010A00021E026838734910554F186E490E0818322
:1010B000928308952F5F3F4F379622333105E1F633
:1010C00020E030E013969C911397911112C097E0A5
:1010D000929FF001939FF00D1124E15AF64D808309
:1010E0008AE090E08183928381E083831582868306
:1010F00008952F5F3F4F17962233310519F7089552
:10110000EFE5F9E220E030E0908198130AC087E033
:10111000829FF001839FF00D1124E15AF64D8481E6
:1011200008952F5F3F4F37962233310569F780E0EE
:101130000895AC0170E020E030E09DE080915D29F1
:10114000E82FF0E0EC56F74D6217730781F49083B7
:101150008F5F883C08F080E0E0915C29E813809381
:101160005D292F5F3F4F6217730744F70895DA0137
:10117000A20FB31FAC91A083EBCFE2E2F2E220E03A
:1011800030E091919115B9F0D901A051BE4D9C91DB
:10119000981311C0F90185E0EE0FFF1F8A95E1F762
:1011A000EC5AFD4D10821182168E178E2E5D3D4D2C
:1011B000F901108208952F5F3F4F2233310509F75F
:1011C0000895CF93DF93EB01EFE5F9E22381211539
:1011D00021F02581241301C0138237962AE2ED3BCA
:1011E000F207A1F7FC0160E070E06C177D0788F55D
:1011F0009081911571F180915E29891709F450C091
:1012000081818F3008F04CC0AFE5B9E220E030E0DA
:1012100013965C9113975115F9F05C9159131CC00A
:101220008F5F97E0929FF001939FF00D1124E15A98
:10123000F64D9681891718F0948191110AC097E0B4
:10124000929FF001939FF00D1124E15AF64D4583D2
:101250008683DF91CF9108952F5F3F4F17962233FA
:101260003105B1F6AFE5B9E220E030E013965C91CC
:10127000139751110FC057E0529FF001539FF00D8B
:101280001124E15AF64D908391E093839483458332
:101290008F5FDECF2F5F3F4F17962233310531F737
:1012A0006E5F7F4F3296A1CFEF92FF920F931F9305
:1012B000CF93DF93382F562F02E212E2E801E0E0ED
:1012C000F0E08991811539F0CF0180519E4DDC010C
:1012D0008C91831721F13196E233F10591F7E0E02B
:1012E000F0E0D8018D918D01811148C0DF01A0513E
:1012F000BE4D3C9381E0DF01AE5DBD4D8C93DF01BF
:10130000C5E0AA0FBB1FCA95E1F7AC5ABD4D1C92B0
:1013100011961C9211975E961D921C925F97622FF8
:1013200062956F702F70CF01E5E0880F991FEA95E5
:10133000E1F7FC01EC5AFD4DA081A1112BC06083A7
:101340002183E52FF72FEC01CC5ADD4D7E01BEE164
:10135000EB0EF11CD7016D917C912E2F251B2417CC
:10136000F8F06C31710578F0432F8A5A9D4D0E9438
:10137000E108188219821E8E1F8E05C03196E23355
:10138000F10509F0AECFDF91CF911F910F91FF9042
:10139000EF900895A613F7CF61816213F4CFD1CFF8
:1013A0006C31710560F48B010F5F1F4FD7010D93F6
:1013B0001C9320816C0F7D1FDB0112962C933196BC
:1013C000C9CF1F920F920FB60F9211240BB60F9236
:1013D000EF92FF920F931F932F933F934F935F933F
:1013E0006F937F938F939F93AF93BF93EF93FF93ED
:1013F000CF93DF93CDB7DEB7A397CDBFDEBFCE01CE
:1014000001967C0180E2F70111928A95E9F7AE011D
:101410004F5D5F4FBE016E5D7F4FCE0183960E9490
:10142000760C89A18115B9F00E94DA0E182F682F69
:10143000C7010E94EF0DF89489810E943708098145
:10144000802F0E948008811531F08A818330F8F462
:10145000811132C07894A396CDBFDEBFDF91CF91CA
:10146000FF91EF91BF91AF919F918F917F916F917C
:101470005F914F913F912F911F910F91FF90EF90AE
:101480000F900BBE0F900FBE0F901F9018958330DA
:1014900009F780915E299B819813DCCF8C81909114
:1014A0005E294CEF410F891789F020E0BE016B5F88
:1014B0007F4F0E949C07CECF4EEF410F2B81BE0184
:1014C0006C5F7F4F802F0E945409C4CF642FCE01E0
:1014D00005960E949908BECF6F927F928F929F923D
:1014E000AF92BF92CF92DF92EF92FF921F93CF9372
:1014F000DF93CDB7DEB76C97CDBFDEBF1092EE2184
:101500001092EF217C01825A9E4F4C0110E0D701CE
:1015100013968C9113978115A9F114968C911497B9
:10152000811581F181E0810FFE013196E10FF11DFE
:101530009C9190831E5FFE013196E80FF11D169677
:101540008C9180831C31F0F0612E712CD090EE21B3
:10155000AD2CB12CC3010E94BB19F501EE0FFF1F8A
:10156000E85AFE4D80839183A301BE016F5F7F4FD8
:101570000E94C91BF501E454FE4D1083D394D09210
:10158000EE2110E0B7E0EB0EF11CE814F90409F0CD
:10159000BECF1115E9F0A12EB12CF090EE21CF2C89
:1015A000D12CC5010E94BB19F601EE0FFF1FE85AAE
:1015B000FE4D80839183A501BE016F5F7F4F0E9426
:1015C000C91BF601E454FE4D1083F394F092EE2112
:1015D0006C96CDBFDEBFDF91CF911F91FF90EF9052
:1015E000DF90CF90BF90AF909F908F907F906F9043
:1015F0000895FF920F931F93CF93DF93CDB7DEB77C
:10160000A097CDBFDEBF9091EF218091EE2198177A
:1016100020F08FE599E20E946C0A9091EE218E01F4
:101620000F5F1F4F911509F44CC08091EF21282FB7
:1016300030E0F901EE0FFF1FE85AFE4D5081418165
:10164000F901E454FE4DF0808295807F692F6F7020
:10165000862B2F5F3F4F9217130671F592E020E221
:10166000F80111922A95E9F720915E2929839A833E
:101670008B83E52FF42FDE011496CF018F0D911D82
:10168000E817F907D9F40E94700EF89464E06F0D22
:10169000C8010E94A00E78940E943C0E8091EF2118
:1016A0008F5F8093EF21A096CDBFDEBFDF91CF91FA
:1016B0001F910F91FF90089591E0D1CF21912D932B
:1016C000DFCF80E2F80111928A95E9F780915E29D7
:1016D000898382E08A8381E08B830E94700EF89474
:1016E00064E0C8010E94A00E78940E943C0EDBCFFB
:1016F0001F920F920FB60F9211240BB60F921F93E9
:101700002F933F934F935F936F937F938F939F9309
:10171000AF93BF93CF93DF93EF93FF93CFE5D9E2DE
:1017200011E089819A81181619061CF401978983A2
:101730009A838B81811559F08D81811108C089812F
:101740009A81009709F51B8288810E94BD0827961F
:101750008AE2CD3BD80729F70E94F90AFF91EF9161
:10176000DF91CF91BF91AF919F918F917F916F91B9
:101770005F914F913F912F911F910F900BBE0F9052
:101780000FBE0F901F9018954F9714F01C83DFCF5A
:101790001C82EFE5F9E28381811529F0958188812A
:1017A000981301C0138237968AE2ED3BF80799F748
:1017B000CECFE0E4F6E088E0818384E0828382E0BB
:1017C0008183E0EAF6E080E2818380E4828380E83E
:1017D0008183E0EAF8E088E1848380EC85831782E6
:1017E00081E0868308958093A0088091A10886FFF8
:1017F000FCCF8091A10880648093A1088091A0080B
:1018000008951F93CF93DF93C0EAD6E010E21E83C2
:101810008F710E94F30B8FEF0E94F30B1D83DF91FA
:10182000CF911F91089584E00E94010C982F92950A
:101830009F709F5F8F708F5F989FC00111242AEF68
:10184000AC01249FC001259F900D11240895EF92B3
:10185000FF920F931F93CF93DF937B01C42F90E2EE
:101860009093A6068F7180620E94F30BD82F9E2D55
:101870008F2DCE0DC9130BC080E28093A5068D2F4E
:10188000DF91CF911F910F91FF90EF900895092F55
:10189000182FF80181918F010E94F30B902F812F57
:1018A000E9CFFF920F931F93CF93DF93D62F00EAD8
:1018B00016E090E2F92EF801F6828F7180620E94A4
:1018C000F30BC82F8D2F0E94F30BF801F5828C2F9C
:1018D000DF91CF911F910F91FF90089580E00E94BA
:1018E000010C682F626080E00C94510CEF92FF9223
:1018F0000F931F93CF93DF937C018B01EA0160E785
:1019000087E00E94510C982F9072F7019083982FD6
:101910009071F801908380748883DF91CF911F913B
:101920000F91FF90EF900895CF93DF93D82FC92F99
:1019300040911920682F792F8AE00E94270C40914E
:1019400019206D2F7C2F80E10E94270C60911A20B6
:10195000603228F481E1DF91CF910C94510C60E268
:10196000F9CFFF920F931F93CF93DF93182FF62E8B
:10197000072F811112C04091192050E08DEB9AE29F
:101980000E94C91BC12FD0E0FE01EB57FF4D4091D3
:1019900019206F2D702F80810BC0873040F5C82F24
:1019A000D0E0FE01EB57FF4D808141E0113051F353
:1019B0000E94270CFE01E158FF4D60911A208081A2
:1019C0000E94510C82E00E94010CC758DF4D9881A3
:1019D00061E070E001C0660F9A95EAF7682B82E03B
:1019E000DF91CF911F910F91FF900C94510CDF91DB
:1019F000CF911F910F91FF900895682F87FD03C02D
:101A000085E00C94510C6FE7FBCF6FE3811101C0AF
:101A100060E081E00C94510CCF93C82F86E00E94C7
:101A2000010C682F697FC6706C2B86E0CF910C94F7
:101A3000510CCF93C82F86E00E94010C6C2F687266
:101A4000877D682B86E00E94510C86E00E94010C85
:101A5000982F81E09C1380E0CF910895CF93C82FF9
:101A600080E00E94010C682F637FCC706C2B80E0BB
:101A7000CF910C94510C682B84E00C94510C60E7CE
:101A800087E00C94510CDF92EF92FF920F931F931B
:101A9000CF93DF93D82EE92E842FC0911A20DC2F0C
:101AA0006C1708F4D62F9091C22ACD1B9111C0E07B
:101AB00090E29093A6060E94F30BF82E2D2D3E2D5A
:101AC000DD0DD2130EC0C11113C080E28093A506B4
:101AD0008F2DDF91CF911F910F91FF90EF90DF90AD
:101AE0000895F90181918F010E94F30B9801E9CFCC
:101AF00080E00E94F30BC150E6CF0F931F93CF936A
:101B0000DF93D82FC92F162F042F80E00E94010CDD
:101B1000682F6E7F81FD24C0626080E00E94510CBE
:101B20008FE79EE30197F1F700C000008FE094E09B
:101B30000197F1F700C00000402F612F8D2F9C2FDF
:101B40000E94430D80E88093A5069AE69A95F1F7E6
:101B500000C08093A606DF91CF911F910F91089549
:101B600080E00E94510CE2CFDF92EF92FF920F9340
:101B70001F93CF93DF93D82EE92EC0911A20DC2F2C
:101B80006C1708F4D62F8091C22ACD1B8111C0E0BA
:101B900080E28093A60681E60E94F30BF82E2D2D9D
:101BA0003E2DDD0DD2130EC0C11114C080E2809312
:101BB000A5068F2DDF91CF911F910F91FF90EF9090
:101BC000DF90089589018FEF0E94F30BF801819354
:101BD0009F01E8CF8FEF0E94F30BC150E5CF0E9429
:101BE000B40D87E10E94010C817008951F93CF937B
:101BF000DF93C0EAD6E010E21E8382EE0E94F30B70
:101C00001D83DF91CF911F9108951F93CF93DF9391
:101C1000C0EAD6E010E21E8381EE0E94F30B1D8322
:101C2000DF91CF911F9108958FE39CE90197F1F720
:101C300000C000006FE584E00E94510C86E00E9425
:101C40000C0D80E20E94190D811519F081E080933E
:101C50001B2080E00E94190D8CE00E942E0D60E098
:101C60008CE10E94510C8CE40E94FD0C0E943F0DFF
:101C70000E94F60D0C94050E80E00E94010C682F66
:101C800081FD29C0636080E00E94510C8FE79EE3D4
:101C90000197F1F700C000008FE094E00197F1F7A1
:101CA00000C0000060E787E00E94510C40911920BD
:101CB0006DEB7AE28AE00E94270C0E94F60D0E94EA
:101CC000050E80E88093A5068FE094E00197F1F778
:101CD00000C000000895616080E00E94510CDCCFDC
:101CE00080E88093A6060E94F60D0C94050ECF9313
:101CF000DF930E94130C64E670E00E94B815EB01BC
:101D000087E00E94010C2197EFE1F3E03197F1F7B2
:101D100000C000008073811102C0209789F787E01E
:101D20000E94010CC82F0E94F60D0E94050E60E76C
:101D300087E00E94510C8C2F8072DF91CF91089523
:101D400040EA0E947D0D0C94770E1F93CF93DF9392
:101D5000C0EAD6E010E21E8380E50E94F30B83E721
:101D60000E94F30B1D83DF91CF911F9108958DE1A8
:101D70000E94010C682F64608DE10E94510C8DE17E
:101D80000E94010C81110AC00E94A50E8DE10E94E3
:101D9000010C682F64608DE10E94510C8CE10E945F
:101DA000010C682F6F638CE10E94510C81E08093DD
:101DB000C22A08951F93CF93DF93C0EAD6E010E2C2
:101DC0001E8380E60E94F30B8FEF0E94F30B1D83AE
:101DD000DF91CF911F91089520EA34E02093C32A28
:101DE0003093C42A27E72093C92A1092D62A10924A
:101DF000D72A1092D82A1092D92A1092D22A109259
:101E0000D32A1092D42A1092D52A1092CE2A109258
:101E1000CF2A1092D02A1092D12A1092CA2A109258
:101E2000CB2A1092CC2A1092CD2AE0E8F6E023E0EB
:101E3000218328E3208B218B20E035E34CE050E028
:101E40000E94CC156BEF620F80EA94E00C944F1463
:101E5000CF92DF92EF92FF922091D62A3091D72A2B
:101E60004091D82A5091D92A6091D22A7091D32AD0
:101E70008091D42A9091D52A0E948E176B017C0103
:101E8000C701B601FF90EF90DF90CF900895609169
:101E9000CE2A7091CF2A8091D02A9091D12A08958C
:101EA000CF93DF93D82FC62F40E06091C92A80914D
:101EB000C32A9091C42A0E9463146D2F8091C32A73
:101EC0009091C42A0E9412156C2F8091C32A909180
:101ED000C42A0E9412158091C32A9091C42ADF91CE
:101EE000CF910C940C15CF93C82F40E06091C92A74
:101EF0008091C32A9091C42A0E9463146C2F809110
:101F0000C32A9091C42A0E94121541E06091C92A07
:101F10008091C32A9091C42A0E94BB1461E08091F1
:101F2000C32A9091C42A0E945315C82F8091C32AB6
:101F30009091C42A0E940C158C2FCF910895CF93B5
:101F4000DF93C82F40E06091C92A8091C32A909105
:101F5000C42A0E9463146C2F8091C32A9091C42AD2
:101F60000E94121541E06091C92A8091C32A909184
:101F7000C42A0E94BB1460E08091C32A9091C42AB5
:101F80000E945315D82F61E08091C32A9091C42AF2
:101F90000E945315C82F8091C32A9091C42A0E9491
:101FA0000C15CE01DF91CF9108954F925F926F9201
:101FB0007F928F929F92AF92BF92CF92DF92EF92D9
:101FC000FF92CF93DF9300D00F92CDB7DEB78DEFA6
:101FD0000E949F0F4090C52A5090C62A6090C72A41
:101FE0007090C82A2CE2521A21E0620A7108A0E01F
:101FF000B0E06C017D013EE0CC0CDD1CEE1CFF1C52
:102000003A95D1F74091F62A5091F72A052E000C07
:10201000660B770BE4E1440F551F661F771FEA95A7
:10202000D1F7C41AD50AE60AF70AA091F82AB091A6
:10203000F92AA30192010E94F915C61AD70AE80AE3
:10204000F90A30E4D30EE11CF11CFFE0F594E794AB
:10205000D794C794FA95D1F7A091F52AB0E0A301DF
:1020600092010E94EE154B015C01ABE0B594A79480
:1020700097948794AA95D1F740E8940EA11CB11CBF
:10208000A091FA2A0A2E000CBB0BA30192010E9418
:10209000F915BAE09595879577956795BA95D1F733
:1020A000A50194010E949C152AE095958795779546
:1020B00067952A95D1F79B01AC01405E5F4FA091D7
:1020C000F32AB091F42A0E94F915705E8F4F9F4F4A
:1020D0003EE095958795779567953A95D1F7A70155
:1020E00096010E949C156B017C014FE095958795A8
:1020F000779567954A95D1F79B01AC010E949C1595
:102100009B01AC0167E055954795379527956A95F2
:10211000D1F7A091F22AB0E00E94EE15E4E0959587
:10212000879577956795EA95D1F7A7019601261BC4
:10213000370B480B590BDA01C90157FF36C080E055
:1021400090E0DC01BC01CD012CE095958795779559
:1021500067952A95D1F70E94741820E030E040E896
:102160005AE369837A838B839C8369817A818B812B
:102170009C810E944E196093CE2A7093CF2A80933F
:10218000D02A9093D12A2496CDBFDEBFDF91CF9184
:10219000FF90EF90DF90CF90BF90AF909F908F9087
:1021A0007F906F905F904F90089581309105A105C9
:1021B00039E1B3073CF280E090E0A0E0B9E1C2CFA2
:1021C0000E949F0F98278927982708951F93CF93E0
:1021D000DF9388E80E94E010CAEDDAE288839983F1
:1021E0008AE80E94E0108A839B838CE80E94E010BA
:1021F0008C839D838EE80E94E0108E839F8380E90C
:102200000E94E0108887998782E90E94E0108A87FF
:102210009B8784E90E94E0108C879D8786E90E9455
:10222000E0108E879F8788E90E94E010888B998B49
:102230008AE90E94E0108A8B9B8B8CE90E94E01057
:102240008C8B9D8B8EE90E94E0108E8B9F8B81EA98
:102250000E94730F888F81EE0E94E010898F9A8F01
:1022600083EE0E94730F8B8F84EE0E94730F182FE2
:1022700085EE0E94730F90E1199F900111248F70D9
:10228000282B2C8F3D8F86EE0E94730F182F85EE22
:102290000E94730F90E1199F9001112482958F7015
:1022A000282B2E8F3F8F87EE0E94730F88A3DF911C
:1022B000CF911F910895CF92DF92EF92FF92F82E67
:1022C00040E06091C92A8091C32A9091C42A0E945B
:1022D00063146F2D8091C32A9091C42A0E94121515
:1022E00041E06091C92A8091C32A9091C42A0E943A
:1022F000BB1460E08091C32A9091C42A0E945315B8
:1023000090E0A0E0B0E0CC24D82EE92EFA2E60E0D8
:102310008091C32A9091C42A0E945315C82AFE2C8A
:10232000ED2CDC2CCC2461E08091C32A9091C42A4E
:102330000E945315C82A8091C32A9091C42A0E94F2
:102340000C15C701B601FF90EF90DF90CF90089574
:102350004F925F926F927F928F929F92AF92BF92B5
:10236000CF92DF92EF92FF928AEF0E945B116B0196
:102370007C01EAEDFAE220813181C901A0E0B0E000
:102380004D2C5E2C6F2C772467FC7A94421A530AEA
:102390006108710857E0F594E794D794C7945A956B
:1023A000D1F7880F991FAA1FBB1FA7019601281BF1
:1023B000390B4A0B5B0BA281B3810E94F9156B01AB
:1023C0007C017BE0F594E794D794C7947A95D1F794
:1023D000A3019201C301B2010E949C159B01AC01B3
:1023E000ACE05595479537952795AA95D1F7A481E7
:1023F000B5810E94F915BEE095958795779567950B
:10240000BA95D1F7A7019601260F371F481F591F0C
:102410002093C52A3093C62A4093C72A5093C82ACE
:10242000A5E0B0E00E94EE1560587F4F8F4F9F4FA0
:10243000672F782F892F992787FD9A950E94741806
:1024400020E030E048EC52E44B015C01C501B401EE
:102450000E94FA176093D22A7093D32A8093D42AC9
:102460009093D52AFF90EF90DF90CF90BF90AF90E0
:102470009F908F907F906F905F904F9008952F92D4
:102480003F924F925F926F927F928F929F92AF9204
:10249000BF92CF92DF92EF92FF920F931F93CF9351
:1024A000DF93CDB7DEB76D97CDBFDEBF87EF0E945C
:1024B0005B1169837A838B839C838091C52A909179
:1024C000C62AA091C72AB091C82A6C017D01FF0CD1
:1024D000CC08DC2C76019C01AD016C2D7C2D8C2D63
:1024E0009C2D345F414051096109710981099109AD
:1024F000722E832E942E5E836F837D8388879987C7
:10250000A22EB32EC42ED52E7B018C010E94011663
:102510002A873B874B8B5C8B6D8B7E8B8F8B988F49
:102520002091EA2A3091EB2A932F990F990BAA84D4
:10253000BB846A017B01082F188D492F592F692F01
:10254000792F892F0E940116288B398B4A8B252ED3
:10255000362E472E582E692E2091E82A3091E92AEE
:10256000932F990F990BA72CB82CC92CDE80EF80E4
:10257000FD8008851985492F592F692F792F892FBB
:102580000E94011601E10E942A17A888B988CA880A
:10259000D22CE32CF42C052D162D0E946017288BCD
:1025A000398B4A8B598F6A8F7B8F8C8F9D8F2091AF
:1025B000E22A3091E32A932F990F990BA72CB82C7C
:1025C000C92CDE80EF80FD8008851985492F592FA1
:1025D000692F792F892F0E9401160CE00E942A177B
:1025E00029013A014B011C012091E42A3091E52A8E
:1025F000932F990F990BAA84BB84CB88DC88ED8834
:10260000FE880F89188D492F592F692F792F892F0F
:102610000E94011608E00E944317520163017401F1
:1026200081010E94601770588F4F9F4F2090E02AC1
:102630003090E12A5101C12CD12CE12CF12C00E089
:1026400010E00E94011639014A016E837F831C014C
:1026500049815A816B817C8134E0759567955795E6
:1026600047953A95D1F780E090E0A0E1B0E0841B77
:10267000950BA60BB70B6C017D01FF0CCC08DC2C75
:1026800076019C01AD016C2D7C2D8C2D9C2D0FE1D4
:102690000E942A172901B42FA52FF62FE72F89832F
:1026A0009D832091E62A3091E72A932F990F990B69
:1026B000492F592F692F792F892F03E20E942A175A
:1026C000A888B988CA88D98CEA8CFB8C0C8D1D8DA2
:1026D0000E94601759016A017B018C0192014B2F06
:1026E0005A2F6F2F7E2F89819D810E947517E5E3F8
:1026F000AE2EFCE0BF2EC12CD12CE12CF12C00E041
:1027000010E00E9401162901B42FA52FF62FE72F04
:1027100089839D839301A4016E817F81C10101E2C0
:102720000E94431759016A017B018C0192014B2FD2
:102730005A2F6F2F7E2F89819D810E945B16322E2A
:10274000232E49835E836F837D83888799870DE07D
:102750000E944317522E632E7A878B87492E209131
:10276000F02A3091F12A932F990F990BA52CB62CB2
:10277000C42ED52EE62EF72E082F142D492F592FB3
:10278000692F792F892F0E9401160E94011609E1F5
:102790000E944317A32CB22CC980DE80EF80FD80FD
:1027A000088519850E94601729013A014B018A8723
:1027B0009B872091EE2A3091EF2A932F990F990B46
:1027C000492F592F692F792F892F0E94011603E174
:1027D0000E94431759016A017B018C019201A301F8
:1027E000B4018A859B850E94601708E00E94431708
:1027F00059016A017B01E82F192F2091EC2A3091B1
:10280000ED2A932F990F990B492F592F692F792F63
:10281000892F04E00E942A170E2F0E9460170E9441
:102820006C1820E030E040E85BE36C877D878E87A2
:102830009F876C857D858E859F850E944E1960934C
:10284000CA2A7093CB2A8093CC2A9093CD2A6D9676
:10285000CDBFDEBFDF91CF911F910F91FF90EF9021
:10286000DF90CF90BF90AF909F908F907F906F90B0
:102870005F904F903F902F9008958093C92A0E94B7
:10288000E61061E082EF0E94500F6FE384EF0E9438
:10289000500F0E94A8110E94D50F0C943F12FC010A
:1028A000A0E8B6E083E011968C93119788E35096E8
:1028B0008C93509751968C936583138288E0818323
:1028C00081E084830895CF93DF93FC01848183703A
:1028D000813009F04CC0660F642B6683C0E4D0E001
:1028E00002C0CC0FDD1F4A95E2F7848190E08C2373
:1028F0009D23892B59F09481892F807194FF03C007
:1029000083E0838382E0DF91CF9108952091FB2AB9
:102910003091FC2A4091FD2A5091FE2A6091FF2AB5
:102920007091002B8091012B9091022BA1E00E94CD
:1029300069172093FB2A3093FC2A4093FD2A509379
:10294000FE2A6093FF2A7093002B8093012B9093B3
:10295000022B283E33404105510561057105810573
:10296000910538F48AE08A95F1F700C0BECF81E086
:10297000CACF83E0C8CFCF93DF93FC01660F642BEF
:102980006683C0E4D0E002C0CC0FDD1F4A95E2F7B9
:10299000848190E08C239D23892B59F09481892F89
:1029A000807194FF03C083E0838382E0DF91CF9145
:1029B00008952091FB2A3091FC2A4091FD2A5091E4
:1029C000FE2A6091FF2A7091002B8091012B90913B
:1029D000022BA1E00E9469172093FB2A3093FC2A66
:1029E0004093FD2A5093FE2A6093FF2A7093002B98
:1029F0008093012B9093022B283E334041055105D3
:102A0000610571058105910528F48AE08A95F1F741
:102A100000C0BECF83E0CACFFC0183E0838381E0A6
:102A200084830895FC016783848186FF09C09481B3
:102A3000892F807194FF36C083E0838382E00895FC
:102A40002091FB2A3091FC2A4091FD2A5091FE2AC8
:102A50006091FF2A7091002B8091012B9091022BA5
:102A6000A1E00E9469172093FB2A3093FC2A40932F
:102A7000FD2A5093FE2A6093FF2A7093002B8093C7
:102A8000012B9093022B283E3340410551056105EF
:102A900071058105910528F48AE08A95F1F700C057
:102AA000C3CF83E00895CF93FC01B62F8481C82F54
:102AB000C07486FF08C0C781B11136C082E083832D
:102AC0008C2FCF9108952091FB2A3091FC2A4091C0
:102AD000FD2A5091FE2A6091FF2A7091002B80916F
:102AE000012B9091022BA1E00E9469172093FB2AF1
:102AF0003093FC2A4093FD2A5093FE2A6093FF2ACC
:102B00007093002B8093012B9093022B283E33402F
:102B100041055105610571058105910588F68AE039
:102B20008A95F1F700C0C2CF87E08383B13041F6C8
:102B3000848180FFFDCFC4CFDB018F939F930E94E0
:102B4000EE15BF91AF91A29F800D911DA39F900D97
:102B5000B29F900D11240895992778E0880F991F4E
:102B6000961708F0961B881F7A95C9F780950895E7
:102B7000AA1BBB1B51E107C0AA1FBB1FA617B707A3
:102B800010F0A61BB70B881F991F5A95A9F78095BF
:102B90009095BC01CD010895A1E21A2EAA1BBB1B82
:102BA000FD010DC0AA1FBB1FEE1FFF1FA217B30719
:102BB000E407F50720F0A21BB30BE40BF50B661F2F
:102BC000771F881F991F1A9469F7609570958095F3
:102BD00090959B01AC01BD01CF0108950E947E1725
:102BE000A59F900DB49F900DA49F800D911D112461
:102BF0000895B7FF0C94EE150E94EE15821B930BFF
:102C00000895DF93CF931F930F939A9DF02D219FEB
:102C1000F00D8B9DF00D8A9DE02DF10D039FF00DC1
:102C2000029FE00DF11D4E9DE00DF11D5E9DF00D2A
:102C30004F9DF00D7F936F93BF92AF925F934F9331
:102C4000D5010E947E178B01AC01D7010E947E172F
:102C5000EB01E80FF91FD6010E9450162F913F910A
:102C6000D6010E947E17C60FD71FE81FF91FAF912C
:102C7000BF910E9450162F913F910E947E17C60F60
:102C8000D71FE81FF91FD6010E947E17E60FF71F16
:102C90009801BE01CF010F911F91CF91DF9108954F
:102CA0000E947E17460F571FC81FD91F08F4319680
:102CB0000895689401C0E894F92FF12B12F00C9458
:102CC0008D16A0E0B0E0E7E6F6E10C94FF16092EC1
:102CD000059422F40E94E916112392F4F0E80F26DD
:102CE000FFEFE094F09400951095B094C094D094C8
:102CF000A194BF0ACF0ADF0AEF0AFF0A0F0B1F0BCE
:102D00000E94981607FC0E94E916CDB7DEB7ECE0EA
:102D10000C941817689401C0E8948F929F92CF93F7
:102D2000DF930E949816DF91CF919F908F90089526
:102D300088249924F401E401B0E49F93AA279A150A
:102D40008B049C04ED05FE05CF05D007A10798F480
:102D5000AD2FDC2FCF2FFE2FE92D982C892E982F09
:102D6000872F762F652F542F432F322F2227B850CD
:102D700031F7BF9127C01B2EBF91BB27220F331FF6
:102D8000441F551F661F771F881F991F881C991C99
:102D9000EE1FFF1FCC1FDD1FAA1FBB1F8A149B0441
:102DA000EC05FD05CE05DF05A007B10748F08A1840
:102DB0009B08EC09FD09CE09DF09A00BB10B2160CE
:102DC0001A94E1F62EF49401AF01BE01CD01000C7E
:102DD00008956095709580959095309540955095A3
:102DE00021953F4F4F4F5F4F6F4F7F4F8F4F9F4FFB
:102DF00008952F923F924F925F926F927F928F929F
:102E00009F92AF92BF92CF92DF92EF92FF920F9379
:102E10001F93CF93DF93CDB7DEB7CA1BDB0BCDBFBC
:102E2000DEBF19942A88398848885F846E847D843F
:102E30008C849B84AA84B984C884DF80EE80FD8062
:102E40000C811B81AA81B981CE0FD11DCDBFDEBF00
:102E5000ED010895002E083090F0982F872F762FDF
:102E6000652F542F432F322F22270850F4CF220FE3
:102E7000331F441F551F661F771F881F991F0A9510
:102E8000B2F7002D089597FD1094002E083098F0A9
:102E90000850232F342F452F562F672F782F892F37
:102EA000912DF4CF159497958795779567955795BC
:102EB0004795379527950A95AAF71124002D08956F
:102EC0002A0D3B1D4C1D5D1D6E1D7F1D801F911F1A
:102ED00008950024A7FD00942A0F301D401D501DA9
:102EE000601D701D801D901D08952A193B094C0915
:102EF0005D096E097F09800B910B0895A29FB001B7
:102F0000B39FC001A39F700D811D1124911DB29F1D
:102F1000700D811D1124911D08955058BB27AA27BB
:102F20000E94A5170C9414190E94061938F00E94EB
:102F30000D1920F039F49F3F19F426F40C94F3187E
:102F40000EF4E095E7FB0C94ED18E92F0E9425198B
:102F500058F3BA17620773078407950720F079F4CE
:102F6000A6F50C9447190EF4E0950B2EBA2FA02D60
:102F70000B01B90190010C01CA01A0011124FF2726
:102F8000591B99F0593F50F4503E68F11A16F04021
:102F9000A22F232F342F4427585FF3CF4695379520
:102FA0002795A795F0405395C9F77EF41F16BA0BE5
:102FB000620B730B840BBAF09150A1F0FF0FBB1F93
:102FC000661F771F881FC2F70EC0BA0F621F731FDC
:102FD000841F48F4879577956795B795F7959E3F39
:102FE00008F0B0CF9395880F08F09927EE0F9795CA
:102FF000879508950E940E180C9414190E940D19BB
:1030000058F00E94061940F029F45F3F29F00C9413
:10301000ED1851110C9448190C94F3180E942519BD
:1030200068F39923B1F3552391F3951B550BBB27F7
:10303000AA2762177307840738F09F5F5F4F220F3C
:10304000331F441FAA1FA9F335D00E2E3AF0E0E833
:1030500032D091505040E695001CCAF72BD0FE2F7D
:1030600029D0660F771F881FBB1F26173707480711
:10307000AB07B0E809F0BB0B802DBF01FF279358C9
:103080005F4F3AF09E3F510578F00C94ED180C9488
:1030900048195F3FE4F3983ED4F38695779567959A
:1030A000B795F7959F5FC9F7880F911D96958795FE
:1030B00097F90895E1E0660F771F881FBB1F62171D
:1030C00073078407BA0720F0621B730B840BBA0BDB
:1030D000EE1F88F7E095089597FB16F40E94F61806
:1030E0000C94B018E89409C097FB3EF49095809535
:1030F000709561957F4F8F4F9F4F9923A9F0F92FBE
:1031000096E9BB279395F695879577956795B7953B
:10311000F111F8CFFAF4BB0F11F460FF1BC06F5F21
:103120007F4F8F4F9F4F16C0882311F096E911C033
:10313000772321F09EE8872F762F05C0662371F054
:1031400096E8862F70E060E02AF09A95660F771F68
:10315000881FDAF7880F9695879597F90895E89470
:10316000F92F96EBFF2381F0121613061406440B79
:103170009395F69587957795679557954040FF23EA
:10318000B9F71BC099270895882351F49850D2F7B6
:10319000872B762F652F542F432F322F20E0B1F34A
:1031A000121613061406440B88233AF09A95440F1E
:1031B000551F661F771F881FCAF755234AF4440F0F
:1031C000551F11F460FF04C06F5F7F4F8F4F9F4FFB
:1031D000880F9695879597F9089597F99F6780E8E6
:1031E00070E060E008959FEF80EC089590958095E1
:1031F0007095609550954095309521953F4F4F4F74
:103200005F4F6F4F7F4F8F4F9F4F089500240A9459
:103210001616170618060906089500240A941216B1
:103220001306140605060895092E0394000C11F4E4
:10323000882352F0BB0F40F4BF2B11F460FF04C091
:103240006F5F7F4F8F4F9F4F089557FD9058440FEA
:10325000551F59F05F3F71F04795880F97FB991FF5
:1032600061F09F3F79F087950895121613061406B2
:10327000551FF2CF4695F1DF08C01616170618063F
:10328000991FF1CF86957105610508940895E8941A
:10329000BB2766277727CB0197F908950E9461190C
:1032A0000C9414190E94061938F00E940D1920F090
:1032B000952311F00C94ED180C94F31811240C9430
:1032C00048190E94251970F3959FC1F3950F50E09E
:1032D000551F629FF001729FBB27F00DB11D639FC8
:1032E000AA27F00DB11DAA1F649F6627B00DA11D6E
:1032F000661F829F2227B00DA11D621F739FB00D14
:10330000A11D621F839FA00D611D221F749F332783
:10331000A00D611D231F849F600D211D822F762F1C
:103320006A2F11249F5750409AF0F1F088234AF0F9
:10333000EE0FFF1FBB1F661F771F881F9150504065
:10334000A9F79E3F510580F00C94ED180C94481994
:103350005F3FE4F3983ED4F3869577956795B795EC
:10336000F795E7959F5FC1F7FE2B880F911D969506
:10337000879597F908950F931F93CF93DF9382302A
:10338000910510F482E090E0E091052BF091062B7E
:1033900030E020E0B0E0A0E0309799F4211531054D
:1033A00009F447C0281B390B24303105C0F58A8148
:1033B0009B816115710571F1FB0182839383FE018D
:1033C00011C0408151810281138148175907F8F0DB
:1033D0004817590799F4109761F012960C931297B9
:1033E00013961C933296CF01DF91CF911F910F91CD
:1033F00008950093052B1093062BF4CF211531056A
:1034000019F04217530718F49A01BD01EF01DF01CB
:10341000F801C2CF8093052B9093062BD0CFFE01ED
:10342000E20FF31F8193919322503109288339834E
:10343000DACF2091032B3091042B232B41F42091E0
:103440000220309103202093032B3093042B2091F2
:103450000020309101202115310541F42DB73EB7F0
:103460004091042050910520241B350B4091032BE3
:103470005091042B4217530708F0B5CF241B350B8E
:103480002817390708F4AFCFBC016E5F7F4F2617AE
:10349000370708F4A8CF640F751F6093032B709350
:1034A000042BFA01819391939ECFCF93DF930097E2
:1034B000E9F0FC01329712821382C091052BD09162
:1034C000062BDE0130E020E02097A1F4208131813D
:1034D000820F931F2091032B3091042B281739075B
:1034E00009F067C0E093032BF093042BDF91CF9199
:1034F0000895DA01AE17BF0708F040C012964D914B
:103500005C9113979D014115510599F7D9011296C8
:10351000ED93FC9313974D915D91A40FB51FEA179E
:10352000FB0779F4808191810296840F951FD90160
:103530008D939C9311978281938112968D939C9386
:103540001397B0E0A0E08A819B810097B9F5FE0156
:1035500081919191E80FF91F8091032B9091042B99
:103560008E179F0719F6109761F51092052B109290
:10357000062BC093032BD093042BB8CFA283B38325
:1035800040815181840F951FA817B90771F44E5FD0
:103590005F4F8D919C911197480F591F4083518324
:1035A00012968D919C91828393832115310509F0A8
:1035B000ADCFE093052BF093062B98CFDE01EC0105
:1035C000C2CF12961D921C921397D3CF283008F0C9
:1035D00027E03327DA01990F311D87FD91600096AE
:1035E0006105710539F432602E5F3D9330E32A9511
:1035F000E1F708959F3F30F080387105610509F0CB
:103600003C5F3C5F3D93913008F08068911DDF93F3
:10361000CF931F930F93FF92EF92192F987F969558
:10362000E92F96959695E90FFF27E659FD4F9927C3
:103630003327EE24FF24A701E7010590089407949F
:1036400028F4360FE71EF81E491F511D660F771F1D
:10365000881F991F0694A1F70590079428F4E70E98
:10366000F81E491F561FC11D770F881F991F661F1F
:103670000694A1F70590079428F4F80E491F561FE9
:10368000C71FD11D880F991F661F771F0694A1F7CA
:103690000590079420F4490F561FC71FD81F990F94
:1036A000661F771F881F0694A9F7849110951770DD
:1036B00041F0D695C79557954795F794E7941A9595
:1036C000C1F7E0E1F2E068941590159135916591AC
:1036D000959105907FE27395E118F10A430B560B23
:1036E000C90BD009C0F7E10CF11E431F561FC91FBB
:1036F000D01D7EF4703311F48A95E6CFE894015022
:1037000030F0080F0AF40027021708F4202F239541
:10371000022F7A3328F079E37D932A95E9F710C0D8
:103720007D932A9589F60694979567953795179511
:103730001794E118F10A430B560BC90BD00998F006
:1037400023957E9173957A3308F070E37C93201370
:10375000B8F77E9170617D9330F0839571E37D932E
:1037600070E32A95E1F71124EF90FF900F911F91DC
:10377000CF91DF91992787FD90950895FC010590E1
:10378000615070400110D8F7809590958E0F9F1F63
:103790000895FB01DC0102C001900D9241505040A0
:1037A000D8F70895FC016150704001900110D8F7DE
:1037B000809590958E0F9F1F08950F931F93CF9321
:1037C000DF93182F092FEB018B8181FD09C01FEFBB
:1037D0000FEF812F902FDF91CF911F910F910895BF
:1037E00082FF14C02E813F818C819D81281739076B
:1037F0003CF4E881F981CF01019688839983108395
:103800008E819F8101968E839F83E3CFE885F98522
:10381000812F1995892BA1F3DACF0F931F93CF93A3
:10382000DF93E091092BF0910A2B238110E000E057
:1038300021FD0EC00FEF1FEFC801DF91CF911F9147
:103840000F9108951995892B11F00FEF1FEFCE01FD
:10385000EC0189916091092B70910A2BDB0118967C
:10386000ED91FC918111EECF8AE01995892B21F31E
:10387000E1CFFA01AA27283051F1203181F1E894F3
:103880006F936E7F6E5F7F4F8F4F9F4FAF4FB1E053
:103890003ED0B4E03CD0670F781F891F9A1FA11D4E
:1038A000680F791F8A1F911DA11D6A0F711D811D4F
:1038B000911DA11D20D009F468943F912AE0269F14
:1038C00011243019305D3193DEF6CF010895462F73
:1038D0004770405D4193B3E00FD0C9F7F6CF462F54
:1038E0004F70405D4A3318F0495D31FD40524193BD
:1038F00002D0A9F7EACFB4E0A6959795879577957A
:103900006795BA95C9F700976105710508959B0100
:10391000AC010A2E06945795479537952795BA9589
:10392000C9F7620F731F841F951FA01D0895F89497
:02393000FFCFC7
:1039320000000D2B200000000003000000004706DD
:10394200A20600003047727045052001696E697455
:10395200206C69676874207468696E677300696EA9
:1039620069742067726F756E642077617465722066
:103972007468696E67730073656E64206C6967684A
:1039820074207468696E67730073656E6420677271
:103992006F756E64207761746572207468696E67F2
:1039A20073004A544C6A746C00000102030405114E
:0C39B20012131415160A0B0C0D0E0F005A
:00000001FF
