:100000000C9485010C94A6010C94A6010C94A601F5
:100010000C94A6010C94A6010C94A6010C94A601C4
:100020000C94A6010C94A6010C94A6010C94A601B4
:100030000C94A6010C94A6010C947B0D0C94A601C3
:100040000C94A6010C94A6010C94A6010C94A60194
:100050000C94A6010C94A6010C94A6010C94A60184
:100060000C94A6010C94A6010C94A6010C94A60174
:100070000C94A6010C94A6010C94A6010C94A60164
:100080000C94A6010C94A6010C94A6010C94A60154
:100090000C94A6010C94A6010C94A6010C94A60144
:1000A0000C94A6010C94A6010C94A6010C94A60134
:1000B0000C94A6010C94A6010C94A6010C94A60124
:1000C0000C94A6010C94A6010C94A6010C94A60114
:1000D0000C94A6010C94A6010C94A6010C94A60104
:1000E0000C94A6010C94A6010C94A6010C94A601F4
:1000F0000C94A6010C94A6010C94A6010C94A601E4
:100100000C94A6010C94A6010C94A6010C94A601D3
:100110000C94A6010C94A6010C94A6010C94A601C3
:100120000C94A6010C94A6010C94A6010C94A601B3
:100130000C94A6010C94A6010C94A6010C94A601A3
:100140000C94A6010C94A6010C94A6010C94A60193
:100150000C94A6010C94A6010C94A6010C94A60183
:100160000C94A6010C94A6010C94A6010C94A60173
:100170000C94A6010C94A6010C94A6010C94A60163
:100180000C94A6010C94A6010C94A6010C94A60153
:100190000C94A6010C94A6010C94A6010C94A60143
:1001A0000C94E40B0C94A6010C94A6010C94A601EB
:1001B0000C94A6010C94A6010C94A6010C94A60123
:1001C0000C94A6010C94A6010C94A6010C94A60113
:1001D0000C94A6010C94A6010C94A6010C949F0803
:1001E0000C94C2080C94A6010C94A6010C94A601D0
:1001F0000C94A6010C94A6010C94A6010C94400842
:100200000C9491170C949B086E616E00696E6600E9
:1002100000407A10F35A00A0724E18090010A5D4BD
:10022000E80000E87648170000E40B54020000CA1A
:100230009A3B000000E1F505000080969800000060
:1002400040420F000000A0860100000010270000BF
:100250000000E803000000006400000000000A0045
:10026000000000000100000000002C76D888DC6748
:100270004F0823DFC1DFAE59E1B1B796E5E3E453A0
:10028000C63AE651997696E8E6C28426EB898C9BBD
:1002900062ED407C6FFCEFBC9C9F40F2BAA56FA55D
:1002A000F490055A2AF75C936B6CF9676DC11BFCDF
:1002B000E0E40D47FEF520E6B500D0ED902E0300FA
:1002C000943577050080841E080000204E0A000047
:1002D00000C80C333333330F986E12831141EF8D06
:1002E0002114893BE65516CFFEE6DB18D1844B3846
:1002F0001BF77C1D901DA4BBE424203284725E2277
:100300008100C9F124ECA1E53D2711241FBECFEFE8
:10031000CDBFDFE5DEBF00E00CBF10E2A0E0B0E241
:10032000E8EEFBE300E00BBF02C007900D92A83996
:10033000B107D9F72BE2A8E9B0E201C01D92A931BB
:10034000B207E1F70E9469070C94F21D0C940000BB
:100350002F923F924F925F926F927F928F929F92D5
:10036000AF92BF92CF92DF92EF92FF920F931F93C3
:10037000CF93DF93CDB7DEB72F97CDBFDEBF6C0134
:100380001B014A01FC011682178283819E012F5FA7
:100390003F4F390181FDCFC08FEF9FEFDDC2F12CC0
:1003A000512C00E0003238F48B3209F190F48032A5
:1003B000F9F0833209F107FD34C020ED280F2A300F
:1003C00020F506FF1BC0FAE0FF9E200D1124F22E3F
:1003D00005C08D3279F0803371F70160F10193FD32
:1003E000859193FF81911F018111DCCF1AC00260BA
:1003F0000460F4CF0860F2CF0061F0CF3AE0539E82
:10040000200D1124522E0062E9CF8E3221F406FD18
:10041000A0C20064E3CF8C3611F40068DFCF8836C9
:10042000E9F29BEB980F933008F05CC00061805EAE
:1004300006FD02C046E0F42E102F1F73853609F02A
:1004400058C0106417FF5EC08F2D9BE39F1508F402
:100450008BE344244394480E27E0F40161917191A9
:10046000819191915F01042DA3010E942D1C4C01EB
:10047000F981FC87F0FF03C00DE2F3FF07C00BE238
:1004800011FD04C0012F047012FD00E22C852C70B8
:10049000E22E09F46BC00111C4C2F3E0E12CF515A2
:1004A000A0F483E0E52CE81A13FD08C0B60180E251
:1004B00090E00E94241DEA94E110F8CF002329F077
:1004C000B601802F90E00E94241D3C8528E0822EFA
:1004D00022E0922E33FD04C09CE0892E92E0992EFA
:1004E000107122C09BE9980F933008F048C10F7E2D
:1004F0009FCF863611F41068A5CFFF2009F4A2CF54
:10050000FA94A0CFE7E02F2DEF1518F427E037E09D
:10051000F32E412CA2CF11118052B60190E00E941F
:10052000241D8FEF881A980AF40184918111F3CF6A
:10053000E11070C24501F6019381F10193FD8591AF
:1005400093FF81911F01882309F403C2853241F48E
:1005500093FD859193FF81911F01853209F01FCF93
:10056000B60190E00E94241D5401E4CF17FF70C033
:10057000480CFC85F4FF04C08A81813309F44A9455
:1005800014140CF087C028E0241510F488E0482EDD
:1005900085E090E017FF06C0C40197FE02C090E01E
:1005A00080E0019601110196FF2031F02F2D30E0FF
:1005B0002F5F3F4F820F931F5816190619F014F042
:1005C000E52CE81A812F897011F4E11068C000232E
:1005D00029F0B601802F90E00E94241D13FD02C077
:1005E000E11064C017FF7DC0840197FE02C010E0D7
:1005F00000E0C401841991092C016F2D70E0EE27F1
:10060000FF27E61BF70BEE87FF87801691060CF499
:1006100054C0401651060CF050C0F401E01BF10B21
:10062000E60DF71D8181015011092E853F850217C6
:1006300013070CF444C0B60190E00E94241D0F3F44
:10064000100719F7B6018EE290E00E94241DDDCF5D
:1006500016FD9ECFEF2DF0E0E815F90534F03CEFE4
:1006600083163FEF93060CF010683296E60DF71DE7
:1006700001C0FA94FF2019F082918033D1F317FF63
:1006800087CF442443944F0CF814190431F02CF014
:10069000F8187ECF442443947BCFF12C79CFB60158
:1006A00080E290E00E94241DEA948FCFB60180E39F
:1006B00090E00E94241DEA9493CF80E3B4CF80168B
:1006C000910641F49A81963350F4953319F49C8540
:1006D00094FF05C0B60190E00E94241D29CF81E35C
:1006E000F9CF8A81813319F0EC85EF7EEC87B60172
:1006F00090E00E94241DFF20A9F0B6018EE290E058
:100700000E94241DF394F394E2E001E00E0FE60D45
:10071000F72DF11D8081B60190E00E94241DE02F8D
:100720000F11F3CF85E690E014FF02C085E490E05E
:10073000B6010E94241D97FC06C081149104C1F4E7
:10074000FC85F4FF15C09194819491088DE2B60167
:1007500090E00E94241D80E33AE08316910454F453
:10076000B60190E00E94241DB601C401C096B4CF2A
:100770008BE2EDCF8F5F2AE0821A9108EDCF8336AE
:10078000B1F0833759F1833509F055C0F4018190F8
:1007900091905F016F2D70E006FD02C06FEF7FEF5B
:1007A000C4010E94051D8C879D8700680DC05401FF
:1007B00082E0A80EB11CF4018081898321E030E041
:1007C0002C873D8743010F7703FD06C02C853D85AF
:1007D0005216130609F090F4E52C28C0F40181901C
:1007E00091905F016F2D70E006FD02C06FEF7FEF0B
:1007F000C4010E94191D8C879D87E5CFB60180E258
:1008000090E00E94241D5A94E1CFF40107FD8591E8
:1008100007FF81914F01B60190E00E94241DE11075
:10082000EA948C859D8501978C879D87EC85FD8555
:10083000EF2B59F77DCE843619F0893609F06EC05A
:10084000F40107FF63C061917191819191915F0102
:10085000102F1F7697FF08C0909580957095619531
:100860007F4F8F4F9F4F10682AE030E0A3010E9416
:10087000941D882E8618982C012F16FF0AC00E7F13
:100880008F1438F414FF04C012FD02C0012F0E7E35
:100890009F2C04FF97C0FE01E80DF11D808180337D
:1008A00009F089C0097EF02FF870EF2E03FD99C082
:1008B00000FF93C0F82C951410F4F50CF91804FF00
:1008C00096C0B60180E390E00E94241D02FF09C09B
:1008D00088E790E001FF02C088E590E0B6010E9441
:1008E000241D8F1408F48FC08A94082D10E00F5F28
:1008F0001F4F060D171DF80182918F01B60190E080
:100900000E94241D06151705B1F712CE6191719151
:100910005F01072E000C880B990B9ACF102F85379B
:1009200091F41F7E2AE030E0F40117FF3EC0619190
:100930007191819191915F01A3010E94941D882E74
:1009400086181F7798CF197F8F3661F1D8F48835D4
:1009500021F1F601868197812F96CDBFDEBFDF9111
:10096000CF911F910F91FF90EF90DF90CF90BF90AC
:10097000AF909F908F907F906F905F904F903F903F
:100980002F900895803739F0883719F714FD1460D7
:1009900020E130E0C9CF1061F9CF04FD166020E1FD
:1009A00032E0C2CF28E030E0BFCF619171915F01AA
:1009B00090E080E0C1CF02FD02C0939474CF939485
:1009C000939471CF802F867809F46DCFF6CFB6015E
:1009D00080E290E00E94241D93949514C0F3E12CD2
:1009E0006ECFE52CE918951408F469CFF8CF802F65
:1009F000867809F476CF8BE201FF80E207FD8DE275
:100A0000B60190E06CCFB60180E390E00E94241D17
:100A1000FA9467CFB60180E290E00E94241DEA9428
:100A200087CD24E0E12C251508F04ACD84E03ACDAD
:100A30008BEC80935200809150008860809350002E
:100A40008091510083FFFCCF82EC80935500809110
:100A500050008061809350008091510084FFFCCF52
:100A600088ED84BF84E080934000809150008E7FA9
:100A700080935000809150008D7F809350000895A6
:100A80004F925F926F927F928F929F92AF92BF929E
:100A9000CF92DF92EF92FF920F931F93CF93DF934A
:100AA00000D000D0CDB7DEB76E837D83182F092F1D
:100AB00020E030E24DE755E469837A838B839C83A1
:100AC00069817A818B819C810E946C1A181674F15D
:100AD0002AE037ED43E252E44E805D80612E702EB5
:100AE000C301B2010E9418194B015C0180929C2045
:100AF00090929D20A0929E20B0929F206B017C013D
:100B0000C701B6012696CDBFDEBFDF91CF911F9101
:100B10000F91FF90EF90DF90CF90BF90AF909F909C
:100B20008F907F906F905F904F90089560E070E09D
:100B300088EC92E4D9CF4F925F926F927F928F921E
:100B40009F92AF92BF92CF92DF92EF92FF920F935C
:100B50001F93CF93DF9300D000D0CDB7DEB76E8365
:100B60007D83182F092F20E030E24DE755E469839B
:100B70007A838B839C8369817A818B819C810E949B
:100B80006C1A181674F12FE632E143E850E44E80F7
:100B90005D80612E702EC301B2010E9418194B01B5
:100BA0005C018092982090929920A0929A20B09215
:100BB0009B206B017C01C701B6012696CDBFDEBF2D
:100BC000DF91CF911F910F91FF90EF90DF90CF9029
:100BD000BF90AF909F908F907F906F905F904F905D
:100BE000089560E070E08AE794E4D9CF84E08093D0
:100BF0000206E0E0F2E090E191A381E080A392831D
:100C0000118292E09483808308958091200280680D
:100C1000809320028091230280FFFCCF2091240248
:100C20003091250290912302916090932302C90193
:100C30000895FA0160837183828393830895CF932B
:100C4000DF93CDB7DEB76C97CDBFDEBFCE01019687
:100C50002CE1FC0111922A95E9F70E940C0A8115FA
:100C600041F08981803429F48A81813011F4109215
:100C7000062080910620893160F491E09093470628
:100C80008F5F809306206C96CDBFDEBFDF91CF9142
:100C9000089581E080934606F6CF4F925F926F925F
:100CA0007F928F929F92AF92BF92FF920F931F936A
:100CB000CF93DF93CDB7DEB7A097CDBFDEBFF82EC1
:100CC00087E790E00E9440160E942B118E01035E80
:100CD0001F4FA8012B013C01C301B2010E9419065C
:100CE0008D8D9E8DAF8DB8A18B839C83AD83BE838C
:100CF000F98282E08A8321E046E0BE016F5F7F4F88
:100D000080E40E949F0984E0782EF801272D11923B
:100D10002A95E9F78FEF93ECE9E081509040E040AD
:100D2000E1F700C000000E944A11A8014B015C01DC
:100D3000C501B4010E9419068D8D9E8DAF8DB8A19D
:100D40008B839C83AD83BE83F98283E08A8321E019
:100D500046E0BE016F5F7F4F80E40E949F09F8016B
:100D600011927A94E9F78DE190E20E94681DA096B5
:100D7000CDBFDEBFDF91CF911F910F91FF90BF904C
:100D8000AF909F908F907F906F905F904F9008955D
:100D90008F929F92AF92BF92CF92DF92EF92FF928B
:100DA0001F93CF93DF93CDB7DEB7A097CDBFDEBF44
:100DB000182F80E090E00E9490194B015C01C50162
:100DC000B4010E949B055E012DE1A20EB11CA5019C
:100DD0006B017C01C701B6010E9419068D8D9E8DA5
:100DE000AF8DB8A18B839C83AD83BE83198314E040
:100DF0001A8321E046E0BE016F5F7F4F80E40E94CE
:100E00009F09F50111921A95E9F78EE290E20E948E
:100E1000681DA096CDBFDEBFDF91CF911F91FF90DF
:100E2000EF90DF90CF90BF90AF909F908F900895FC
:100E30008F929F92AF92BF92CF92DF92EF92FF92EA
:100E40001F93CF93DF93CDB7DEB7A097CDBFDEBFA3
:100E5000182F80E090E00E9490194B015C01C501C1
:100E6000B4010E9440055E012DE1A20EB11CA50156
:100E70006B017C01C701B6010E9419068D8D9E8D04
:100E8000AF8DB8A18B839C83AD83BE83198385E02E
:100E90008A8321E046E0BE016F5F7F4F80E40E94BD
:100EA0009F0984E0F50111928A95E9F780E490E2C8
:100EB0000E94681DA096CDBFDEBFDF91CF911F912C
:100EC000FF90EF90DF90CF90BF90AF909F908F906A
:100ED0000895CDB7DEB7A097CDBFDEBF0E9418053D
:100EE00060E078E488EE91E00E945E080E94F605DA
:100EF00088ED97E208B618BE84BF90938000809179
:100F0000820081FDFCCF08BE0E94EF08182F0E94CE
:100F100007091F921F9389E590E29F938F930E9488
:100F2000541D81E0809341068091A20081608093EE
:100F3000A20078942FEB210F2D8F0F900F900F9020
:100F40000F902F3088F560E078E488EE91E00E9401
:100F5000EF108CE08093810684E08093860688E021
:100F60008093850600E080EB810F8E8F90EA910FD1
:100F70009F8F20E9210F28A386E0F82E0E941F06EC
:100F80000E940506BC018D8D8F3008F5812F0E94CF
:100F90004D06A8959FEF23EC89E0915020408040BA
:100FA000E1F700C00000EACF80EB810F803150F400
:100FB0008AE08093010682E08093060688E08093B1
:100FC0000506D0CF80EA810F803160F6F1CF9E8D8B
:100FD000903120F4812F0E94C806DBCF2F8D203165
:100FE00020F4812F0E941807D4CF88A1803188F681
:100FF0001983FA820B8320E043E0BE016F5F7F4FCD
:1010000080E40E949F098EE690E20E94681D0F5FB7
:10101000C0CF20916B2181E0820F90916A218436AC
:1010200010F08DE9820F981718F0981B892F0895FA
:101030009C59FBCFCF93DF93C82FD1E20E940908C0
:101040008115D9F080916B21E82FF0E0EA5FFE4D29
:10105000C0838F5F843608F080E09091A200292F32
:101060002E7F2093A20080936B2181E28093A30BBB
:101070009093A200DF91CF910895D093A30BDECF80
:10108000CF93DF93C82FDFEF0E940908811579F015
:10109000D11589F0CA3019F48DE00E941A088C2FFE
:1010A0000E941A0880E090E0DF91CF910895D11559
:1010B00011F0D150E9CF81E090E0F6CFE0EAF6E020
:1010C00098E1928B88E08583818324E02283E0EAA3
:1010D000FBE086831782948380E28383E0EAF0E07A
:1010E000828183608283E3E1FBE287E090E2808398
:1010F00091838283938308959091052180910421A7
:10110000981718F0981B892F08959C59FBCFCF93FF
:10111000C09104210E947C088115E1F3EC2FF0E0DE
:10112000E056FF4D8081CF5FC43608F0C0E0C09329
:101130000421CF9108950E94870890E008958F932D
:101140008FB78F938BB78F939F93EF93FF9380917C
:101150000521E82FF0E09091A00BE056FF4D908321
:101160008F5F843608F080E090910421981380937B
:101170000521FF91EF919F918F918BBF8F918FBF31
:101180008F9118952F932FB72F932BB72F938F9362
:101190009F93EF93FF9380916A2190916B21891324
:1011A00010C080E28093A30B892F80936A21FF9166
:1011B000EF919F918F912F912BBF2F912FBF2F9147
:1011C0001895E82FF0E0EA5FFE4D20812093A00BF8
:1011D0008F5F843608F080E08913E7CFE2CFE0E24A
:1011E000F6E0108288E1808B818B828B838B848BED
:1011F000858B868B878B2FEF89EF90E02150804085
:101200009040E1F700C00000808580950895CF935D
:10121000C82F1092010886E08093000881E0809337
:10122000060884ED90E380932608909327080E9497
:10123000DC0D0E94171068E080E30E943E0F80E002
:101240000E940F0F80E20E941C0F8CE00E94310F61
:1012500085E40E94000F80E00E94080F0E94BA10EF
:101260000E94420F0E94F90F0E9408108091AA0666
:1012700080648093AA0682E08093B6062091A90636
:101280008091A90630E02C7F2160822B8093A906F3
:1012900085E190E20E94970E65E170E280E00E9495
:1012A000B40E0E943F100E94710EC0937229E3E7B2
:1012B000F9E2138237968AE2E13DF807D1F7CF9140
:1012C00008959091712980917029981718F0981BB2
:1012D000892F08959853FBCF0F931F93CF93DF93DC
:1012E00000D000D0CDB7DEB7362F26E0EFE7F0E232
:1012F000DE01119601900D922A95E1F7FC0120E0A4
:1013000046E0231308C02696CDBFDEBFDF91CF9104
:101310001F910F91089551918F0101501109822F52
:10132000642F0E94D616BE016F5F7F4F690F711D3B
:10133000DB018C918527D8018C932F5FE2CFDF9260
:10134000EF92FF920F931F93CF93DF93CDB7DEB74A
:10135000A097CDBFDEBFF62E072F142F4D3138F5E5
:10136000DE01119690E2FD0111929A95E9F79091B4
:101370007229998393E09A838C83E3E7F9E240E052
:1013800050E0DA2EEB2E93819115D9F190819813CC
:1013900038C097E0949FF001959FF00D1124ED580F
:1013A000F64D958191110EC08B8381110CC0A096D2
:1013B000CDBFDEBFDF91CF911F910F91FF90EF90D6
:1013C000DF9008959B83211529F0612F8F2D902F99
:1013D0000E946C09EF2DF02FDE011596CF01810FD1
:1013E000911DE817F907A9F40E947310F89464E0BE
:1013F000610F8D2D9E2D0E94A31078940E943F10A6
:10140000D6CF4F5F5F4F37964233510509F0BBCFC0
:10141000CECF21912D93E5CFEF92FF920F931F93A3
:10142000CF93DF938C017C01D0E0C09170290E94A2
:101430006109811599F0EC2FF0E0E855F74D8081B6
:10144000CF5FC83C08F0C0E0C09370298D3031F008
:10145000F70181937F01DF5FDC3139F76D2FC80120
:101460000E946C098D2FDF91CF911F910F91FF90FA
:10147000EF900895A3E7B9E2FD0120E030E0938109
:101480009115D9F09081981318C087E0829FF001E0
:10149000839FF00D1124ED58F64D818192810A96BB
:1014A00081839283158221E026838734910554F14C
:1014B00086E490E08183928308952F5F3F4F3796B3
:1014C00022333105E1F620E030E013969C9113972A
:1014D000911112C097E0929FF001939FF00D11249B
:1014E000ED58F64D80838AE090E08183928381E01D
:1014F00083831582868308952F5F3F4F179622338B
:10150000310519F70895E3E7F9E220E030E0908132
:1015100098130AC087E0829FF001839FF00D112489
:10152000ED58F64D848108952F5F3F4F3796223353
:10153000310569F780E00895AC0170E020E030E00B
:101540009DE080917129E82FF0E0E855F74D621792
:10155000730781F490838F5F883C08F080E0E0910E
:101560007029E813809371292F5F3F4F621773072B
:1015700044F70895DA01A20FB31FAC91A083EBCF1B
:10158000E6E3F2E220E030E091919115B9F0D90163
:10159000AC5FBD4D9C91981311C0F90185E0EE0F31
:1015A000FF1F8A95E1F7E859FD4D10821182168ED2
:1015B000178E2A5C3D4DF901108208952F5F3F4F31
:1015C0002233310509F70895CF93DF93EB01E3E769
:1015D000F9E22381211521F02581241301C0138212
:1015E00037962AE2E13DF207A1F7FC0160E070E0E6
:1015F0006C177D0788F59081911571F180917229A2
:10160000891709F450C081818F3008F04CC0A3E7DE
:10161000B9E220E030E013965C9113975115F9F090
:101620005C9159131CC08F5F97E0929FF001939FCC
:10163000F00D1124ED58F64D9681891718F094811C
:1016400091110AC097E0929FF001939FF00D112431
:10165000ED58F64D45838683DF91CF9108952F5F36
:101660003F4F179622333105B1F6A3E7B9E220E0E8
:1016700030E013965C91139751110FC057E0529FC1
:10168000F001539FF00D1124ED58F64D908391E039
:101690009383948345838F5FDECF2F5F3F4F1796F1
:1016A0002233310531F76E5F7F4F3296A1CFEF9233
:1016B000FF920F931F93CF93DF93382F562F06E39C
:1016C00012E2E801E0E0F0E08991811539F0CF0104
:1016D0008C5F9D4DDC018C91831721F13196E233B3
:1016E000F10591F7E0E0F0E0D8018D918D018111D5
:1016F00048C0DF01AC5FBD4D3C9381E0DF01AA5CD7
:10170000BD4D8C93DF01C5E0AA0FBB1FCA95E1F761
:10171000A859BD4D1C9211961C9211975E961D9270
:101720001C925F97622F62956F702F70CF01E5E07A
:10173000880F991FEA95E1F7FC01E859FD4DA0815A
:10174000A1112BC060832183E52FF72FEC01C8592D
:10175000DD4D7E01BEE1EB0EF11CD7016D917C9158
:101760002E2F251B2417F8F06C31710578F0432FCC
:1017700086599D4D0E94E40A188219821E8E1F8E82
:1017800005C03196E233F10509F0AECFDF91CF917C
:101790001F910F91FF90EF900895A613F7CF6181ED
:1017A0006213F4CFD1CF6C31710560F48B010F5F00
:1017B0001F4FD7010D931C9320816C0F7D1FDB0100
:1017C00012962C933196C9CF1F920F920FB60F929B
:1017D00011240BB60F92EF92FF920F931F932F934A
:1017E0003F934F935F936F937F938F939F93AF93A9
:1017F000BF93EF93FF93CF93DF93CDB7DEB7A3975C
:10180000CDBFDEBFCE0101967C0180E2F7011192CF
:101810008A95E9F7AE014F5D5F4FBE016E5D7F4F68
:10182000CE0183960E94790E89A18115B9F00E949C
:10183000DD10182F682FC7010E94F20FF8948981DC
:101840000E943A0A0981802F0E94830A811531F093
:101850008A818330F8F4811132C07894A396CDBF89
:10186000DEBFDF91CF91FF91EF91BF91AF919F913B
:101870008F917F916F915F914F913F912F911F9128
:101880000F91FF90EF900F900BBE0F900FBE0F9037
:101890001F901895833009F7809172299B819813C6
:1018A000DCCF8C81909172294CEF410F891789F020
:1018B00020E0BE016B5F7F4F0E949F09CECF4EEFAD
:1018C000410F2B81BE016C5F7F4F802F0E94570B11
:1018D000C4CF642FCE0105960E949C0ABECF6F92A2
:1018E0007F928F929F92AF92BF92CF92DF92EF92B0
:1018F000FF921F93CF93DF93CDB7DEB76C97CDBF29
:10190000DEBF10920222109203227C01825A9E4F67
:101910004C0110E0D70113968C9113978115A9F112
:1019200014968C911497811581F181E0810FFE014D
:101930003196E10FF11D9C9190831E5FFE0131965F
:10194000E80FF11D16968C9180831C31F0F0612E0A
:10195000712CD0900222AD2CB12CC3010E94021B2D
:10196000F501EE0FFF1FE459FE4D80839183A30123
:10197000BE016F5F7F4F0E94101DF501E053FE4DC9
:101980001083D394D092022210E0B7E0EB0EF11C4A
:10199000E814F90409F0BECF1115E9F0A12EB12C1D
:1019A000F0900222CF2CD12CC5010E94021BF6011F
:1019B000EE0FFF1FE459FE4D80839183A501BE0108
:1019C0006F5F7F4F0E94101DF601E053FE4D1083A4
:1019D000F394F09202226C96CDBFDEBFDF91CF91DF
:1019E0001F91FF90EF90DF90CF90BF90AF909F90AE
:1019F0008F907F906F900895FF920F931F93CF93D6
:101A0000DF93CDB7DEB7A097CDBFDEBF90910322A5
:101A100080910222981720F083E799E20E946F0CD0
:101A2000909102228E010F5F1F4F911509F44CC057
:101A300080910322282F30E0F901EE0FFF1FE459B7
:101A4000FE4D50814181F901E053FE4DF0808295B9
:101A5000807F692F6F70862B2F5F3F4F9217130681
:101A600071F592E020E2F80111922A95E9F72091B0
:101A7000722929839A838B83E52FF42FDE01149634
:101A8000CF018F0D911DE817F907D9F40E9473104B
:101A9000F89464E06F0DC8010E94A31078940E942E
:101AA0003F10809103228F5F80930322A096CDBFC9
:101AB000DEBFDF91CF911F910F91FF90089591E0CC
:101AC000D1CF21912D93DFCF80E2F80111928A9539
:101AD000E9F780917229898382E08A8381E08B8390
:101AE0000E947310F89464E0C8010E94A3107894D7
:101AF0000E943F10DBCF1F920F920FB60F9211245E
:101B00000BB60F921F932F933F934F935F936F9357
:101B10007F938F939F93AF93BF93CF93DF93EF9375
:101B2000FF93C3E7D9E211E089819A81181619065B
:101B30001CF4019789839A838B81811559F08D81DB
:101B4000811108C089819A81009709F51B828881DB
:101B50000E94C00A27968AE2C13DD80729F70E9451
:101B6000FC0CFF91EF91DF91CF91BF91AF919F91CD
:101B70008F917F916F915F914F913F912F911F9125
:101B80000F900BBE0F900FBE0F901F9018954F97A0
:101B900014F01C83DFCF1C82E3E7F9E28381811517
:101BA00029F095818881981301C0138237968AE2C3
:101BB000E13DF80799F7CECFE0E4F6E088E08183D5
:101BC00084E0828382E08183E0EAF6E080E2818340
:101BD00080E4828380E88183E0EAF8E088E184831E
:101BE00080EC8583178281E0868308958093A00826
:101BF0008091A10886FFFCCF8091A108806480932A
:101C0000A1088091A00808951F93CF93DF93C0EAA5
:101C1000D6E010E21E838F710E94F60D8FEF0E94B6
:101C2000F60D1D83DF91CF911F91089584E00E94EE
:101C3000040E982F92959F709F5F8F708F5F989F73
:101C4000C00111242AEFAC01249FC001259F900DF3
:101C500011240895EF92FF920F931F93CF93DF9378
:101C60007B01C42F90E29093A6068F7180620E9440
:101C7000F60DD82F9E2D8F2DCE0DC9130BC080E2EF
:101C80008093A5068D2FDF91CF911F910F91FF902B
:101C9000EF900895092F182FF80181918F010E946C
:101CA000F60D902F812FE9CFFF920F931F93CF93C3
:101CB000DF93D62F00EA16E090E2F92EF801F682C3
:101CC0008F7180620E94F60DC82F8D2F0E94F60D35
:101CD000F801F5828C2FDF91CF911F910F91FF902A
:101CE000089580E00E94040E682F626080E00C94EA
:101CF000540EEF92FF920F931F93CF93DF937C01CB
:101D00008B01EA0160E787E00E94540E982F9072E1
:101D1000F7019083982F9071F801908380748883E5
:101D2000DF91CF911F910F91FF90EF900895CF9386
:101D3000DF93D82FC92F40911A20682F792F8AE07E
:101D40000E942A0E40911A206D2F7C2F80E10E9464
:101D50002A0E60911B20603228F481E1DF91CF913F
:101D60000C94540E60E2F9CFFF920F931F93CF9320
:101D7000DF93182FF62E072F811112C040911A20E1
:101D800050E081ED9AE20E94101DC12FD0E0FE01CB
:101D9000EE56FF4D40911A206F2D702F80810BC0A1
:101DA000873040F5C82FD0E0FE01EE56FF4D808110
:101DB00041E0113051F30E942A0EFE01E457FF4D1D
:101DC00060911B2080810E94540E82E00E94040ECC
:101DD000CA57DF4D988161E070E001C0660F9A95A7
:101DE000EAF7682B82E0DF91CF911F910F91FF906E
:101DF0000C94540EDF91CF911F910F91FF90089595
:101E0000682F87FD03C085E00C94540E6FE7FBCF6D
:101E10006FE3811101C060E081E00C94540ECF9318
:101E2000C82F86E00E94040E682F697FC6706C2B55
:101E300086E0CF910C94540ECF93C82F86E00E9479
:101E4000040E6C2F6872877D682B86E00E94540E0A
:101E500086E00E94040E982F81E09C1380E0CF91D1
:101E60000895CF93C82F80E00E94040E682F637FEF
:101E7000CC706C2B80E0CF910C94540E682B84E0D6
:101E80000C94540E60E787E00C94540EDF92EF92AE
:101E9000FF920F931F93CF93DF93D82EE92E842FB9
:101EA000C0911B20DC2F6C1708F4D62F9091D62AF6
:101EB000CD1B9111C0E090E29093A6060E94F60D12
:101EC000F82E2D2D3E2DDD0DD2130EC0C11113C0E5
:101ED00080E28093A5068F2DDF91CF911F910F9106
:101EE000FF90EF90DF900895F90181918F010E949A
:101EF000F60D9801E9CF80E00E94F60DC150E6CFC3
:101F00000F931F93CF93DF93D82FC92F162F042F32
:101F100080E00E94040E682F6E7F81FD24C0626005
:101F200080E00E94540E8FE79EE30197F1F700C016
:101F300000008FE094E00197F1F700C00000402F0F
:101F4000612F8D2F9C2F0E94460F80E88093A5065D
:101F50009AE69A95F1F700C08093A606DF91CF919B
:101F60001F910F91089580E00E94540EE2CFDF92FE
:101F7000EF92FF920F931F93CF93DF93D82EE92E0A
:101F8000C0911B20DC2F6C1708F4D62F8091D62A25
:101F9000CD1B8111C0E080E28093A60681E60E94FD
:101FA000F60DF82E2D2D3E2DDD0DD2130EC0C111D4
:101FB00014C080E28093A5068F2DDF91CF911F91F1
:101FC0000F91FF90EF90DF90089589018FEF0E94AD
:101FD000F60DF80181939F01E8CF8FEF0E94F60D77
:101FE000C150E5CF0E94B70F87E10E94040E8170B7
:101FF00008951F93CF93DF93C0EAD6E010E21E83CB
:1020000082EE0E94F60D1D83DF91CF911F910895FE
:102010001F93CF93DF93C0EAD6E010E21E8381EED8
:102020000E94F60D1D83DF91CF911F9108958FE3DC
:102030009CE90197F1F700C000006FE584E00E9481
:10204000540E86E00E940F0F80E20E941C0F811543
:1020500019F081E080931C2080E00E941C0F8CE02E
:102060000E94310F60E08CE10E94540E8CE40E94CB
:10207000000F0E94420F0E94F90F0C94081080E09C
:102080000E94040E682F81FD29C0636080E00E94D9
:10209000540E8FE79EE30197F1F700C000008FE038
:1020A00094E00197F1F700C0000060E787E00E942C
:1020B000540E40911A2061ED7AE28AE00E942A0EC5
:1020C0000E94F90F0E94081080E88093A5068FE017
:1020D00094E00197F1F700C000000895616080E08E
:1020E0000E94540EDCCF80E88093A6060E94F90F70
:1020F0000C940810CF93DF930E94160E64E670E0F4
:102100000E94E216EB0187E00E94040E2197EFE1A6
:10211000F3E03197F1F700C000008073811102C035
:10212000209789F787E00E94040EC82F0E94F90FBC
:102130000E94081060E787E00E94540E8C2F807286
:10214000DF91CF91089540EA0E94800F0C947A109D
:102150001F93CF93DF93C0EAD6E010E21E8380E5A1
:102160000E94F60D83E70E94F60D1D83DF91CF914B
:102170001F9108958DE10E94040E682F64608DE127
:102180000E94540E8DE10E94040E81110AC00E942B
:10219000A8108DE10E94040E682F64608DE10E94FA
:1021A000540E8CE10E94040E682F6F638CE10E9434
:1021B000540E81E08093D62A08951F93CF93DF9326
:1021C000C0EAD6E010E21E8380E60E94F60D8FEF93
:1021D0000E94F60D1D83DF91CF911F91089520EA93
:1021E00034E02093D72A3093D82A27E72093DD2A9A
:1021F0001092EA2A1092EB2A1092EC2A1092ED2A01
:102200001092E62A1092E72A1092E82A1092E92A00
:102210001092E22A1092E32A1092E42A1092E52A00
:102220001092DE2A1092DF2A1092E02A1092E12A00
:10223000E0E8F6E023E0218328E3208B218B20E0F7
:1022400035E34CE050E00E94F6166BEF620F80EA37
:1022500094E00C945216CF92DF92EF92FF9220916D
:10226000EA2A3091EB2A4091EC2A5091ED2A6091B4
:10227000E62A7091E72A8091E82A9091E92A0E9443
:10228000AC186B017C01C701B601FF90EF90DF90A5
:10229000CF9008956091E22A7091E32A8091E42A18
:1022A0009091E52A0895CF93DF93D82FC62F40E071
:1022B0006091DD2A8091D72A9091D82A0E946616D3
:1022C0006D2F8091D72A9091D82A0E94A6166C2F44
:1022D0008091D72A9091D82A0E94A6168091D72A59
:1022E0009091D82ADF91CF910C94A016CF93C82F4C
:1022F00040E06091DD2A8091D72A9091D82A0E94EF
:1023000066166C2F8091D72A9091D82A0E94A61623
:1023100041E06091DD2A8091D72A9091D82A0E94CD
:10232000861661E08091D72A9091D82A0E94B4162F
:10233000C82F8091D72A9091D82A0E94A0168C2F5E
:10234000CF910895CF93DF93C82F40E06091DD2AAD
:102350008091D72A9091D82A0E9466166C2F80917E
:10236000D72A9091D82A0E94A61641E06091DD2AD2
:102370008091D72A9091D82A0E94861660E0809199
:10238000D72A9091D82A0E94B416D82F61E0809164
:10239000D72A9091D82A0E94B416C82F8091D72AA4
:1023A0009091D82A0E94A016CE01DF91CF91089576
:1023B0004F925F926F927F928F929F92AF92BF9255
:1023C000CF92DF92EF92FF92CF93DF9300D00F92E4
:1023D000CDB7DEB78DEF0E94A2114090D92A509060
:1023E000DA2A6090DB2A7090DC2A2CE2521A21E073
:1023F000620A7108A0E0B0E06C017D013EE0CC0C07
:10240000DD1CEE1CFF1C3A95D1F740910A2B509130
:102410000B2B052E000C660B770BE4E1440F551FC8
:10242000661F771FEA95D1F7C41AD50AE60AF70A9C
:10243000A0910C2BB0910D2BA30192010E942317A8
:10244000C61AD70AE80AF90A30E4D30EE11CF11CD7
:10245000FFE0F594E794D794C794FA95D1F7A0914B
:10246000092BB0E0A30192010E9418174B015C01F7
:10247000ABE0B594A79497948794AA95D1F740E8D8
:10248000940EA11CB11CA0910E2B0A2E000CBB0BAC
:10249000A30192010E942317BAE09595879577953D
:1024A0006795BA95D1F7A50194010E94C6162AE056
:1024B00095958795779567952A95D1F79B01AC01FE
:1024C000405E5F4FA091072BB091082B0E9423170D
:1024D000705E8F4F9F4F3EE09595879577956795F6
:1024E0003A95D1F7A70196010E94C6166B017C01AF
:1024F0004FE095958795779567954A95D1F79B011C
:10250000AC010E94C6169B01AC0167E0559547954A
:10251000379527956A95D1F7A091062BB0E00E94D8
:102520001817E4E09595879577956795EA95D1F723
:10253000A7019601261B370B480B590BDA01C9017D
:1025400057FF36C080E090E0DC01BC01CD012CE0FB
:1025500095958795779567952A95D1F70E94921959
:1025600020E030E040E85AE369837A838B839C83E0
:1025700069817A818B819C810E94711A6093E22A21
:102580007093E32A8093E42A9093E52A2496CDBFA2
:10259000DEBFDF91CF91FF90EF90DF90CF90BF90A3
:1025A000AF909F908F907F906F905F904F90089525
:1025B00081309105A10539E1B3073CF280E090E05C
:1025C000A0E0B9E1C2CF0E94A211982789279827DD
:1025D00008951F93CF93DF9388E80E94E312CEEE15
:1025E000DAE2888399838AE80E94E3128A839B83D4
:1025F0008CE80E94E3128C839D838EE80E94E31294
:102600008E839F8380E90E94E3128887998782E9FD
:102610000E94E3128A879B8784E90E94E3128C87D9
:102620009D8786E90E94E3128E879F8788E90E9432
:10263000E312888B998B8AE90E94E3128A8B9B8B29
:102640008CE90E94E3128C8B9D8B8EE90E94E31231
:102650008E8B9F8B81EA0E947611888F81EE0E947B
:10266000E312898F9A8F83EE0E9476118B8F84EE0E
:102670000E947611182F85EE0E94761190E1199F25
:10268000900111248F70282B2C8F3D8F86EE0E9495
:102690007611182F85EE0E94761190E1199F900116
:1026A000112482958F70282B2E8F3F8F87EE0E94EA
:1026B000761188A3DF91CF911F910895CF92DF9279
:1026C000EF92FF92F82E40E06091DD2A8091D72AA8
:1026D0009091D82A0E9466166F2D8091D72A9091EA
:1026E000D82A0E94A61641E06091DD2A8091D72A5F
:1026F0009091D82A0E94861660E08091D72A909106
:10270000D82A0E94B41690E0A0E0B0E0CC24D82EE5
:10271000E92EFA2E60E08091D72A9091D82A0E9463
:10272000B416C82AFE2CED2CDC2CCC2461E0809160
:10273000D72A9091D82A0E94B416C82A8091D72A05
:102740009091D82A0E94A016C701B601FF90EF9081
:10275000DF90CF9008954F925F926F927F928F9209
:102760009F92AF92BF92CF92DF92EF92FF928AEF49
:102770000E945E136B017C01EEEEFAE22081318152
:10278000C901A0E0B0E04D2C5E2C6F2C772467FCD3
:102790007A94421A530A6108710857E0F594E79455
:1027A000D794C7945A95D1F7880F991FAA1FBB1FBA
:1027B000A7019601281B390B4A0B5B0BA281B38141
:1027C0000E9423176B017C017BE0F594E794D7947A
:1027D000C7947A95D1F7A3019201C301B2010E9477
:1027E000C6169B01AC01ACE05595479537952795EA
:1027F000AA95D1F7A481B5810E942317BEE09595D3
:10280000879577956795BA95D1F7A7019601260F19
:10281000371F481F591F2093D92A3093DA2A409333
:10282000DB2A5093DC2AA5E0B0E00E94181760581C
:102830007F4F8F4F9F4F672F782F892F992787FDC5
:102840009A950E94921920E030E048EC52E44B0146
:102850005C01C501B4010E9418196093E62A7093C7
:10286000E72A8093E82A9093E92AFF90EF90DF907F
:10287000CF90BF90AF909F908F907F906F905F9020
:102880004F9008952F923F924F925F926F927F9256
:102890008F929F92AF92BF92CF92DF92EF92FF9270
:1028A0000F931F93CF93DF93CDB7DEB76D97CDBF57
:1028B000DEBF87EF0E945E1369837A838B839C83DC
:1028C0008091D92A9091DA2AA091DB2AB091DC2A52
:1028D0006C017D01FF0CCC08DC2C76019C01AD0164
:1028E0006C2D7C2D8C2D9C2D345F4140510961094C
:1028F000710981099109722E832E942E5E836F8354
:102900007D8388879987A22EB32EC42ED52E7B0176
:102910008C010E942B172A873B874B8B5C8B6D8B1E
:102920007E8B8F8B988F2091FE2A3091FF2A932FD8
:10293000990F990BAA84BB846A017B01082F188D1B
:10294000492F592F692F792F892F0E942B17288BF8
:10295000398B4A8B252E362E472E582E692E2091E4
:10296000FC2A3091FD2A932F990F990BA72CB82C94
:10297000C92CDE80EF80FD8008851985492F592FED
:10298000692F792F892F0E942B1701E10E9454187B
:10299000A888B988CA88D22CE32CF42C052D162DD2
:1029A0000E948A18288B398B4A8B598F6A8F7B8FAC
:1029B0008C8F9D8F2091F62A3091F72A932F990FB3
:1029C000990BA72CB82CC92CDE80EF80FD800885E0
:1029D0001985492F592F692F792F892F0E942B177D
:1029E0000CE00E94541829013A014B011C0120916E
:1029F000F82A3091F92A932F990F990BAA84BB8456
:102A0000CB88DC88ED88FE880F89188D492F592FD7
:102A1000692F792F892F0E942B1708E00E946D18CB
:102A200052016301740181010E948A1870588F4F0E
:102A30009F4F2090F42A3090F52A5101C12CD12CBF
:102A4000E12CF12C00E010E00E942B1739014A0123
:102A50006E837F831C0149815A816B817C8134E0C4
:102A600075956795579547953A95D1F780E090E031
:102A7000A0E1B0E0841B950BA60BB70B6C017D01A8
:102A8000FF0CCC08DC2C76019C01AD016C2D7C2D5B
:102A90008C2D9C2D0FE10E9454182901B42FA52FD5
:102AA000F62FE72F89839D832091FA2A3091FB2A04
:102AB000932F990F990B492F592F692F792F892F10
:102AC00003E20E945418A888B988CA88D98CEA8C75
:102AD000FB8C0C8D1D8D0E948A1859016A017B01A7
:102AE0008C0192014B2F5A2F6F2F7E2F89819D8150
:102AF0000E949318E5E3AE2EFCE0BF2EC12CD12C32
:102B0000E12CF12C00E010E00E942B172901B42FDA
:102B1000A52FF62FE72F89839D839301A4016E8152
:102B20007F81C10101E20E946D1859016A017B0198
:102B30008C0192014B2F5A2F6F2F7E2F89819D81FF
:102B40000E948517322E232E49835E836F837D83F7
:102B5000888799870DE00E946D18522E632E7A8720
:102B60008B87492E2091042B3091052B932F990FA1
:102B7000990BA52CB62CC42ED52EE62EF72E082F99
:102B8000142D492F592F692F792F892F0E942B1728
:102B90000E942B1709E10E946D18A32CB22CC9804A
:102BA000DE80EF80FD80088519850E948A18290142
:102BB0003A014B018A879B872091022B3091032B8E
:102BC000932F990F990B492F592F692F792F892FFF
:102BD0000E942B1703E10E946D1859016A017B01C5
:102BE0008C019201A301B4018A859B850E948A18F9
:102BF00008E00E946D1859016A017B01E82F192F26
:102C00002091002B3091012B932F990F990B492F75
:102C1000592F692F792F892F04E00E9454180E2F05
:102C20000E948A180E948A1920E030E040E85BE3A5
:102C30006C877D878E879F876C857D858E859F8538
:102C40000E94711A6093DE2A7093DF2A8093E02A33
:102C50009093E12A6D96CDBFDEBFDF91CF911F919A
:102C60000F91FF90EF90DF90CF90BF90AF909F902B
:102C70008F907F906F905F904F903F902F9008952E
:102C80008093DD2A0E94E91261E082EF0E945311D5
:102C90006FE384EF0E9453110E94AB130E94D8117E
:102CA0000C944214FC01A0E8B6E083E011968C93EA
:102CB000119788E350968C93509751968C93658327
:102CC000138288E0818381E084830895FC018481FC
:102CD00083708130C9F4660F642B668320E430E092
:102CE00002C0220F331F4A95E2F7848190E08223CD
:102CF0009323892BD1F39481892F807194FF05C090
:102D000083E0838382E0089581E00895FC01660FEB
:102D1000642B668320E430E002C0220F331F4A9503
:102D2000E2F7848190E082239323892BD1F394816D
:102D3000892F807194FF03C083E0838382E008952C
:102D4000FC0183E0838381E084830895FC01678331
:102D5000848186FFFDCF9481892F807194FF03C009
:102D600083E0838382E00895FC01848187FFFDCFA7
:102D70008781611103C092E09383089597E0938364
:102D8000613019F4948190FFFDCF0895DB018F939A
:102D90009F930E941817BF91AF91A29F800D911D24
:102DA000A39F900DB29F900D11240895992778E06C
:102DB000880F991F961708F0961B881F7A95C9F7F8
:102DC00080950895AA1BBB1B51E107C0AA1FBB1F1A
:102DD000A617B70710F0A61BB70B881F991F5A95A7
:102DE000A9F780959095BC01CD010895A1E21A2E16
:102DF000AA1BBB1BFD010DC0AA1FBB1FEE1FFF1F9F
:102E0000A217B307E407F50720F0A21BB30BE40BEE
:102E1000F50B661F771F881F991F1A9469F7609535
:102E20007095809590959B01AC01BD01CF010895EF
:102E30000E949C18A59F900DB49F900DA49F800D9B
:102E4000911D11240895B7FF0C9418170E941817AC
:102E5000821B930B0895DF93CF931F930F939A9D3B
:102E6000F02D219FF00D8B9DF00D8A9DE02DF10D31
:102E7000039FF00D029FE00DF11D4E9DE00DF11D31
:102E80005E9DF00D4F9DF00D7F936F93BF92AF92BB
:102E90005F934F93D5010E949C188B01AC01D70121
:102EA0000E949C18EB01E80FF91FD6010E947A17C7
:102EB0002F913F91D6010E949C18C60FD71FE81F83
:102EC000F91FAF91BF910E947A172F913F910E94F5
:102ED0009C18C60FD71FE81FF91FD6010E949C1827
:102EE000E60FF71F9801BE01CF010F911F91CF91FF
:102EF000DF9108950E949C18460F571FC81FD91FC5
:102F000008F431960895689401C0E894F92FF12BE4
:102F100012F00C94B717A0E0B0E0E1E9F7E10C94EF
:102F20002918092E059422F40E941318112392F4F3
:102F3000F0E80F26FFEFE094F09400951095B09420
:102F4000C094D094A194BF0ACF0ADF0AEF0AFF0A07
:102F50000F0B1F0B0E94C21707FC0E941318CDB75E
:102F6000DEB7ECE00C944218689401C0E8948F92AC
:102F70009F92CF93DF930E94C217DF91CF919F90D2
:102F80008F90089588249924F401E401B0E49F937C
:102F9000AA279A158B049C04ED05FE05CF05D007E2
:102FA000A10798F4AD2FDC2FCF2FFE2FE92D982C01
:102FB000892E982F872F762F652F542F432F322F4E
:102FC0002227B85031F7BF9127C01B2EBF91BB27D6
:102FD000220F331F441F551F661F771F881F991F1D
:102FE000881C991CEE1FFF1FCC1FDD1FAA1FBB1FD3
:102FF0008A149B04EC05FD05CE05DF05A007B1078B
:1030000048F08A189B08EC09FD09CE09DF09A00BDE
:10301000B10B21601A94E1F62EF49401AF01BE01C8
:10302000CD01000C08956095709580959095309530
:103030004095509521953F4F4F4F5F4F6F4F7F4FBA
:103040008F4F9F4F08952F923F924F925F926F92B2
:103050007F928F929F92AF92BF92CF92DF92EF9228
:10306000FF920F931F93CF93DF93CDB7DEB7CA1BA9
:10307000DB0BCDBFDEBF19942A88398848885F846E
:103080006E847D848C849B84AA84B984C884DF8008
:10309000EE80FD800C811B81AA81B981CE0FD11DEC
:1030A000CDBFDEBFED010895002E083090F0982FBF
:1030B000872F762F652F542F432F322F222708502A
:1030C000F4CF220F331F441F551F661F771F881F21
:1030D000991F0A95B2F7002D089597FD1094002EC0
:1030E000083098F00850232F342F452F562F672F84
:1030F000782F892F912DF4CF1594979587957795F3
:10310000679557954795379527950A95AAF71124FE
:10311000002D08952A0D3B1D4C1D5D1D6E1D7F1D4C
:10312000801F911F08952A193B094C095D096E09FA
:103130007F09800B910B0895A29FB001B39FC0013E
:10314000A39F700D811D1124911DB29F700D811DD3
:103150001124911D08955058BB27AA270E94C31817
:103160000C94321A0E94241A38F00E942B1A20F074
:1031700039F49F3F19F426F40C94111A0EF4E095DB
:10318000E7FB0C940B1AE92F0E94431A58F3BA1765
:10319000620773078407950720F079F4A6F50C946D
:1031A000651A0EF4E0950B2EBA2FA02D0B01B90174
:1031B00090010C01CA01A0011124FF27591B99F0AD
:1031C000593F50F4503E68F11A16F040A22F232FB9
:1031D000342F4427585FF3CF469537952795A79509
:1031E000F0405395C9F77EF41F16BA0B620B730BB0
:1031F000840BBAF09150A1F0FF0FBB1F661F771F21
:10320000881FC2F70EC0BA0F621F731F841F48F4D5
:10321000879577956795B795F7959E3F08F0B0CF5E
:103220009395880F08F09927EE0F97958795089545
:103230000E942C190C94321A0E942B1A58F00E94EA
:10324000241A40F029F45F3F29F00C940B1A511115
:103250000C94661A0C94111A0E94431A68F399236D
:10326000B1F3552391F3951B550BBB27AA27621782
:103270007307840738F09F5F5F4F220F331F441F8F
:10328000AA1FA9F335D00E2E3AF0E0E832D09150C3
:103290005040E695001CCAF72BD0FE2F29D0660FB0
:1032A000771F881FBB1F261737074807AB07B0E8F3
:1032B00009F0BB0B802DBF01FF2793585F4F3AF0F9
:1032C0009E3F510578F00C940B1A0C94661A5F3FE0
:1032D000E4F3983ED4F3869577956795B795F7957F
:1032E0009F5FC9F7880F911D9695879597F9089567
:1032F000E1E0660F771F881FBB1F62177307840703
:10330000BA0720F0621B730B840BBA0BEE1F88F711
:10331000E095089597FB16F40E94141A0C94CE19A8
:10332000E89409C097FB3EF490958095709561955F
:103330007F4F8F4F9F4F9923A9F0F92F96E9BB2715
:103340009395F695879577956795B795F111F8CF91
:10335000FAF4BB0F11F460FF1BC06F5F7F4F8F4FFC
:103360009F4F16C0882311F096E911C0772321F0F2
:103370009EE8872F762F05C0662371F096E8862F8A
:1033800070E060E02AF09A95660F771F881FDAF7E1
:10339000880F9695879597F90895E894F92F96EBFD
:1033A000FF2381F0121613061406440B9395F6952D
:1033B00087957795679557954040FF23B9F71BC0D0
:1033C00099270895882351F49850D2F7872B762FA8
:1033D000652F542F432F322F20E0B1F3121613061E
:1033E0001406440B88233AF09A95440F551F661F24
:1033F000771F881FCAF755234AF4440F551F11F44D
:1034000060FF04C06F5F7F4F8F4F9F4F880F96956F
:10341000879597F9089597F99F6780E870E060E0D5
:1034200008959FEF80EC0895909580957095609534
:1034300050954095309521953F4F4F4F5F4F6F4FBF
:103440007F4F8F4F9F4F089500240A94161617063A
:1034500018060906089500240A9412161306140685
:1034600005060895092E0394000C11F4882352F0E8
:10347000BB0F40F4BF2B11F460FF04C06F5F7F4FA0
:103480008F4F9F4F089557FD9058440F551F59F087
:103490005F3F71F04795880F97FB991F61F09F3F41
:1034A00079F087950895121613061406551FF2CF6A
:1034B0004695F1DF08C0161617061806991FF1CFBA
:1034C00086957105610508940895E894BB276627E1
:1034D0007727CB0197F908950E94DE1A08F48FEF41
:1034E00008950E94841A0C94321A0E94241A38F00B
:1034F0000E942B1A20F0952311F00C940B1A0C94B7
:10350000111A11240C94661A0E94431A70F3959FA5
:10351000C1F3950F50E0551F629FF001729FBB27CA
:10352000F00DB11D639FAA27F00DB11DAA1F649F66
:103530006627B00DA11D661F829F2227B00DA11D19
:10354000621F739FB00DA11D621F839FA00D611D9F
:10355000221F749F3327A00D611D231F849F600DC0
:10356000211D822F762F6A2F11249F5750409AF0E9
:10357000F1F088234AF0EE0FFF1FBB1F661F771F75
:10358000881F91505040A9F79E3F510580F00C9440
:103590000B1A0C94661A5F3FE4F3983ED4F38695B9
:1035A00077956795B795F795E7959F5FC1F7FE2BE0
:1035B000880F911D9695879597F90895990F0008A2
:1035C000550FAA0BE0E8FEEF16161706E807F907F5
:1035D000C0F012161306E407F50798F0621B730B90
:1035E000840B950B39F40A2661F0232B242B252B11
:1035F00021F408950A2609F4A140A6958FEF811DB4
:10360000811D08950F931F93CF93DF93823091050F
:1036100010F482E090E0E091112BF091122B30E059
:1036200020E0B0E0A0E0309799F42115310509F4CD
:1036300047C0281B390B24303105C0F58A819B8196
:103640006115710571F1FB0182839383FE0111C045
:10365000408151810281138148175907F8F04817BA
:10366000590799F4109761F012960C9312971396DC
:103670001C933296CF01DF91CF911F910F91089546
:103680000093112B1093122BF4CF2115310519F053
:103690004217530718F49A01BD01EF01DF01F80149
:1036A000C2CF8093112B9093122BD0CFFE01E20F4B
:1036B000F31F819391932250310928833983DACF04
:1036C00020910F2B3091102B232B41F420910220BD
:1036D0003091032020930F2B3093102B209100204A
:1036E000309101202115310541F42DB73EB74091AD
:1036F000042050910520241B350B40910F2B509135
:10370000102B4217530708F0B5CF241B350B281791
:10371000390708F4AFCFBC016E5F7F4F261737071C
:1037200008F4A8CF640F751F60930F2B7093102BB4
:10373000FA01819391939ECFCF93DF930097E9F0A5
:10374000FC01329712821382C091112BD091122B5F
:10375000DE0130E020E02097A1F420813181820F4A
:10376000931F20910F2B3091102B2817390709F048
:1037700067C0E0930F2BF093102BDF91CF9108954A
:10378000DA01AE17BF0708F040C012964D915C9168
:1037900013979D014115510599F7D9011296ED93A3
:1037A000FC9313974D915D91A40FB51FEA17FB078A
:1037B00079F4808191810296840F951FD9018D93B0
:1037C0009C9311978281938112968D939C9313976A
:1037D000B0E0A0E08A819B810097B9F5FE0181915C
:1037E0009191E80FF91F80910F2B9091102B8E175C
:1037F0009F0719F6109761F51092112B1092122B5A
:10380000C0930F2BD093102BB8CFA283B3834081EA
:103810005181840F951FA817B90771F44E5F5F4F50
:103820008D919C911197480F591F40835183129697
:103830008D919C91828393832115310509F0ADCF41
:10384000E093112BF093122B98CFDE01EC01C2CF45
:1038500012961D921C921397D3CF283008F027E0C0
:103860003327DA01990F311D87FD916000966105BC
:10387000710539F432602E5F3D9330E32A95E1F70C
:1038800008959F3F30F080387105610509F03C5F75
:103890003C5F3D93913008F08068911DDF93CF939A
:1038A0001F930F93FF92EF92192F987F9695E92F10
:1038B00096959695E90FFF27E659FD4F99273327EF
:1038C000EE24FF24A701E70105900894079428F44B
:1038D000360FE71EF81E491F511D660F771F881F00
:1038E000991F0694A1F70590079428F4E70EF81E97
:1038F000491F561FC11D770F881F991F661F069409
:10390000A1F70590079428F4F80E491F561FC71F0A
:10391000D11D880F991F661F771F0694A1F7059088
:10392000079420F4490F561FC71FD81F990F661F11
:10393000771F881F0694A9F784911095177041F09E
:10394000D695C79557954795F794E7941A95C1F77B
:10395000E0E1F2E0689415901591359165919591AB
:1039600005907FE27395E118F10A430B560BC90BE2
:10397000D009C0F7E10CF11E431F561FC91FD01D0F
:103980007EF4703311F48A95E6CFE894015030F05C
:10399000080F0AF40027021708F4202F2395022F9E
:1039A0007A3328F079E37D932A95E9F710C07D9367
:1039B0002A9589F6069497956795379517951794E4
:1039C000E118F10A430B560BC90BD00998F0239567
:1039D0007E9173957A3308F070E37C932013B8F7E7
:1039E0007E9170617D9330F0839571E37D9370E3F8
:1039F0002A95E1F71124EF90FF900F911F91CF913D
:103A0000DF91992787FD90950895FC0105906150FD
:103A100070400110D8F7809590958E0F9F1F0895E4
:103A2000FB01DC0102C001900D9241505040D8F7DB
:103A30000895FC016150704001900110D8F7809505
:103A400090958E0F9F1F08950F931F93CF93DF9331
:103A5000182F092FEB018B8181FD09C01FEF0FEF9C
:103A6000812F902FDF91CF911F910F91089582FFA9
:103A700014C02E813F818C819D81281739073CF429
:103A8000E881F981CF0101968883998310838E8123
:103A90009F8101968E839F83E3CFE885F985812FEF
:103AA0001995892BA1F3DACFCF93DF93CDB7DEB78A
:103AB000AE014A5F5F4FFA0161917191AF01809150
:103AC000152B9091162B0E94A801DF91CF9108959C
:103AD0000F931F93CF93DF93E091152BF091162B4B
:103AE000238110E000E021FD0EC00FEF1FEFC801A1
:103AF000DF91CF911F910F9108951995892B11F0A6
:103B00000FEF1FEFCE01EC0189916091152B7091A1
:103B1000162BDB011896ED91FC918111EECF8AE016
:103B20001995892B21F3E1CFFA01AA27283051F109
:103B3000203181F1E8946F936E7F6E5F7F4F8F4FDE
:103B40009F4FAF4FB1E03ED0B4E03CD0670F781F3D
:103B5000891F9A1FA11D680F791F8A1F911DA11D22
:103B60006A0F711D811D911DA11D20D009F468945B
:103B70003F912AE0269F11243019305D3193DEF603
:103B8000CF010895462F4770405D4193B3E00FD0B9
:103B9000C9F7F6CF462F4F70405D4A3318F0495DA4
:103BA00031FD4052419302D0A9F7EACFB4E0A69587
:103BB0009795879577956795BA95C9F700976105A9
:103BC000710508959B01AC010A2E069457954795FF
:103BD00037952795BA95C9F7620F731F841F951FF4
:083BE000A01D0895F894FFCF29
:103BE8000000192B2000FE00000003000000004028
:103BF800089B080000304772704505200173656E08
:103C0800642074656D70207468696E6773007365ED
:103C18006E64206C69676874207468696E677300E5
:103C280073656E642067726F756E64207761746562
:103C380072207468696E677300666F756E642061C0
:103C48006464726573733A20253038750A007365A9
:103C58006E642074657374207468696E6773004AB3
:103C6800544C6A746C000001020304051112131409
:083C780015160A0B0C0D0E0FCE
:00000001FF
