:100000000C9402010C9423010C9423010C94230101
:100010000C9423010C9423010C9423010C942301D0
:100020000C9423010C9423010C9423010C942301C0
:100030000C9423010C9423010C9423010C942301B0
:100040000C9423010C9423010C9423010C942301A0
:100050000C9423010C9423010C9423010C94230190
:100060000C9423010C9423010C9423010C94230180
:100070000C9423010C9423010C9423010C94230170
:100080000C9423010C9423010C9423010C94230160
:100090000C9423010C9423010C9423010C94230150
:1000A0000C9423010C9423010C9423010C94230140
:1000B0000C9423010C9423010C9423010C94230130
:1000C0000C9423010C9423010C9423010C94230120
:1000D0000C9423010C9423010C9423010C94230110
:1000E0000C9423010C9423010C9423010C94230100
:1000F0000C9423010C9423010C9423010C942301F0
:100100000C9423010C9423010C9423010C942301DF
:100110000C9423010C9423010C9423010C942301CF
:100120000C9423010C9423010C9423010C942301BF
:100130000C9423010C9423010C9423010C942301AF
:100140000C9423010C9423010C9423010C9423019F
:100150000C9423010C9423010C9423010C9423018F
:100160000C9423010C9423010C9423010C9423017F
:100170000C9423010C9423010C9423010C9423016F
:100180000C9423010C9423010C9423010C9423015F
:100190000C9423010C9423010C9423010C9423014F
:1001A0000C9484010C9423010C9423010C942301DE
:1001B0000C9423010C9423010C9423010C9423012F
:1001C0000C9423010C9423010C9423010C9423011F
:1001D0000C9423010C9423010C9423010C94FB0533
:1001E0000C9423060C9423010C9423010C942301FA
:1001F0000C9423010C9423010C9423010C9490057E
:100200000C94EC0511241FBECFEFCDBFDFE5DEBFA0
:1002100000E00CBF10E2A0E0B0E2E8EEFCE000E09D
:100220000BBF02C007900D92A832B107D9F722E2A6
:10023000A8E2B0E201C01D92A232B207E1F70E942B
:100240004D010C9472060C9400008BEC80935200CC
:10025000809150008860809350008091510083FF0E
:10026000FCCF82EC80935500809150008061809398
:1002700050008091510084FFFCCF88ED84BF84E062
:1002800080934000809150008E7F80935000809139
:1002900050008D7F809350000895CF93DF931F927D
:1002A000CDB7DEB782E08093A1060E94250160E011
:1002B00078E488EE91E00E94B0050E9425028091CA
:1002C000A20081608093A20078940E94CE058823CA
:1002D000E1F30E94F00589830E94AE0541E0BE0172
:1002E0006F5F7F4F81E00E94E201EFCFFC019181BF
:1002F000E081F0E0E75DFF4D8081981719F0908371
:1003000081E0089580E008951F920F920FB60F923A
:1003100011240BB60F921F932F933F934F935F932C
:100320006F937F938F939F93AF93BF93EF93FF93BD
:10033000CF93DF9300D0CDB7DEB7AE014F5F5F4FF5
:10034000BE016E5F7F4FCE0103960E94F802898145
:100350008823F9F00E944805182F682F8AE291E25D
:100360000E945E048AE291E20E947601882389F06D
:1003700082E08093A70681E0809329210E94DF0418
:10038000F894612F8AE291E20E940E0578940E940F
:10039000AB042396CDBFDEBFDF91CF91FF91EF91EC
:1003A000BF91AF919F918F917F916F915F914F918D
:1003B0003F912F911F910F900BBE0F900FBE0F908A
:1003C0001F901895EF92FF921F93CF93DF93CDB7B5
:1003D000DEB7A097CDBFDEBF4E3150F5FE0133969C
:1003E0009EE1DF011D929A95E9F791E09983909142
:1003F00028209A838B83DB019E012F5F3F4F790179
:10040000F901642F70E09F012E193F092617370765
:10041000C4F0142F9F5F909328200E94DF04F8946B
:1004200063E0610FC7010E940E0578940E94AB043F
:10043000A096CDBFDEBFDF91CF911F91FF90EF90CF
:1004400008958D9183833196DECF0E945F020E94D2
:10045000830468E080E30E94B20384E00E94830387
:1004600080E20E9490038CE00E94A50388E10E9434
:10047000760380E00E947C030E9425050E94B6035B
:100480000E9465040E947404E0EAF6E082858064BC
:10049000828782E0868B8185218590E08C7F8160D8
:1004A000822B818780E090E20E94160360E070E278
:1004B00080E00E9430030E94AB040C94F002E0E460
:1004C000F6E088E0818384E0828382E08183E0EA51
:1004D000F6E080E2818380E4828380E88183E0EA41
:1004E000F8E088E1848380EC8583178281E086834D
:1004F00008958093A0088091A10886FFFCCF809189
:10050000A10880648093A1088091A00808951F939A
:10051000CF93DF93C0EAD6E010E21E838F710E9472
:1005200079028FEF0E9479021D83DF91CF911F9195
:10053000089584E00E948702282F22952F7030E0D2
:100540002F5F3F4F9AEF929FA001939F500D112470
:100550008F7090E001969C01429FC001439F900DD7
:10056000529F900D11240895EF92FF920F931F93C5
:10057000CF93DF937B01142F90E29093A6068F71A7
:1005800080620E947902082FE701115058F480E23E
:100590008093A506802FDF91CF911F910F91FF903F
:1005A000EF90089589910E947902EFCFFF920F9307
:1005B0001F93CF93DF93F62EC0EAD6E010E21E839E
:1005C0008F7180620E947902082F8F2D0E9479021C
:1005D0001D83802FDF91CF911F910F91FF90089580
:1005E00080E00E948702682F626080E00C94D6024F
:1005F000EF92FF920F931F93CF93DF937C018B01B8
:10060000EA0160E787E00E94D602982F9072F70116
:100610009083982F9071F801908380748883DF9184
:10062000CF911F910F91FF90EF900895CF93DF939B
:10063000EC0140910520BC018AE00E94B402409187
:100640000520BE0180E10E94B40260910620603264
:1006500028F481E1DF91CF910C94D60260E2F9CFCA
:100660000F931F93CF93DF93C82F8B01811110C07D
:100670004091052050E08AE491E20E946906EC2F47
:10068000F0E0EE5DFF4D40910520B80180810AC089
:10069000873038F5E82FF0E0EE5DFF4D808141E0D6
:1006A000C13069F30E94B402D0E0FE01E45EFF4D68
:1006B0006091062080810E94D60282E00E9487021B
:1006C000CA5EDF4D988161E070E001C0660F9A95C7
:1006D000EAF7682B82E0DF91CF911F910F910C9484
:1006E000D602DF91CF911F910F910895682F87FD5A
:1006F0006FE785E00C94D6026FE3811101C060E0E2
:1007000081E00C94D602CF93C82F86E00E94870226
:10071000897F6C2F6670682B86E0CF910C94D6028F
:10072000CF93C82F86E00E948702877D6C2F687266
:10073000682B86E00E94D60286E00E94870291E044
:100740008C1390E0892FCF910895CF93C82F80E02C
:100750000E948702837F6C2F6C70682B80E0CF91A2
:100760000C94D602682B84E00C94D60260E787E0F4
:100770000C94D602DF92EF92FF920F931F93CF93C8
:10078000DF93D82EE92E842FC0910620DC2F6C1722
:1007900008F4D62F90914F21CD1B9111C0E090E22B
:1007A0009093A6060E947902F82E0D2D1E2DD15091
:1007B00070F4C15090F480E28093A5068F2DDF91F4
:1007C000CF911F910F91FF90EF90DF900895F80166
:1007D00081918F010E947902EACF80E00E94790224
:1007E000E8CF0F931F93CF93DF93EC01162F042FC5
:1007F00080E00E948702682F6E7F81FD23C06260C7
:1008000080E00E94D6028FE79EE30197F1F700C0D7
:1008100000008FE094E00197F1F700C00000402F46
:10082000612FCE010E94BA0380E88093A5069AE664
:100830009A95F1F700C08093A606DF91CF911F91A2
:100840000F91089580E00E94D602E3CFDF92EF92ED
:10085000FF920F931F93CF93DF93D82EE92EC09171
:100860000620DC2F6C1708F4D62F80914F21CD1B6A
:100870008111C0E080E28093A60681E60E947902A1
:10088000F82E0D2D1E2DD15070F4C15098F480E239
:100890008093A5068F2DDF91CF911F910F91FF902F
:1008A000EF90DF9008958FEF0E947902F801819315
:1008B0008F01E9CF8FEF0E947902E7CF0E942604D3
:1008C00087E10E948702817008951F93CF93DF9381
:1008D000C0EAD6E010E21E8382EE0E9479021D83F8
:1008E000DF91CF911F9108951F93CF93DF93C0EABB
:1008F000D6E010E21E8381EE0E9479021D83DF9113
:10090000CF911F9108958FE39CE90197F1F700C003
:1009100000006FE584E00E94D60286E00E94830317
:1009200080E20E949003882319F081E080930720E1
:1009300080E00E9490038CE00E94A50360E08CE1BF
:100940000E94D6028CE40E9476030E94B6030E94A5
:1009500065040C94740480E00E948702682F81FD76
:1009600029C0636080E00E94D6028FE79EE3019772
:10097000F1F700C000008FE094E00197F1F700C0AC
:10098000000060E787E00E94D602409105206AE4FB
:1009900071E28AE00E94B4020E9465040E9474041D
:1009A00080E88093A5068FE094E00197F1F700C0FE
:1009B00000000895616080E00E94D602DCCF80E8EC
:1009C0008093A6060E9465040C947404CF93DF9371
:1009D0000E94990264E670E00E945506EB012097A0
:1009E00061F087E00E9487022197EFE1F3E0319701
:1009F000F1F700C00000807391F387E00E94870246
:100A0000C82F0E9465040E94740460E787E00E947A
:100A1000D6028C2F8072DF91CF91089540EA0E9418
:100A2000F1030C94E6041F93CF93DF93C0EAD6E062
:100A300010E21E8380E50E94790283E70E9479021A
:100A40001D83DF91CF911F9108958DE10E94870250
:100A5000682F64608DE10E94D6028DE10E948702BA
:100A600081110AC00E9413058DE10E948702682F40
:100A700064608DE10E94D6028CE10E948702682F9B
:100A80006F638CE10E94D60281E080934F2108952C
:100A90001F93CF93DF93C0EAD6E010E21E8380E677
:100AA0000E9479028FEF0E9479021D83DF91CF911E
:100AB0001F91089520911B2291E0920F80911A229C
:100AC000943610F09DE9920F891710F0891B089554
:100AD0008C59FCCFCF93DF93C82FD1E20E945A05E7
:100AE0008823D9F080911B22E82FF0E0EA54FE4DD4
:100AF000C0838F5F843608F080E09091A200292F98
:100B00002E7F2093A20080931B2281E28093A30B6F
:100B10009093A200DF91CF910895D093A30BDECFE5
:100B2000CF93DF93D82FCFEF0E945A05882379F017
:100B3000CC2389F0DA3019F48DE00E946A058D2FFC
:100B40000E946A0590E080E0DF91CF910895CC2368
:100B500011F0C150E9CF81E090E0F6CF0C946A0526
:100B6000E0EAF6E098E1928B88E08583818324E0D7
:100B70002283E0EAFBE086831782948380E283830A
:100B8000E0EAF0E0828183608283ECE1F2E288E0D7
:100B900090E2808391838283938308958091B5212D
:100BA0009091B421891710F0891B08958C59FCCFBE
:100BB000CF93C091B4210E94CE058823E1F3EC2F9E
:100BC000F0E0E05BFE4D8081CF5FC43608F0C0E00E
:100BD000C093B421CF9108950E94D80590E0089564
:100BE0000E94CE05882321F00E94D80590E0089548
:100BF00080E091E008951F920F920FB60F9211249A
:100C00000BB60F928F939F93EF93FF938091B52133
:100C1000E82FF0E09091A00BE05BFE4D90838F5F9A
:100C2000843608F080E09091B42198138093B52128
:100C3000FF91EF919F918F910F900BBE0F900FBE80
:100C40000F901F9018951F920F920FB60F921124BC
:100C50000BB60F922F938F939F93EF93FF938091F7
:100C60001A2290911B22891312C080E28093A30B59
:100C7000892F80931A22FF91EF919F918F912F914D
:100C80000F900BBE0F900FBE0F901F901895E82F7E
:100C9000F0E0EA54FE4D20812093A00B8F5F843654
:100CA00008F080E08913E5CFE0CFAA1BBB1B51E120
:100CB00007C0AA1FBB1FA617B70710F0A61BB70BCC
:100CC000881F991F5A95A9F780959095BC01CD0171
:100CD0000895FB01DC0102C001900D92415050408B
:080CE000D8F70895F894FFCF46
:100CE8003047727045052001000000030000000035
:100CF8009005EC050000000102030405111213140D
:080D080015160A0B0C0D0E0F6D
:00000001FF
