:100000000C9485010C94A6010C94A6010C94A601F5
:100010000C94A6010C94A6010C94A6010C94A601C4
:100020000C94A6010C94A6010C94A6010C94A601B4
:100030000C94A6010C94A6010C94B60B0C94A6018A
:100040000C94A6010C94A6010C94A6010C94A60194
:100050000C94A6010C94A6010C94A6010C94A60184
:100060000C94A6010C94A6010C94A6010C94A60174
:100070000C94A6010C94A6010C94A6010C94A60164
:100080000C94A6010C94A6010C94A6010C94A60154
:100090000C94A6010C94A6010C94A6010C94A60144
:1000A0000C94A6010C94A6010C94A6010C94A60134
:1000B0000C94A6010C94A6010C94A6010C94A60124
:1000C0000C94A6010C94A6010C94A6010C94A60114
:1000D0000C94A6010C94A6010C94A6010C94A60104
:1000E0000C94A6010C94A6010C94A6010C94A601F4
:1000F0000C94A6010C94A6010C94A6010C94A601E4
:100100000C94A6010C94A6010C94A6010C94A601D3
:100110000C94A6010C94A6010C94A6010C94A601C3
:100120000C94A6010C94A6010C94A6010C94A601B3
:100130000C94A6010C94A6010C94A6010C94A601A3
:100140000C94A6010C94A6010C94A6010C94A60193
:100150000C94A6010C94A6010C94A6010C94A60183
:100160000C94A6010C94A6010C94A6010C94A60173
:100170000C94A6010C94A6010C94A6010C94A60163
:100180000C94A6010C94A6010C94A6010C94A60153
:100190000C94A6010C94A6010C94A6010C94A60143
:1001A0000C941F0A0C94A6010C94A6010C94A601B1
:1001B0000C94A6010C94A6010C94A6010C94A60123
:1001C0000C94A6010C94A6010C94A6010C94A60113
:1001D0000C94A6010C94A6010C94A6010C94E306C1
:1001E0000C9406070C94A6010C94A6010C94A6018D
:1001F0000C94A6010C94A6010C94A6010C94DF06A5
:100200000C9484060C94CC156E616E00696E6600C9
:1002100000407A10F35A00A0724E18090010A5D4BD
:10022000E80000E87648170000E40B54020000CA1A
:100230009A3B000000E1F505000080969800000060
:1002400040420F000000A0860100000010270000BF
:100250000000E803000000006400000000000A0045
:10026000000000000100000000002C76D888DC6748
:100270004F0823DFC1DFAE59E1B1B796E5E3E453A0
:10028000C63AE651997696E8E6C28426EB898C9BBD
:1002900062ED407C6FFCEFBC9C9F40F2BAA56FA55D
:1002A000F490055A2AF75C936B6CF9676DC11BFCDF
:1002B000E0E40D47FEF520E6B500D0ED902E0300FA
:1002C000943577050080841E080000204E0A000047
:1002D00000C80C333333330F986E12831141EF8D06
:1002E0002114893BE65516CFFEE6DB18D1844B3846
:1002F0001BF77C1D901DA4BBE424203284725E2277
:100300008100C9F124ECA1E53D2711241FBECFEFE8
:10031000CDBFDFE5DEBF00E00CBF10E2A0E0B0E241
:10032000ECE0F8E300E00BBF02C007900D92A23BA7
:10033000B107D9F72BE2A2EBB0E201C01D92AB32BC
:10034000B207E1F70E94E6050C94041C0C9400002F
:100350002F923F924F925F926F927F928F929F92D5
:10036000AF92BF92CF92DF92EF92FF920F931F93C3
:10037000CF93DF93CDB7DEB72F97CDBFDEBF6C0134
:100380001B014A01FC011682178283819E012F5FA7
:100390003F4F390181FDCFC08FEF9FEFDDC2F12CC0
:1003A000512C00E0003238F48B3209F190F48032A5
:1003B000F9F0833209F107FD34C020ED280F2A300F
:1003C00020F506FF1BC0FAE0FF9E200D1124F22E3F
:1003D00005C08D3279F0803371F70160F10193FD32
:1003E000859193FF81911F018111DCCF1AC00260BA
:1003F0000460F4CF0860F2CF0061F0CF3AE0539E82
:10040000200D1124522E0062E9CF8E3221F406FD18
:10041000A0C20064E3CF8C3611F40068DFCF8836C9
:10042000E9F29BEB980F933008F05CC00061805EAE
:1004300006FD02C046E0F42E102F1F73853609F02A
:1004400058C0106417FF5EC08F2D9BE39F1508F402
:100450008BE344244394480E27E0F40161917191A9
:10046000819191915F01042DA3010E943F1A4C01DB
:10047000F981FC87F0FF03C00DE2F3FF07C00BE238
:1004800011FD04C0012F047012FD00E22C852C70B8
:10049000E22E09F46BC00111C4C2F3E0E12CF515A2
:1004A000A0F483E0E52CE81A13FD08C0B60180E251
:1004B00090E00E94361BEA94E110F8CF002329F067
:1004C000B601802F90E00E94361B3C8528E0822EEA
:1004D00022E0922E33FD04C09CE0892E92E0992EFA
:1004E000107122C09BE9980F933008F048C10F7E2D
:1004F0009FCF863611F41068A5CFFF2009F4A2CF54
:10050000FA94A0CFE7E02F2DEF1518F427E037E09D
:10051000F32E412CA2CF11118052B60190E00E941F
:10052000361B8FEF881A980AF40184918111F3CF5A
:10053000E11070C24501F6019381F10193FD8591AF
:1005400093FF81911F01882309F403C2853241F48E
:1005500093FD859193FF81911F01853209F01FCF93
:10056000B60190E00E94361B5401E4CF17FF70C023
:10057000480CFC85F4FF04C08A81813309F44A9455
:1005800014140CF087C028E0241510F488E0482EDD
:1005900085E090E017FF06C0C40197FE02C090E01E
:1005A00080E0019601110196FF2031F02F2D30E0FF
:1005B0002F5F3F4F820F931F5816190619F014F042
:1005C000E52CE81A812F897011F4E11068C000232E
:1005D00029F0B601802F90E00E94361B13FD02C067
:1005E000E11064C017FF7DC0840197FE02C010E0D7
:1005F00000E0C401841991092C016F2D70E0EE27F1
:10060000FF27E61BF70BEE87FF87801691060CF499
:1006100054C0401651060CF050C0F401E01BF10B21
:10062000E60DF71D8181015011092E853F850217C6
:1006300013070CF444C0B60190E00E94361B0F3F34
:10064000100719F7B6018EE290E00E94361BDDCF4D
:1006500016FD9ECFEF2DF0E0E815F90534F03CEFE4
:1006600083163FEF93060CF010683296E60DF71DE7
:1006700001C0FA94FF2019F082918033D1F317FF63
:1006800087CF442443944F0CF814190431F02CF014
:10069000F8187ECF442443947BCFF12C79CFB60158
:1006A00080E290E00E94361BEA948FCFB60180E38F
:1006B00090E00E94361BEA9493CF80E3B4CF80167B
:1006C000910641F49A81963350F4953319F49C8540
:1006D00094FF05C0B60190E00E94361B29CF81E34C
:1006E000F9CF8A81813319F0EC85EF7EEC87B60172
:1006F00090E00E94361BFF20A9F0B6018EE290E048
:100700000E94361BF394F394E2E001E00E0FE60D35
:10071000F72DF11D8081B60190E00E94361BE02F7D
:100720000F11F3CF85E690E014FF02C085E490E05E
:10073000B6010E94361B97FC06C081149104C1F4D7
:10074000FC85F4FF15C09194819491088DE2B60167
:1007500090E00E94361B80E33AE08316910454F443
:10076000B60190E00E94361BB601C401C096B4CF1A
:100770008BE2EDCF8F5F2AE0821A9108EDCF8336AE
:10078000B1F0833759F1833509F055C0F4018190F8
:1007900091905F016F2D70E006FD02C06FEF7FEF5B
:1007A000C4010E94171B8C879D8700680DC05401EF
:1007B00082E0A80EB11CF4018081898321E030E041
:1007C0002C873D8743010F7703FD06C02C853D85AF
:1007D0005216130609F090F4E52C28C0F40181901C
:1007E00091905F016F2D70E006FD02C06FEF7FEF0B
:1007F000C4010E942B1B8C879D87E5CFB60180E248
:1008000090E00E94361B5A94E1CFF40107FD8591D8
:1008100007FF81914F01B60190E00E94361BE11065
:10082000EA948C859D8501978C879D87EC85FD8555
:10083000EF2B59F77DCE843619F0893609F06EC05A
:10084000F40107FF63C061917191819191915F0102
:10085000102F1F7697FF08C0909580957095619531
:100860007F4F8F4F9F4F10682AE030E0A3010E9416
:10087000A61B882E8618982C012F16FF0AC00E7F03
:100880008F1438F414FF04C012FD02C0012F0E7E35
:100890009F2C04FF97C0FE01E80DF11D808180337D
:1008A00009F089C0097EF02FF870EF2E03FD99C082
:1008B00000FF93C0F82C951410F4F50CF91804FF00
:1008C00096C0B60180E390E00E94361B02FF09C08B
:1008D00088E790E001FF02C088E590E0B6010E9441
:1008E000361B8F1408F48FC08A94082D10E00F5F18
:1008F0001F4F060D171DF80182918F01B60190E080
:100900000E94361B06151705B1F712CE6191719141
:100910005F01072E000C880B990B9ACF102F85379B
:1009200091F41F7E2AE030E0F40117FF3EC0619190
:100930007191819191915F01A3010E94A61B882E64
:1009400086181F7798CF197F8F3661F1D8F48835D4
:1009500021F1F601868197812F96CDBFDEBFDF9111
:10096000CF911F910F91FF90EF90DF90CF90BF90AC
:10097000AF909F908F907F906F905F904F903F903F
:100980002F900895803739F0883719F714FD1460D7
:1009900020E130E0C9CF1061F9CF04FD166020E1FD
:1009A00032E0C2CF28E030E0BFCF619171915F01AA
:1009B00090E080E0C1CF02FD02C0939474CF939485
:1009C000939471CF802F867809F46DCFF6CFB6015E
:1009D00080E290E00E94361B93949514C0F3E12CC2
:1009E0006ECFE52CE918951408F469CFF8CF802F65
:1009F000867809F476CF8BE201FF80E207FD8DE275
:100A0000B60190E06CCFB60180E390E00E94361B07
:100A1000FA9467CFB60180E290E00E94361BEA9418
:100A200087CD24E0E12C251508F04ACD84E03ACDAD
:100A30008BEC80935200809150008860809350002E
:100A40008091510083FFFCCF82EC80935500809110
:100A500050008061809350008091510084FFFCCF52
:100A600088ED84BF84E080934000809150008E7FA9
:100A700080935000809150008D7F809350000895A6
:100A8000FA0160837183828393830895CF93DF9308
:100A9000CDB7DEB76C97CDBFDEBFCE0101962CE19E
:100AA000FC0111922A95E9F70E944708811541F04F
:100AB0008981803429F48A81813011F410920620D2
:100AC00080910620893160F491E0909347068F5F12
:100AD000809306206C96CDBFDEBFDF91CF91089545
:100AE00081E080934606F6CF4F925F926F927F929D
:100AF000AF92BF92CF92DF92EF92FF921F93CF936C
:100B0000DF93CDB7DEB7A097CDBFDEBF182F87E745
:100B100090E00E947B140E94660F5E012DE1A20E00
:100B2000B11CA5012B013C01C301B2010E9440058B
:100B30008D8D9E8DAF8DB8A18B839C83AD83BE833D
:100B4000198382E08A8321E046E0BE016F5F7F4F18
:100B500080E40E94DA0784E0F50111928A95E9F7B2
:100B6000FFEF23EC89E0F15020408040E1F700C026
:100B700000000E94850FA5016B017C01C701B60131
:100B80000E9440058D8D9E8DAF8DB8A18B839C8377
:100B9000AD83BE83198383E08A8321E046E0BE01F2
:100BA0006F5F7F4F80E40E94DA07A096CDBFDEBF63
:100BB000DF91CF911F91FF90EF90DF90CF90BF908A
:100BC000AF907F906F905F904F9008950E941805AE
:100BD00060E078E488EE91E00E94A2060E9433076C
:100BE000C82F0E9442071F92CF938DE190E29F93FE
:100BF0008F930E94661B81E0809341068091A20042
:100C000081608093A2007894DFEBDC0F0F900F904F
:100C10000F900F90DF3040F560E078E488EE91E0CF
:100C20000E942A0F8CE08093810684E080938606E0
:100C300088E08093850610EB1C0F00EA0C0F0E94E1
:100C40004605DF3008F58C2F0E9474058DE590E293
:100C50000E947A1B2FEF83EC99E021508040904056
:100C6000E1F700C00000EBCF80EB8C0F803128F45F
:100C700082E390E20E947A1BDECF80EA8C0F803103
:100C8000D0F684E490E2F6CF8EE690E2103100F3E5
:100C9000003100F780E890E2DBCF20917D2181E0F8
:100CA000820F90917C21843610F08DE9820F981785
:100CB00018F0981B892F08959C59FBCFCF93DF9391
:100CC000C82FD1E20E944D068115D9F080917D2177
:100CD000E82FF0E0E85EFE4DC0838F5F843608F0B9
:100CE00080E09091A200292F2E7F2093A200809374
:100CF0007D2181E28093A30B9093A200DF91CF919D
:100D00000895D093A30BDECFCF93DF93C82FDFEFEF
:100D10000E944D06811579F0D11589F0CA3019F479
:100D20008DE00E945E068C2F0E945E0680E090E0BF
:100D3000DF91CF910895D11511F0D150E9CF81E025
:100D400090E0F6CFE0EAF6E098E1928B88E08583C8
:100D5000818324E02283E0EAFBE086831782948388
:100D600080E28383E0EAF0E0828183608283E5E2CF
:100D7000FBE287E090E280839183828393830895EE
:100D80009091172180911621981718F0981B892FA0
:100D900008959C59FBCFCF93C09116210E94C006A5
:100DA0008115E1F3EC2FF0E0EE54FF4D8081CF5F31
:100DB000C43608F0C0E0C0931621CF9108950E9478
:100DC000CB0690E008958F938FB78F938BB78F9357
:100DD0009F93EF93FF9380911721E82FF0E090917C
:100DE000A00BEE54FF4D90838F5F843608F080E0B7
:100DF00090911621981380931721FF91EF919F9165
:100E00008F918BBF8F918FBF8F9118952F932FB795
:100E10002F932BB72F938F939F93EF93FF938091F3
:100E20007C2190917D21891310C080E28093A30BD7
:100E3000892F80937C21FF91EF919F918F912F912A
:100E40002BBF2F912FBF2F911895E82FF0E0E85E70
:100E5000FE4D20812093A00B8F5F843608F080E048
:100E60008913E7CFE2CFE0E2F6E0108288E1808BE1
:100E7000818B828B838B848B858B868B878B808504
:100E800080950895CF93C82F1092010886E0809333
:100E9000000881E08093060884ED90E380932608A3
:100EA000909327080E94170C0E94520E68E080E37E
:100EB0000E94790D80E00E944A0D80E20E94570D49
:100EC0008CE00E946C0D85E40E943B0D80E00E9446
:100ED000430D0E94F50E0E947D0D0E94340E0E946B
:100EE000430E8091AA0680648093AA0682E08093D4
:100EF000B6062091A9068091A90630E02C7F2160DA
:100F0000822B8093A90685E190E20E94D20C65E1D4
:100F100070E280E00E94EF0C0E947A0E0E94AC0CFE
:100F2000C0938429E5E8F9E2138237968AE2E33E2A
:100F3000F807D1F7CF910895909183298091822964
:100F4000981718F0981B892F08959853FBCF0F938B
:100F50001F93CF93DF9300D000D0CDB7DEB7362FED
:100F600026E0E9E9F0E2DE01119601900D922A9562
:100F7000E1F7FC0120E046E0231308C02696CDBF30
:100F8000DEBFDF91CF911F910F91089551918F0195
:100F900001501109822F642F0E941115BE016F5F4D
:100FA0007F4F690F711DDB018C918527D8018C93D0
:100FB0002F5FE2CFDF92EF92FF920F931F93CF93B9
:100FC000DF93CDB7DEB7A097CDBFDEBFF62E072FDC
:100FD000142F4D3138F5DE01119690E2FD0111928A
:100FE0009A95E9F790918429998393E09A838C8369
:100FF000E5E8F9E240E050E0DA2EEB2E938191151E
:10100000D9F19081981338C097E0949FF001959F93
:10101000F00D1124EB57F64D958191110EC08B8385
:1010200081110CC0A096CDBFDEBFDF91CF911F9183
:101030000F91FF90EF90DF9008959B83211529F089
:10104000612F8F2D902F0E94A707EF2DF02FDE012B
:101050001596CF01810F911DE817F907A9F40E9499
:10106000AE0EF89464E0610F8D2D9E2D0E94DE0E71
:1010700078940E947A0ED6CF4F5F5F4F37964233F7
:10108000510509F0BBCFCECF21912D93E5CFEF9243
:10109000FF920F931F93CF93DF938C017C01D0E0DD
:1010A000C09182290E949C07811599F0EC2FF0E0F5
:1010B000E654F74D8081CF5FC83C08F0C0E0C09394
:1010C00082298D3031F0F70181937F01DF5FDC31C0
:1010D00039F76D2FC8010E94A7078D2FDF91CF919F
:1010E0001F910F91FF90EF900895A5E8B9E2FD01DF
:1010F00020E030E093819115D9F09081981318C0C9
:1011000087E0829FF001839FF00D1124EB57F64D8D
:10111000818192810A9681839283158221E02683C0
:101120008734910554F186E490E081839283089599
:101130002F5F3F4F379622333105E1F620E030E054
:1011400013969C911397911112C097E0929FF00112
:10115000939FF00D1124EB57F64D80838AE090E0C9
:101160008183928381E083831582868308952F5F34
:101170003F4F17962233310519F70895E5E8F9E254
:1011800020E030E0908198130AC087E0829FF00150
:10119000839FF00D1124EB57F64D848108952F5F46
:1011A0003F4F37962233310569F780E00895AC014F
:1011B00070E020E030E09DE080918329E82FF0E0AE
:1011C000E654F74D6217730781F490838F5F883C74
:1011D00008F080E0E0918229E813809383292F5F53
:1011E0003F4F6217730744F70895DA01A20FB31F48
:1011F000AC91A083EBCFE8E4F2E220E030E0919103
:101200009115B9F0D901AA5EBD4D9C91981311C0FA
:10121000F90185E0EE0FFF1F8A95E1F7E658FD4DD5
:1012200010821182168E178E285B3D4DF9011082B7
:1012300008952F5F3F4F2233310509F70895CF936B
:10124000DF93EB01E5E8F9E22381211521F0258107
:10125000241301C0138237962AE2E33EF207A1F776
:10126000FC0160E070E06C177D0788F590819115B6
:1012700071F180918429891709F450C081818F30E0
:1012800008F04CC0A5E8B9E220E030E013965C918C
:1012900013975115F9F05C9159131CC08F5F97E0BB
:1012A000929FF001939FF00D1124EB57F64D96811C
:1012B000891718F0948191110AC097E0929FF0016C
:1012C000939FF00D1124EB57F64D45838683DF91F4
:1012D000CF9108952F5F3F4F179622333105B1F616
:1012E000A5E8B9E220E030E013965C911397511124
:1012F0000FC057E0529FF001539FF00D1124EB57A0
:10130000F64D908391E09383948345838F5FDECF86
:101310002F5F3F4F17962233310531F76E5F7F4FB6
:101320003296A1CFEF92FF920F931F93CF93DF934B
:10133000382F562F08E412E2E801E0E0F0E089914E
:10134000811539F0CF018A5E9D4DDC018C918317A8
:1013500021F13196E233F10591F7E0E0F0E0D801B8
:101360008D918D01811148C0DF01AA5EBD4D3C9376
:1013700081E0DF01A85BBD4D8C93DF01C5E0AA0FC2
:10138000BB1FCA95E1F7A658BD4D1C9211961C9241
:1013900011975E961D921C925F97622F62956F70F7
:1013A0002F70CF01E5E0880F991FEA95E1F7FC0166
:1013B000E658FD4DA081A1112BC060832183E52F4C
:1013C000F72FEC01C658DD4D7E01BEE1EB0EF11C9E
:1013D000D7016D917C912E2F251B2417F8F06C31CD
:1013E000710578F0432F84589D4D0E941F09188283
:1013F00019821E8E1F8E05C03196E233F10509F069
:10140000AECFDF91CF911F910F91FF90EF90089594
:10141000A613F7CF61816213F4CFD1CF6C31710580
:1014200060F48B010F5F1F4FD7010D931C93208138
:101430006C0F7D1FDB0112962C933196C9CF1F9242
:101440000F920FB60F9211240BB60F92EF92FF92EC
:101450000F931F932F933F934F935F936F937F93BC
:101460008F939F93AF93BF93EF93FF93CF93DF93AC
:10147000CDB7DEB7A397CDBFDEBFCE0101967C010D
:1014800080E2F70111928A95E9F7AE014F5D5F4F57
:10149000BE016E5D7F4FCE0183960E94B40C89A180
:1014A0008115B9F00E94180F182F682FC7010E94EC
:1014B0002D0EF89489810E9475080981802F0E9461
:1014C000BE08811531F08A818330F8F4811132C071
:1014D0007894A396CDBFDEBFDF91CF91FF91EF91BE
:1014E000BF91AF919F918F917F916F915F914F913C
:1014F0003F912F911F910F91FF90EF900F900BBE96
:101500000F900FBE0F901F901895833009F78091B0
:1015100084299B819813DCCF8C81909184294CEF96
:10152000410F891789F020E0BE016B5F7F4F0E9459
:10153000DA07CECF4EEF410F2B81BE016C5F7F4F9C
:10154000802F0E949209C4CF642FCE0105960E947D
:10155000D708BECF6F927F928F929F92AF92BF9229
:10156000CF92DF92EF92FF921F93CF93DF93CDB78D
:10157000DEB76C97CDBFDEBF1092142210921522F9
:101580007C01825A9E4F4C0110E0D70113968C913A
:1015900013978115A9F114968C911497811581F1F7
:1015A00081E0810FFE013196E10FF11D9C91908346
:1015B0001E5FFE013196E80FF11D16968C91808317
:1015C0001C31F0F0612E712CD0901422AD2CB12C76
:1015D000C3010E941419F501EE0FFF1FE258FE4DE2
:1015E00080839183A301BE016F5F7F4F0E94221B06
:1015F000F501EE51FE4D1083D394D092142210E0E9
:10160000B7E0EB0EF11CE814F90409F0BECF111598
:10161000E9F0A12EB12CF0901422CF2CD12CC501D1
:101620000E941419F601EE0FFF1FE258FE4D808351
:101630009183A501BE016F5F7F4F0E94221BF601BF
:10164000EE51FE4D1083F394F09214226C96CDBFB0
:10165000DEBFDF91CF911F91FF90EF90DF90CF9091
:10166000BF90AF909F908F907F906F900895FF9262
:101670000F931F93CF93DF93CDB7DEB7A097CDBF66
:10168000DEBF9091152280911422981720F085E8F2
:1016900099E20E94AA0A909114228E010F5F1F4FB7
:1016A000911509F44CC080911522282F30E0F901E2
:1016B000EE0FFF1FE258FE4D50814181F901EE51BE
:1016C000FE4DF0808295807F692F6F70862B2F5F93
:1016D0003F4F9217130671F592E020E2F801119244
:1016E0002A95E9F72091842929839A838B83E52F12
:1016F000F42FDE011496CF018F0D911DE817F90725
:10170000D9F40E94AE0EF89464E06F0DC8010E94F7
:10171000DE0E78940E947A0E809115228F5F80935E
:101720001522A096CDBFDEBFDF91CF911F910F9103
:10173000FF90089591E0D1CF21912D93DFCF80E2EA
:10174000F80111928A95E9F780918429898382E0D2
:101750008A8381E08B830E94AE0EF89464E0C80116
:101760000E94DE0E78940E947A0EDBCF1F920F92B9
:101770000FB60F9211240BB60F921F932F933F9326
:101780004F935F936F937F938F939F93AF93BF9389
:10179000CF93DF93EF93FF93C5E8D9E211E08981FE
:1017A0009A81181619061CF4019789839A838B81F4
:1017B000811559F08D81811108C089819A81009726
:1017C00009F51B8288810E94FB0827968AE2C33EA6
:1017D000D80729F70E94370BFF91EF91DF91CF9146
:1017E000BF91AF919F918F917F916F915F914F9139
:1017F0003F912F911F910F900BBE0F900FBE0F9036
:101800001F9018954F9714F01C83DFCF1C82E5E8DA
:10181000F9E28381811529F095818881981301C0AF
:10182000138237968AE2E33EF80799F7CECFE0E4D9
:10183000F6E088E0818384E0828382E08183E0EACD
:10184000F6E080E2818380E4828380E88183E0EABD
:10185000F8E088E1848380EC8583178281E08683C9
:1018600008958093A0088091A10886FFFCCF809105
:10187000A10880648093A1088091A00808951F9317
:10188000CF93DF93C0EAD6E010E21E838F710E94EF
:10189000310C8FEF0E94310C1D83DF91CF911F918E
:1018A000089584E00E943F0C982F92959F709F5F4F
:1018B0008F708F5F989FC00111242AEFAC01249F85
:1018C000C001259F900D11240895EF92FF920F9370
:1018D0001F93CF93DF937B01C42F90E29093A606D2
:1018E0008F7180620E94310CD82F9E2D8F2DCE0DCE
:1018F000C9130BC080E28093A5068D2FDF91CF9195
:101900001F910F91FF90EF900895092F182FF80164
:1019100081918F010E94310C902F812FE9CFFF928E
:101920000F931F93CF93DF93D62F00EA16E090E238
:10193000F92EF801F6828F7180620E94310CC82F57
:101940008D2F0E94310CF801F5828C2FDF91CF9101
:101950001F910F91FF90089580E00E943F0C682F27
:10196000626080E00C948F0CEF92FF920F931F93B4
:10197000CF93DF937C018B01EA0160E787E00E944F
:101980008F0C982F9072F7019083982F9071F80127
:10199000908380748883DF91CF911F910F91FF9086
:1019A000EF900895CF93DF93D82FC92F40911A203D
:1019B000682F792F8AE00E94650C40911A206D2FC4
:1019C0007C2F80E10E94650C60911B20603228F41E
:1019D00081E1DF91CF910C948F0C60E2F9CFFF92FF
:1019E0000F931F93CF93DF93182FF62E072F81119C
:1019F00012C040911A2050E083EE9AE20E94221B0E
:101A0000C12FD0E0FE01E455FF4D40911A206F2D0B
:101A1000702F80810BC0873040F5C82FD0E0FE01C9
:101A2000E455FF4D808141E0113051F30E94650C77
:101A3000FE01EA55FF4D60911B2080810E948F0CB2
:101A400082E00E943F0CC056DF4D988161E070E05B
:101A500001C0660F9A95EAF7682B82E0DF91CF917B
:101A60001F910F91FF900C948F0CDF91CF911F91DC
:101A70000F91FF900895682F87FD03C085E00C94B7
:101A80008F0C6FE7FBCF6FE3811101C060E081E055
:101A90000C948F0CCF93C82F86E00E943F0C682FC8
:101AA000697FC6706C2B86E0CF910C948F0CCF931E
:101AB000C82F86E00E943F0C6C2F6872877D682BD0
:101AC00086E00E948F0C86E00E943F0C982F81E0F8
:101AD0009C1380E0CF910895CF93C82F80E00E949F
:101AE0003F0C682F637FCC706C2B80E0CF910C94FF
:101AF0008F0C682B84E00C948F0C60E787E00C94CB
:101B00008F0CDF92EF92FF920F931F93CF93DF938F
:101B1000D82EE92E842FC0911B20DC2F6C1708F4DF
:101B2000D62F9091E82ACD1B9111C0E090E29093BE
:101B3000A6060E94310CF82E2D2D3E2DDD0DD21360
:101B40000EC0C11113C080E28093A5068F2DDF91D6
:101B5000CF911F910F91FF90EF90DF900895F901C1
:101B600081918F010E94310C9801E9CF80E00E94A1
:101B7000310CC150E6CF0F931F93CF93DF93D82F33
:101B8000C92F162F042F80E00E943F0C682F6E7F14
:101B900081FD24C0626080E00E948F0C8FE79EE38D
:101BA0000197F1F700C000008FE094E00197F1F792
:101BB00000C00000402F612F8D2F9C2F0E94810DAF
:101BC00080E88093A5069AE69A95F1F700C0809385
:101BD000A606DF91CF911F910F91089580E00E949A
:101BE0008F0CE2CFDF92EF92FF920F931F93CF9370
:101BF000DF93D82EE92EC0911B20DC2F6C1708F440
:101C0000D62F8091E82ACD1B8111C0E080E280931D
:101C1000A60681E60E94310CF82E2D2D3E2DDD0DFD
:101C2000D2130EC0C11114C080E28093A5068F2D7F
:101C3000DF91CF911F910F91FF90EF90DF9008956A
:101C400089018FEF0E94310CF80181939F01E8CF49
:101C50008FEF0E94310CC150E5CF0E94F20D87E159
:101C60000E943F0C817008951F93CF93DF93C0EAC9
:101C7000D6E010E21E8382EE0E94310C1D83DF91BC
:101C8000CF911F9108951F93CF93DF93C0EAD6E0C1
:101C900010E21E8381EE0E94310C1D83DF91CF91F3
:101CA0001F9108958FE39CE90197F1F700C00000B0
:101CB0006FE584E00E948F0C86E00E944A0D80E26E
:101CC0000E94570D811519F081E080931C2080E05F
:101CD0000E94570D8CE00E946C0D60E08CE10E9428
:101CE0008F0C8CE40E943B0D0E947D0D0E94340EEF
:101CF0000C94430E80E00E943F0C682F81FD29C0A8
:101D0000636080E00E948F0C8FE79EE30197F1F7FC
:101D100000C000008FE094E00197F1F700C00000E0
:101D200060E787E00E948F0C40911A2063EE7AE210
:101D30008AE00E94650C0E94340E0E94430E80E8E7
:101D40008093A5068FE094E00197F1F700C00000B2
:101D50000895616080E00E948F0CDCCF80E8809362
:101D6000A6060E94340E0C94430ECF93DF930E947C
:101D7000510C64E670E00E941D15EB0187E00E94A3
:101D80003F0C2197EFE1F3E03197F1F700C000003D
:101D90008073811102C0209789F787E00E943F0C71
:101DA000C82F0E94340E0E94430E60E787E00E9415
:101DB0008F0C8C2F8072DF91CF91089540EA0E94A2
:101DC000BB0D0C94B50E1F93CF93DF93C0EAD6E002
:101DD00010E21E8380E50E94310C83E70E94310CE3
:101DE0001D83DF91CF911F9108958DE10E943F0CDB
:101DF000682F64608DE10E948F0C8DE10E943F0C82
:101E000081110AC00E94E30E8DE10E943F0C682FF1
:101E100064608DE10E948F0C8CE10E943F0C682F62
:101E20006F638CE10E948F0C81E08093E82A089513
:101E30001F93CF93DF93C0EAD6E010E21E8380E6C3
:101E40000E94310C8FEF0E94310C1D83DF91CF91E6
:101E50001F91089520EA34E02093E92A3093EA2A7A
:101E600027E72093EF2A1092FC2A1092FD2A109265
:101E7000FE2A1092FF2A1092F82A1092F92A109244
:101E8000FA2A1092FB2A1092F42A1092F52A109244
:101E9000F62A1092F72A1092F02A1092F12A109244
:101EA000F22A1092F32AE0E8F6E023E0218328E307
:101EB000208B218B20E035E34CE050E00E9431156F
:101EC0006BEF620F80EA94E00C948D14CF92DF9256
:101ED000EF92FF922091FC2A3091FD2A4091FE2A38
:101EE0005091FF2A6091F82A7091F92A8091FA2A7C
:101EF0009091FB2A0E94E7166B017C01C701B60195
:101F0000FF90EF90DF90CF9008956091F42A709148
:101F1000F52A8091F62A9091F72A0895CF93DF93BE
:101F2000D82FC62F40E06091EF2A8091E92A909146
:101F3000EA2A0E94A1146D2F8091E92A9091EA2A41
:101F40000E94E1146C2F8091E92A9091EA2A0E9464
:101F5000E1148091E92A9091EA2ADF91CF910C94C3
:101F6000DB14CF93C82F40E06091EF2A8091E92ADB
:101F70009091EA2A0E94A1146C2F8091E92A9091F5
:101F8000EA2A0E94E11441E06091EF2A8091E92A57
:101F90009091EA2A0E94C11461E08091E92A90910F
:101FA000EA2A0E94EF14C82F8091E92A9091EA2A28
:101FB0000E94DB148C2FCF910895CF93DF93C82F0D
:101FC00040E06091EF2A8091E92A9091EA2A0E94EC
:101FD000A1146C2F8091E92A9091EA2A0E94E114C1
:101FE00041E06091EF2A8091E92A9091EA2A0E94CB
:101FF000C11460E08091E92A9091EA2A0E94EF14CE
:10200000D82F61E08091E92A9091EA2A0E94EF148A
:10201000C82F8091E92A9091EA2A0E94DB14CE0110
:10202000DF91CF9108954F925F926F927F928F923E
:102030009F92AF92BF92CF92DF92EF92FF92CF9397
:10204000DF9300D00F92CDB7DEB78DEF0E94DD0F8A
:102050004090EB2A5090EC2A6090ED2A7090EE2A86
:102060002CE2521A21E0620A7108A0E0B0E06C0193
:102070007D013EE0CC0CDD1CEE1CFF1C3A95D1F737
:1020800040911C2B50911D2B052E000C660B770BDD
:10209000E4E1440F551F661F771FEA95D1F7C41A74
:1020A000D50AE60AF70AA0911E2BB0911F2BA301B7
:1020B00092010E945E15C61AD70AE80AF90A30E4AE
:1020C000D30EE11CF11CFFE0F594E794D794C7947C
:1020D000FA95D1F7A0911B2BB0E0A30192010E94C9
:1020E00053154B015C01ABE0B594A794979487948A
:1020F000AA95D1F740E8940EA11CB11CA091202B09
:102100000A2E000CBB0BA30192010E945E15BAE0DF
:102110009595879577956795BA95D1F7A50194011F
:102120000E9401152AE095958795779567952A95E0
:10213000D1F79B01AC01405E5F4FA091192BB0918C
:102140001A2B0E945E15705E8F4F9F4F3EE0959553
:102150008795779567953A95D1F7A70196010E94E3
:1021600001156B017C014FE09595879577956795F3
:102170004A95D1F79B01AC010E9401159B01AC016E
:1021800067E055954795379527956A95D1F7A091C2
:10219000182BB0E00E945315E4E09595879577954C
:1021A0006795EA95D1F7A7019601261B370B480BD7
:1021B000590BDA01C90157FF36C080E090E0DC011D
:1021C000BC01CD012CE095958795779567952A956B
:1021D000D1F70E94CD1720E030E040E85AE3698350
:1021E0007A838B839C8369817A818B819C810E9415
:1021F000A7186093F42A7093F52A8093F62A909397
:10220000F72A2496CDBFDEBFDF91CF91FF90EF90EC
:10221000DF90CF90BF90AF909F908F907F906F9006
:102220005F904F90089581309105A10539E1B30782
:102230003CF280E090E0A0E0B9E1C2CF0E94DD0F67
:1022400098278927982708951F93CF93DF9388E8CD
:102250000E941E11C0E0DBE2888399838AE80E9415
:102260001E118A839B838CE80E941E118C839D83A0
:102270008EE80E941E118E839F8380E90E941E11AA
:102280008887998782E90E941E118A879B8784E943
:102290000E941E118C879D8786E90E941E118E87E1
:1022A0009F8788E90E941E11888B998B8AE90E947A
:1022B0001E118A8B9B8B8CE90E941E118C8B9D8B2F
:1022C0008EE90E941E118E8B9F8B81EA0E94B10FB6
:1022D000888F81EE0E941E11898F9A8F83EE0E9453
:1022E000B10F8B8F84EE0E94B10F182F85EE0E94E4
:1022F000B10F90E1199F900111248F70282B2C8F22
:102300003D8F86EE0E94B10F182F85EE0E94B10F0F
:1023100090E1199F9001112482958F70282B2E8FA8
:102320003F8F87EE0E94B10F88A3DF91CF911F915D
:102330000895CF92DF92EF92FF92F82E40E06091E5
:10234000EF2A8091E92A9091EA2A0E94A1146F2D28
:102350008091E92A9091EA2A0E94E11441E060917B
:10236000EF2A8091E92A9091EA2A0E94C11460E044
:102370008091E92A9091EA2A0E94EF1490E0A0E06F
:10238000B0E0CC24D82EE92EFA2E60E08091E92A24
:102390009091EA2A0E94EF14C82AFE2CED2CDC2C26
:1023A000CC2461E08091E92A9091EA2A0E94EF14FE
:1023B000C82A8091E92A9091EA2A0E94DB14C70179
:1023C000B601FF90EF90DF90CF9008954F925F920B
:1023D0006F927F928F929F92AF92BF92CF92DF9235
:1023E000EF92FF928AEF0E9499116B017C01E0E06D
:1023F000FBE220813181C901A0E0B0E04D2C5E2CD0
:102400006F2C772467FC7A94421A530A610871088A
:1024100057E0F594E794D794C7945A95D1F7880F6D
:10242000991FAA1FBB1FA7019601281B390B4A0B36
:102430005B0BA281B3810E945E156B017C017BE086
:10244000F594E794D794C7947A95D1F7A3019201B4
:10245000C301B2010E9401159B01AC01ACE055958E
:10246000479537952795AA95D1F7A481B5810E9404
:102470005E15BEE09595879577956795BA95D1F7E6
:10248000A7019601260F371F481F591F2093EB2ADB
:102490003093EC2A4093ED2A5093EE2AA5E0B0E069
:1024A0000E94531560587F4F8F4F9F4F672F782F93
:1024B000892F992787FD9A950E94CD1720E030E05B
:1024C00048EC52E44B015C01C501B4010E94531772
:1024D0006093F82A7093F92A8093FA2A9093FB2A42
:1024E000FF90EF90DF90CF90BF90AF909F908F9034
:1024F0007F906F905F904F9008952F923F924F92F0
:102500005F926F927F928F929F92AF92BF92CF9283
:10251000DF92EF92FF920F931F93CF93DF93CDB78C
:10252000DEB76D97CDBFDEBF87EF0E94991169833B
:102530007A838B839C838091EB2A9091EC2AA091E3
:10254000ED2AB091EE2A6C017D01FF0CCC08DC2C49
:1025500076019C01AD016C2D7C2D8C2D9C2D345F62
:10256000414051096109710981099109722E832E37
:10257000942E5E836F837D8388879987A22EB32EE6
:10258000C42ED52E7B018C010E9466152A873B87BD
:102590004B8B5C8B6D8B7E8B8F8B988F2091102B50
:1025A0003091112B932F990F990BAA84BB846A0148
:1025B0007B01082F188D492F592F692F792F892FCB
:1025C0000E946615288B398B4A8B252E362E472E76
:1025D000582E692E20910E2B30910F2B932F990F8F
:1025E000990BA72CB82CC92CDE80EF80FD800885C4
:1025F0001985492F592F692F792F892F0E94661528
:1026000001E10E948F16A888B988CA88D22CE32CD1
:10261000F42C052D162D0E94C516288B398B4A8B5C
:10262000598F6A8F7B8F8C8F9D8F2091082B3091D3
:10263000092B932F990F990BA72CB82CC92CDE804E
:10264000EF80FD8008851985492F592F692F792F33
:10265000892F0E9466150CE00E948F1629013A010D
:102660004B011C0120910A2B30910B2B932F990FBA
:10267000990BAA84BB84CB88DC88ED88FE880F89FF
:10268000188D492F592F692F792F892F0E94661590
:1026900008E00E94A81652016301740181010E94A2
:1026A000C51670588F4F9F4F2090062B3090072BE8
:1026B0005101C12CD12CE12CF12C00E010E00E9442
:1026C000661539014A016E837F831C0149815A8155
:1026D0006B817C8134E075956795579547953A9560
:1026E000D1F780E090E0A0E1B0E0841B950BA60B51
:1026F000B70B6C017D01FF0CCC08DC2C76019C0132
:10270000AD016C2D7C2D8C2D9C2D0FE10E948F1620
:102710002901B42FA52FF62FE72F89839D832091C0
:102720000C2B30910D2B932F990F990B492F592F6B
:10273000692F792F892F03E20E948F16A888B98804
:10274000CA88D98CEA8CFB8C0C8D1D8D0E94C51615
:1027500059016A017B018C0192014B2F5A2F6F2F77
:102760007E2F89819D810E94CE16E5E3AE2EFCE08E
:10277000BF2EC12CD12CE12CF12C00E010E00E94E6
:1027800066152901B42FA52FF62FE72F89839D8386
:102790009301A4016E817F81C10101E20E94A8160C
:1027A00059016A017B018C0192014B2F5A2F6F2F27
:1027B0007E2F89819D810E94C015322E232E498350
:1027C0005E836F837D83888799870DE00E94A816BA
:1027D000522E632E7A878B87492E2091162B3091AB
:1027E000172B932F990F990BA52CB62CC42ED52EF1
:1027F000E62EF72E082F142D492F592F692F792FE8
:10280000892F0E9466150E94661509E10E94A8168C
:10281000A32CB22CC980DE80EF80FD80088519854D
:102820000E94C51629013A014B018A879B87209196
:10283000142B3091152B932F990F990B492F592F4A
:10284000692F792F892F0E94661503E10E94A8162F
:1028500059016A017B018C019201A301B4018A85AF
:102860009B850E94C51608E00E94A81659016A01BE
:102870007B01E82F192F2091122B3091132B932FCE
:10288000990F990B492F592F692F792F892F04E020
:102890000E948F160E2F0E94C5160E94C51720E0B9
:1028A00030E040E85BE36C877D878E879F876C858F
:1028B0007D858E859F850E94A7186093F02A70936E
:1028C000F12A8093F22A9093F32A6D96CDBFDEBF52
:1028D000DF91CF911F910F91FF90EF90DF90CF90FC
:1028E000BF90AF909F908F907F906F905F904F9030
:1028F0003F902F9008958093EF2A0E94241161E069
:1029000082EF0E948E0F6FE384EF0E948E0F0E9471
:10291000E6110E9413100C947D12FC01A0E8B6E0B1
:1029200083E011968C93119788E350968C9350977F
:1029300051968C936583138288E0818381E0848340
:102940000895FC01848183708130C9F4660F642B83
:10295000668320E430E002C0220F331F4A95E2F77D
:10296000848190E082239323892BD1F39481892F52
:10297000807194FF05C083E0838382E0089581E045
:102980000895FC01660F642B668320E430E002C0EA
:10299000220F331F4A95E2F7848190E0822393232C
:1029A000892BD1F39481892F807194FF03C083E038
:1029B000838382E00895FC0183E0838381E0848344
:1029C0000895FC016783848186FFFDCF9481892F60
:1029D000807194FF03C083E0838382E00895FC014B
:1029E000848187FFFDCF8781611103C092E09383CB
:1029F000089597E09383613019F4948190FFFDCF9F
:102A00000895DB018F939F930E945315BF91AF915F
:102A1000A29F800D911DA39F900DB29F900D112438
:102A20000895992778E0880F991F961708F0961B4C
:102A3000881F7A95C9F780950895AA1BBB1B51E1A1
:102A400007C0AA1FBB1FA617B70710F0A61BB70B1E
:102A5000881F991F5A95A9F780959095BC01CD01C3
:102A60000895A1E21A2EAA1BBB1BFD010DC0AA1FCF
:102A7000BB1FEE1FFF1FA217B307E407F50720F0E7
:102A8000A21BB30BE40BF50B661F771F881F991F62
:102A90001A9469F760957095809590959B01AC01AB
:102AA000BD01CF0108950E94D716A59F900DB49F38
:102AB000900DA49F800D911D11240895B7FF0C94D3
:102AC00053150E945315821B930B0895DF93CF93E8
:102AD0001F930F939A9DF02D219FF00D8B9DF00D6C
:102AE0008A9DE02DF10D039FF00D029FE00DF11D79
:102AF0004E9DE00DF11D5E9DF00D4F9DF00D7F93FD
:102B00006F93BF92AF925F934F93D5010E94D716F8
:102B10008B01AC01D7010E94D716EB01E80FF91F1A
:102B2000D6010E94B5152F913F91D6010E94D7166C
:102B3000C60FD71FE81FF91FAF91BF910E94B515AF
:102B40002F913F910E94D716C60FD71FE81FF91F7C
:102B5000D6010E94D716E60FF71F9801BE01CF01DC
:102B60000F911F91CF91DF9108950E94D716460FC4
:102B7000571FC81FD91F08F431960895689401C0E3
:102B8000E894F92FF12B12F00C94F215A0E0B0E0CC
:102B9000ECECF5E10C946416092E059422F40E94E5
:102BA0004E16112392F4F0E80F26FFEFE094F09414
:102BB00000951095B094C094D094A194BF0ACF0A08
:102BC000DF0AEF0AFF0A0F0B1F0B0E94FD1507FC1F
:102BD0000E944E16CDB7DEB7ECE00C947D166894DB
:102BE00001C0E8948F929F92CF93DF930E94FD15CE
:102BF000DF91CF919F908F90089588249924F401BC
:102C0000E401B0E49F93AA279A158B049C04ED0578
:102C1000FE05CF05D007A10798F4AD2FDC2FCF2FED
:102C2000FE2FE92D982C892E982F872F762F652F30
:102C3000542F432F322F2227B85031F7BF9127C08E
:102C40001B2EBF91BB27220F331F441F551F661F2A
:102C5000771F881F991F881C991CEE1FFF1FCC1F10
:102C6000DD1FAA1FBB1F8A149B04EC05FD05CE05C2
:102C7000DF05A007B10748F08A189B08EC09FD0999
:102C8000CE09DF09A00BB10B21601A94E1F62EF4F6
:102C90009401AF01BE01CD01000C089560957095BF
:102CA0008095909530954095509521953F4F4F4F89
:102CB0005F4F6F4F7F4F8F4F9F4F08952F923F92DF
:102CC0004F925F926F927F928F929F92AF92BF923C
:102CD000CF92DF92EF92FF920F931F93CF93DF93E8
:102CE000CDB7DEB7CA1BDB0BCDBFDEBF19942A8878
:102CF000398848885F846E847D848C849B84AA8410
:102D0000B984C884DF80EE80FD800C811B81AA819C
:102D1000B981CE0FD11DCDBFDEBFED010895002ECC
:102D2000083090F0982F872F762F652F542F432F40
:102D3000322F22270850F4CF220F331F441F551F74
:102D4000661F771F881F991F0A95B2F7002D0895F7
:102D500097FD1094002E083098F00850232F342F40
:102D6000452F562F672F782F892F912DF4CF15944B
:102D700097958795779567955795479537952795B3
:102D80000A95AAF71124002D08952A0D3B1D4C1D0C
:102D90005D1D6E1D7F1D801F911F08952A193B091F
:102DA0004C095D096E097F09800B910B0895A29F64
:102DB000B001B39FC001A39F700D811D1124911D0F
:102DC000B29F700D811D1124911D08955058BB278D
:102DD000AA270E94FE160C946D180E945F1838F006
:102DE0000E94661820F039F49F3F19F426F40C94E1
:102DF0004C180EF4E095E7FB0C944618E92F0E945E
:102E00007E1858F3BA17620773078407950720F0F6
:102E100079F4A6F50C94A0180EF4E0950B2EBA2FB9
:102E2000A02D0B01B90190010C01CA01A0011124D0
:102E3000FF27591B99F0593F50F4503E68F11A167C
:102E4000F040A22F232F342F4427585FF3CF46950D
:102E500037952795A795F0405395C9F77EF41F162F
:102E6000BA0B620B730B840BBAF09150A1F0FF0FF9
:102E7000BB1F661F771F881FC2F70EC0BA0F621FE5
:102E8000731F841F48F4879577956795B795F795D5
:102E90009E3F08F0B0CF9395880F08F09927EE0F6A
:102EA0009795879508950E9467170C946D180E9456
:102EB000661858F00E945F1840F029F45F3F29F02F
:102EC0000C94461851110C94A1180C944C180E94A3
:102ED0007E1868F39923B1F3552391F3951B550B95
:102EE000BB27AA2762177307840738F09F5F5F4FDD
:102EF000220F331F441FAA1FA9F335D00E2E3AF01C
:102F0000E0E832D091505040E695001CCAF72BD033
:102F1000FE2F29D0660F771F881FBB1F2617370784
:102F20004807AB07B0E809F0BB0B802DBF01FF27B6
:102F300093585F4F3AF09E3F510578F00C94461835
:102F40000C94A1185F3FE4F3983ED4F386957795EF
:102F50006795B795F7959F5FC9F7880F911D96956F
:102F6000879597F90895E1E0660F771F881FBB1FCB
:102F7000621773078407BA0720F0621B730B840B78
:102F8000BA0BEE1F88F7E095089597FB16F40E94A0
:102F90004F180C940918E89409C097FB3EF49095DB
:102FA0008095709561957F4F8F4F9F4F9923A9F022
:102FB000F92F96E9BB279395F695879577956795B1
:102FC000B795F111F8CFFAF4BB0F11F460FF1BC0F5
:102FD0006F5F7F4F8F4F9F4F16C0882311F096E988
:102FE00011C0772321F09EE8872F762F05C0662336
:102FF00071F096E8862F70E060E02AF09A95660FEF
:10300000771F881FDAF7880F9695879597F90895A7
:10301000E894F92F96EBFF2381F01216130614069D
:10302000440B9395F695879577956795579540400E
:10303000FF23B9F71BC099270895882351F49850AE
:10304000D2F7872B762F652F542F432F322F20E076
:10305000B1F3121613061406440B88233AF09A951E
:10306000440F551F661F771F881FCAF755234AF460
:10307000440F551F11F460FF04C06F5F7F4F8F4FE7
:103080009F4F880F9695879597F9089597F99F67B1
:1030900080E870E060E008959FEF80EC08959095DF
:1030A00080957095609550954095309521953F4F4E
:1030B0004F4F5F4F6F4F7F4F8F4F9F4F08950024AB
:1030C0000A941616170618060906089500240A948D
:1030D00012161306140605060895092E0394000C13
:1030E00011F4882352F0BB0F40F4BF2B11F460FFA2
:1030F00004C06F5F7F4F8F4F9F4F089557FD9058CB
:10310000440F551F59F05F3F71F04795880F97FBAB
:10311000991F61F09F3F79F0879508951216130665
:103120001406551FF2CF4695F1DF08C01616170694
:103130001806991FF1CF86957105610508940895C9
:10314000E894BB2766277727CB0197F908950E945B
:10315000BA180C946D180E945F1838F00E94661817
:1031600020F0952311F00C9446180C944C1811245F
:103170000C94A1180E947E1870F3959FC1F3950FCF
:1031800050E0551F629FF001729FBB27F00DB11DEB
:10319000639FAA27F00DB11DAA1F649F6627B00D7B
:1031A000A11D661F829F2227B00DA11D621F739F64
:1031B000B00DA11D621F839FA00D611D221F749F72
:1031C0003327A00D611D231F849F600D211D822FB9
:1031D000762F6A2F11249F5750409AF0F1F08823E0
:1031E0004AF0EE0FFF1FBB1F661F771F881F91500D
:1031F0005040A9F79E3F510580F00C9446180C945E
:10320000A1185F3FE4F3983ED4F3869577956795D0
:10321000B795F795E7959F5FC1F7FE2B880F911D36
:103220009695879597F908950F931F93CF93DF9302
:103230008230910510F482E090E0E091232BF09130
:10324000242B30E020E0B0E0A0E0309799F4211585
:10325000310509F447C0281B390B24303105C0F56E
:103260008A819B816115710571F1FB0182839383D2
:10327000FE0111C040815181028113814817590715
:10328000F8F04817590799F4109761F012960C93CB
:10329000129713961C933296CF01DF91CF911F9115
:1032A0000F9108950093232B1093242BF4CF211515
:1032B000310519F04217530718F49A01BD01EF01C7
:1032C000DF01F801C2CF8093232B9093242BD0CF22
:1032D000FE01E20FF31F819391932250310928835D
:1032E0003983DACF2091212B3091222B232B41F4EB
:1032F00020910220309103202093212B3093222B08
:1033000020910020309101202115310541F42DB785
:103310003EB74091042050910520241B350B40916D
:10332000212B5091222B4217530708F0B5CF241BB5
:10333000350B2817390708F4AFCFBC016E5F7F4FFC
:103340002617370708F4A8CF640F751F6093212B49
:103350007093222BFA01819391939ECFCF93DF93A9
:103360000097E9F0FC01329712821382C091232B5F
:10337000D091242BDE0130E020E02097A1F42081C1
:103380003181820F931F2091212B3091222B2817FE
:10339000390709F067C0E093212BF093222BDF91CE
:1033A000CF910895DA01AE17BF0708F040C012961A
:1033B0004D915C9113979D014115510599F7D901E4
:1033C0001296ED93FC9313974D915D91A40FB51F49
:1033D000EA17FB0779F4808191810296840F951F8B
:1033E000D9018D939C9311978281938112968D932D
:1033F0009C931397B0E0A0E08A819B810097B9F578
:10340000FE0181919191E80FF91F8091212B9091FC
:10341000222B8E179F0719F6109761F51092232B18
:103420001092242BC093212BD093222BB8CFA283B0
:10343000B38340815181840F951FA817B90771F498
:103440004E5F5F4F8D919C911197480F591F40839C
:10345000518312968D919C9182839383211531051E
:1034600009F0ADCFE093232BF093242B98CFDE010E
:10347000EC01C2CF12961D921C921397D3CF283025
:1034800008F027E03327DA01990F311D87FD91609D
:1034900000966105710539F432602E5F3D9330E38B
:1034A0002A95E1F708959F3F30F080387105610556
:1034B00009F03C5F3C5F3D93913008F08068911DBE
:1034C000DF93CF931F930F93FF92EF92192F987F63
:1034D0009695E92F96959695E90FFF27E659FD4FAA
:1034E00099273327EE24FF24A701E70105900894CC
:1034F000079428F4360FE71EF81E491F511D660F6A
:10350000771F881F991F0694A1F70590079428F448
:10351000E70EF81E491F561FC11D770F881F991F00
:10352000661F0694A1F70590079428F4F80E491F2A
:10353000561FC71FD11D880F991F661F771F06943E
:10354000A1F70590079420F4490F561FC71FD81FF5
:10355000990F661F771F881F0694A9F7849110950D
:10356000177041F0D695C79557954795F794E7940E
:103570001A95C1F7E0E1F2E0689415901591359144
:103580006591959105907FE27395E118F10A430BDF
:10359000560BC90BD009C0F7E10CF11E431F561F93
:1035A000C91FD01D7EF4703311F48A95E6CFE894DC
:1035B000015030F0080F0AF40027021708F4202FFA
:1035C0002395022F7A3328F079E37D932A95E9F742
:1035D00010C07D932A9589F606949795679537953F
:1035E00017951794E118F10A430B560BC90BD00934
:1035F00098F023957E9173957A3308F070E37C936D
:103600002013B8F77E9170617D9330F0839571E35C
:103610007D9370E32A95E1F71124EF90FF900F91CD
:103620001F91CF91DF91992787FD90950895FC0117
:103630000590615070400110D8F7809590958E0FDD
:103640009F1F0895FB01DC0102C001900D924150C3
:103650005040D8F70895FC0161507040019001106E
:10366000D8F7809590958E0F9F1F08950F931F9305
:10367000CF93DF93182F092FEB018B8181FD09C0B8
:103680001FEF0FEF812F902FDF91CF911F910F919F
:10369000089582FF14C02E813F818C819D8128175F
:1036A00039073CF4E881F981CF0101968883998339
:1036B00010838E819F8101968E839F83E3CFE8855F
:1036C000F985812F1995892BA1F3DACFCF93DF9359
:1036D000CDB7DEB7AE014A5F5F4FFA0161917191DC
:1036E000AF018091272B9091282B0E94A801DF9198
:1036F000CF9108950F931F93CF93DF93E091272BE2
:10370000F091282B238110E000E021FD0EC00FEF87
:103710001FEFC801DF91CF911F910F910895199567
:10372000892B11F00FEF1FEFCE01EC018991609111
:10373000272B7091282BDB011896ED91FC918111BC
:10374000EECF8AE01995892B21F3E1CFFA01AA2760
:10375000283051F1203181F1E8946F936E7F6E5FD4
:103760007F4F8F4F9F4FAF4FB1E03ED0B4E03CD082
:10377000670F781F891F9A1FA11D680F791F8A1F65
:10378000911DA11D6A0F711D811D911DA11D20D0CC
:1037900009F468943F912AE0269F11243019305D86
:1037A0003193DEF6CF010895462F4770405D419377
:1037B000B3E00FD0C9F7F6CF462F4F70405D4A33C4
:1037C00018F0495D31FD4052419302D0A9F7EACF8C
:1037D000B4E0A6959795879577956795BA95C9F7BB
:1037E00000976105710508959B01AC010A2E0694AE
:1037F0005795479537952795BA95C9F7620F731F67
:0C380000841F951FA01D0895F894FFCFB1
:10380C0000002B2B2000FE000000030000000084B1
:10381C0006DF0600003047727045052001666F75A3
:10382C006E6420616464726573733A202530387558
:10383C000A00696E6974206C696768742074686921
:10384C006E677300696E69742067726F756E6420A1
:10385C007761746572207468696E67730073656E46
:10386C00642074656D70207468696E67730073658D
:10387C006E64206C69676874207468696E67730085
:10388C0073656E642067726F756E64207761746502
:10389C0072207468696E6773004A544C6A746C00C9
:1038AC000001020304051112131415160A0B0C0D5A
:0238BC000E0FED
:00000001FF
