:100000000C9483010C94A4010C94A4010C94A401FD
:100010000C94A4010C94A4010C94A4010C94A401CC
:100020000C94A4010C94A4010C94A4010C94A401BC
:100030000C94A4010C94A4010C94A4010C94A401AC
:100040000C94A4010C94A4010C94A4010C94A4019C
:100050000C94A4010C94A4010C94A4010C94A4018C
:100060000C94A4010C94A4010C94A4010C94A4017C
:100070000C94A4010C94A4010C94A4010C94A4016C
:100080000C94A4010C94A4010C94A4010C94A4015C
:100090000C94A4010C94A4010C94A4010C94A4014C
:1000A0000C94A4010C94A4010C94A4010C94A4013C
:1000B0000C94A4010C94A4010C94A4010C94A4012C
:1000C0000C94A4010C94A4010C94A4010C94A4011C
:1000D0000C94A4010C94A4010C94A4010C94A4010C
:1000E0000C94A4010C94A4010C94A4010C94A401FC
:1000F0000C94A4010C94A4010C94A4010C94A401EC
:100100000C94A4010C94A4010C94A4010C94A401DB
:100110000C94A4010C94A4010C94A4010C94A401CB
:100120000C94A4010C94A4010C94A4010C94A401BB
:100130000C94A4010C94A4010C94A4010C94A401AB
:100140000C94A4010C94A4010C94A4010C94A4019B
:100150000C94A4010C94A4010C94A4010C94A4018B
:100160000C94A4010C94A4010C94A4010C94A4017B
:100170000C94A4010C94A4010C94A4010C94A4016B
:100180000C94A4010C94A4010C94A4010C94A4015B
:100190000C94A4010C94A4010C94A4010C94A4014B
:1001A0000C94A7050C94A4010C94A4010C94A40134
:1001B0000C94A4010C94A4010C94A4010C94A4012B
:1001C0000C94A4010C94A4010C94A4010C94A4011B
:1001D0000C94A4010C94A4010C94A4010C944D0A59
:1001E0000C94700A0C94A4010C94A4010C94A40126
:1001F0000C94A4010C94A4010C94A4010C943E0A48
:100200000C94E1096E616E00696E660000407A1020
:10021000F35A00A0724E18090010A5D4E80000E8B7
:100220007648170000E40B54020000CA9A3B000015
:1002300000E1F505000080969800000040420F00A4
:100240000000A08601000000102700000000E80365
:10025000000000006400000000000A000000000030
:100260000100000000002C76D888DC674F0823DFEF
:10027000C1DFAE59E1B1B796E5E3E453C63AE651C2
:10028000997696E8E6C28426EB898C9B62ED407CE9
:100290006FFCEFBC9C9F40F2BAA56FA5F490055A85
:1002A0002AF75C936B6CF9676DC11BFCE0E40D47AA
:1002B000FEF520E6B500D0ED902E030094357705CD
:1002C0000080841E080000204E0A000000C80C3385
:1002D0003333330F986E12831141EF8D2114893B14
:1002E000E65516CFFEE6DB18D1844B381BF77C1D94
:1002F000901DA4BBE424203284725E228100C9F1E7
:1003000024ECA1E53D2711241FBECFEFCDBFDFE5D3
:10031000DEBF00E00CBF10E2A0E0B0E2E0E7F8E1F1
:1003200000E00BBF02C007900D92A832B107D9F7C9
:1003300022E2A8E2B0E201C01D92A232B207E1F7C8
:100340000E943E050C94360C0C9400002F923F92B4
:100350004F925F926F927F928F929F92AF92BF92D5
:10036000CF92DF92EF92FF920F931F93CF93DF9381
:10037000CDB7DEB72F97CDBFDEBF6C011B014A01A1
:10038000FC011682178283819E012F5F3F4F390146
:1003900081FDCFC08FEF9FEFDDC2F12C512C00E02B
:1003A000003238F48B3209F190F48032F9F0833264
:1003B00009F107FD34C020ED280F2A3020F506FF93
:1003C0001BC0FAE0FF9E200D1124F22E05C08D32D5
:1003D00079F0803371F70160F10193FD859193FF0E
:1003E00081911F018111DCCF1AC002600460F4CF3B
:1003F0000860F2CF0061F0CF3AE0539E200D112447
:10040000522E0062E9CF8E3221F406FDA0C20064B4
:10041000E3CF8C3611F40068DFCF8836E9F29BEB2E
:10042000980F933008F05CC00061805E06FD02C04A
:1004300046E0F42E102F1F73853609F058C0106463
:1004400017FF5EC08F2D9BE39F1508F48BE34424B8
:100450004394480E27E0F40161917191819191914B
:100460005F01042DA3010E94B10A4C01F981FC87B0
:10047000F0FF03C00DE2F3FF07C00BE211FD04C063
:10048000012F047012FD00E22C852C70E22E09F47D
:100490006BC00111C4C2F3E0E12CF515A0F483E0B8
:1004A000E52CE81A13FD08C0B60180E290E00E9436
:1004B000A80BEA94E110F8CF002329F0B601802FB1
:1004C00090E00E94A80B3C8524E0822E22E0922E30
:1004D00033FD04C098E0892E92E0992E107122C05D
:1004E0009BE9980F933008F048C10F7E9FCF863666
:1004F00011F41068A5CFFF2009F4A2CFFA94A0CF81
:10050000E7E02F2DEF1518F427E037E0F32E412C0C
:10051000A2CF11118052B60190E00E94A80B8FEF7C
:10052000881A980AF40184918111F3CFE11070C206
:100530004501F6019381F10193FD859193FF81912E
:100540001F01882309F403C2853241F493FD85918C
:1005500093FF81911F01853209F01FCFB60190E012
:100560000E94A80B5401E4CF17FF70C0480CFC8513
:10057000F4FF04C08A81813309F44A9414140CF006
:1005800087C028E0241510F488E0482E85E090E02C
:1005900017FF06C0C40197FE02C090E080E00196FC
:1005A00001110196FF2031F02F2D30E02F5F3F4FDA
:1005B000820F931F5816190619F014F0E52CE81A4B
:1005C000812F897011F4E11068C0002329F0B60171
:1005D000802F90E00E94A80B13FD02C0E11064C0C0
:1005E00017FF7DC0840197FE02C010E000E0C40147
:1005F000841991092C016F2D70E0EE27FF27E61B6F
:10060000F70BEE87FF87801691060CF454C0401656
:1006100051060CF050C0F401E01BF10BE60DF71D84
:100620008181015011092E853F85021713070CF4B3
:1006300044C0B60190E00E94A80B0F3F100719F7C5
:10064000B6018EE290E00E94A80BDDCF16FD9ECF92
:10065000EF2DF0E0E815F90534F03CEF83163FEF9D
:1006600093060CF010683296E60DF71D01C0FA945F
:10067000FF2019F082918033D1F317FF87CF4424F4
:1006800043944F0CF814190431F02CF0F8187ECF75
:10069000442443947BCFF12C79CFB60180E290E0E3
:1006A0000E94A80BEA948FCFB60180E390E00E94ED
:1006B000A80BEA9493CF80E3B4CF8016910641F45F
:1006C0009A81963350F4953319F49C8594FF05C0B4
:1006D000B60190E00E94A80B29CF81E3F9CF8A816F
:1006E000813319F0EC85EF7EEC87B60190E00E9433
:1006F000A80BFF20A9F0B6018EE290E00E94A80BA3
:10070000F394F394E2E001E00E0FE60DF72DF11DF6
:100710008081B60190E00E94A80BE02F0F11F3CF6B
:1007200085E690E014FF02C085E490E0B6010E94E7
:10073000A80B97FC06C081149104C1F4FC85F4FF5A
:1007400015C09194819491088DE2B60190E00E94C9
:10075000A80B80E33AE08316910454F4B60190E0CC
:100760000E94A80BB601C401C096B4CF8BE2EDCFB6
:100770008F5F2AE0821A9108EDCF8336B1F083377C
:1007800059F1833509F055C0F401819091905F01D2
:100790006F2D70E006FD02C06FEF7FEFC4010E9475
:1007A000890B8C879D8700680DC0540182E0A80EDC
:1007B000B11CF4018081898321E030E02C873D87E2
:1007C00043010F7703FD06C02C853D8552161306A5
:1007D00009F090F4E52C28C0F401819091905F011C
:1007E0006F2D70E006FD02C06FEF7FEFC4010E9425
:1007F0009D0B8C879D87E5CFB60180E290E00E943B
:10080000A80B5A94E1CFF40107FD859107FF819170
:100810004F01B60190E00E94A80BE110EA948C858C
:100820009D8501978C879D87EC85FD85EF2B59F77A
:100830007DCE843619F0893609F06EC0F40107FFC9
:1008400063C061917191819191915F01102F1F7629
:1008500097FF08C090958095709561957F4F8F4F59
:100860009F4F10682AE030E0A3010E94D80B882E29
:100870008618982C012F16FF0AC00E7F8F1438F4AB
:1008800014FF04C012FD02C0012F0E7E9F2C04FF36
:1008900097C0FE01E80DF11D8081803309F089C009
:1008A000097EF02FF870EF2E03FD99C000FF93C072
:1008B000F82C951410F4F50CF91804FF96C0B60145
:1008C00080E390E00E94A80B02FF09C088E790E057
:1008D00001FF02C088E590E0B6010E94A80B8F14CA
:1008E00008F48FC08A94082D10E00F5F1F4F060D8B
:1008F000171DF80182918F01B60190E00E94A80BAC
:1009000006151705B1F712CE619171915F01072E9F
:10091000000C880B990B9ACF102F853791F41F7E0E
:100920002AE030E0F40117FF3EC06191719181919E
:1009300091915F01A3010E94D80B882E86181F7722
:1009400098CF197F8F3661F1D8F4883521F1F601FF
:10095000868197812F96CDBFDEBFDF91CF911F910A
:100960000F91FF90EF90DF90CF90BF90AF909F904E
:100970008F907F906F905F904F903F902F90089551
:10098000803739F0883719F714FD146020E130E022
:10099000C9CF1061F9CF04FD166020E132E0C2CF6B
:1009A00028E030E0BFCF619171915F0190E080E07D
:1009B000C1CF02FD02C0939474CF9394939471CFEE
:1009C000802F867809F46DCFF6CFB60180E290E0F3
:1009D0000E94A80B93949514C0F3E12C6ECFE52CE4
:1009E000E918951408F469CFF8CF802F867809F4B8
:1009F00076CF8BE201FF80E207FD8DE2B60190E049
:100A00006CCFB60180E390E00E94A80BFA9467CF08
:100A1000B60180E290E00E94A80BEA9487CD24E022
:100A2000E12C251508F04ACD84E03ACD8BEC80937B
:100A30005200809150008860809350008091510056
:100A400083FFFCCF82EC8093550080915000806141
:100A5000809350008091510084FFFCCF88ED84BFCB
:100A600084E080934000809150008E7F80935000FE
:100A7000809150008D7F809350000895CDB7DEB7F0
:100A8000C054D109CDBFDEBF82E08093A1060E9491
:100A9000160560E078E488EE91E00E94010A0E9469
:100AA0005D068091A20081608093A200789480E22C
:100AB000DE019196FD01982F11929A95E9F79E011A
:100AC0002F5F3F4FF90111928A95E9F70A2FFB2E0C
:100AD000E22ED32E0E941F0A8115A9F00E94420A1D
:100AE000182F8D3031F48DE00E94FF098AE00E94BA
:100AF000FF09812F0E94FF09198341E06E2D7D2D92
:100B000081E00E940506802F9F2D0E9449068115D5
:100B100009F31DA11D3031F48DE00E94FF098AE028
:100B20000E94FF09812F0E94FF09D4CFFC0181811F
:100B30009081E92FF0E0E75DFF4D2081821729F0D9
:100B4000913019F0808381E0089580E008951F922C
:100B50000F920FB60F9211240BB60F921F932F9383
:100B60003F934F935F936F937F938F939F93AF9335
:100B7000BF93EF93FF93CF93DF9300D0CDB7DEB752
:100B8000AE014F5F5F4FBE016E5F7F4FCE01039698
:100B90000E94340789818115F9F00E949809182F65
:100BA000682F8AE291E20E94AD088AE291E20E94F7
:100BB0009605811589F082E08093A70681E08093F5
:100BC00029210E942E09F894612F8AE291E20E9465
:100BD0005E0978940E94FA080F900F900F90DF91B1
:100BE000CF91FF91EF91BF91AF919F918F917F91A5
:100BF0006F915F914F913F912F911F910F900BBE7D
:100C00000F900FBE0F901F901895FF920F931F9398
:100C1000CF93DF93CDB7DEB7A097CDBFDEBF142F44
:100C20004D3148F5DE01119690E2FD0111929A9541
:100C3000E9F791E09983909128209A838B834C83E4
:100C4000FB019E012B5F3F4FAB01410F511DFA2E5F
:100C50000B2FE417F507C1F49F5F909328200E94A3
:100C60002E09F89464E0610F8F2D902F0E945E0989
:100C700078940E94FA08A096CDBFDEBFDF91CF9195
:100C80001F910F91FF9008958191D9018D939D013E
:100C9000E0CF282F80912921811571F0AAE2B1E2DD
:100CA000E22FF92FCF0180962D912193E817F907B4
:100CB000D9F71092292181E008950E9497060E9499
:100CC000D20868E080E30E94F90784E00E94CA0726
:100CD00080E20E94D7078CE00E94EC0788E10E9426
:100CE000BB0780E00E94C3070E9475090E94FD07B0
:100CF0000E94B4080E94C308E0EAF6E0828580649E
:100D0000828782E0868B8185218590E08C7F81605F
:100D1000822B818780E090E20E94520760E070E2BF
:100D200080E00E946F070E94FA080C942C07E0E410
:100D3000F6E088E0818384E0828382E08183E0EAD8
:100D4000F6E080E2818380E4828380E88183E0EAC8
:100D5000F8E088E1848380EC8583178281E08683D4
:100D600008958093A0088091A10886FFFCCF809110
:100D7000A10880648093A1088091A00808951F9322
:100D8000CF93DF93C0EAD6E010E21E838F710E94FA
:100D9000B1068FEF0E94B1061D83DF91CF911F91A5
:100DA000089584E00E94BF06982F92959F709F5FE0
:100DB0008F708F5F989FC00111242AEFAC01249F90
:100DC000C001259F900D11240895EF92FF920F937B
:100DD0001F93CF93DF937B01C42F90E29093A606DD
:100DE0008F7180620E94B106D82F9E2D8F2DCE0D5F
:100DF000C9130BC080E28093A5068D2FDF91CF91A0
:100E00001F910F91FF90EF900895092F182FF8016F
:100E100081918F010E94B106902F812FE9CFFF921F
:100E20000F931F93CF93DF93D62F00EA16E090E243
:100E3000F92EF801F6828F7180620E94B106C82FE8
:100E40008D2F0E94B106F801F5828C2FDF91CF9192
:100E50001F910F91FF90089580E00E94BF06682FB8
:100E6000626080E00C940F07EF92FF920F931F9344
:100E7000CF93DF937C018B01EA0160E787E00E945A
:100E80000F07982F9072F7019083982F9071F801B7
:100E9000908380748883DF91CF911F910F91FF9091
:100EA000EF900895CF93DF93D82FC92F409105205D
:100EB000682F792F8AE00E94E506409105206D2F6A
:100EC0007C2F80E10E94E50660910620603228F4C4
:100ED00081E1DF91CF910C940F0760E2F9CFFF928F
:100EE0000F931F93CF93DF93182FF62E072F8111A7
:100EF00012C04091052050E08AE491E20E94940BD8
:100F0000C12FD0E0FE01EE5DFF4D409105206F2D19
:100F1000702F80810BC0873040F5C82FD0E0FE01D4
:100F2000EE5DFF4D808141E0113051F30E94E506F6
:100F3000FE01E45EFF4D6091062080810E940F0754
:100F400082E00E94BF06CA5EDF4D988161E070E0DA
:100F500001C0660F9A95EAF7682B82E0DF91CF9186
:100F60001F910F91FF900C940F07DF91CF911F916C
:100F70000F91FF900895682F87FD03C085E00C94C2
:100F80000F076FE7FBCF6FE3811101C060E081E0E5
:100F90000C940F07CF93C82F86E00E94BF06682FDE
:100FA000697FC6706C2B86E0CF910C940F07CF93AE
:100FB000C82F86E00E94BF066C2F6872877D682B61
:100FC00086E00E940F0786E00E94BF06982F81E00E
:100FD0009C1380E0CF910895CF93C82F80E00E94AA
:100FE000BF06682F637FCC706C2B80E0CF910C9490
:100FF0000F07682B84E00C940F0760E787E00C94E0
:101000000F07DF92EF92FF920F931F93CF93DF931F
:10101000D82EE92E842FC0910620DC2F6C1708F4FF
:10102000D62F90914F21CD1B9111C0E090E290936B
:10103000A6060E94B106F82E2D2D3E2DDD0DD213F1
:101040000EC0C11113C080E28093A5068F2DDF91E1
:10105000CF911F910F91FF90EF90DF900895F901CC
:1010600081918F010E94B1069801E9CF80E00E9432
:10107000B106C150E6CF0F931F93CF93DF93D82FC4
:10108000C92F162F042F80E00E94BF06682F6E7FA5
:1010900081FD24C0626080E00E940F078FE79EE31D
:1010A0000197F1F700C000008FE094E00197F1F79D
:1010B00000C00000402F612F8D2F9C2F0E9401083F
:1010C00080E88093A5069AE69A95F1F700C0809390
:1010D000A606DF91CF911F910F91089580E00E94A5
:1010E0000F07E2CFDF92EF92FF920F931F93CF9300
:1010F000DF93D82EE92EC0910620DC2F6C1708F460
:10110000D62F80914F21CD1B8111C0E080E28093CA
:10111000A60681E60E94B106F82E2D2D3E2DDD0D8E
:10112000D2130EC0C11114C080E28093A5068F2D8A
:10113000DF91CF911F910F91FF90EF90DF90089575
:1011400089018FEF0E94B106F80181939F01E8CFDA
:101150008FEF0E94B106C150E5CF0E94720887E16F
:101160000E94BF06817008951F93CF93DF93C0EA5A
:10117000D6E010E21E8382EE0E94B1061D83DF914D
:10118000CF911F9108951F93CF93DF93C0EAD6E0CC
:1011900010E21E8381EE0E94B1061D83DF91CF9184
:1011A0001F9108958FE39CE90197F1F700C00000BB
:1011B0006FE584E00E940F0786E00E94CA0780E284
:1011C0000E94D707811519F081E08093072080E005
:1011D0000E94D7078CE00E94EC0760E08CE10E943F
:1011E0000F078CE40E94BB070E94FD070E94B40811
:1011F0000C94C30880E00E94BF06682F81FD29C0BF
:10120000636080E00E940F078FE79EE30197F1F78C
:1012100000C000008FE094E00197F1F700C00000EB
:1012200060E787E00E940F07409105206AE471E2C1
:101230008AE00E94E5060E94B4080E94C30880E884
:101240008093A5068FE094E00197F1F700C00000BD
:101250000895616080E00E940F07DCCF80E88093F2
:10126000A6060E94B4080C94C308CF93DF930E9493
:10127000D10664E670E00E949D0AEB0187E00E94BF
:10128000BF062197EFE1F3E03197F1F700C00000CE
:101290008073811102C0209789F787E00E94BF0602
:1012A000C82F0E94B4080E94C30860E787E00E942C
:1012B0000F078C2F8072DF91CF91089540EA0E9432
:1012C0003B080C9435091F93CF93DF93C0EAD6E017
:1012D00010E21E8380E50E94B10683E70E94B106FA
:1012E0001D83DF91CF911F9108958DE10E94BF066C
:1012F000682F64608DE10E940F078DE10E94BF0698
:1013000081110AC00E9463098DE10E94BF06682F07
:1013100064608DE10E940F078CE10E94BF06682F78
:101320006F638CE10E940F0781E080934F21089545
:101330001F93CF93DF93C0EAD6E010E21E8380E6CE
:101340000E94B1068FEF0E94B1061D83DF91CF91FD
:101350001F91089520911B2281E0820F90911A2203
:10136000843610F08DE9820F981718F0981B892F9A
:1013700008959C59FBCFCF93DF93C82FD1E20E94F1
:10138000AA098115D9F080911B22E82FF0E0EA54D8
:10139000FE4DC0838F5F843608F080E09091A200FC
:1013A000292F2E7F2093A20080931B2281E280931D
:1013B000A30B9093A200DF91CF910895D093A30B3C
:1013C000DECFCF93DF93C82FDFEF0E94AA098115EC
:1013D00079F0D11589F0CA3019F48DE00E94BB096B
:1013E0008C2F0E94BB0980E090E0DF91CF9108959F
:1013F000D11511F0D150E9CF81E090E0F6CF0C94F7
:10140000BB09E0EAF6E098E1928B88E0858381836E
:1014100024E02283E0EAFBE086831782948380E263
:101420008383E0EAF0E0828183608283ECE1F2E290
:1014300088E090E2808391838283938308959091E2
:10144000B5218091B421981718F0981B892F089521
:101450009C59FBCFCF93C091B4210E941F0A8115E4
:10146000E1F3EC2FF0E0E05BFE4D8081CF5FC4360E
:1014700008F0C0E0C093B421CF9108950E942A0AD9
:1014800090E008950E941F0A811521F00E942A0A07
:1014900090E0089580E091E008958F938FB78F9347
:1014A0008BB78F939F93EF93FF938091B521E82F94
:1014B000F0E09091A00BE05BFE4D90838F5F84364F
:1014C00008F080E09091B42198138093B521FF91AA
:1014D000EF919F918F918BBF8F918FBF8F911895B7
:1014E0002F932FB72F932BB72F938F939F93EF9318
:1014F000FF9380911A2290911B22891310C080E2E1
:101500008093A30B892F80931A22FF91EF919F91D3
:101510008F912F912BBF2F912FBF2F911895E82FCF
:10152000F0E0EA54FE4D20812093A00B8F5F8436BB
:1015300008F080E08913E7CFE2CFAA1BBB1B51E183
:1015400007C0AA1FBB1FA617B70710F0A61BB70B33
:10155000881F991F5A95A9F780959095BC01CD01D8
:101560000895283008F027E03327DA01990F311D5C
:1015700087FD916000966105710539F432602E5F38
:101580003D9330E32A95E1F708959F3F30F080388E
:101590007105610509F03C5F3C5F3D93913008F0B7
:1015A0008068911DDF93CF931F930F93FF92EF926B
:1015B000192F987F9695E92F96959695E90FFF2715
:1015C000EA59FD4F99273327EE24FF24A701E701AD
:1015D00005900894079428F4360FE71EF81E491F5B
:1015E000511D660F771F881F991F0694A1F705905C
:1015F000079428F4E70EF81E491F561FC11D770FE8
:10160000881F991F661F0694A1F70590079428F478
:10161000F80E491F561FC71FD11D880F991F661F3F
:10162000771F0694A1F70590079420F4490F561FE1
:10163000C71FD81F990F661F771F881F0694A9F729
:1016400084911095177041F0D695C7955795479599
:10165000F794E7941A95C1F7ECE0F2E068941590DE
:10166000159135916591959105907FE27395E118FB
:10167000F10A430B560BC90BD009C0F7E10CF11E60
:10168000431F561FC91FD01D7EF4703311F48A9575
:10169000E6CFE894015030F0080F0AF40027021753
:1016A00008F4202F2395022F7A3328F079E37D93D5
:1016B0002A95E9F710C07D932A9589F606949795A7
:1016C0006795379517951794E118F10A430B560B58
:1016D000C90BD00998F023957E9173957A3308F061
:1016E00070E37C932013B8F77E9170617D9330F0A6
:1016F000839571E37D9370E32A95E1F71124EF90D0
:10170000FF900F911F91CF91DF91992787FD9095C1
:101710000895FC010590615070400110D8F7809544
:1017200090958E0F9F1F0895FB01DC0102C0019070
:101730000D9241505040D8F70895FC01615070401F
:1017400001900110D8F7809590958E0F9F1F0895F6
:101750000F931F93CF93DF93182F092FEB018B81EA
:1017600081FD09C01FEF0FEF812F902FDF91CF91E7
:101770001F910F91089582FF14C02E813F818C81AB
:101780009D81281739073CF4E881F981CF01019642
:101790008883998310838E819F8101968E839F8396
:1017A000E3CFE885F985812F1995892BA1F3DACF4D
:1017B000FA01AA27283051F1203181F1E8946F9382
:1017C0006E7F6E5F7F4F8F4F9F4FAF4FB1E03ED028
:1017D000B4E03CD0670F781F891F9A1FA11D680FC6
:1017E000791F8A1F911DA11D6A0F711D811D911DF9
:1017F000A11D20D009F468943F912AE0269F11246E
:101800003019305D3193DEF6CF010895462F4770D1
:10181000405D4193B3E00FD0C9F7F6CF462F4F702C
:10182000405D4A3318F0495D31FD4052419302D08A
:10183000A9F7EACFB4E0A695979587957795679530
:10184000BA95C9F700976105710508959B01AC0130
:101850000A2E06945795479537952795BA95C9F757
:10186000620F731F841F951FA01D0895F894FFCF6A
:1018700030477270450520010000000300000000A1
:10188000E1093E0A000000010203040511121314CD
:0818900015160A0B0C0D0E0FDA
:00000001FF
