:100000000C9404010C9425010C9425010C942501F9
:100010000C9425010C9425010C9425010C942501C8
:100020000C9425010C9425010C9425010C942501B8
:100030000C9425010C9425010C943C090C94250189
:100040000C9425010C9425010C9425010C94250198
:100050000C9425010C9425010C9425010C94250188
:100060000C9425010C9425010C9425010C94250178
:100070000C9425010C9425010C9425010C94250168
:100080000C9425010C9425010C9425010C94250158
:100090000C9425010C9425010C9425010C94250148
:1000A0000C9425010C9425010C9425010C94250138
:1000B0000C9425010C9425010C9425010C94250128
:1000C0000C9425010C9425010C9425010C94250118
:1000D0000C9425010C9425010C9425010C94250108
:1000E0000C9425010C9425010C9425010C942501F8
:1000F0000C9425010C9425010C9425010C942501E8
:100100000C9425010C9425010C9425010C942501D7
:100110000C9425010C9425010C9425010C942501C7
:100120000C9425010C9425010C9425010C942501B7
:100130000C9425010C9425010C9425010C942501A7
:100140000C9425010C9425010C9425010C94250197
:100150000C9425010C9425010C9425010C94250187
:100160000C9425010C9425010C9425010C94250177
:100170000C9425010C9425010C9425010C94250167
:100180000C9425010C9425010C9425010C94250157
:100190000C9425010C9425010C9425010C94250147
:1001A0000C9498070C9425010C9425010C942501BE
:1001B0000C9425010C9425010C9425010C94250127
:1001C0000C9425010C9425010C9425010C94250117
:1001D0000C9425010C9425010C9425010C943B04EE
:1001E0000C9463040C9425010C9425010C942501B6
:1001F0000C9425010C9425010C9425010C943704D2
:100200000C94DD030C94F11211241FBECFEFCDBF6F
:10021000DFE5DEBF00E00CBF10E2A0E0B0E2E4EEFC
:10022000F4E300E00BBF02C007900D92A839B107BC
:10023000D9F72BE2A8E9B0E201C01D92AD31B207B7
:10024000E1F70E9405030C94701A0C9400008BECEB
:10025000809352008091500088608093500080917C
:10026000510083FFFCCF82EC8093550080915000B9
:100270008061809350008091510084FFFCCF88ED15
:1002800084BF84E080934000809150008E7F8093F3
:100290005000809150008D7F809350000895CF9240
:1002A000DF92EF92FF926B017C0120E030E24DE79C
:1002B00055E40E94CC151816CCF480E090E0AAE733
:1002C000B4E480939C2090939D20A0939E20B093B3
:1002D0009F2060919C2070919D2080919E20909104
:1002E0009F20FF90EF90DF90CF9008952AE037EDA8
:1002F00043E252E4C701B6010E94781460939C2047
:1003000070939D2080939E2090939F20E2CFCF9268
:10031000DF92EF92FF926B017C0120E030E24DE72B
:1003200055E40E94CC151816CCF480E090E0AAE7C2
:10033000B4E48093982090939920A0939A20B0934E
:100340009B20609198207091992080919A209091A3
:100350009B20FF90EF90DF90CF9008952FE632E141
:1003600043E850E4C701B6010E94781460939820D6
:100370007093992080939A2090939B20E2CF84E001
:1003800080930206E0E0F2E090E191A381E080A397
:100390009283118292E09483808308958091200259
:1003A0008068809320028091230280FFFCCF2091FF
:1003B00024023091250290912302916090932302B0
:1003C000C9010895CF93DF9300D01F92CDB7DEB758
:1003D00069837A838B839C83FA0160838A8181831A
:1003E0008B8182838C8183832496CDBFDEBFDF9196
:1003F000CF910895CF93DF93CDB7DEB76C97CDBF84
:10040000DEBFCE0101962CE1FC0111922A95E9F79D
:100410000E94AE05882341F08981803429F48A81C5
:10042000813011F41092062080910620893160F409
:1004300091E0909347068F5F809306206C96CDBF26
:10044000DEBFDF91CF91089581E080934606F6CF1D
:10045000EF92FF920F931F93CF93DF93CDB7DEB749
:10046000A097CDBFDEBFE82E87E790E00E94A211E3
:100470000E94D40C8E01035E1F4FA8010E94E2016E
:100480008D8D9E8DAF8DB8A18B839C83AD83BE83F4
:10049000E98282E08A8321E046E0BE016F5F7F4F00
:1004A00080E40E943C0584E0F82EF8012F2D119283
:1004B0002A95E9F78FEF93ECE9E081509040E04016
:1004C000E1F700C000000E94E70CA8010E94E201D1
:1004D0008D8D9E8DAF8DB8A18B839C83AD83BE83A4
:1004E000E98283E08A8321E046E0BE016F5F7F4FAF
:1004F00080E40E943C05F8011192FA94E9F78DE13D
:1005000090E20E94A417A096CDBFDEBFDF91CF91ED
:100510001F910F91FF90EF900895FF920F931F93FB
:10052000CF93DF93CDB7DEB7A097CDBFDEBFF82E58
:1005300090E080E00E94F0140E9487018E01035E2B
:100540001F4FA8010E94E2018D8D9E8DAF8DB8A135
:100550008B839C83AD83BE83F98284E0F82EFA827C
:1005600021E046E0BE016F5F7F4F80E40E943C05C2
:10057000F8011192FA94E9F78EE290E20E94A41732
:10058000A096CDBFDEBFDF91CF911F910F91FF905D
:100590000895FF920F931F93CF93DF93CDB7DEB7EC
:1005A000A097CDBFDEBFF82E90E080E00E94F0144F
:1005B0000E944F018E01035E1F4FA8010E94E201BD
:1005C0008D8D9E8DAF8DB8A18B839C83AD83BE83B3
:1005D000F98285E08A8321E046E0BE016F5F7F4FAC
:1005E00080E40E943C0584E0F80111928A95E9F7C5
:1005F00080E490E20E94A417A096CDBFDEBFDF91F9
:10060000CF911F910F91FF900895CF93DF93CDB7B6
:10061000DEB7A097CDBFDEBF0E94270160E078E47F
:1006200088EE91E00E94FB030E94BF0188ED97E2F3
:1006300008B618BE84BF909380008091820081FD2F
:10064000FCCF08BE0E949504182F0E94A4041F929C
:100650001F9389E590E29F938F930E94901781E00A
:10066000809341068091A20081608093A2007894DB
:100670002FEB210F2D8F0F900F900F900F902F3099
:1006800088F560E078E488EE91E00E94980C8CE0B8
:100690008093810684E08093860688E080938506B7
:1006A00000E080EB810F8E8F90EA910F9F8F20E901
:1006B000210F28A386E0F82E0E94FA010E94CE01A5
:1006C000BC018D8D8F3008F5812F0E942802A895DE
:1006D0009FEF23EC89E0915020408040E1F700C07B
:1006E0000000EACF80EB810F803150F48AE08093E4
:1006F000010682E08093060688E080930506D0CF4D
:1007000080EA810F803160F6F1CF9E8D903120F428
:10071000812F0E948D02DBCF2F8D203120F4812F7D
:100720000E94C902D4CF88A1803188F61983FA8249
:100730000B8320E043E0BE016F5F7F4F80E40E94A7
:100740003C058EE690E20E94A4170F5FC0CF209177
:100750006B2191E0920F80916A21943610F09DE90F
:10076000920F891710F0891B08958C59FCCFCF93F5
:10077000DF93C82FD1E20E94A7038823D9F080918C
:100780006B21E82FF0E0EA5FFE4DC0838F5F843677
:1007900008F080E09091A200292F2E7F2093A200E4
:1007A00080936B2181E28093A30B9093A200DF9151
:1007B000CF910895D093A30BDECFCF93DF93D82FA3
:1007C000CFEF0E94A703882379F0CC2389F0DA3099
:1007D00019F48DE00E94B7038D2F0E94B70390E0BB
:1007E00080E0DF91CF910895CC2311F0C150E9CF83
:1007F00081E090E0F6CFE0EAF6E098E1928B88E0C5
:100800008583818324E02283E0EAFBE086831782EC
:10081000948380E28383E0EAF0E0828183608283D4
:10082000E7E1FBE287E090E2808391838283938318
:1008300008958091052190910421891710F0891B5A
:1008400008958C59FCCFCF93C09104210E941904C4
:100850008823E1F3EC2FF0E0E056FF4D8081CF5F7D
:10086000C43608F0C0E0C0930421CF9108950E94DF
:10087000230490E008951F920F920FB60F92112457
:100880000BB60F928F939F93EF93FF938091052167
:10089000E82FF0E09091A00BE056FF4D90838F5F22
:1008A000843608F080E0909104219813809305210C
:1008B000FF91EF919F918F910F900BBE0F900FBE04
:1008C0000F901F9018951F920F920FB60F92112440
:1008D0000BB60F922F938F939F93EF93FF9380917B
:1008E0006A2190916B21891312C080E28093A30B3F
:1008F000892F80936A21FF91EF919F918F912F9182
:100900000F900BBE0F900FBE0F901F901895E82F01
:10091000F0E0EA5FFE4D20812093A00B8F5F8436CC
:1009200008F080E08913E5CFE0CFE0E2F6E0108246
:1009300088E1808B818B828B838B848B858B868BEC
:10094000878B808580950895CF93C82F10920108DA
:1009500086E08093000881E08093060884ED90E3B0
:1009600080932608909327080E949D090E94C10B3E
:1009700068E080E30E94F00A80E00E94C10A80E201
:100980000E94CE0A8CE00E94E30A85E40E94B40A29
:1009900080E00E94BA0A0E94630C0E94F40A0E943E
:1009A000A30B0E94B20B8091AA0680648093AA06D2
:1009B00082E08093B6068091A9062091A90690E076
:1009C0008C7F8160822B8093A90685E190E20E9452
:1009D000540A65E170E280E00E946E0A0E94E90B11
:1009E0000E942E0AC093CE22E7E0F3E213823796EC
:1009F00084E2E536F807D1F7CF9108958091CD22B2
:100A00009091CC22891710F0891B08958853FCCF50
:100A10000F931F93CF93DF93CDB7DEB72797CDBF4B
:100A2000DEBF362F27E0EFE7F0E2DE0111960190FE
:100A30000D922A95E1F7FC0120E047E0231308C05E
:100A40002796CDBFDEBFDF91CF911F910F91089503
:100A500051918F0101501109822F642F0E9436128B
:100A6000A1E0B0E0AC0FBD1FA90FB11D8C9185278F
:100A7000D8018C932F5FE2CFEF92FF920F931F93D9
:100A8000CF93DF93CDB7DEB7A097CDBFDEBF4D319B
:100A900008F04DC0FE0133969EE1DF011D929A954C
:100AA000E9F79091CE22998393E09A838C83A7E013
:100AB000B3E2F0E0E0E013969C911397992309F4D8
:100AC00042C09C9198133FC097E09E9FD0019F9F8A
:100AD000B00D1124A95FBC4D15969C91911131C0A8
:100AE0008B838B81882319F1142F072FF62E222355
:100AF00029F0642F8F2D972F0E940805AF2DB02F5E
:100B0000CE0101967C01FC01212F30E0CF018E192E
:100B10009F0982179307F4F00E941D0CF89464E07B
:100B2000610FC7010E944C0C78940E94E90BA096BB
:100B3000CDBFDEBFDF91CF911F910F91FF90EF905E
:100B400008959B83CECF31961796E233F10509F0D5
:100B5000B2CFC7CF8D9184833196D8CFEF92FF92D9
:100B60000F931F93CF93DF937C018C01D0E0C09152
:100B7000CC220E94FE04882399F0EC2FF0E0EC5F79
:100B8000FD4D9081CF5FC83C08F0C0E0C093CC22FF
:100B90009D3031F0F80191938F01DF5FDC3139F73F
:100BA0006D2FC7010E9408058D2FDF91CF911F91F6
:100BB0000F91FF90EF900895A7E0B3E2FD0130E0C0
:100BC00020E093819923D9F09081981318C087E091
:100BD000829FF001839FF00D1124E95FFC4D81811C
:100BE00092810A9681839283158221E0268387343D
:100BF000910554F186E490E08183928308952F5FFC
:100C00003F4F379622333105E1F630E020E013966E
:100C10009C911397911112C097E0929FF001939FBE
:100C2000F00D1124E95FFC4D80838AE090E0818320
:100C3000928381E083831582868308952F5F3F4FDF
:100C400017962233310519F70895E7E0F3E230E013
:100C500020E0908198130AC087E0829FF001839F73
:100C6000F00D1124E95FFC4D848108952F5F3F4F03
:100C700037962233310569F780E00895CF93DF93EB
:100C8000FC0150E040E070E08DE0641775071CF453
:100C9000DF91CF9108959091CD22292F30E06417F4
:100CA000750781F42C5F3D4DD9018C939F5F983C73
:100CB00008F090E02091CC2229139093CD224F5F31
:100CC0005F4FE3CFDF01A40FB51FAC912C5F3D4D0B
:100CD000E901A883EBCFE5E6F4E230E020E0919172
:100CE0009923B9F0D901AB52BD4D9C91981311C015
:100CF000F90185E0EE0FFF1F8A95E1F7E956FB4DFC
:100D000010821182168E178E2B593B4DF9011082DD
:100D100008952F5F3F4F2233310509F70895CF9390
:100D2000DF93EC01E7E0F3E28381882321F0858102
:100D3000841301C01382379684E2E536F807A1F7E1
:100D4000FE01CF018C1B9D0B86179707B8F55081CC
:100D50005523A1F18091CE22851709F454C09181C9
:100D60009F3008F050C0A7E0B3E230E020E01396D7
:100D70008C911397882329F18C91851322C087E0E9
:100D8000829FF001839FF00D1124E95FFC4D868165
:100D9000692F70E06F5F7F4F8617170609F01CF40C
:100DA000848181110BC087E0829FF001839FF00D49
:100DB0001124E95FFC4D45839F5F9683DF91CF91BE
:100DC00008952F5F3F4F17962233310581F6A7E034
:100DD000B3E230E020E013968C91139781110DC09F
:100DE00087E0829FF001839FF00D1124E95FFC4DA5
:100DF000508381E083838483DECF2F5F3F4F17963C
:100E00002233310541F732969CCFCF92DF92EF9299
:100E1000FF920F931F93CF93DF93E5E6EE2EE4E26C
:100E2000FE2EE701F0E0E0E09991992339F08F017F
:100E30000B521D4DD8019C91981721F13196E23348
:100E4000F10591F7F0E0E0E0D7019D917D0191116E
:100E500050C0DF01AB52BD4D8C9391E0DF01AB5927
:100E6000BB4D9C93DF0155E0AA0FBB1F5A95E1F7DC
:100E7000A956BB4D1C9211961C9211975E961D921D
:100E80001C925F97922F92959F702F706F0135E0A3
:100E9000CC0CDD1C3A95E1F7D601A956BB4D3C912F
:100EA000311103C09C9311962C93E601C956DB4D7A
:100EB0003881391323C09981921320C0262FDB017A
:100EC0008E01025E1F4FF801608171819A2F921B83
:100ED0009417E8F06C31710588F0482FC6018756E9
:100EE0009B4D0E948F0618821982D8011D921C9278
:100EF00005C03196E233F10509F0A6CFDF91CF911D
:100F00001F910F91FF90EF90DF90CF9008956C317B
:100F1000710560F47B01EFEFEE1AFE0AF801E08242
:100F2000F1829C916C0F7D1FFB0192831196CBCFB8
:100F30001F920F920FB60F9211240BB60F92EF92E1
:100F4000FF920F931F932F933F934F935F936F9352
:100F50007F938F939F93AF93BF93EF93FF93CF9321
:100F6000DF93CDB7DEB7A397CDBFDEBFCE0101962D
:100F70007C0180E2F70111928A95E9F7AE014F5D9D
:100F80005F4FBE016E5D7F4FCE0183960E94360A91
:100F900089A18823C9F00E94860C182F682FC701E9
:100FA0000E949C0BF89489810E94DC050981802FA6
:100FB0000E942506882341F08A81813020F0833009
:100FC000F8F0833039F17894A396CDBFDEBFDF917E
:100FD000CF91FF91EF91BF91AF919F918F917F91B1
:100FE0006F915F914F913F912F911F910F91FF90C2
:100FF000EF900F900BBE0F900FBE0F901F901895A3
:101000004EEF410F2B81BE016C5F7F4F802F0E94FE
:101010000507D9CF8091CE229B819813D4CF8C81A4
:101020009091CE224CEF410F891739F020E0BE019C
:101030006B5F7F4F0E943C05C6CF642FCE010596A3
:101040000E943E06C0CF6F927F928F929F92AF9286
:10105000BF92CF92DF92EF92FF921F93CF93DF93D5
:10106000CDB7DEB76C97CDBFDEBF109202221092D3
:1010700003227C014C0182EA881A8EEF980A10E064
:10108000D70113968C9113978823D1F114968C91E4
:101090008823B1F121E0210FA1E0B0E0AC0FBD1F2A
:1010A000A10FB11DF70180818C931E5FE1E0F0E09C
:1010B000EC0FFD1FE20FF11DD70116968C91808376
:1010C0001C31F0F0612E712CD0900222AD2CB12C8D
:1010D000C3010E946216F501EE0FFF1FE459FE4D99
:1010E00080839183A301BE016F5F7F4F0E948717AA
:1010F000F501E053FE4D1083D394D092022210E00C
:10110000B7E0EB0EF11C8E149F0409F0B9CF112348
:10111000E9F0A12EB12CF0900222CF2CD12CC501E8
:101120000E946216F601EE0FFF1FE459FE4D808308
:101130009183A501BE016F5F7F4F0E948717F60163
:10114000E053FE4D1083F394F09202226C96CDBFD3
:10115000DEBFDF91CF911F91FF90EF90DF90CF9096
:10116000BF90AF909F908F907F906F900895FF9267
:101170000F931F93CF93DF93CDB7DEB7A097CDBF6B
:10118000DEBF9091032280910222981720F087E021
:1011900093E20E94230830910222DE0113968E0111
:1011A0000F5F1F4F332309F450C08091032290E05A
:1011B000FC01EE0FFF1FE459FE4D50814181FC01FF
:1011C000E053FE4DF080BC01E4E0660F771FEA9526
:1011D000E1F7232F2F70262B01963817190679F186
:1011E00081E09EE1FD0111929A95E9F79091CE225E
:1011F00099838A832B83A52FB42FF8012F2D30E0FC
:10120000CF01801B910B82179307DCF00E941D0C0D
:10121000F89464E06F0DC8010E944C0C78940E9411
:10122000E90B809103228F5F80930322A096CDBFAC
:10123000DEBFDF91CF911F910F91FF90089582E063
:10124000D0CF8D9183833196DBCF8EE1FD0111925A
:101250008A95E9F78091CE22898382E08A8381E0B2
:101260008B830E941D0CF89464E0C8010E944C0C12
:1012700078940E94E90BDACF1F920F920FB60F926B
:1012800011240BB60F921F932F933F934F935F93AD
:101290006F937F938F939F93AF93BF93CF93DF937E
:1012A000EF93FF93C7E0D3E211E089819A8118168A
:1012B00019061CF4019789839A838B81882359F03E
:1012C0008D81811108C089819A81009709F51B825F
:1012D00088810E946B06279684E2C536D80729F7D5
:1012E0000E94B708FF91EF91DF91CF91BF91AF912D
:1012F0009F918F917F916F915F914F913F912F912E
:101300001F910F900BBE0F900FBE0F901F9018955E
:101310004F9714F01C83DFCF1C82E7E0F3E2838158
:10132000882329F095818881981301C0138237960C
:1013300084E2E536F80799F7CECFE0E4F6E088E0FE
:10134000818384E0828382E08183E0EAF6E080E2C8
:10135000818380E4828380E88183E0EAF8E088E1A9
:10136000848380EC8583178281E08683089580934F
:10137000A0088091A10886FFFCCF8091A10880641D
:101380008093A1088091A00808951F93CF93DF93C5
:10139000C0EAD6E010E21E838F710E94B7098FEF7A
:1013A0000E94B7091D83DF91CF911F91089584E0BA
:1013B0000E94C509282F22952F7030E02F5F3F4FE4
:1013C0009AEF929FA001939F500D11248F7090E08F
:1013D00001969C01429FC001439F900D529F900D2A
:1013E00011240895EF92FF920F931F93CF93DF93F1
:1013F0007B01142F90E29093A6068F7180620E9469
:10140000B709082FE701115058F480E28093A50630
:10141000802FDF91CF911F910F91FF90EF90089552
:1014200089910E94B709EFCFFF920F931F93CF933B
:10143000DF93F62EC0EAD6E010E21E838F71806241
:101440000E94B709082F8F2D0E94B7091D83802F96
:10145000DF91CF911F910F91FF90089580E00E943E
:10146000C509682F626080E00C94140AEF92FF9225
:101470000F931F93CF93DF937C018B01EA0160E709
:1014800087E00E94140A982F9072F7019083982F9A
:101490009071F801908380748883DF91CF911F91C0
:1014A0000F91FF90EF900895CF93DF93EC0140915F
:1014B0001A20BC018AE00E94F20940911A20BE0164
:1014C00080E10E94F20960911B20603228F481E1E2
:1014D000DF91CF910C94140A60E2F9CF0F931F9320
:1014E000CF93DF93C82F8B01811110C040911A2038
:1014F00050E08FEC92E20E948717EC2FF0E0EE565E
:10150000FF4D40911A20B80180810AC0873038F51C
:10151000E82FF0E0EE56FF4D808141E0C13069F3E5
:101520000E94F209D0E0FE01E457FF4D60911B20BC
:1015300080810E94140A82E00E94C509CA57DF4DCB
:10154000988161E070E001C0660F9A95EAF7682B18
:1015500082E0DF91CF911F910F910C94140ADF91DB
:10156000CF911F910F910895682F87FD6FE785E058
:101570000C94140A6FE3811101C060E081E00C94C7
:10158000140ACF93C82F86E00E94C509897F6C2F6B
:101590006670682B86E0CF910C94140ACF93C82F05
:1015A00086E00E94C509877D6C2F6872682B86E0F3
:1015B0000E94140A86E00E94C50991E08C1390E015
:1015C000892FCF910895CF93C82F80E00E94C5093D
:1015D000837F6C2F6C70682B80E0CF910C94140A81
:1015E000682B84E00C94140A60E787E00C94140ADA
:1015F000DF92EF92FF920F931F93CF93DF93D82E3A
:10160000E92E842FC0911B20DC2F6C1708F4D62FF5
:101610009091D422CD1B9111C0E090E29093A60648
:101620000E94B709F82E0D2D1E2DD15070F4C15017
:1016300090F480E28093A5068F2DDF91CF911F91CA
:101640000F91FF90EF90DF900895F80181918F0145
:101650000E94B709EACF80E00E94B709E8CF0F9354
:101660001F93CF93DF93EC01162F042F80E00E948D
:10167000C509682F6E7F81FD23C0626080E00E94F3
:10168000140A8FE79EE30197F1F700C000008FE096
:1016900094E00197F1F700C00000402F612FCE01C8
:1016A0000E94F80A80E88093A5069AE69A95F1F7D9
:1016B00000C08093A606DF91CF911F910F910895EE
:1016C00080E00E94140AE3CFDF92EF92FF920F9323
:1016D0001F93CF93DF93D82EE92EC0911B20DC2FD0
:1016E0006C1708F4D62F8091D422CD1B8111C0E055
:1016F00080E28093A60681E60E94B709F82E0D2DA0
:101700001E2DD15070F4C15098F480E28093A5064C
:101710008F2DDF91CF911F910F91FF90EF90DF9070
:1017200008958FEF0E94B709F80181938F01E9CFE7
:101730008FEF0E94B709E7CF0E94640B87E10E94F8
:10174000C509817008951F93CF93DF93C0EAD6E057
:1017500010E21E8382EE0E94B7091D83DF91CF91B4
:101760001F9108951F93CF93DF93C0EAD6E010E254
:101770001E8381EE0E94B7091D83DF91CF911F91D7
:1017800008958FE39CE90197F1F700C000006FE531
:1017900084E00E94140A86E00E94C10A80E20E944E
:1017A000CE0A882319F081E080931C2080E00E94FB
:1017B000CE0A8CE00E94E30A60E08CE10E94140AE9
:1017C0008CE40E94B40A0E94F40A0E94A30B0C94B9
:1017D000B20B80E00E94C509682F81FD29C06360BB
:1017E00080E00E94140A8FE79EE30197F1F700C0A2
:1017F00000008FE094E00197F1F700C0000060E77F
:1018000087E00E94140A40911A206FEC72E28AE08D
:101810000E94F2090E94A30B0E94B20B80E8809301
:10182000A5068FE094E00197F1F700C0000008954D
:10183000616080E00E94140ADCCF80E88093A606F5
:101840000E94A30B0C94B20BCF93DF930E94D70995
:1018500064E670E00E944212EB01209761F087E09D
:101860000E94C5092197EFE1F3E03197F1F700C03D
:101870000000807391F387E00E94C509C82F0E9481
:10188000A30B0E94B20B60E787E00E94140A8C2F22
:101890008072DF91CF91089540EA0E942F0B0C9443
:1018A000240C1F93CF93DF93C0EAD6E010E21E838F
:1018B00080E50E94B70983E70E94B7091D83DF9185
:1018C000CF911F9108958DE10E94C509682F646032
:1018D0008DE10E94140A8DE10E94C50981110AC0A0
:1018E0000E94510C8DE10E94C509682F64608DE152
:1018F0000E94140A8CE10E94C509682F6F638CE175
:101900000E94140A81E08093D42208951F93CF93FC
:10191000DF93C0EAD6E010E21E8380E60E94B7099A
:101920008FEF0E94B7091D83DF91CF911F9108951A
:1019300020EA34E02093112B3093122B27E72093D9
:10194000FC2A1092052B1092062B1092072B109256
:10195000082B1092F82A1092F92A1092FA2A109263
:10196000FB2A1092012B1092022B1092032B109243
:10197000042B1092FD2A1092FE2A1092FF2A109238
:10198000002BE0E8F6E023E0218328E3208B218B85
:1019900020E035E34CE050E00E9456126BEF620FFE
:1019A00080EA94E00C94B4112091052B3091062B21
:1019B0004091072B5091082B6091F82A7091F92AD9
:1019C0008091FA2A9091FB2A0E940C14089560914C
:1019D000012B7091022B8091032B9091042B089581
:1019E000CF93DF93D82FC62F40E06091FC2A8091DF
:1019F000112B9091122B0E94C8116D2F8091112BE9
:101A00009091122B0E9408126C2F8091112B9091B3
:101A1000122B0E9408128091112B9091122BDF91B2
:101A2000CF910C940212CF93C82F40E06091FC2A12
:101A30008091112B9091122B0E94C8116C2F8091D4
:101A4000112B9091122B0E94081241E06091FC2A08
:101A50008091112B9091122B0E94E81161E08091EE
:101A6000112B9091122B0E941612C82F8091112BCE
:101A70009091122B0E9402128C2FCF910895CF9338
:101A8000DF93C82F40E06091FC2A8091112B909148
:101A9000122B0E94C8116C2F8091112B9091122B48
:101AA0000E94081241E06091FC2A8091112B9091D4
:101AB000122B0E94E81160E08091112B9091122B63
:101AC0000E941612D82F61E08091112B9091122B59
:101AD0000E941612C82F8091112B9091122B0E94F8
:101AE0000212CE01DF91CF9108954F925F926F92D3
:101AF0007F928F929F92AF92BF92CF92DF92EF929E
:101B0000FF928DEF0E943F0D80900D2B90900E2B39
:101B1000A0900F2BB090102B2CE2921A21E0A20A79
:101B2000B108B0E0A0E06C017D013EE0CC0CDD1C12
:101B3000EE1CFF1C3A95D1F78091F32A9091F42A7C
:101B4000092E000CAA0BBB0B44E1880F991FAA1F9A
:101B5000BB1F4A95D1F7C81AD90AEA0AFB0AA09115
:101B6000F52AB091F62AA50194010E948312C61AA3
:101B7000D70AE80AF90A80E4D80EE11CF11C6FE0EC
:101B8000F594E794D794C7946A95D1F7A091F22A77
:101B9000B0E00E9478122B013C017BE075946794C1
:101BA000579447947A95D1F720E8520E611C711C26
:101BB000A091F72A0A2E000CBB0B94010E948312FD
:101BC000EAE09595879577956795EA95D1F7A30112
:101BD00092010E9426129B01AC01FAE055954795AF
:101BE00037952795FA95D1F7405E5F4FA091F02A7F
:101BF000B091F12A0E948312705E8F4F9F4FAEE02A
:101C00009595879577956795AA95D1F7A701960140
:101C10000E9426126B017C01BFE095958795779510
:101C20006795BA95D1F79B01AC010E9426129B01E2
:101C3000AC0187E055954795379527958A95D1F75B
:101C4000A091EF2AB0E00E94781224E09595879544
:101C5000779567952A95D1F7C61AD70AE80AF90A3F
:101C6000F7FE03C0C12CD12C7601C701B60161304B
:101C70007105810529E1920724F060E070E080E0C1
:101C800099E12CE095958795779567952A95D1F7F9
:101C90000E94F21420E030E040E85AE30E94D1159F
:101CA0006093012B7093022B8093032B9093042B52
:101CB000FF90EF90DF90CF90BF90AF909F908F906C
:101CC0007F906F905F904F9008950E943F0D9827EE
:101CD0008927982708951F93CF93DF9388E80E9460
:101CE000650EC7EDDAE2888399838AE80E94650E63
:101CF0008A839B838CE80E94650E8C839D838EE88B
:101D00000E94650E8E839F8380E90E94650E8887FE
:101D1000998782E90E94650E8A879B8784E90E94E1
:101D2000650E8C879D8786E90E94650E8E879F874A
:101D300088E90E94650E888B998B8AE90E94650E5E
:101D40008A8B9B8B8CE90E94650E8C8B9D8B8EE918
:101D50000E94650E8E8B9F8B81EA0E94130D888FE7
:101D600081EE0E94650E898F9A8F83EE0E94130D7B
:101D70008B8F84EE0E94130D182F85EE0E94130D99
:101D800090E1199F900111248F70282B2C8F3D8F8B
:101D900086EE0E94130D182F85EE0E94130D90E120
:101DA000199F9001112482958F70282B2E8F3F8FC1
:101DB00087EE0E94130D88A3DF91CF911F910895A4
:101DC000CF92DF92EF92FF92F82E40E06091FC2AD2
:101DD0008091112B9091122B0E94C8116F2D809130
:101DE000112B9091122B0E94081241E06091FC2A65
:101DF0008091112B9091122B0E94E81160E080914C
:101E0000112B9091122B0E94161290E0B0E0A0E0EE
:101E1000CC24D82EE92EFA2E60E08091112B9091DF
:101E2000122B0E941612C82AFE2CED2CDC2CCC247E
:101E300061E08091112B9091122B0E941612C82AFA
:101E40008091112B9091122B0E940212C701B601B2
:101E5000FF90EF90DF90CF9008958F929F92AF9276
:101E6000BF92CF92DF92EF92FF920F931F938AEF70
:101E70000E94E00EE7EDFAE20081118130E020E0FF
:101E8000C72ED82EE92EFF24E7FCFA94C01AD10AF7
:101E9000E20AF30A57E095958795779567955A95E5
:101EA000D1F7000F111F221F331F4B015C01801A55
:101EB000910AA20AB30AA5019401A281B3810E94EA
:101EC00083124B015C01BBE0B594A794979487946F
:101ED000BA95D1F7A7019601C701B6010E94261253
:101EE0009B01AC011CE055954795379527951A95B0
:101EF000D1F7A481B5810E9483129B01AC010EE051
:101F000055954795379527950A95D1F7280D391D91
:101F10004A1D5B1D20930D2B30930E2B40930F2BEE
:101F20005093102BA5E0B0E00E94781260587F4FCC
:101F30008F4F9F4F672F782F892F992787FD9A956D
:101F40000E94F21420E030E048EC52E40E94781441
:101F50006093F82A7093F92A8093FA2A9093FB2AC7
:101F60001F910F91FF90EF90DF90CF90BF90AF90B7
:101F70009F908F9008952F923F924F925F926F9211
:101F80007F928F929F92AF92BF92CF92DF92EF9209
:101F9000FF920F931F93CF93DF93CDB7DEB7649774
:101FA000CDBFDEBF87EF0E94E00E698B7A8B8B8BF3
:101FB0009C8B80910D2B90910E2BA0910F2BB091AB
:101FC000102B6C017D01FF0CCC08DC2C76019C01F0
:101FD000AD016C2D7C2D8C2D9C2D345F4140510921
:101FE000610971098109910929013A014B011C011B
:101FF00059016A017B018C010E948B1229833A836B
:102000004B835C836D837E838F8398873091E82A2E
:102010002091E72A932F990F990BA980BA806A0122
:102020007B01082F1885492F592F692F792F892F68
:102030000E948B1229873A874B875C876D877E8742
:102040008F87988B3091E62A2091E52A932F990F5C
:10205000990B5201630174018101492F592F692F96
:10206000792F892F0E948B1201E10E94B413A98459
:10207000BA84CB84DC84ED84FE840F8518890E94A9
:10208000EA1329873A874B875C876D877E878F871E
:10209000988B3091E02A2091DF2A932F990F990B8A
:1020A0005201630174018101492F592F692F792F42
:1020B000892F0E948B120CE00E94B41329013A016F
:1020C0004B011C013091E22A2091E12A932F990FB4
:1020D000990BA980BA80CB80DC80ED80FE800F81D7
:1020E0001885492F592F692F792F892F0E948B121C
:1020F00008E00E94CD1352016301740181010E9426
:10210000EA1370588F4F9F4F2090DD2A3090DE2ABF
:102110005101C12CD12CE12CF12C00E010E00E94E7
:102120008B1239014A0169837A838B839C834989A5
:102130005A896B897C8934E07595679557954795E1
:102140003A95D1F780E090E0A0E1B0E0841B950BD8
:10215000A60BB70B6C017D01FF0CCC08DC2C7601C3
:102160009C01AD016C2D7C2D8C2D9C2D0FE10E94CE
:10217000B41319012A01B62FA72FF82FE92F309198
:10218000E42A2091E32A932F990F990B492F592F75
:10219000692F792F892F03E20E94B413A984BA848E
:1021A000CB84DC84ED84FE840F8518890E94EA13B9
:1021B00059016A017B018C019101A2016B2F7A2FD9
:1021C0008F2F9E2F0E94F313E5E3AE2EFCE0BF2E6F
:1021D000C12CD12CE12CF12C00E010E00E948B12DC
:1021E00019012A01B62FA72FF82FE92F9301A40177
:1021F00069817A818B819C8101E20E94CD13590112
:102200006A017B018C019101A2016B2F7A2F8F2F24
:102210009E2F0E94E51229833A834B835C836D8352
:102220007E838F8398870DE00E94CD13922E832E9C
:10223000742E652E562E472E382E292E3091EE2ADA
:102240002091ED2A932F990F990BA92CB82CC72C0C
:10225000D62CE52CF42C032D122D492F592F692F44
:10226000792F892F0E948B120E948B1209E10E9404
:10227000CD13A980BA80CB80DC80ED80FE800F81F9
:1022800018850E94EA1319012A013B014C01309183
:10229000EC2A2091EB2A932F990F990B492F592F54
:1022A000692F792F892F0E948B1203E10E94CD1391
:1022B00059016A017B018C019101A201B301C401A2
:1022C0000E94EA1308E00E94CD1359016A017B01C4
:1022D000E82F192F3091EA2A2091E92A932F990F9C
:1022E000990B492F592F692F792F892F04E00E94CC
:1022F000B4130E2F0E94EA130E94EA1420E030E08B
:1023000040E85BE30E94D1156093FD2A7093FE2A9A
:102310008093FF2A9093002B6496CDBFDEBFDF91A0
:10232000CF911F910F91FF90EF90DF90CF90BF90D2
:10233000AF909F908F907F906F905F904F903F9065
:102340002F9008958093FC2A0E946B0E61E082EF2B
:102350000E94F00C6FE384EF0E94F00C0E942D0F9E
:102360000E94750D0C94BB0FFC01A0E8B6E083E061
:1023700011968C93119788E350968C9350975196B1
:102380008C936583138288E0818381E08483089540
:10239000FC01848183708130B9F4660F642B6683FD
:1023A00020E430E002C0220F331F4A95E2F7848117
:1023B00090E082239323892BD1F3848184FF06C08C
:1023C00083E0838382E0089581E0089580E00895AA
:1023D000FC01660F642B668380E490E002C0880FE6
:1023E000991F4A95E2F7248130E028233923232BD3
:1023F000D1F3848184FF04C083E0838382E0089565
:1024000080E0089523E0FC01238321E024830895E4
:10241000FC016783848186FFFDCF848184FF04C033
:1024200083E0838382E0089580E00895FC01848145
:1024300087FFFDCF878197E0611101C092E0938310
:10244000613019F4948190FFFDCF0895DB018F93E3
:102450009F930E947812BF91AF91A29F800D911D12
:10246000A39F900DB29F900D11240895991B79E0C0
:1024700004C0991F961708F0961B881F7A95C9F714
:1024800080950895AA1BBB1B51E107C0AA1FBB1F63
:10249000A617B70710F0A61BB70B881F991F5A95F0
:1024A000A9F780959095BC01CD010895A1E21A2E5F
:1024B000AA1BBB1BFD010DC0AA1FBB1FEE1FFF1FE8
:1024C000A217B307E407F50720F0A21BB30BE40B38
:1024D000F50B661F771F881F991F1A9469F760957F
:1024E0007095809590959B01AC01BD01CF01089539
:1024F0000E94FC13A59F900DB49F900DA49F800D8A
:10250000911D11240895B7FF0C9478120E9478123F
:10251000821B930B0895DF93CF931F930F939A9D84
:10252000F02D219FF00D8B9DF00D8A9DE02DF10D7A
:10253000039FF00D029FE00DF11D4E9DE00DF11D7A
:102540005E9DF00D4F9DF00D7F936F93BF92AF9204
:102550005F934F93D5010E94FC138B01AC01D7010F
:102560000E94FC13EB01E80FF91FD6010E94DA125A
:102570002F913F91D6010E94FC13C60FD71FE81F71
:10258000F91FAF91BF910E94DA122F913F910E94E3
:10259000FC13C60FD71FE81FF91FD6010E94FC13BA
:1025A000E60FF71F9801BE01CF010F911F91CF9148
:1025B000DF9108950E94FC13460F571FC81FD91FB3
:1025C00008F431960895689401C0E894F92FF12B2E
:1025D00012F00C941713A0E0B0E0E1EFF2E10C94DC
:1025E0008913092E059422F40E947313112392F487
:1025F000F0E80F26FFEFE094F09400951095B0946A
:10260000C094D094A194BF0ACF0ADF0AEF0AFF0A50
:102610000F0B1F0B0E94221307FC0E947313CDB7F0
:10262000DEB7ECE00C94A213689401C0E8948F929A
:102630009F92CF93DF930E942213DF91CF919F90BF
:102640008F90089588249924F401E401B0E49F93C5
:10265000AA279A158B049C04ED05FE05CF05D0072B
:10266000A10798F4AD2FDC2FCF2FFE2FE92D982C4A
:10267000892E982F872F762F652F542F432F322F97
:102680002227B85031F7BF9127C01B2EBF91BB271F
:10269000220F331F441F551F661F771F881F991F66
:1026A000881C991CEE1FFF1FCC1FDD1FAA1FBB1F1C
:1026B0008A149B04EC05FD05CE05DF05A007B107D4
:1026C00048F08A189B08EC09FD09CE09DF09A00B28
:1026D000B10B21601A94E1F62EF49401AF01BE0112
:1026E000CD01000C0895609570958095909530957A
:1026F0004095509521953F4F4F4F5F4F6F4F7F4F04
:102700008F4F9F4F08952F923F924F925F926F92FB
:102710007F928F929F92AF92BF92CF92DF92EF9271
:10272000FF920F931F93CF93DF93CDB7DEB7CA1BF2
:10273000DB0BCDBFDEBF19942A88398848885F84B7
:102740006E847D848C849B84AA84B984C884DF8051
:10275000EE80FD800C811B81AA81B981CE0FD11D35
:10276000CDBFDEBFED010895002E083090F0982F08
:10277000872F762F652F542F432F322F2227085073
:10278000F4CF220F331F441F551F661F771F881F6A
:10279000991F0A95B2F7002D089597FD1094002E09
:1027A000083098F00850232F342F452F562F672FCD
:1027B000782F892F912DF4CF15949795879577953C
:1027C000679557954795379527950A95AAF7112448
:1027D000002D08952A0D3B1D4C1D5D1D6E1D7F1D96
:1027E000801F911F08952A193B094C095D096E0944
:1027F0007F09800B910B0895A29FB001B39FC00188
:10280000A39F700D811D1124911DB29F700D811D1C
:102810001124911D08955058BB27AA270E94231404
:102820000C9492150E94841538F00E948B1520F0AC
:1028300039F49F3F19F426F40C9471150EF4E095C9
:10284000E7FB0C946B15E92F0E94A31558F3BA17F8
:10285000620773078407950720F079F4A6F50C94B6
:10286000C5150EF4E0950B2EBA2FA02D0B01B90162
:1028700090010C01CA01A0011124FF27591B99F0F6
:10288000593F50F4503E68F11A16F040A22F232F02
:10289000342F4427585FF3CF469537952795A79552
:1028A000F0405395C9F77EF41F16BA0B620B730BF9
:1028B000840BBAF09150A1F0FF0FBB1F661F771F6A
:1028C000881FC2F70EC0BA0F621F731F841F48F41F
:1028D000879577956795B795F7959E3F08F0B0CFA8
:1028E0009395880F08F09927EE0F9795879508958F
:1028F0000E948C140C9492150E948B1558F00E9423
:10290000841540F029F45F3F29F00C946B155111A8
:102910000C94C6150C9471150E94A31568F39923A5
:10292000B1F3552391F3951B550BBB27AA276217CB
:102930007307840738F09F5F5F4F220F331F441FD8
:10294000AA1FA9F335D00E2E3AF0E0E832D091500C
:102950005040E695001CCAF72BD0FE2F29D0660FF9
:10296000771F881FBB1F261737074807AB07B0E83C
:1029700009F0BB0B802DBF01FF2793585F4F3AF042
:102980009E3F510578F00C946B150C94C6155F3F73
:10299000E4F3983ED4F3869577956795B795F795C8
:1029A0009F5FC9F7880F911D9695879597F90895B0
:1029B000E1E0660F771F881FBB1F6217730784074C
:1029C000BA0720F0621B730B840BBA0BEE1F88F75B
:1029D000E095089597FB16F40E9474150C942E153B
:1029E000E89409C097FB3EF49095809570956195A9
:1029F0007F4F8F4F9F4F9923A9F0F92F96E9BB275F
:102A00009395F695879577956795B795F111F8CFDA
:102A1000FAF4BB0F11F460FF1BC06F5F7F4F8F4F45
:102A20009F4F16C0882311F096E911C0772321F03B
:102A30009EE8872F762F05C0662371F096E8862FD3
:102A400070E060E02AF09A95660F771F881FDAF72A
:102A5000880F9695879597F90895E894F92F96EB46
:102A6000FF2381F0121613061406440B9395F69576
:102A700087957795679557954040FF23B9F71BC019
:102A800099270895882351F49850D2F7872B762FF1
:102A9000652F542F432F322F20E0B1F31216130667
:102AA0001406440B88233AF09A95440F551F661F6D
:102AB000771F881FCAF755234AF4440F551F11F496
:102AC00060FF04C06F5F7F4F8F4F9F4F880F9695B9
:102AD000879597F9089597F99F6780E870E060E01F
:102AE00008959FEF80EC089590958095709560957E
:102AF00050954095309521953F4F4F4F5F4F6F4F09
:102B00007F4F8F4F9F4F089500240A941616170683
:102B100018060906089500240A94121613061406CE
:102B200005060895092E0394000C11F4882352F031
:102B3000BB0F40F4BF2B11F460FF04C06F5F7F4FE9
:102B40008F4F9F4F089557FD9058440F551F59F0D0
:102B50005F3F71F04795880F97FB991F61F09F3F8A
:102B600079F087950895121613061406551FF2CFB3
:102B70004695F1DF08C0161617061806991FF1CF03
:102B800086957105610508940895E894BB2766272A
:102B90007727CB0197F908950E943E1608F48FEF2E
:102BA00008950E94E4150C9492150E94841538F043
:102BB0000E948B1520F0952311F00C946B150C944A
:102BC000711511240C94C6150E94A31570F3959FDE
:102BD000C1F3950F50E0551F629FF001729FBB2714
:102BE000F00DB11D639FAA27F00DB11DAA1F649FB0
:102BF0006627B00DA11D661F829F2227B00DA11D63
:102C0000621F739FB00DA11D621F839FA00D611DE8
:102C1000221F749F3327A00D611D231F849F600D09
:102C2000211D822F762F6A2F11249F5750409AF032
:102C3000F1F088234AF0EE0FFF1FBB1F661F771FBE
:102C4000881F91505040A9F79E3F510580F00C9489
:102C50006B150C94C6155F3FE4F3983ED4F386954C
:102C600077956795B795F795E7959F5FC1F7FE2B29
:102C7000880F911D9695879597F90895990F0008EB
:102C8000550FAA0BE0E8FEEF16161706E807F9073E
:102C9000C0F012161306E407F50798F0621B730BD9
:102CA000840B950B39F40A2661F0232B242B252B5A
:102CB00021F408950A2609F4A140A6958FEF811DFD
:102CC000811D08950F931F93CF93DF938230910559
:102CD00010F482E090E0E091152BF091162B30E09B
:102CE00020E0B0E0A0E0309799F42115310509F417
:102CF0004AC0281B390B24303105D8F58A819B81C5
:102D00006115710589F1FB0182839383FE0111C076
:102D1000408151810281138148175907E0F048171B
:102D2000590799F4109761F012960C931297139625
:102D30001C933296CF01DF91CF911F910F9108958F
:102D40000093152B1093162BF4CF2115310551F05C
:102D50004217530738F0A901DB019A01BD01DF01D9
:102D6000F801C1CFEF01F9CF8093152B9093162B6B
:102D7000CDCFFE01E20FF31F8193919322503109D1
:102D800028833983D7CF2091132B3091142B232BF9
:102D900041F420910220309103202093132B309393
:102DA000142B20910020309101202115310541F490
:102DB0002DB73EB74091042050910520241B350BC0
:102DC000E091132BF091142BE217F307A0F42E1BC4
:102DD0003F0B2817390778F0AC014E5F5F4F24177F
:102DE000350748F04E0F5F1F4093132B5093142B61
:102DF000819391939FCFF0E0E0E09CCFCF93DF935E
:102E00000097E9F0FC01329712821382A091152BF2
:102E1000B091162BED0130E020E01097A1F4208155
:102E20003181820F931F2091132B3091142B28177F
:102E3000390709F061C0E093132BF093142BDF9155
:102E4000CF910895EA01CE17DF07E8F54A815B814B
:102E50009E0141155105B1F7E901EA83FB834991D0
:102E60005991C40FD51FEC17FD0761F48081918142
:102E70000296840F951FE90188839983828193814B
:102E80008A839B83F0E0E0E012968D919C911397EA
:102E90000097B9F52D913C911197CD010296820FC3
:102EA000931F2091132B3091142B2817390739F6D3
:102EB000309751F51092152B1092162BA093132BCF
:102EC000B093142BBCCFC283D38340815181840F34
:102ED000951FC817D90761F44E5F5F4F88819981AC
:102EE000480F591F408351838A819B81828393833A
:102EF0002115310509F0B0CFE093152BF093162B77
:102F00009ECFFD01DC01C0CF12821382D7CFFB011F
:102F1000DC0102C001900D9241505040D8F7089555
:102F2000CF93DF93CDB7DEB7AE014A5F5F4FFA01B3
:102F300061917191AF018091192B90911A2B0E9490
:102F4000CF17DF91CF9108950F931F93CF93DF9306
:102F5000E091192BF0911A2B2381EC0110E000E095
:102F600021FD08C00FEF1FEF14C01995892B11F038
:102F70000FEF1FEF89916091192B70911A2BDB01D4
:102F80001896ED91FC918111F0CF8AE01995892B6B
:102F900049F7C801DF91CF911F910F9108952F92AA
:102FA0003F924F925F926F927F928F929F92AF92D9
:102FB000BF92CF92DF92EF92FF920F931F93CF9326
:102FC000DF93CDB7DEB72B97CDBFDEBF7C013B01D2
:102FD0008A01FC0116821782838181FFDAC1CE014A
:102FE00001965C01F7019381F30193FD859193FFB5
:102FF00081913F01882309F453C1853239F493FD4F
:10300000859193FF81913F01853229F4B70190E0CA
:103010000E94E219E7CF912C212C312CFFE1F3150E
:1030200038F08B3211F190F4803209F1833229F1BA
:1030300037FC3CC020ED280F2A3050F536FE20C06A
:103040008AE0989E200D1124922E06C08D3291F0B8
:10305000803371F7689430F8F30193FD859193FF05
:1030600081913F018111DACF21C0689431F86894D1
:1030700032F8F2CF689433F8EFCF689434F8ECCF9D
:10308000EAE02E9E200D1124222E689435F8E4CF1C
:103090008E3229F436FC04C1689436F8DDCF8C36C4
:1030A00019F4689437F8D8CF8836B1F2982F9F7DFD
:1030B00095549330E0F08336A1F18337C1F1833525
:1030C00009F063C02801F2E04F0E511CF801C080E6
:1030D000D180692D70E036FC02C06FEF7FEFC60132
:1030E0000E94CC194C01689437F882010AC00C5F29
:1030F0001F4FFFE3F98388248394912C6501E894A2
:1031000037F833FE2DC0522C8114910471F55520EF
:1031100009F468CFB70180E290E00E94E2195A9466
:10312000F6CFF801808189830E5F1F4FE4CF28011D
:10313000F2E04F0E511CF801C080D180692D70E083
:1031400036FC02C06FEF7FEFC6010E94D7194C0119
:103150008201D5CFB70180E290E00E94E2192A9463
:103160002814190409F0B0F7CECFF60137FC859189
:1031700037FE81916F01B70190E00E94E219511072
:103180005A94F1E08F1A9108BFCF843619F089362E
:1031900009F077C0F80137FE6BC0608171818281D0
:1031A00093810C5F1F4FF32DFF763F2E97FF09C0D1
:1031B00090958095709561957F4F8F4F9F4F689444
:1031C00037F82AE030E0A5010E94121AC82ECA186A
:1031D0008C2C432C36FE0CC0E89440F8C91440F403
:1031E00034FE05C032FC03C0F32DFE7E4F2E892C29
:1031F00044FEA7C0FE01EC0DF11D8081803309F073
:1032000099C0242D297E422E842D8870582E43FC8F
:10321000A7C040FEA1C09C2C821418F42C0C922C48
:10322000981844FEA3C0B70180E390E00E94E21921
:1032300042FE09C088E790E041FE02C088E590E0C8
:10324000B7010E94E219C91408F49CC0CA94D12C99
:103250009FEFC91AD90ACA0CDB1CF60182916F01D3
:10326000B70190E00E94E219AC14BD04B1F74FCF52
:1032700060817181072E000C880B990B0E5F1F4F28
:1032800092CFD32CE894D4F82AE030E08537C9F106
:10329000232D297FD22E8F3691F1D8F4883539F13C
:1032A000F701868197812B96CDBFDEBFDF91CF914D
:1032B0001F910F91FF90EF90DF90CF90BF90AF9054
:1032C0009F908F907F906F905F904F903F902F9046
:1032D0000895803749F0883719F7D4FE02C0689402
:1032E000D2F820E130E00DC06894D4F8F6CF34FE77
:1032F00003C0822F8660D82E20E132E002C028E091
:1033000030E0F801D7FE0FC0608171818281938126
:103310000C5F1F4FA5010E94121AC82ECA183D2C1F
:10332000E89437F855CF6081718190E080E00E5FBE
:103330001F4FF0CF42FC02C0839466CF83948394E6
:1033400063CF842D867809F45FCFF6CFB70180E292
:1033500090E00E94E21983948214C0F3512C61CF53
:10336000522C5818821408F45CCFF8CF842D86783C
:1033700009F469CF8BE241FE80E247FC8DE2B701A0
:1033800090E05FCFB70180E390E00E94E2199A9449
:103390005ACF8FEF9FEF87CFFC01059061507040AF
:1033A0000110D8F7809590958E0F9F1F0895FC010E
:1033B0006150704001900110D8F7809590958E0F64
:1033C0009F1F08950F931F93CF93DF93182F092FFB
:1033D000EB018B8181FD09C01FEF0FEF812F902F33
:1033E000DF91CF911F910F91089582FF14C02E811C
:1033F0003F818C819D81281739073CF4E881F98150
:10340000CF0101968883998310838E819F810196D5
:103410008E839F83E3CFE885F985812F1995892BCA
:10342000A1F3DACFFA01AA27283051F1203181F136
:10343000E8946F936E7F6E5F7F4F8F4F9F4FAF4FBC
:10344000B1E03ED0B4E03CD0670F781F891F9A1FCF
:10345000A11D680F791F8A1F911DA11D6A0F711D83
:10346000811D911DA11D20D009F468943F912AE08F
:10347000269F11243019305D3193DEF6CF01089577
:10348000462F4770405D4193B3E00FD0C9F7F6CFA8
:10349000462F4F70405D4A3318F0495D31FD405270
:1034A000419302D0A9F7EACFB4E0A6959795879506
:1034B00077956795BA95C9F70097610571050895E5
:1034C0009B01AC010A2E0694579547953795279591
:1034D000BA95C9F7620F731F841F951FA01D089529
:0434E000F894FFCF8E
:1034E40000001D2B2000FE0000000300000000DD92
:1034F4000337040000304772704505200173656E80
:10350400642074656D70207468696E6773007365F8
:103514006E64206C69676874207468696E677300F0
:1035240073656E642067726F756E6420776174656D
:1035340072207468696E677300666F756E642061CB
:103544006464726573733A20253038750A007365B4
:103554006E642074657374207468696E6773004ABE
:10356400544C6A746C000001020304051112131414
:0835740015160A0B0C0D0E0FD9
:00000001FF
